{
  "abi": [
    {
      "anonymous": false,
      "inputs": [
        {
          "indexed": false,
          "internalType": "address",
          "name": "_newActivePoolAddress",
          "type": "address"
        }
      ],
      "name": "ActivePoolAddressChanged",
      "type": "event"
    },
    {
      "anonymous": false,
      "inputs": [
        {
          "indexed": false,
          "internalType": "address",
          "name": "_newBorrowerOperationsAddress",
          "type": "address"
        }
      ],
      "name": "BorrowerOperationsAddressChanged",
      "type": "event"
    },
    {
      "anonymous": false,
      "inputs": [
        {
          "indexed": false,
          "internalType": "address",
          "name": "_newDefaultPoolAddress",
          "type": "address"
        }
      ],
      "name": "DefaultPoolAddressChanged",
      "type": "event"
    },
    {
      "anonymous": false,
      "inputs": [
        {
          "indexed": false,
          "internalType": "uint256",
          "name": "_newBalance",
          "type": "uint256"
        }
      ],
      "name": "ETHBalanceUpdated",
      "type": "event"
    },
    {
      "anonymous": false,
      "inputs": [
        {
          "indexed": false,
          "internalType": "address",
          "name": "_newGHOAddress",
          "type": "address"
        }
      ],
      "name": "GHOAddressChanged",
      "type": "event"
    },
    {
      "anonymous": false,
      "inputs": [
        {
          "indexed": false,
          "internalType": "uint256",
          "name": "_newBalance",
          "type": "uint256"
        }
      ],
      "name": "GHOBalanceUpdated",
      "type": "event"
    },
    {
      "anonymous": false,
      "inputs": [
        {
          "indexed": false,
          "internalType": "address",
          "name": "_sender",
          "type": "address"
        },
        {
          "indexed": false,
          "internalType": "uint256",
          "name": "_amount",
          "type": "uint256"
        }
      ],
      "name": "InterestRepaid",
      "type": "event"
    },
    {
      "anonymous": false,
      "inputs": [
        {
          "indexed": false,
          "internalType": "address",
          "name": "_newLPPositionsManagerAddress",
          "type": "address"
        }
      ],
      "name": "LPPositionsManagerAddressChanged",
      "type": "event"
    },
    {
      "anonymous": false,
      "inputs": [
        {
          "indexed": false,
          "internalType": "uint256",
          "name": "_tokenId",
          "type": "uint256"
        },
        {
          "indexed": false,
          "internalType": "uint128",
          "name": "liquidity",
          "type": "uint128"
        }
      ],
      "name": "LiquidityDecreased",
      "type": "event"
    },
    {
      "anonymous": false,
      "inputs": [
        {
          "indexed": false,
          "internalType": "uint256",
          "name": "_tokenId",
          "type": "uint256"
        },
        {
          "indexed": false,
          "internalType": "uint128",
          "name": "liquidity",
          "type": "uint128"
        }
      ],
      "name": "LiquidityIncreased",
      "type": "event"
    },
    {
      "anonymous": false,
      "inputs": [
        {
          "indexed": false,
          "internalType": "address",
          "name": "_to",
          "type": "address"
        },
        {
          "indexed": false,
          "internalType": "uint256",
          "name": "_tokenId",
          "type": "uint256"
        }
      ],
      "name": "LpSent",
      "type": "event"
    },
    {
      "anonymous": false,
      "inputs": [
        {
          "indexed": false,
          "internalType": "int256",
          "name": "_mintedSupply",
          "type": "int256"
        }
      ],
      "name": "MintedSupplyUpdated",
      "type": "event"
    },
    {
      "anonymous": false,
      "inputs": [
        {
          "indexed": true,
          "internalType": "address",
          "name": "previousOwner",
          "type": "address"
        },
        {
          "indexed": true,
          "internalType": "address",
          "name": "newOwner",
          "type": "address"
        }
      ],
      "name": "OwnershipTransferred",
      "type": "event"
    },
    {
      "anonymous": false,
      "inputs": [
        {
          "indexed": false,
          "internalType": "uint256",
          "name": "_tokenId",
          "type": "uint256"
        }
      ],
      "name": "PositionBurned",
      "type": "event"
    },
    {
      "anonymous": false,
      "inputs": [
        {
          "indexed": false,
          "internalType": "uint256",
          "name": "_tokenId",
          "type": "uint256"
        }
      ],
      "name": "PositionMinted",
      "type": "event"
    },
    {
      "anonymous": false,
      "inputs": [
        {
          "indexed": false,
          "internalType": "address",
          "name": "_account",
          "type": "address"
        },
        {
          "indexed": false,
          "internalType": "uint256",
          "name": "_tokenId",
          "type": "uint256"
        }
      ],
      "name": "PositionSent",
      "type": "event"
    },
    {
      "anonymous": false,
      "inputs": [
        {
          "indexed": false,
          "internalType": "address",
          "name": "_newStabilityPoolAddress",
          "type": "address"
        }
      ],
      "name": "StabilityPoolAddressChanged",
      "type": "event"
    },
    {
      "anonymous": false,
      "inputs": [
        {
          "indexed": false,
          "internalType": "address",
          "name": "_token",
          "type": "address"
        },
        {
          "indexed": false,
          "internalType": "address",
          "name": "_account",
          "type": "address"
        },
        {
          "indexed": false,
          "internalType": "uint256",
          "name": "_amount",
          "type": "uint256"
        }
      ],
      "name": "TokenSent",
      "type": "event"
    },
    {
      "inputs": [],
      "name": "GHO",
      "outputs": [
        {
          "internalType": "contract IGHOToken",
          "name": "",
          "type": "address"
        }
      ],
      "stateMutability": "view",
      "type": "function"
    },
    {
      "inputs": [],
      "name": "NAME",
      "outputs": [
        {
          "internalType": "string",
          "name": "",
          "type": "string"
        }
      ],
      "stateMutability": "view",
      "type": "function"
    },
    {
      "inputs": [],
      "name": "borrowerOperationsAddress",
      "outputs": [
        {
          "internalType": "address",
          "name": "",
          "type": "address"
        }
      ],
      "stateMutability": "view",
      "type": "function"
    },
    {
      "inputs": [
        {
          "internalType": "uint256",
          "name": "tokenId",
          "type": "uint256"
        }
      ],
      "name": "burnPosition",
      "outputs": [],
      "stateMutability": "nonpayable",
      "type": "function"
    },
    {
      "inputs": [
        {
          "internalType": "uint256",
          "name": "_tokenId",
          "type": "uint256"
        },
        {
          "internalType": "uint128",
          "name": "_liquidityToRemove",
          "type": "uint128"
        },
        {
          "internalType": "address",
          "name": "sender",
          "type": "address"
        }
      ],
      "name": "decreaseLiquidity",
      "outputs": [
        {
          "internalType": "uint256",
          "name": "amount0",
          "type": "uint256"
        },
        {
          "internalType": "uint256",
          "name": "amount1",
          "type": "uint256"
        }
      ],
      "stateMutability": "nonpayable",
      "type": "function"
    },
    {
      "inputs": [
        {
          "internalType": "uint256",
          "name": "_amount",
          "type": "uint256"
        },
        {
          "internalType": "address",
          "name": "sender",
          "type": "address"
        }
      ],
      "name": "decreaseMintedSupply",
      "outputs": [],
      "stateMutability": "nonpayable",
      "type": "function"
    },
    {
      "inputs": [
        {
          "components": [
            {
              "internalType": "uint256",
              "name": "tokenId",
              "type": "uint256"
            },
            {
              "internalType": "address",
              "name": "recipient",
              "type": "address"
            },
            {
              "internalType": "uint128",
              "name": "amount0Max",
              "type": "uint128"
            },
            {
              "internalType": "uint128",
              "name": "amount1Max",
              "type": "uint128"
            }
          ],
          "internalType": "struct INonfungiblePositionManager.CollectParams",
          "name": "params",
          "type": "tuple"
        }
      ],
      "name": "feesOwed",
      "outputs": [
        {
          "internalType": "uint256",
          "name": "amount0",
          "type": "uint256"
        },
        {
          "internalType": "uint256",
          "name": "amount1",
          "type": "uint256"
        }
      ],
      "stateMutability": "nonpayable",
      "type": "function"
    },
    {
      "inputs": [],
      "name": "getCollateralValue",
      "outputs": [
        {
          "internalType": "uint256",
          "name": "sum",
          "type": "uint256"
        }
      ],
      "stateMutability": "view",
      "type": "function"
    },
    {
      "inputs": [],
      "name": "getMaxSupply",
      "outputs": [
        {
          "internalType": "uint256",
          "name": "",
          "type": "uint256"
        }
      ],
      "stateMutability": "view",
      "type": "function"
    },
    {
      "inputs": [],
      "name": "getMintedSupply",
      "outputs": [
        {
          "internalType": "uint256",
          "name": "",
          "type": "uint256"
        }
      ],
      "stateMutability": "view",
      "type": "function"
    },
    {
      "inputs": [
        {
          "internalType": "address",
          "name": "sender",
          "type": "address"
        },
        {
          "internalType": "uint256",
          "name": "_tokenId",
          "type": "uint256"
        },
        {
          "internalType": "uint256",
          "name": "amountAdd0",
          "type": "uint256"
        },
        {
          "internalType": "uint256",
          "name": "amountAdd1",
          "type": "uint256"
        }
      ],
      "name": "increaseLiquidity",
      "outputs": [
        {
          "internalType": "uint128",
          "name": "liquidity",
          "type": "uint128"
        },
        {
          "internalType": "uint256",
          "name": "amount0",
          "type": "uint256"
        },
        {
          "internalType": "uint256",
          "name": "amount1",
          "type": "uint256"
        }
      ],
      "stateMutability": "nonpayable",
      "type": "function"
    },
    {
      "inputs": [
        {
          "internalType": "uint256",
          "name": "_amount",
          "type": "uint256"
        },
        {
          "internalType": "address",
          "name": "sender",
          "type": "address"
        }
      ],
      "name": "increaseMintedSupply",
      "outputs": [],
      "stateMutability": "nonpayable",
      "type": "function"
    },
    {
      "inputs": [],
      "name": "lpPositionsManagerAddress",
      "outputs": [
        {
          "internalType": "address",
          "name": "",
          "type": "address"
        }
      ],
      "stateMutability": "view",
      "type": "function"
    },
    {
      "inputs": [
        {
          "components": [
            {
              "internalType": "address",
              "name": "token0",
              "type": "address"
            },
            {
              "internalType": "address",
              "name": "token1",
              "type": "address"
            },
            {
              "internalType": "uint24",
              "name": "fee",
              "type": "uint24"
            },
            {
              "internalType": "int24",
              "name": "tickLower",
              "type": "int24"
            },
            {
              "internalType": "int24",
              "name": "tickUpper",
              "type": "int24"
            },
            {
              "internalType": "uint256",
              "name": "amount0Desired",
              "type": "uint256"
            },
            {
              "internalType": "uint256",
              "name": "amount1Desired",
              "type": "uint256"
            },
            {
              "internalType": "uint256",
              "name": "amount0Min",
              "type": "uint256"
            },
            {
              "internalType": "uint256",
              "name": "amount1Min",
              "type": "uint256"
            },
            {
              "internalType": "address",
              "name": "recipient",
              "type": "address"
            },
            {
              "internalType": "uint256",
              "name": "deadline",
              "type": "uint256"
            }
          ],
          "internalType": "struct INonfungiblePositionManager.MintParams",
          "name": "params",
          "type": "tuple"
        }
      ],
      "name": "mintPosition",
      "outputs": [
        {
          "internalType": "uint256",
          "name": "tokenId",
          "type": "uint256"
        }
      ],
      "stateMutability": "nonpayable",
      "type": "function"
    },
    {
      "inputs": [
        {
          "internalType": "address",
          "name": "",
          "type": "address"
        },
        {
          "internalType": "address",
          "name": "",
          "type": "address"
        },
        {
          "internalType": "uint256",
          "name": "",
          "type": "uint256"
        },
        {
          "internalType": "bytes",
          "name": "",
          "type": "bytes"
        }
      ],
      "name": "onERC721Received",
      "outputs": [
        {
          "internalType": "bytes4",
          "name": "",
          "type": "bytes4"
        }
      ],
      "stateMutability": "pure",
      "type": "function"
    },
    {
      "inputs": [],
      "name": "owner",
      "outputs": [
        {
          "internalType": "address",
          "name": "",
          "type": "address"
        }
      ],
      "stateMutability": "view",
      "type": "function"
    },
    {
      "inputs": [],
      "name": "renounceOwnership",
      "outputs": [],
      "stateMutability": "nonpayable",
      "type": "function"
    },
    {
      "inputs": [
        {
          "internalType": "address",
          "name": "sender",
          "type": "address"
        },
        {
          "internalType": "uint256",
          "name": "amount",
          "type": "uint256"
        }
      ],
      "name": "repayInterestFromUserToProtocol",
      "outputs": [],
      "stateMutability": "nonpayable",
      "type": "function"
    },
    {
      "inputs": [
        {
          "internalType": "address",
          "name": "_account",
          "type": "address"
        },
        {
          "internalType": "uint256",
          "name": "_tokenId",
          "type": "uint256"
        }
      ],
      "name": "sendPosition",
      "outputs": [],
      "stateMutability": "nonpayable",
      "type": "function"
    },
    {
      "inputs": [
        {
          "internalType": "address",
          "name": "_token",
          "type": "address"
        },
        {
          "internalType": "address",
          "name": "_account",
          "type": "address"
        },
        {
          "internalType": "uint256",
          "name": "_amount",
          "type": "uint256"
        }
      ],
      "name": "sendToken",
      "outputs": [],
      "stateMutability": "nonpayable",
      "type": "function"
    },
    {
      "inputs": [
        {
          "internalType": "address",
          "name": "_borrowerOperationsAddress",
          "type": "address"
        },
        {
          "internalType": "address",
          "name": "_lpPositionsManagerAddress",
          "type": "address"
        },
        {
          "internalType": "address",
          "name": "_GHOAddress",
          "type": "address"
        }
      ],
      "name": "setAddresses",
      "outputs": [],
      "stateMutability": "nonpayable",
      "type": "function"
    },
    {
      "inputs": [
        {
          "internalType": "uint256",
          "name": "_newMaxSupply",
          "type": "uint256"
        }
      ],
      "name": "setNewMaxSupply",
      "outputs": [],
      "stateMutability": "nonpayable",
      "type": "function"
    },
    {
      "inputs": [
        {
          "internalType": "address",
          "name": "newOwner",
          "type": "address"
        }
      ],
      "name": "transferOwnership",
      "outputs": [],
      "stateMutability": "nonpayable",
      "type": "function"
    }
  ],
  "bytecode": {
    "object": "0x6080604052600560015560001960035534801561001b57600080fd5b506100253361002a565b61007a565b600080546001600160a01b038381166001600160a01b0319831681178455604051919092169283917f8be0079c531659141344cd1fd0a4f28419497f9722a3daafe3b4186f6b6457e09190a35050565b612260806100896000396000f3fe608060405234801561001057600080fd5b506004361061014d5760003560e01c80635f1ee5c4116100c3578063b7f8cf9b1161007c578063b7f8cf9b14610328578063b8d008f31461033b578063bcb64b181461034e578063c047e56314610361578063f2113b5a14610369578063f2fde38b1461037157600080fd5b80635f1ee5c4146102a0578063715018a6146102b3578063726dfbe6146102bb5780638da5cb5b146102ce578063a3f4df7e146102df578063b7c7d9a71461031557600080fd5b806338ca63bc1161011557806338ca63bc1461021757806341ec3a851461022a57806341f787bb1461023d57806347f06fc4146102685780634c0f38c21461027b5780634f5e933f1461028d57600080fd5b80630fe345ec14610152578063150b7a021461017f578063297fabf5146101b75780632fdcfbd2146101ef578063363bf96414610204575b600080fd5b6101656101603660046119ab565b610384565b604080519283526020830191909152015b60405180910390f35b61019e61018d3660046119ed565b630a85bd0160e11b95945050505050565b6040516001600160e01b03199091168152602001610176565b6101ca6101c5366004611a8c565b610766565b604080516001600160801b039094168452602084019290925290820152606001610176565b6102026101fd366004611ac7565b6109f5565b005b610202610212366004611b08565b610b22565b610202610225366004611b38565b610c24565b610202610238366004611b51565b610ceb565b600554610250906001600160a01b031681565b6040516001600160a01b039091168152602001610176565b610202610276366004611b7d565b610dea565b6003545b604051908152602001610176565b61020261029b366004611b51565b610ece565b61027f6102ae366004611c4d565b610fcd565b6102026110f2565b6101656102c9366004611d07565b611106565b6000546001600160a01b0316610250565b6103086040518060400160405280600a8152602001691058dd1a5d99541bdbdb60b21b81525081565b6040516101769190611de1565b610202610323366004611b38565b6111b4565b600454610250906001600160a01b031681565b600754610250906001600160a01b031681565b61020261035c366004611b7d565b6111c1565b61027f61129d565b60025461027f565b61020261037f366004611df4565b61142a565b6040805160a0810182528481526001600160801b038481166020830190815260008385018181526060850182815242608087019081529651630624e65f60e11b815295516004870152925190931660248501529151604484015251606483015291516084820152819060008051602061220b83398151915290630c49ccbe9060a40160408051808303816000875af1158015610424573d6000803e3d6000fd5b505050506040513d601f19601f820116820180604052508101906104489190611e11565b5050604080516080810182528681523060208201526001600160801b038183018190526060820152905163fc6f786560e01b815260008051602061220b8339815191529163fc6f78659161049f9190600401611e35565b60408051808303816000875af11580156104bd573d6000803e3d6000fd5b505050506040513d601f19601f820116820180604052508101906104e19190611e11565b60408051808201909152600b81526a616d6f756e74303a20257360a81b6020820152919350915061051290836114a8565b61053f6040518060400160405280600b81526020016a616d6f756e74313a20257360a81b815250826114a8565b60065460405163eb02c30160e01b8152600481018790526105ba916001600160a01b03169063eb02c3019060240161018060405180830381865afa15801561058b573d6000803e3d6000fd5b505050506040513d601f19601f820116820180604052508101906105af9190611eb3565b6020015184846114f1565b60065460405163eb02c30160e01b815260048101879052610635916001600160a01b03169063eb02c3019060240161018060405180830381865afa158015610606573d6000803e3d6000fd5b505050506040513d601f19601f8201168201806040525081019061062a9190611eb3565b6040015184836114f1565b60065460405163eb02c30160e01b8152600481018790526001600160a01b03909116906323f0f0af9087908790849063eb02c3019060240161018060405180830381865afa15801561068b573d6000803e3d6000fd5b505050506040513d601f19601f820116820180604052508101906106af9190611eb3565b60c001516106bd9190611fa2565b6040516001600160e01b031960e085901b16815260048101929092526001600160801b03166024820152604401600060405180830381600087803b15801561070457600080fd5b505af1158015610718573d6000803e3d6000fd5b5050604080518881526001600160801b03881660208201527f09206854cc97af5837e67b27b1369431c97a01dedecdbff58d7d75b95cda34b8935001905060405180910390a1935093915050565b600454600090819081906001600160a01b0316331461078457600080fd5b60065460405163eb02c30160e01b8152600481018890526000916001600160a01b03169063eb02c3019060240161018060405180830381865afa1580156107cf573d6000803e3d6000fd5b505050506040513d601f19601f820116820180604052508101906107f39190611eb3565b6020015160065460405163eb02c30160e01b8152600481018a90529192506000916001600160a01b039091169063eb02c3019060240161018060405180830381865afa158015610847573d6000803e3d6000fd5b505050506040513d601f19601f8201168201806040525081019061086b9190611eb3565b60400151905061087d828a308a6115f1565b610889818a30896115f1565b6108a28260008051602061220b833981519152896116ff565b6108bb8160008051602061220b833981519152886116ff565b6040805160c08101825289815260208101898152818301898152600060608401818152608085019182524260a08601908152955163219f5d1760e01b815294516004860152925160248501529051604484015290516064830152516084820152905160a482015260008051602061220b8339815191529063219f5d179060c4016060604051808303816000875af115801561095a573d6000803e3d6000fd5b505050506040513d601f19601f8201168201806040525081019061097e9190611fc9565b91965094509250610999828a610994878b612000565b6114f1565b6109a8818a610994868a612000565b604080518981526001600160801b03871660208201527fc8d05b8afe2669ce41cf38a2fd03f78eda311e9611540ea93ce806cd48de25e8910160405180910390a150509450945094915050565b6004546001600160a01b0316331480610a1857506005546001600160a01b031633145b610a2157600080fd5b6004546001600160a01b0316331480610a4457506005546001600160a01b031633145b610a4d57600080fd5b6000610a69826001546064610a629190612000565b60646117f8565b60405163a9059cbb60e01b81526001600160a01b038581166004830152602482018390529192509085169063a9059cbb906044016020604051808303816000875af1158015610abc573d6000803e3d6000fd5b505050506040513d601f19601f82011682018060405250810190610ae09190612019565b507f3ddb739c68dd901671f09fbe0bc2344c179ed55f8e8110a7c7a3c5665bd9518d848484604051610b149392919061203b565b60405180910390a150505050565b610b2a6118ab565b600480546001600160a01b038581166001600160a01b031992831681179093556005805486831690841681179091556007805492861692841692909217909155600680549092161790556040519081527f3ca631ffcd2a9b5d9ae18543fc82f58eb4ca33af9e6ab01b7a8e95331e6ed9859060200160405180910390a16040516001600160a01b03831681527fca22f0accfacdc2ef491a88279142950b7e7f2b23c1b4c706f4eedf1653b1d6f9060200160405180910390a16040516001600160a01b03821681527f27d79f14110b6194f8cb0e02dc548de4df0f82eb020c9d9d0549099333b8a04c9060200160405180910390a1505050565b6004546001600160a01b0316331480610c4757506005546001600160a01b031633145b610c5057600080fd5b604051630852cd8d60e31b81526004810182905260008051602061220b833981519152906342966c6890602401600060405180830381600087803b158015610c9757600080fd5b505af1158015610cab573d6000803e3d6000fd5b505050507f65d33d8ef62a81711748bbe2a7b67aef94d1a9af04a2690d3a4dfd13d9c1d22b81604051610ce091815260200190565b60405180910390a150565b6004546001600160a01b0316331480610d0e57506005546001600160a01b031633145b610d1757600080fd5b6007546040516323b872dd60e01b81526001600160a01b03909116906323b872dd90610d5f9085907353a5a93e8b82030c3a52e9ff36801956b866133390869060040161203b565b6020604051808303816000875af1158015610d7e573d6000803e3d6000fd5b505050506040513d601f19601f82011682018060405250810190610da29190612019565b50604080516001600160a01b0384168152602081018390527feff139234683b4c380101256c460e14460d28453ed77503b5eb3364e9d9b92c591015b60405180910390a15050565b6004546001600160a01b0316331480610e0d57506005546001600160a01b031633145b610e1657600080fd5b8160026000828254610e289190612000565b9091555050600754604051632770a7eb60e21b81526001600160a01b0383811660048301526024820185905290911690639dc29fac90604401600060405180830381600087803b158015610e7b57600080fd5b505af1158015610e8f573d6000803e3d6000fd5b505050507fee60936059464ce61794d92d41920e223b4618f704505d9d1eb6fd1cead03e48600254610ec09061205f565b604051908152602001610dde565b6004546001600160a01b0316331480610ef157506005546001600160a01b031633145b610efa57600080fd5b6004546001600160a01b0316331480610f1d57506005546001600160a01b031633145b610f2657600080fd5b6040516323b872dd60e01b815260008051602061220b833981519152906323b872dd90610f5b9030908690869060040161203b565b600060405180830381600087803b158015610f7557600080fd5b505af1158015610f89573d6000803e3d6000fd5b5050604080516001600160a01b0386168152602081018590527f36d76afb37d97ac28c642429b59b3a1fed16d56a6b6ddb9626ff787a0c2f46dd9350019050610dde565b6004546000906001600160a01b0316331480610ff357506005546001600160a01b031633145b610ffc57600080fd5b61101d826000015160008051602061220b8339815191528460a001516116ff565b61103e826020015160008051602061220b8339815191528460c001516116ff565b604051634418b22b60e11b815260008051602061220b8339815191529063883164569061106f90859060040161207b565b6080604051808303816000875af115801561108e573d6000803e3d6000fd5b505050506040513d601f19601f820116820180604052508101906110b2919061213f565b50506040518281529192507face8748d23af65e86cf543d0298345b95115752e382befe3e832eacd1508adb091602001905060405180910390a15b919050565b6110fa6118ab565b6111046000611905565b565b60045460009081906001600160a01b031633148061112e57506005546001600160a01b031633145b61113757600080fd5b60405163fc6f786560e01b815260008051602061220b8339815191529063fc6f786590611168908690600401611e35565b60408051808303816000875af1158015611186573d6000803e3d6000fd5b505050506040513d601f19601f820116820180604052508101906111aa9190611e11565b9092509050915091565b6111bc6118ab565b600355565b6004546001600160a01b03163314806111e457506005546001600160a01b031633145b6111ed57600080fd5b81600260008282546111ff919061217d565b90915550506007546040516340c10f1960e01b81526001600160a01b03838116600483015260248201859052909116906340c10f1990604401600060405180830381600087803b15801561125257600080fd5b505af1158015611266573d6000803e3d6000fd5b505050507fee60936059464ce61794d92d41920e223b4618f704505d9d1eb6fd1cead03e48600254604051610dde91815260200190565b6000805b6040516370a0823160e01b815230600482015260008051602061220b833981519152906370a0823190602401602060405180830381865afa1580156112ea573d6000803e3d6000fd5b505050506040513d601f19601f8201168201806040525081019061130e9190612190565b8163ffffffff16101561142657600654604051632f745c5960e01b815230600482015263ffffffff831660248201526001600160a01b039091169063190f78679060008051602061220b83398151915290632f745c5990604401602060405180830381865afa158015611385573d6000803e3d6000fd5b505050506040513d601f19601f820116820180604052508101906113a99190612190565b6040518263ffffffff1660e01b81526004016113c791815260200190565b602060405180830381865afa1580156113e4573d6000803e3d6000fd5b505050506040513d601f19601f820116820180604052508101906114089190612190565b611412908361217d565b91508061141e816121a9565b9150506112a1565b5090565b6114326118ab565b6001600160a01b03811661149c5760405162461bcd60e51b815260206004820152602660248201527f4f776e61626c653a206e6577206f776e657220697320746865207a65726f206160448201526564647265737360d01b60648201526084015b60405180910390fd5b6114a581611905565b50565b6114ed82826040516024016114be9291906121cc565b60408051601f198184030181529190526020810180516001600160e01b03166309710a9d60e41b179052611955565b5050565b604080516001600160a01b038481166024830152604480830185905283518084039091018152606490920183526020820180516001600160e01b031663a9059cbb60e01b179052915160009283929087169161154d91906121ee565b6000604051808303816000865af19150503d806000811461158a576040519150601f19603f3d011682016040523d82523d6000602084013e61158f565b606091505b50915091508180156115b95750805115806115b95750808060200190518101906115b99190612019565b6115ea5760405162461bcd60e51b815260206004820152600260248201526114d560f21b6044820152606401611493565b5050505050565b600080856001600160a01b03166323b872dd60e01b86868660405160240161161b9392919061203b565b60408051601f198184030181529181526020820180516001600160e01b03166001600160e01b031990941693909317909252905161165991906121ee565b6000604051808303816000865af19150503d8060008114611696576040519150601f19603f3d011682016040523d82523d6000602084013e61169b565b606091505b50915091508180156116c55750805115806116c55750808060200190518101906116c59190612019565b6116f75760405162461bcd60e51b815260206004820152600360248201526229aa2360e91b6044820152606401611493565b505050505050565b604080516001600160a01b038481166024830152604480830185905283518084039091018152606490920183526020820180516001600160e01b031663095ea7b360e01b179052915160009283929087169161175b91906121ee565b6000604051808303816000865af19150503d8060008114611798576040519150601f19603f3d011682016040523d82523d6000602084013e61179d565b606091505b50915091508180156117c75750805115806117c75750808060200190518101906117c79190612019565b6115ea5760405162461bcd60e51b8152602060048201526002602482015261534160f01b6044820152606401611493565b6000808060001985870985870292508281108382030391505080600003611831576000841161182657600080fd5b5082900490506118a4565b80841161183d57600080fd5b6000848688096000868103871696879004966002600389028118808a02820302808a02820302808a02820302808a02820302808a02820302808a02909103029181900381900460010186841190950394909402919094039290920491909117919091029150505b9392505050565b6000546001600160a01b031633146111045760405162461bcd60e51b815260206004820181905260248201527f4f776e61626c653a2063616c6c6572206973206e6f7420746865206f776e65726044820152606401611493565b600080546001600160a01b038381166001600160a01b0319831681178455604051919092169283917f8be0079c531659141344cd1fd0a4f28419497f9722a3daafe3b4186f6b6457e09190a35050565b80516a636f6e736f6c652e6c6f67602083016000808483855afa5050505050565b6001600160801b03811681146114a557600080fd5b6001600160a01b03811681146114a557600080fd5b80356110ed8161198b565b6000806000606084860312156119c057600080fd5b8335925060208401356119d281611976565b915060408401356119e28161198b565b809150509250925092565b600080600080600060808688031215611a0557600080fd5b8535611a108161198b565b94506020860135611a208161198b565b935060408601359250606086013567ffffffffffffffff80821115611a4457600080fd5b818801915088601f830112611a5857600080fd5b813581811115611a6757600080fd5b896020828501011115611a7957600080fd5b9699959850939650602001949392505050565b60008060008060808587031215611aa257600080fd5b8435611aad8161198b565b966020860135965060408601359560600135945092505050565b600080600060608486031215611adc57600080fd5b8335611ae78161198b565b92506020840135611af78161198b565b929592945050506040919091013590565b600080600060608486031215611b1d57600080fd5b8335611b288161198b565b925060208401356119d28161198b565b600060208284031215611b4a57600080fd5b5035919050565b60008060408385031215611b6457600080fd5b8235611b6f8161198b565b946020939093013593505050565b60008060408385031215611b9057600080fd5b823591506020830135611ba28161198b565b809150509250929050565b604051610160810167ffffffffffffffff81118282101715611bdf57634e487b7160e01b600052604160045260246000fd5b60405290565b604051610180810167ffffffffffffffff81118282101715611bdf57634e487b7160e01b600052604160045260246000fd5b62ffffff811681146114a557600080fd5b80356110ed81611c17565b8060020b81146114a557600080fd5b80356110ed81611c33565b60006101608284031215611c6057600080fd5b611c68611bad565b611c71836119a0565b8152611c7f602084016119a0565b6020820152611c9060408401611c28565b6040820152611ca160608401611c42565b6060820152611cb260808401611c42565b608082015260a083013560a082015260c083013560c082015260e083013560e0820152610100808401358183015250610120611cef8185016119a0565b90820152610140928301359281019290925250919050565b600060808284031215611d1957600080fd5b6040516080810181811067ffffffffffffffff82111715611d4a57634e487b7160e01b600052604160045260246000fd5b604052823581526020830135611d5f8161198b565b60208201526040830135611d7281611976565b60408201526060830135611d8581611976565b60608201529392505050565b60005b83811015611dac578181015183820152602001611d94565b50506000910152565b60008151808452611dcd816020860160208601611d91565b601f01601f19169290920160200192915050565b6020815260006118a46020830184611db5565b600060208284031215611e0657600080fd5b81356118a48161198b565b60008060408385031215611e2457600080fd5b505080516020909101519092909150565b815181526020808301516001600160a01b0316908201526040808301516001600160801b0390811691830191909152606092830151169181019190915260800190565b80516110ed8161198b565b80516110ed81611c17565b80516110ed81611c33565b80516110ed81611976565b8051600481106110ed57600080fd5b60006101808284031215611ec657600080fd5b611ece611be5565b611ed783611e78565b8152611ee560208401611e78565b6020820152611ef660408401611e78565b6040820152611f0760608401611e83565b6060820152611f1860808401611e8e565b6080820152611f2960a08401611e8e565b60a0820152611f3a60c08401611e99565b60c0820152611f4b60e08401611e78565b60e08201526101008381015190820152610120611f69818501611ea4565b908201526101408381015190820152610160928301519281019290925250919050565b634e487b7160e01b600052601160045260246000fd5b6001600160801b03828116828216039080821115611fc257611fc2611f8c565b5092915050565b600080600060608486031215611fde57600080fd5b8351611fe981611976565b602085015160409095015190969495509392505050565b8181038181111561201357612013611f8c565b92915050565b60006020828403121561202b57600080fd5b815180151581146118a457600080fd5b6001600160a01b039384168152919092166020820152604081019190915260600190565b6000600160ff1b820161207457612074611f8c565b5060000390565b81516001600160a01b03168152610160810160208301516120a760208401826001600160a01b03169052565b5060408301516120be604084018262ffffff169052565b5060608301516120d3606084018260020b9052565b5060808301516120e8608084018260020b9052565b5060a083015160a083015260c083015160c083015260e083015160e08301526101008084015181840152506101208084015161212e828501826001600160a01b03169052565b505061014092830151919092015290565b6000806000806080858703121561215557600080fd5b84519350602085015161216781611976565b6040860151606090960151949790965092505050565b8082018082111561201357612013611f8c565b6000602082840312156121a257600080fd5b5051919050565b600063ffffffff8083168181036121c2576121c2611f8c565b6001019392505050565b6040815260006121df6040830185611db5565b90508260208301529392505050565b60008251612200818460208701611d91565b919091019291505056fe000000000000000000000000c36442b4a4522e871399cd717abdd847ab11fe88a264697066735822122030da416c63865333b8403445d1b83a1a1128ab78ed416b35722bf56ff0dbdfac64736f6c63430008110033",
    "linkReferences": {}
  },
  "methodIdentifiers": {
    "GHO()": "b8d008f3",
    "NAME()": "a3f4df7e",
    "borrowerOperationsAddress()": "b7f8cf9b",
    "burnPosition(uint256)": "38ca63bc",
    "decreaseLiquidity(uint256,uint128,address)": "0fe345ec",
    "decreaseMintedSupply(uint256,address)": "47f06fc4",
    "feesOwed((uint256,address,uint128,uint128))": "726dfbe6",
    "getCollateralValue()": "c047e563",
    "getMaxSupply()": "4c0f38c2",
    "getMintedSupply()": "f2113b5a",
    "increaseLiquidity(address,uint256,uint256,uint256)": "297fabf5",
    "increaseMintedSupply(uint256,address)": "bcb64b18",
    "lpPositionsManagerAddress()": "41f787bb",
    "mintPosition((address,address,uint24,int24,int24,uint256,uint256,uint256,uint256,address,uint256))": "5f1ee5c4",
    "onERC721Received(address,address,uint256,bytes)": "150b7a02",
    "owner()": "8da5cb5b",
    "renounceOwnership()": "715018a6",
    "repayInterestFromUserToProtocol(address,uint256)": "41ec3a85",
    "sendPosition(address,uint256)": "4f5e933f",
    "sendToken(address,address,uint256)": "2fdcfbd2",
    "setAddresses(address,address,address)": "363bf964",
    "setNewMaxSupply(uint256)": "b7c7d9a7",
    "transferOwnership(address)": "f2fde38b"
  },
  "id": 0
}