{
  "abi": [
    {
      "anonymous": false,
      "inputs": [
        {
          "indexed": false,
          "internalType": "address",
          "name": "_newActivePoolAddress",
          "type": "address"
        }
      ],
      "name": "ActivePoolAddressChanged",
      "type": "event"
    },
    {
      "anonymous": false,
      "inputs": [
        {
          "indexed": false,
          "internalType": "address",
          "name": "_newBorrowerOperationsAddress",
          "type": "address"
        }
      ],
      "name": "BorrowerOperationsAddressChanged",
      "type": "event"
    },
    {
      "anonymous": false,
      "inputs": [
        {
          "indexed": false,
          "internalType": "address",
          "name": "_newDefaultPoolAddress",
          "type": "address"
        }
      ],
      "name": "DefaultPoolAddressChanged",
      "type": "event"
    },
    {
      "anonymous": false,
      "inputs": [
        {
          "indexed": false,
          "internalType": "uint256",
          "name": "_newBalance",
          "type": "uint256"
        }
      ],
      "name": "ETHBalanceUpdated",
      "type": "event"
    },
    {
      "anonymous": false,
      "inputs": [
        {
          "indexed": false,
          "internalType": "address",
          "name": "_newGHOAddress",
          "type": "address"
        }
      ],
      "name": "GHOAddressChanged",
      "type": "event"
    },
    {
      "anonymous": false,
      "inputs": [
        {
          "indexed": false,
          "internalType": "uint256",
          "name": "_newBalance",
          "type": "uint256"
        }
      ],
      "name": "GHOBalanceUpdated",
      "type": "event"
    },
    {
      "anonymous": false,
      "inputs": [
        {
          "indexed": false,
          "internalType": "address",
          "name": "_sender",
          "type": "address"
        },
        {
          "indexed": false,
          "internalType": "uint256",
          "name": "_amount",
          "type": "uint256"
        }
      ],
      "name": "InterestRepaid",
      "type": "event"
    },
    {
      "anonymous": false,
      "inputs": [
        {
          "indexed": false,
          "internalType": "address",
          "name": "_newLPPositionsManagerAddress",
          "type": "address"
        }
      ],
      "name": "LPPositionsManagerAddressChanged",
      "type": "event"
    },
    {
      "anonymous": false,
      "inputs": [
        {
          "indexed": false,
          "internalType": "uint256",
          "name": "_tokenId",
          "type": "uint256"
        },
        {
          "indexed": false,
          "internalType": "uint128",
          "name": "liquidity",
          "type": "uint128"
        }
      ],
      "name": "LiquidityDecreased",
      "type": "event"
    },
    {
      "anonymous": false,
      "inputs": [
        {
          "indexed": false,
          "internalType": "uint256",
          "name": "_tokenId",
          "type": "uint256"
        },
        {
          "indexed": false,
          "internalType": "uint128",
          "name": "liquidity",
          "type": "uint128"
        }
      ],
      "name": "LiquidityIncreased",
      "type": "event"
    },
    {
      "anonymous": false,
      "inputs": [
        {
          "indexed": false,
          "internalType": "address",
          "name": "_to",
          "type": "address"
        },
        {
          "indexed": false,
          "internalType": "uint256",
          "name": "_tokenId",
          "type": "uint256"
        }
      ],
      "name": "LpSent",
      "type": "event"
    },
    {
      "anonymous": false,
      "inputs": [
        {
          "indexed": false,
          "internalType": "uint256",
          "name": "_mintedSupply",
          "type": "uint256"
        }
      ],
      "name": "MintedSupplyUpdated",
      "type": "event"
    },
    {
      "anonymous": false,
      "inputs": [
        {
          "indexed": true,
          "internalType": "address",
          "name": "previousOwner",
          "type": "address"
        },
        {
          "indexed": true,
          "internalType": "address",
          "name": "newOwner",
          "type": "address"
        }
      ],
      "name": "OwnershipTransferred",
      "type": "event"
    },
    {
      "anonymous": false,
      "inputs": [
        {
          "indexed": false,
          "internalType": "uint256",
          "name": "_tokenId",
          "type": "uint256"
        }
      ],
      "name": "PositionBurned",
      "type": "event"
    },
    {
      "anonymous": false,
      "inputs": [
        {
          "indexed": false,
          "internalType": "uint256",
          "name": "_tokenId",
          "type": "uint256"
        }
      ],
      "name": "PositionMinted",
      "type": "event"
    },
    {
      "anonymous": false,
      "inputs": [
        {
          "indexed": false,
          "internalType": "address",
          "name": "_account",
          "type": "address"
        },
        {
          "indexed": false,
          "internalType": "uint256",
          "name": "_tokenId",
          "type": "uint256"
        }
      ],
      "name": "PositionSent",
      "type": "event"
    },
    {
      "anonymous": false,
      "inputs": [
        {
          "indexed": false,
          "internalType": "address",
          "name": "_newStabilityPoolAddress",
          "type": "address"
        }
      ],
      "name": "StabilityPoolAddressChanged",
      "type": "event"
    },
    {
      "anonymous": false,
      "inputs": [
        {
          "indexed": false,
          "internalType": "address",
          "name": "_token",
          "type": "address"
        },
        {
          "indexed": false,
          "internalType": "address",
          "name": "_account",
          "type": "address"
        },
        {
          "indexed": false,
          "internalType": "uint256",
          "name": "_amount",
          "type": "uint256"
        }
      ],
      "name": "TokenSent",
      "type": "event"
    },
    {
      "inputs": [],
      "name": "GHO",
      "outputs": [
        {
          "internalType": "contract GhoToken",
          "name": "",
          "type": "address"
        }
      ],
      "stateMutability": "view",
      "type": "function"
    },
    {
      "inputs": [],
      "name": "NAME",
      "outputs": [
        {
          "internalType": "string",
          "name": "",
          "type": "string"
        }
      ],
      "stateMutability": "view",
      "type": "function"
    },
    {
      "inputs": [
        {
          "internalType": "uint256",
          "name": "tokenId",
          "type": "uint256"
        }
      ],
      "name": "addTokenIdToArray",
      "outputs": [],
      "stateMutability": "nonpayable",
      "type": "function"
    },
    {
      "inputs": [],
      "name": "borrowerOperationsAddress",
      "outputs": [
        {
          "internalType": "address",
          "name": "",
          "type": "address"
        }
      ],
      "stateMutability": "view",
      "type": "function"
    },
    {
      "inputs": [
        {
          "internalType": "uint256",
          "name": "tokenId",
          "type": "uint256"
        },
        {
          "internalType": "uint256",
          "name": "amount",
          "type": "uint256"
        }
      ],
      "name": "burnDebtToken",
      "outputs": [],
      "stateMutability": "nonpayable",
      "type": "function"
    },
    {
      "inputs": [
        {
          "internalType": "uint256",
          "name": "tokenId",
          "type": "uint256"
        }
      ],
      "name": "burnPosition",
      "outputs": [],
      "stateMutability": "nonpayable",
      "type": "function"
    },
    {
      "inputs": [
        {
          "internalType": "uint256",
          "name": "_tokenId",
          "type": "uint256"
        },
        {
          "internalType": "uint128",
          "name": "_liquidityToRemove",
          "type": "uint128"
        },
        {
          "internalType": "address",
          "name": "sender",
          "type": "address"
        }
      ],
      "name": "decreaseLiquidity",
      "outputs": [
        {
          "internalType": "uint256",
          "name": "amount0",
          "type": "uint256"
        },
        {
          "internalType": "uint256",
          "name": "amount1",
          "type": "uint256"
        }
      ],
      "stateMutability": "nonpayable",
      "type": "function"
    },
    {
      "inputs": [
        {
          "internalType": "uint256",
          "name": "_amount",
          "type": "uint256"
        },
        {
          "internalType": "address",
          "name": "sender",
          "type": "address"
        }
      ],
      "name": "decreaseMintedSupply",
      "outputs": [],
      "stateMutability": "nonpayable",
      "type": "function"
    },
    {
      "inputs": [
        {
          "components": [
            {
              "internalType": "uint256",
              "name": "tokenId",
              "type": "uint256"
            },
            {
              "internalType": "address",
              "name": "recipient",
              "type": "address"
            },
            {
              "internalType": "uint128",
              "name": "amount0Max",
              "type": "uint128"
            },
            {
              "internalType": "uint128",
              "name": "amount1Max",
              "type": "uint128"
            }
          ],
          "internalType": "struct INonfungiblePositionManager.CollectParams",
          "name": "params",
          "type": "tuple"
        }
      ],
      "name": "feesOwed",
      "outputs": [
        {
          "internalType": "uint256",
          "name": "amount0",
          "type": "uint256"
        },
        {
          "internalType": "uint256",
          "name": "amount1",
          "type": "uint256"
        }
      ],
      "stateMutability": "nonpayable",
      "type": "function"
    },
    {
      "inputs": [],
      "name": "getCollateralValue",
      "outputs": [
        {
          "internalType": "uint256",
          "name": "sum",
          "type": "uint256"
        }
      ],
      "stateMutability": "view",
      "type": "function"
    },
    {
      "inputs": [
        {
          "internalType": "uint256",
          "name": "tokenId",
          "type": "uint256"
        }
      ],
      "name": "getDebtToken",
      "outputs": [
        {
          "internalType": "contract DebtToken",
          "name": "",
          "type": "address"
        }
      ],
      "stateMutability": "view",
      "type": "function"
    },
    {
      "inputs": [],
      "name": "getMaxSupply",
      "outputs": [
        {
          "internalType": "uint256",
          "name": "",
          "type": "uint256"
        }
      ],
      "stateMutability": "view",
      "type": "function"
    },
    {
      "inputs": [],
      "name": "getMintedSupply",
      "outputs": [
        {
          "internalType": "uint256",
          "name": "",
          "type": "uint256"
        }
      ],
      "stateMutability": "view",
      "type": "function"
    },
    {
      "inputs": [
        {
          "internalType": "address",
          "name": "sender",
          "type": "address"
        },
        {
          "internalType": "uint256",
          "name": "_tokenId",
          "type": "uint256"
        },
        {
          "internalType": "uint256",
          "name": "amountAdd0",
          "type": "uint256"
        },
        {
          "internalType": "uint256",
          "name": "amountAdd1",
          "type": "uint256"
        }
      ],
      "name": "increaseLiquidity",
      "outputs": [
        {
          "internalType": "uint128",
          "name": "liquidity",
          "type": "uint128"
        },
        {
          "internalType": "uint256",
          "name": "amount0",
          "type": "uint256"
        },
        {
          "internalType": "uint256",
          "name": "amount1",
          "type": "uint256"
        }
      ],
      "stateMutability": "nonpayable",
      "type": "function"
    },
    {
      "inputs": [
        {
          "internalType": "uint256",
          "name": "_amount",
          "type": "uint256"
        },
        {
          "internalType": "address",
          "name": "sender",
          "type": "address"
        },
        {
          "internalType": "uint256",
          "name": "tokenId",
          "type": "uint256"
        }
      ],
      "name": "increaseMintedSupply",
      "outputs": [],
      "stateMutability": "nonpayable",
      "type": "function"
    },
    {
      "inputs": [
        {
          "internalType": "uint256",
          "name": "_rateSlope1",
          "type": "uint256"
        },
        {
          "internalType": "uint256",
          "name": "_rateSlope2",
          "type": "uint256"
        },
        {
          "internalType": "uint256",
          "name": "_utilizationIndexOptimal",
          "type": "uint256"
        },
        {
          "internalType": "uint256",
          "name": "_rate0",
          "type": "uint256"
        }
      ],
      "name": "initializeVariableInterest",
      "outputs": [],
      "stateMutability": "nonpayable",
      "type": "function"
    },
    {
      "inputs": [],
      "name": "lpPositionsManagerAddress",
      "outputs": [
        {
          "internalType": "address",
          "name": "",
          "type": "address"
        }
      ],
      "stateMutability": "view",
      "type": "function"
    },
    {
      "inputs": [
        {
          "components": [
            {
              "internalType": "address",
              "name": "token0",
              "type": "address"
            },
            {
              "internalType": "address",
              "name": "token1",
              "type": "address"
            },
            {
              "internalType": "uint24",
              "name": "fee",
              "type": "uint24"
            },
            {
              "internalType": "int24",
              "name": "tickLower",
              "type": "int24"
            },
            {
              "internalType": "int24",
              "name": "tickUpper",
              "type": "int24"
            },
            {
              "internalType": "uint256",
              "name": "amount0Desired",
              "type": "uint256"
            },
            {
              "internalType": "uint256",
              "name": "amount1Desired",
              "type": "uint256"
            },
            {
              "internalType": "uint256",
              "name": "amount0Min",
              "type": "uint256"
            },
            {
              "internalType": "uint256",
              "name": "amount1Min",
              "type": "uint256"
            },
            {
              "internalType": "address",
              "name": "recipient",
              "type": "address"
            },
            {
              "internalType": "uint256",
              "name": "deadline",
              "type": "uint256"
            }
          ],
          "internalType": "struct INonfungiblePositionManager.MintParams",
          "name": "params",
          "type": "tuple"
        }
      ],
      "name": "mintPosition",
      "outputs": [
        {
          "internalType": "uint256",
          "name": "tokenId",
          "type": "uint256"
        }
      ],
      "stateMutability": "nonpayable",
      "type": "function"
    },
    {
      "inputs": [
        {
          "internalType": "address",
          "name": "user",
          "type": "address"
        },
        {
          "internalType": "uint256",
          "name": "interestRate",
          "type": "uint256"
        },
        {
          "internalType": "uint256",
          "name": "tokenIdSignature",
          "type": "uint256"
        }
      ],
      "name": "newDebtToken",
      "outputs": [],
      "stateMutability": "nonpayable",
      "type": "function"
    },
    {
      "inputs": [
        {
          "internalType": "address",
          "name": "",
          "type": "address"
        },
        {
          "internalType": "address",
          "name": "",
          "type": "address"
        },
        {
          "internalType": "uint256",
          "name": "",
          "type": "uint256"
        },
        {
          "internalType": "bytes",
          "name": "",
          "type": "bytes"
        }
      ],
      "name": "onERC721Received",
      "outputs": [
        {
          "internalType": "bytes4",
          "name": "",
          "type": "bytes4"
        }
      ],
      "stateMutability": "pure",
      "type": "function"
    },
    {
      "inputs": [],
      "name": "owner",
      "outputs": [
        {
          "internalType": "address",
          "name": "",
          "type": "address"
        }
      ],
      "stateMutability": "view",
      "type": "function"
    },
    {
      "inputs": [],
      "name": "renounceOwnership",
      "outputs": [],
      "stateMutability": "nonpayable",
      "type": "function"
    },
    {
      "inputs": [
        {
          "internalType": "address",
          "name": "sender",
          "type": "address"
        },
        {
          "internalType": "uint256",
          "name": "amount",
          "type": "uint256"
        },
        {
          "internalType": "uint256",
          "name": "tokenId",
          "type": "uint256"
        }
      ],
      "name": "repayInterestFromUserToProtocol",
      "outputs": [],
      "stateMutability": "nonpayable",
      "type": "function"
    },
    {
      "inputs": [
        {
          "internalType": "address",
          "name": "_account",
          "type": "address"
        },
        {
          "internalType": "uint256",
          "name": "_tokenId",
          "type": "uint256"
        }
      ],
      "name": "sendPosition",
      "outputs": [],
      "stateMutability": "nonpayable",
      "type": "function"
    },
    {
      "inputs": [
        {
          "internalType": "address",
          "name": "_borrowerOperationsAddress",
          "type": "address"
        },
        {
          "internalType": "address",
          "name": "_lpPositionsManagerAddress",
          "type": "address"
        }
      ],
      "name": "setAddresses",
      "outputs": [],
      "stateMutability": "nonpayable",
      "type": "function"
    },
    {
      "inputs": [
        {
          "internalType": "uint256",
          "name": "",
          "type": "uint256"
        }
      ],
      "name": "tokenIdToDebtTokens",
      "outputs": [
        {
          "internalType": "contract DebtToken",
          "name": "",
          "type": "address"
        }
      ],
      "stateMutability": "view",
      "type": "function"
    },
    {
      "inputs": [
        {
          "internalType": "address",
          "name": "newOwner",
          "type": "address"
        }
      ],
      "name": "transferOwnership",
      "outputs": [],
      "stateMutability": "nonpayable",
      "type": "function"
    },
    {
      "inputs": [
        {
          "internalType": "uint256",
          "name": "utilizationRate",
          "type": "uint256"
        }
      ],
      "name": "updateUtilizationIndex",
      "outputs": [],
      "stateMutability": "nonpayable",
      "type": "function"
    }
  ],
  "bytecode": {
    "object": "0x608060405260056001556040516200001790620000c4565b604051809103906000f08015801562000034573d6000803e3d6000fd5b50600580546001600160a01b0319166001600160a01b03929092169190911790553480156200006257600080fd5b506200006e3362000074565b620000d2565b600080546001600160a01b038381166001600160a01b0319831681178455604051919092169283917f8be0079c531659141344cd1fd0a4f28419497f9722a3daafe3b4186f6b6457e09190a35050565b611f30806200433883390190565b61425680620000e26000396000f3fe60806040523480156200001157600080fd5b5060043610620001e95760003560e01c8063715018a6116200010d578063c047e56311620000a3578063cdc820a4116200007a578063cdc820a414620004bc578063e76af46314620004d3578063f2113b5a14620004ea578063f2fde38b14620004f457600080fd5b8063c047e563146200046f578063c510fe5d1462000479578063c574dc8a146200049057600080fd5b806390107afe11620000e457806390107afe14620003f7578063a3f4df7e146200040e578063b7f8cf9b1462000447578063b8d008f3146200045b57600080fd5b8063715018a614620003c4578063726dfbe614620003ce5780638da5cb5b14620003e557600080fd5b806338ca63bc11620001835780634c0f38c2116200015a5780634c0f38c214620003665780634f5e933f146200037f5780635f1ee5c414620003965780636616747b14620003ad57600080fd5b806338ca63bc146200032457806341f787bb146200033b57806347f06fc4146200034f57600080fd5b80631e88f00111620001c45780631e88f00114620002745780632560b327146200028b578063297fabf514620002d05780632abd12b8146200030d57600080fd5b80630fe345ec14620001ee578063150b7a02146200021f5780631b28f7c2146200025b575b600080fd5b62000205620001ff3660046200204b565b6200050b565b604080519283526020830191909152015b60405180910390f35b620002416200023036600462002092565b630a85bd0160e11b95945050505050565b6040516001600160e01b0319909116815260200162000216565b620002726200026c3660046200213a565b620008b0565b005b62000272620002853660046200215d565b6200094f565b620002b76200029c3660046200215d565b6007602052600090815260409020546001600160a01b031681565b6040516001600160a01b03909116815260200162000216565b620002e7620002e136600462002177565b620009ea565b604080516001600160801b03909416845260208401929092529082015260600162000216565b620002726200031e3660046200215d565b62000c95565b62000272620003353660046200215d565b62000cf8565b600354620002b7906001600160a01b031681565b6200027262000360366004620021b5565b62000dc5565b6200037062000f11565b60405190815260200162000216565b6200027262000390366004620021e8565b62000f8b565b62000370620003a7366004620022bf565b62001066565b62000272620003be36600462002388565b62001199565b62000272620013fd565b62000205620003df366004620023c0565b62001415565b6000546001600160a01b0316620002b7565b620002726200040836600462002452565b620014cb565b620004386040518060400160405280600a8152602001691058dd1a5d99541bdbdb60b21b81525081565b604051620002169190620024ab565b600254620002b7906001600160a01b031681565b600554620002b7906001600160a01b031681565b620003706200157a565b620002726200048a36600462002388565b6200171a565b620002b7620004a13660046200215d565b6000908152600760205260409020546001600160a01b031690565b62000272620004cd366004620024e0565b62001843565b62000272620004e43660046200251b565b62001980565b62000370620019f8565b62000272620005053660046200254e565b62001a72565b6040805160a0810182528481526001600160801b038481166020830190815260008385018181526060850182815242608087019081529651630624e65f60e11b81529551600487015292519093166024850152915160448401525160648301529151608482015281906000805160206200420183398151915290630c49ccbe9060a40160408051808303816000875af1158015620005ad573d6000803e3d6000fd5b505050506040513d601f19601f82011682018060405250810190620005d391906200256e565b5050604080516080810182528681523060208201526001600160801b038183018190526060820152905163fc6f786560e01b8152600080516020620042018339815191529163fc6f7865916200062d919060040162002593565b60408051808303816000875af11580156200064c573d6000803e3d6000fd5b505050506040513d601f19601f820116820180604052508101906200067291906200256e565b6004805460405163eb02c30160e01b8152918201899052929450909250620006f8916001600160a01b03169063eb02c3019060240161018060405180830381865afa158015620006c6573d6000803e3d6000fd5b505050506040513d601f19601f82011682018060405250810190620006ec91906200261a565b60200151848462001af1565b6004805460405163eb02c30160e01b81529182018790526200077a916001600160a01b039091169063eb02c3019060240161018060405180830381865afa15801562000748573d6000803e3d6000fd5b505050506040513d601f19601f820116820180604052508101906200076e91906200261a565b60400151848362001af1565b6004805460405163eb02c30160e01b81529182018790526001600160a01b0316906323f0f0af9087908790849063eb02c3019060240161018060405180830381865afa158015620007cf573d6000803e3d6000fd5b505050506040513d601f19601f82011682018060405250810190620007f591906200261a565b60c001516200080591906200271e565b6040516001600160e01b031960e085901b16815260048101929092526001600160801b03166024820152604401600060405180830381600087803b1580156200084d57600080fd5b505af115801562000862573d6000803e3d6000fd5b5050604080518881526001600160801b03881660208201527f09206854cc97af5837e67b27b1369431c97a01dedecdbff58d7d75b95cda34b8935001905060405180910390a1935093915050565b6002546001600160a01b0316331480620008d457506003546001600160a01b031633145b620008de57600080fd5b60008281526007602052604090819020549051630852cd8d60e31b8152600481018390526001600160a01b03909116906342966c6890602401600060405180830381600087803b1580156200093257600080fd5b505af115801562000947573d6000803e3d6000fd5b505050505050565b6002546001600160a01b03163314806200097357506003546001600160a01b031633145b6200097d57600080fd5b6200098762001bf4565b60065460405163a7faebbf60e01b8152600481018390526001600160a01b039091169063a7faebbf90602401600060405180830381600087803b158015620009ce57600080fd5b505af1158015620009e3573d6000803e3d6000fd5b5050505050565b600254600090819081906001600160a01b0316331462000a0957600080fd5b6004805460405163eb02c30160e01b81529182018890526000916001600160a01b039091169063eb02c3019060240161018060405180830381865afa15801562000a57573d6000803e3d6000fd5b505050506040513d601f19601f8201168201806040525081019062000a7d91906200261a565b602001516004805460405163eb02c30160e01b81529182018a90529192506000916001600160a01b03169063eb02c3019060240161018060405180830381865afa15801562000ad0573d6000803e3d6000fd5b505050506040513d601f19601f8201168201806040525081019062000af691906200261a565b60400151905062000b0a828a308a62001d35565b62000b18818a308962001d35565b62000b3482600080516020620042018339815191528962001e47565b62000b5081600080516020620042018339815191528862001e47565b6040805160c08101825289815260208101898152818301898152600060608401818152608085019182524260a08601908152955163219f5d1760e01b815294516004860152925160248501529051604484015290516064830152516084820152905160a4820152600080516020620042018339815191529063219f5d179060c4016060604051808303816000875af115801562000bf1573d6000803e3d6000fd5b505050506040513d601f19601f8201168201806040525081019062000c17919062002741565b9196509450925062000c36828a62000c30878b6200277b565b62001af1565b62000c48818a62000c30868a6200277b565b604080518981526001600160801b03871660208201527fc8d05b8afe2669ce41cf38a2fd03f78eda311e9611540ea93ce806cd48de25e8910160405180910390a150509450945094915050565b6002546001600160a01b031633148062000cb957506003546001600160a01b031633145b62000cc357600080fd5b600880546001810182556000919091527ff3f7a9fe364faab93b216da50a3214154f22a0a2b415b23a84c8169e8b636ee30155565b6002546001600160a01b031633148062000d1c57506003546001600160a01b031633145b62000d2657600080fd5b604051630852cd8d60e31b81526004810182905260008051602062004201833981519152906342966c6890602401600060405180830381600087803b15801562000d6f57600080fd5b505af115801562000d84573d6000803e3d6000fd5b505050507f65d33d8ef62a81711748bbe2a7b67aef94d1a9af04a2690d3a4dfd13d9c1d22b8160405162000dba91815260200190565b60405180910390a150565b6002546001600160a01b031633148062000de957506003546001600160a01b031633145b62000df357600080fd5b6005546040516323b872dd60e01b81526001600160a01b03909116906323b872dd9062000e299084903090879060040162002797565b6020604051808303816000875af115801562000e49573d6000803e3d6000fd5b505050506040513d601f19601f8201168201806040525081019062000e6f9190620027bb565b50600554604051630852cd8d60e31b8152600481018490526001600160a01b03909116906342966c6890602401600060405180830381600087803b15801562000eb757600080fd5b505af115801562000ecc573d6000803e3d6000fd5b505050507f7508724599acdf8d7b1db18cd426cdfc16a2d4035a584b43a3c8b9fa31232a5762000efb620019f8565b6040519081526020015b60405180910390a15050565b6005546040516355017ca560e11b815230600482015260009182916001600160a01b039091169063aa02f94a906024016040805180830381865afa15801562000f5e573d6000803e3d6000fd5b505050506040513d601f19601f8201168201806040525081019062000f8491906200256e565b5092915050565b6002546001600160a01b031633148062000faf57506003546001600160a01b031633145b62000fb957600080fd5b6040516323b872dd60e01b815260008051602062004201833981519152906323b872dd9062000ff19030908690869060040162002797565b600060405180830381600087803b1580156200100c57600080fd5b505af115801562001021573d6000803e3d6000fd5b5050604080516001600160a01b0386168152602081018590527f36d76afb37d97ac28c642429b59b3a1fed16d56a6b6ddb9626ff787a0c2f46dd935001905062000f05565b6002546000906001600160a01b03163314806200108d57506003546001600160a01b031633145b6200109757600080fd5b620010bb8260000151600080516020620042018339815191528460a0015162001e47565b620010df8260200151600080516020620042018339815191528460c0015162001e47565b604051634418b22b60e11b8152600080516020620042018339815191529063883164569062001113908590600401620027df565b6080604051808303816000875af115801562001133573d6000803e3d6000fd5b505050506040513d601f19601f82011682018060405250810190620011599190620028a8565b50506040518281529192507face8748d23af65e86cf543d0298345b95115752e382befe3e832eacd1508adb091602001905060405180910390a15b919050565b6002546001600160a01b0316331480620011bd57506003546001600160a01b031633145b620011c757600080fd5b600082116200122f5760405162461bcd60e51b815260206004820152602960248201527f416374697665506f6f6c3a20416d6f756e74206d75737420626520677265617460448201526806572207468616e20360bc1b60648201526084015b60405180910390fd5b600081815260076020908152604091829020548251631fcbd8e360e21b815292516001600160a01b0390911692637f2f638c9260048083019391928290030181865afa15801562001284573d6000803e3d6000fd5b505050506040513d601f19601f82011682018060405250810190620012aa9190620028e9565b821115620013185760405162461bcd60e51b815260206004820152603460248201527f416374697665506f6f6c3a204e6f7420656e6f756768206465627420746f6b656044820152731b9cc81d1bc81c995c185e481a5b9d195c995cdd60621b606482015260840162001226565b620013248183620008b0565b6005546040516323b872dd60e01b81526001600160a01b03909116906323b872dd906200136e9086907353a5a93e8b82030c3a52e9ff36801956b866133390879060040162002797565b6020604051808303816000875af11580156200138e573d6000803e3d6000fd5b505050506040513d601f19601f82011682018060405250810190620013b49190620027bb565b50604080516001600160a01b0385168152602081018490527feff139234683b4c380101256c460e14460d28453ed77503b5eb3364e9d9b92c591015b60405180910390a1505050565b6200140762001f4a565b62001413600062001fa6565b565b60025460009081906001600160a01b03163314806200143e57506003546001600160a01b031633145b6200144857600080fd5b60405163fc6f786560e01b8152600080516020620042018339815191529063fc6f7865906200147c90869060040162002593565b60408051808303816000875af11580156200149b573d6000803e3d6000fd5b505050506040513d601f19601f82011682018060405250810190620014c191906200256e565b9092509050915091565b620014d562001f4a565b600280546001600160a01b038481166001600160a01b031992831681179093556003805491851691831682179055600480549092161790556040519081527f3ca631ffcd2a9b5d9ae18543fc82f58eb4ca33af9e6ab01b7a8e95331e6ed9859060200160405180910390a16040516001600160a01b03821681527fca22f0accfacdc2ef491a88279142950b7e7f2b23c1b4c706f4eedf1653b1d6f9060200162000f05565b6000805b6040516370a0823160e01b815230600482015260008051602062004201833981519152906370a0823190602401602060405180830381865afa158015620015c9573d6000803e3d6000fd5b505050506040513d601f19601f82011682018060405250810190620015ef9190620028e9565b8163ffffffff161015620017165760048054604051632f745c5960e01b8152309281019290925263ffffffff831660248301526001600160a01b03169063190f7867906000805160206200420183398151915290632f745c5990604401602060405180830381865afa1580156200166a573d6000803e3d6000fd5b505050506040513d601f19601f82011682018060405250810190620016909190620028e9565b6040518263ffffffff1660e01b8152600401620016af91815260200190565b602060405180830381865afa158015620016cd573d6000803e3d6000fd5b505050506040513d601f19601f82011682018060405250810190620016f39190620028e9565b620016ff908362002903565b9150806200170d8162002919565b9150506200157e565b5090565b6002546001600160a01b03163314806200173e57506003546001600160a01b031633145b6200174857600080fd5b8282601283600560009054906101000a90046001600160a01b0316604051620017719062001ff6565b6001600160a01b039586168152602081019490945260e060408501819052601b908501527f45636c797073652050726f746f636f6c204465627420546f6b656e0000000000610100850152610120606085018190526003908501526211511560ea1b61014085015260ff909216608084015260a08301529190911660c082015261016001604051809103906000f08015801562001812573d6000803e3d6000fd5b5060009182526007602052604090912080546001600160a01b0319166001600160a01b039092169190911790555050565b6002546001600160a01b03163314806200186757506003546001600160a01b031633145b6200187157600080fd5b6005546040516340c10f1960e01b81526001600160a01b03848116600483015260248201869052909116906340c10f1990604401600060405180830381600087803b158015620018c057600080fd5b505af1158015620018d5573d6000803e3d6000fd5b5050506000828152600760205260409081902054905163140e25ad60e31b8152600481018690526001600160a01b03909116915063a0712d6890602401600060405180830381600087803b1580156200192d57600080fd5b505af115801562001942573d6000803e3d6000fd5b505050507f7508724599acdf8d7b1db18cd426cdfc16a2d4035a584b43a3c8b9fa31232a5762001971620019f8565b604051908152602001620013f0565b6200198a62001f4a565b838383836040516200199c9062002004565b938452602084019290925260408301526060820152608001604051809103906000f080158015620019d1573d6000803e3d6000fd5b50600680546001600160a01b0319166001600160a01b039290921691909117905550505050565b6005546040516355017ca560e11b815230600482015260009182916001600160a01b039091169063aa02f94a906024016040805180830381865afa15801562001a45573d6000803e3d6000fd5b505050506040513d601f19601f8201168201806040525081019062001a6b91906200256e565b9392505050565b62001a7c62001f4a565b6001600160a01b03811662001ae35760405162461bcd60e51b815260206004820152602660248201527f4f776e61626c653a206e6577206f776e657220697320746865207a65726f206160448201526564647265737360d01b606482015260840162001226565b62001aee8162001fa6565b50565b604080516001600160a01b038481166024830152604480830185905283518084039091018152606490920183526020820180516001600160e01b031663a9059cbb60e01b179052915160009283929087169162001b4f91906200293f565b6000604051808303816000865af19150503d806000811462001b8e576040519150601f19603f3d011682016040523d82523d6000602084013e62001b93565b606091505b509150915081801562001bc157508051158062001bc157508080602001905181019062001bc19190620027bb565b620009e35760405162461bcd60e51b815260206004820152600260248201526114d560f21b604482015260640162001226565b60005b60085481101562001aee5760006008828154811062001c1a5762001c1a6200295d565b600091825260209091200154905060016004805460405163eb02c30160e01b81529182018490526001600160a01b03169063eb02c3019060240161018060405180830381865afa15801562001c73573d6000803e3d6000fd5b505050506040513d601f19601f8201168201806040525081019062001c9991906200261a565b6101200151600381111562001cb25762001cb262002973565b0362001d1f5760008181526007602052604080822054815163d148279160e01b815291516001600160a01b039091169263d1482791926004808201939182900301818387803b15801562001d0557600080fd5b505af115801562001d1a573d6000803e3d6000fd5b505050505b508062001d2c8162002989565b91505062001bf7565b600080856001600160a01b03166323b872dd60e01b86868660405160240162001d619392919062002797565b60408051601f198184030181529181526020820180516001600160e01b03166001600160e01b031990941693909317909252905162001da191906200293f565b6000604051808303816000865af19150503d806000811462001de0576040519150601f19603f3d011682016040523d82523d6000602084013e62001de5565b606091505b509150915081801562001e1357508051158062001e1357508080602001905181019062001e139190620027bb565b620009475760405162461bcd60e51b815260206004820152600360248201526229aa2360e91b604482015260640162001226565b604080516001600160a01b038481166024830152604480830185905283518084039091018152606490920183526020820180516001600160e01b031663095ea7b360e01b179052915160009283929087169162001ea591906200293f565b6000604051808303816000865af19150503d806000811462001ee4576040519150601f19603f3d011682016040523d82523d6000602084013e62001ee9565b606091505b509150915081801562001f1757508051158062001f1757508080602001905181019062001f179190620027bb565b620009e35760405162461bcd60e51b8152602060048201526002602482015261534160f01b604482015260640162001226565b6000546001600160a01b03163314620014135760405162461bcd60e51b815260206004820181905260248201527f4f776e61626c653a2063616c6c6572206973206e6f7420746865206f776e6572604482015260640162001226565b600080546001600160a01b038381166001600160a01b0319831681178455604051919092169283917f8be0079c531659141344cd1fd0a4f28419497f9722a3daafe3b4186f6b6457e09190a35050565b61152a80620029a683390190565b6103318062003ed083390190565b6001600160801b038116811462001aee57600080fd5b6001600160a01b038116811462001aee57600080fd5b8035620011948162002028565b6000806000606084860312156200206157600080fd5b833592506020840135620020758162002012565b91506040840135620020878162002028565b809150509250925092565b600080600080600060808688031215620020ab57600080fd5b8535620020b88162002028565b94506020860135620020ca8162002028565b935060408601359250606086013567ffffffffffffffff80821115620020ef57600080fd5b818801915088601f8301126200210457600080fd5b8135818111156200211457600080fd5b8960208285010111156200212757600080fd5b9699959850939650602001949392505050565b600080604083850312156200214e57600080fd5b50508035926020909101359150565b6000602082840312156200217057600080fd5b5035919050565b600080600080608085870312156200218e57600080fd5b84356200219b8162002028565b966020860135965060408601359560600135945092505050565b60008060408385031215620021c957600080fd5b823591506020830135620021dd8162002028565b809150509250929050565b60008060408385031215620021fc57600080fd5b8235620022098162002028565b946020939093013593505050565b604051610160810167ffffffffffffffff811182821017156200224a57634e487b7160e01b600052604160045260246000fd5b60405290565b604051610180810167ffffffffffffffff811182821017156200224a57634e487b7160e01b600052604160045260246000fd5b62ffffff8116811462001aee57600080fd5b8035620011948162002283565b8060020b811462001aee57600080fd5b80356200119481620022a2565b60006101608284031215620022d357600080fd5b620022dd62002217565b620022e8836200203e565b8152620022f8602084016200203e565b60208201526200230b6040840162002295565b60408201526200231e60608401620022b2565b60608201526200233160808401620022b2565b608082015260a083013560a082015260c083013560c082015260e083013560e0820152610100808401358183015250610120620023708185016200203e565b90820152610140928301359281019290925250919050565b6000806000606084860312156200239e57600080fd5b8335620023ab8162002028565b95602085013595506040909401359392505050565b600060808284031215620023d357600080fd5b6040516080810181811067ffffffffffffffff821117156200240557634e487b7160e01b600052604160045260246000fd5b6040528235815260208301356200241c8162002028565b60208201526040830135620024318162002012565b60408201526060830135620024468162002012565b60608201529392505050565b600080604083850312156200246657600080fd5b8235620024738162002028565b91506020830135620021dd8162002028565b60005b83811015620024a257818101518382015260200162002488565b50506000910152565b6020815260008251806020840152620024cc81604085016020870162002485565b601f01601f19169190910160400192915050565b600080600060608486031215620024f657600080fd5b8335925060208401356200250a8162002028565b929592945050506040919091013590565b600080600080608085870312156200253257600080fd5b5050823594602084013594506040840135936060013592509050565b6000602082840312156200256157600080fd5b813562001a6b8162002028565b600080604083850312156200258257600080fd5b505080516020909101519092909150565b815181526020808301516001600160a01b0316908201526040808301516001600160801b0390811691830191909152606092830151169181019190915260800190565b8051620011948162002028565b8051620011948162002283565b80516200119481620022a2565b8051620011948162002012565b8051600481106200119457600080fd5b600061018082840312156200262e57600080fd5b6200263862002250565b6200264383620025d6565b81526200265360208401620025d6565b60208201526200266660408401620025d6565b60408201526200267960608401620025e3565b60608201526200268c60808401620025f0565b60808201526200269f60a08401620025f0565b60a0820152620026b260c08401620025fd565b60c0820152620026c560e08401620025d6565b60e08201526101008381015190820152610120620026e58185016200260a565b908201526101408381015190820152610160928301519281019290925250919050565b634e487b7160e01b600052601160045260246000fd5b6001600160801b0382811682821603908082111562000f845762000f8462002708565b6000806000606084860312156200275757600080fd5b8351620027648162002012565b602085015160409095015190969495509392505050565b8181038181111562002791576200279162002708565b92915050565b6001600160a01b039384168152919092166020820152604081019190915260600190565b600060208284031215620027ce57600080fd5b8151801515811462001a6b57600080fd5b81516001600160a01b03168152610160810160208301516200280c60208401826001600160a01b03169052565b50604083015162002824604084018262ffffff169052565b5060608301516200283a606084018260020b9052565b50608083015162002850608084018260020b9052565b5060a083015160a083015260c083015160c083015260e083015160e08301526101008084015181840152506101208084015162002897828501826001600160a01b03169052565b505061014092830151919092015290565b60008060008060808587031215620028bf57600080fd5b845193506020850151620028d38162002012565b6040860151606090960151949790965092505050565b600060208284031215620028fc57600080fd5b5051919050565b8082018082111562002791576200279162002708565b600063ffffffff80831681810362002935576200293562002708565b6001019392505050565b600082516200295381846020870162002485565b9190910192915050565b634e487b7160e01b600052603260045260246000fd5b634e487b7160e01b600052602160045260246000fd5b6000600182016200299e576200299e62002708565b506001019056fe60e06040523480156200001157600080fd5b506040516200152a3803806200152a83398101604081905262000034916200023b565b848484600062000045848262000388565b50600162000054838262000388565b5060ff81166080524660a0526200006a620000bd565b60c0525050600a80546001600160a01b03998a166001600160a01b031991821617909155600b9390935550600c8054919097169116179094555050600060068190556007554260085560095550620004d2565b60007f8b73c3c69bb8fe3d512ecc4cf759cc79239f7b179b0ffacaa9a75d522b39400f6000604051620000f1919062000454565b6040805191829003822060208301939093528101919091527fc89efdaa54c0f20c7adf612882df0950f5a951637e0307cdcb4c672f298b8bc660608201524660808201523060a082015260c00160405160208183030381529060405280519060200120905090565b80516001600160a01b03811681146200017157600080fd5b919050565b634e487b7160e01b600052604160045260246000fd5b600082601f8301126200019e57600080fd5b81516001600160401b0380821115620001bb57620001bb62000176565b604051601f8301601f19908116603f01168101908282118183101715620001e657620001e662000176565b816040528381526020925086838588010111156200020357600080fd5b600091505b8382101562000227578582018301518183018401529082019062000208565b600093810190920192909252949350505050565b600080600080600080600060e0888a0312156200025757600080fd5b620002628862000159565b602089015160408a015191985096506001600160401b03808211156200028757600080fd5b620002958b838c016200018c565b965060608a0151915080821115620002ac57600080fd5b50620002bb8a828b016200018c565b945050608088015160ff81168114620002d357600080fd5b60a08901519093509150620002eb60c0890162000159565b905092959891949750929550565b600181811c908216806200030e57607f821691505b6020821081036200032f57634e487b7160e01b600052602260045260246000fd5b50919050565b601f8211156200038357600081815260208120601f850160051c810160208610156200035e5750805b601f850160051c820191505b818110156200037f578281556001016200036a565b5050505b505050565b81516001600160401b03811115620003a457620003a462000176565b620003bc81620003b58454620002f9565b8462000335565b602080601f831160018114620003f45760008415620003db5750858301515b600019600386901b1c1916600185901b1785556200037f565b600085815260208120601f198616915b82811015620004255788860151825594840194600190910190840162000404565b5085821015620004445787850151600019600388901b60f8161c191681555b5050505050600190811b01905550565b60008083546200046481620002f9565b600182811680156200047f57600181146200049557620004c6565b60ff1984168752821515830287019450620004c6565b8760005260208060002060005b85811015620004bd5781548a820152908401908201620004a2565b50505082870194505b50929695505050505050565b60805160a05160c0516110286200050260003960006104f0015260006104bb015260006101c501526110286000f3fe608060405234801561001057600080fd5b50600436106101215760003560e01c806342966c68116100ad578063a0712d6811610071578063a0712d681461026e578063a9059cbb14610281578063d148279114610294578063d505accf1461029c578063dd62ed3e146102af57600080fd5b806342966c681461020957806370a082311461021e5780637ecebe001461023e5780637f2f638c1461025e57806395d89b411461026657600080fd5b806323b872dd116100f457806323b872dd1461018657806330adf81f14610199578063313ce567146101c05780633644e515146101f9578063418b3e211461020157600080fd5b806306fdde0314610126578063095ea7b31461014457806318160ddd146101675780631c136a3d1461017e575b600080fd5b61012e6102da565b60405161013b9190610cd5565b60405180910390f35b610157610152366004610d3f565b610368565b604051901515815260200161013b565b61017060025481565b60405190815260200161013b565b600754610170565b610157610194366004610d69565b6103d5565b6101707f6e71edae12b1b97f4d1f60370fef10105fa2faae0126114a169c64845d6126c981565b6101e77f000000000000000000000000000000000000000000000000000000000000000081565b60405160ff909116815260200161013b565b6101706104b7565b610170610512565b61021c610217366004610da5565b610524565b005b61017061022c366004610dbe565b60036020526000908152604090205481565b61017061024c366004610dbe565b60056020526000908152604090205481565b600654610170565b61012e61064a565b61021c61027c366004610da5565b610657565b61015761028f366004610d3f565b6106b4565b61021c61071a565b61021c6102aa366004610dd9565b61079d565b6101706102bd366004610e4c565b600460209081526000928352604080842090915290825290205481565b600080546102e790610e7f565b80601f016020809104026020016040519081016040528092919081815260200182805461031390610e7f565b80156103605780601f1061033557610100808354040283529160200191610360565b820191906000526020600020905b81548152906001019060200180831161034357829003601f168201915b505050505081565b3360008181526004602090815260408083206001600160a01b038716808552925280832085905551919290917f8c5be1e5ebec7d5bd14f71427d1e84f3dd0314c0f7b2291e5b200ac8c7c3b925906103c39086815260200190565b60405180910390a35060015b92915050565b6001600160a01b038316600090815260046020908152604080832033845290915281205460001981146104315761040c8382610ecf565b6001600160a01b03861660009081526004602090815260408083203384529091529020555b6001600160a01b03851660009081526003602052604081208054859290610459908490610ecf565b90915550506001600160a01b0380851660008181526003602052604090819020805487019055519091871690600080516020610fd3833981519152906104a29087815260200190565b60405180910390a360019150505b9392505050565b60007f000000000000000000000000000000000000000000000000000000000000000046146104ed576104e86109ee565b905090565b507f000000000000000000000000000000000000000000000000000000000000000090565b60006006546007546104e89190610ee2565b600a5461053a906001600160a01b031682610a88565b80600754101561059d5760405162461bcd60e51b815260206004820152602360248201527f44656274546f6b656e3a206275726e20616d6f756e742065786365656473206460448201526219589d60ea1b60648201526084015b60405180910390fd5b600081116105ed5760405162461bcd60e51b815260206004820152601f60248201527f44656274546f6b656e3a2043616e6e6f74206275726e203020746f6b656e73006044820152606401610594565b80600760008282546105ff9190610ecf565b9091555050600a546040518281526001600160a01b03909116907fcc16f5dbb4873280815c1ee09dbd06736cffcc184412cf7a71a0fdb75d397ca5906020015b60405180910390a250565b600180546102e790610e7f565b600a5461066d906001600160a01b031682610af2565b6007805482019055600a546040518281526001600160a01b03909116907f0f6798a560793a54c3bcfe86a93cde1e73087d944c0ea20544137d41213968859060200161063f565b336000908152600360205260408120805483919083906106d5908490610ecf565b90915550506001600160a01b03831660008181526003602052604090819020805485019055513390600080516020610fd3833981519152906103c39086815260200190565b60006008544261072a9190610ecf565b9050600060075461074d60065461074360095486610b44565b600160601b610be3565b61075f60075461074360095487610b44565b6107699190610ee2565b6107739190610ecf565b42600855905061078281610657565b80600660008282546107949190610ee2565b90915550505050565b428410156107ed5760405162461bcd60e51b815260206004820152601760248201527f5045524d49545f444541444c494e455f455850495245440000000000000000006044820152606401610594565b60006107f76104b7565b6001600160a01b0389811660008181526005602090815260409182902080546001810190915582517f6e71edae12b1b97f4d1f60370fef10105fa2faae0126114a169c64845d6126c98184015280840194909452938c166060840152608083018b905260a083019390935260c08083018a90528151808403909101815260e08301909152805192019190912061190160f01b6101008301526101028201929092526101228101919091526101420160408051601f198184030181528282528051602091820120600080855291840180845281905260ff88169284019290925260608301869052608083018590529092509060019060a0016020604051602081039080840390855afa158015610910573d6000803e3d6000fd5b5050604051601f1901519150506001600160a01b038116158015906109465750886001600160a01b0316816001600160a01b0316145b6109835760405162461bcd60e51b815260206004820152600e60248201526d24a72b20a624a22fa9a4a3a722a960911b6044820152606401610594565b6001600160a01b0390811660009081526004602090815260408083208b8516808552908352928190208a905551898152919350918a16917f8c5be1e5ebec7d5bd14f71427d1e84f3dd0314c0f7b2291e5b200ac8c7c3b925910160405180910390a350505050505050565b60007f8b73c3c69bb8fe3d512ecc4cf759cc79239f7b179b0ffacaa9a75d522b39400f6000604051610a209190610ef5565b6040805191829003822060208301939093528101919091527fc89efdaa54c0f20c7adf612882df0950f5a951637e0307cdcb4c672f298b8bc660608201524660808201523060a082015260c00160405160208183030381529060405280519060200120905090565b6001600160a01b03821660009081526003602052604081208054839290610ab0908490610ecf565b90915550506002805482900390556040518181526000906001600160a01b03841690600080516020610fd3833981519152906020015b60405180910390a35050565b8060026000828254610b049190610ee2565b90915550506001600160a01b038216600081815260036020908152604080832080548601905551848152600080516020610fd38339815191529101610ae6565b600081600003610b595750600160601b6103cf565b81600103610b685750816103cf565b610b73600283610faa565b600003610ba657610b8e83610b89600285610fbe565b610b44565b9050610b9f8182600160601b610c23565b90506103cf565b610bc1836002610bb7600186610ecf565b610b899190610fbe565b9050610bd28182600160601b610c23565b90506104b08184600160601b610c23565b6000610bf0848484610c23565b905060008280610c0257610c02610f94565b84860911156104b0576000198110610c1957600080fd5b6001019392505050565b6000808060001985870985870292508281108382030391505080600003610c5c5760008411610c5157600080fd5b5082900490506104b0565b808411610c6857600080fd5b6000848688096000868103871696879004966002600389028118808a02820302808a02820302808a02820302808a02820302808a02820302808a02909103029181900381900460010186841190950394909402919094039290920491909117919091029150509392505050565b600060208083528351808285015260005b81811015610d0257858101830151858201604001528201610ce6565b506000604082860101526040601f19601f8301168501019250505092915050565b80356001600160a01b0381168114610d3a57600080fd5b919050565b60008060408385031215610d5257600080fd5b610d5b83610d23565b946020939093013593505050565b600080600060608486031215610d7e57600080fd5b610d8784610d23565b9250610d9560208501610d23565b9150604084013590509250925092565b600060208284031215610db757600080fd5b5035919050565b600060208284031215610dd057600080fd5b6104b082610d23565b600080600080600080600060e0888a031215610df457600080fd5b610dfd88610d23565b9650610e0b60208901610d23565b95506040880135945060608801359350608088013560ff81168114610e2f57600080fd5b9699959850939692959460a0840135945060c09093013592915050565b60008060408385031215610e5f57600080fd5b610e6883610d23565b9150610e7660208401610d23565b90509250929050565b600181811c90821680610e9357607f821691505b602082108103610eb357634e487b7160e01b600052602260045260246000fd5b50919050565b634e487b7160e01b600052601160045260246000fd5b818103818111156103cf576103cf610eb9565b808201808211156103cf576103cf610eb9565b600080835481600182811c915080831680610f1157607f831692505b60208084108203610f3057634e487b7160e01b86526022600452602486fd5b818015610f445760018114610f5957610f86565b60ff1986168952841515850289019650610f86565b60008a81526020902060005b86811015610f7e5781548b820152908501908301610f65565b505084890196505b509498975050505050505050565b634e487b7160e01b600052601260045260246000fd5b600082610fb957610fb9610f94565b500690565b600082610fcd57610fcd610f94565b50049056feddf252ad1be2c89b69c2b068fc378daa952ba7f163c4a11628f55a4df523b3efa2646970667358221220a8bff6abd439d0af38df06d10eaa3a8fc07ee87e34343cea5919ae9daa68270f64736f6c63430008110033608060405234801561001057600080fd5b5060405161033138038061033183398101604081905261002f91610050565b6001939093556002919091556004556005556000805460ff19169055610086565b6000806000806080858703121561006657600080fd5b505082516020840151604085015160609095015191969095509092509050565b61029c806100956000396000f3fe608060405234801561001057600080fd5b506004361061004c5760003560e01c80635257b566146100515780637c3a00fd14610068578063a271458814610071578063a7faebbf1461008b575b600080fd5b6006545b6040519081526020015b60405180910390f35b61005560065481565b60005461007e9060ff1681565b60405161005f91906101e3565b61009e61009936600461020b565b6100a0565b005b60038190556004548110156100e0576000805460ff191690556003546001546004546100cd929190610130565b6005546100da919061023a565b60065550565b6000805460ff191660011790556004546003546101169161010091610253565b600254600454610111906001610253565b610130565b600154600554610126919061023a565b6100da919061023a565b6000808060001985870985870292508281108382030391505080600003610169576000841161015e57600080fd5b5082900490506101dc565b80841161017557600080fd5b6000848688096000868103871696879004966002600389028118808a02820302808a02820302808a02820302808a02820302808a02820302808a02909103029181900381900460010186841190950394909402919094039290920491909117919091029150505b9392505050565b602081016002831061020557634e487b7160e01b600052602160045260246000fd5b91905290565b60006020828403121561021d57600080fd5b5035919050565b634e487b7160e01b600052601160045260246000fd5b8082018082111561024d5761024d610224565b92915050565b8181038181111561024d5761024d61022456fea26469706673582212201287134f12cc7a4b58af41d7bef6c976007f7278c2e48366478423c4adc04dc064736f6c63430008110033000000000000000000000000c36442b4a4522e871399cd717abdd847ab11fe88a2646970667358221220dec3cfc06c6462eab415de65767bb8d5c20444226a9fdc7045482dee10cce98564736f6c6343000811003360e06040523480156200001157600080fd5b506040518060400160405280600981526020016823b437902a37b5b2b760b91b8152506040518060400160405280600381526020016247484f60e81b8152506012826000908162000063919062000234565b50600162000072838262000234565b5060ff81166080524660a05262000088620000a1565b60c052506200009b91503390506200013d565b6200037e565b60007f8b73c3c69bb8fe3d512ecc4cf759cc79239f7b179b0ffacaa9a75d522b39400f6000604051620000d5919062000300565b6040805191829003822060208301939093528101919091527fc89efdaa54c0f20c7adf612882df0950f5a951637e0307cdcb4c672f298b8bc660608201524660808201523060a082015260c00160405160208183030381529060405280519060200120905090565b600680546001600160a01b038381166001600160a01b0319831681179093556040519116919082907f8be0079c531659141344cd1fd0a4f28419497f9722a3daafe3b4186f6b6457e090600090a35050565b634e487b7160e01b600052604160045260246000fd5b600181811c90821680620001ba57607f821691505b602082108103620001db57634e487b7160e01b600052602260045260246000fd5b50919050565b601f8211156200022f57600081815260208120601f850160051c810160208610156200020a5750805b601f850160051c820191505b818110156200022b5782815560010162000216565b5050505b505050565b81516001600160401b038111156200025057620002506200018f565b6200026881620002618454620001a5565b84620001e1565b602080601f831160018114620002a05760008415620002875750858301515b600019600386901b1c1916600185901b1785556200022b565b600085815260208120601f198616915b82811015620002d157888601518255948401946001909101908401620002b0565b5085821015620002f05787850151600019600388901b60f8161c191681555b5050505050600190811b01905550565b60008083546200031081620001a5565b600182811680156200032b5760018114620003415762000372565b60ff198416875282151583028701945062000372565b8760005260208060002060005b85811015620003695781548a8201529084019082016200034e565b50505082870194505b50929695505050505050565b60805160a05160c051611b82620003ae6000396000610608015260006105d8015260006102090152611b826000f3fe608060405234801561001057600080fd5b50600436106101585760003560e01c8063715018a6116100c3578063aa02f94a1161007c578063aa02f94a14610311578063af93df5714610364578063d46ec0ed14610377578063d505accf14610397578063dd62ed3e146103aa578063f2fde38b146103d557600080fd5b8063715018a6146102a05780637ecebe00146102a85780638da5cb5b146102c857806395d89b41146102e3578063a11812ba146102eb578063a9059cbb146102fe57600080fd5b8063313ce56711610115578063313ce567146102045780633644e5151461023d57806340c10f191461024557806342966c681461025a5780634e8788601461026d57806370a082311461028057600080fd5b806306fdde031461015d578063095ea7b31461017b57806318160ddd1461019e5780631ec90f2e146101b557806323b872dd146101ca57806330adf81f146101dd575b600080fd5b6101656103e8565b6040516101729190611542565b60405180910390f35b61018e610189366004611571565b610476565b6040519015158152602001610172565b6101a760025481565b604051908152602001610172565b6101bd6104e3565b604051610172919061159b565b61018e6101d83660046115e8565b6104f4565b6101a77f6e71edae12b1b97f4d1f60370fef10105fa2faae0126114a169c64845d6126c981565b61022b7f000000000000000000000000000000000000000000000000000000000000000081565b60405160ff9091168152602001610172565b6101a76105d4565b610258610253366004611571565b61062a565b005b610258610268366004611624565b61076d565b61025861027b3660046116c4565b610847565b6101a761028e3660046117ba565b60036020526000908152604090205481565b610258610a19565b6101a76102b63660046117ba565b60056020526000908152604090205481565b6006546040516001600160a01b039091168152602001610172565b610165610a2d565b6102586102f93660046117ba565b610a3a565b61018e61030c366004611571565b610ba6565b61034f61031f3660046117ba565b6001600160a01b03166000908152600760205260409020546001600160801b0380821692600160801b9092041690565b60408051928352602083019190915201610172565b6102586103723660046117d5565b610c0c565b61038a6103853660046117ba565b610d03565b6040516101729190611808565b6102586103a536600461184c565b610dfc565b6101a76103b83660046118bf565b600460209081526000928352604080842090915290825290205481565b6102586103e33660046117ba565b61104d565b600080546103f5906118e9565b80601f0160208091040260200160405190810160405280929190818152602001828054610421906118e9565b801561046e5780601f106104435761010080835404028352916020019161046e565b820191906000526020600020905b81548152906001019060200180831161045157829003601f168201915b505050505081565b3360008181526004602090815260408083206001600160a01b038716808552925280832085905551919290917f8c5be1e5ebec7d5bd14f71427d1e84f3dd0314c0f7b2291e5b200ac8c7c3b925906104d19086815260200190565b60405180910390a35060015b92915050565b60606104ef60086110c6565b905090565b6001600160a01b038316600090815260046020908152604080832033845290915281205460001981146105505761052b8382611939565b6001600160a01b03861660009081526004602090815260408083203384529091529020555b6001600160a01b03851660009081526003602052604081208054859290610578908490611939565b90915550506001600160a01b0380851660008181526003602052604090819020805487019055519091871690600080516020611b2d833981519152906105c19087815260200190565b60405180910390a3506001949350505050565b60007f00000000000000000000000000000000000000000000000000000000000000004614610605576104ef6110da565b507f000000000000000000000000000000000000000000000000000000000000000090565b33600090815260076020526040902080546001600160801b03168061068c5760405162461bcd60e51b815260206004820152601360248201527224a72b20a624a22fa320a1a4a624aa20aa27a960691b60448201526064015b60405180910390fd5b8154600160801b90046001600160801b031660006106aa858361194c565b9050808310156107085760405162461bcd60e51b8152602060048201526024808201527f464143494c495441544f525f4255434b45545f43415041434954595f455843456044820152631151115160e21b6064820152608401610683565b83546001600160801b03808316600160801b02911617845561072a8686611174565b604080518381526020810183905233917facb6de9209e4f34974cb165eef5738f0cf0b4ea9819ef30d30f0f7d81272ab82910160405180910390a2505050505050565b806000036107b35760405162461bcd60e51b81526020600482015260136024820152721253959053125117d095549397d05353d55395606a1b6044820152606401610683565b33600090815260076020526040812080549091600160801b9091046001600160801b0316906107e28483611939565b83546001600160801b03808316600160801b029116178455905061080633856111ce565b604080518381526020810183905233917facb6de9209e4f34974cb165eef5738f0cf0b4ea9819ef30d30f0f7d81272ab82910160405180910390a250505050565b61084f611230565b6001600160a01b0382166000908152600760205260409020600181018054610876906118e9565b1590506108c55760405162461bcd60e51b815260206004820152601a60248201527f464143494c495441544f525f414c52454144595f4558495354530000000000006044820152606401610683565b60008260400151511161090a5760405162461bcd60e51b815260206004820152600d60248201526c1253959053125117d310509153609a1b6044820152606401610683565b60208201516001600160801b0316156109655760405162461bcd60e51b815260206004820152601c60248201527f494e56414c49445f4255434b45545f434f4e46494755524154494f4e000000006044820152606401610683565b6040820151600182019061097990826119ae565b50815181546001600160801b0319166001600160801b039091161781556109a160088461128a565b5081604001516040516020016109b79190611a6e565b60408051601f1981840301815290829052805160209182012084516001600160801b03168352916001600160a01b038616917fdabd62626ada7b13e299389e94d768b294e5e24285ed2ffa1e5cd447c99c54ad910160405180910390a3505050565b610a21611230565b610a2b600061129f565b565b600180546103f5906118e9565b610a42611230565b6001600160a01b03811660009081526007602052604081206001018054610a68906118e9565b905011610ab75760405162461bcd60e51b815260206004820152601a60248201527f464143494c495441544f525f444f45535f4e4f545f45584953540000000000006044820152606401610683565b6001600160a01b038116600090815260076020526040902054600160801b90046001600160801b031615610b375760405162461bcd60e51b815260206004820152602160248201527f464143494c495441544f525f4255434b45545f4c4556454c5f4e4f545f5a45526044820152604f60f81b6064820152608401610683565b6001600160a01b038116600090815260076020526040812081815590610b6060018301826114a4565b50610b6e90506008826112f1565b506040516001600160a01b038216907fa8fe5b89f35f2ebd6f3f95a7ef215f4bd89179e10c101073ae76cffad14734cf90600090a250565b33600090815260036020526040812080548391908390610bc7908490611939565b90915550506001600160a01b03831660008181526003602052604090819020805485019055513390600080516020611b2d833981519152906104d19086815260200190565b610c14611230565b6001600160a01b03821660009081526007602052604081206001018054610c3a906118e9565b905011610c895760405162461bcd60e51b815260206004820152601a60248201527f464143494c495441544f525f444f45535f4e4f545f45584953540000000000006044820152606401610683565b6001600160a01b03821660008181526007602090815260409182902080546001600160801b031981166001600160801b03878116918217909355845192909116808352928201529092917fc795c0a4927c3b6645e4e49a5a519af936b3c1c0e4c323a3f7251063f3f4bb0e910160405180910390a2505050565b6040805160608082018352600080835260208084018290528385018390526001600160a01b038616825260078152908490208451928301855280546001600160801b038082168552600160801b9091041691830191909152600181018054939492939192840191610d73906118e9565b80601f0160208091040260200160405190810160405280929190818152602001828054610d9f906118e9565b8015610dec5780601f10610dc157610100808354040283529160200191610dec565b820191906000526020600020905b815481529060010190602001808311610dcf57829003601f168201915b5050505050815250509050919050565b42841015610e4c5760405162461bcd60e51b815260206004820152601760248201527f5045524d49545f444541444c494e455f455850495245440000000000000000006044820152606401610683565b6000610e566105d4565b6001600160a01b0389811660008181526005602090815260409182902080546001810190915582517f6e71edae12b1b97f4d1f60370fef10105fa2faae0126114a169c64845d6126c98184015280840194909452938c166060840152608083018b905260a083019390935260c08083018a90528151808403909101815260e08301909152805192019190912061190160f01b6101008301526101028201929092526101228101919091526101420160408051601f198184030181528282528051602091820120600080855291840180845281905260ff88169284019290925260608301869052608083018590529092509060019060a0016020604051602081039080840390855afa158015610f6f573d6000803e3d6000fd5b5050604051601f1901519150506001600160a01b03811615801590610fa55750886001600160a01b0316816001600160a01b0316145b610fe25760405162461bcd60e51b815260206004820152600e60248201526d24a72b20a624a22fa9a4a3a722a960911b6044820152606401610683565b6001600160a01b0390811660009081526004602090815260408083208b8516808552908352928190208a905551898152919350918a16917f8c5be1e5ebec7d5bd14f71427d1e84f3dd0314c0f7b2291e5b200ac8c7c3b925910160405180910390a350505050505050565b611055611230565b6001600160a01b0381166110ba5760405162461bcd60e51b815260206004820152602660248201527f4f776e61626c653a206e6577206f776e657220697320746865207a65726f206160448201526564647265737360d01b6064820152608401610683565b6110c38161129f565b50565b606060006110d383611306565b9392505050565b60007f8b73c3c69bb8fe3d512ecc4cf759cc79239f7b179b0ffacaa9a75d522b39400f600060405161110c9190611a8a565b6040805191829003822060208301939093528101919091527fc89efdaa54c0f20c7adf612882df0950f5a951637e0307cdcb4c672f298b8bc660608201524660808201523060a082015260c00160405160208183030381529060405280519060200120905090565b8060026000828254611186919061194c565b90915550506001600160a01b038216600081815260036020908152604080832080548601905551848152600080516020611b2d83398151915291015b60405180910390a35050565b6001600160a01b038216600090815260036020526040812080548392906111f6908490611939565b90915550506002805482900390556040518181526000906001600160a01b03841690600080516020611b2d833981519152906020016111c2565b6006546001600160a01b03163314610a2b5760405162461bcd60e51b815260206004820181905260248201527f4f776e61626c653a2063616c6c6572206973206e6f7420746865206f776e65726044820152606401610683565b60006110d3836001600160a01b038416611362565b600680546001600160a01b038381166001600160a01b0319831681179093556040519116919082907f8be0079c531659141344cd1fd0a4f28419497f9722a3daafe3b4186f6b6457e090600090a35050565b60006110d3836001600160a01b0384166113b1565b60608160000180548060200260200160405190810160405280929190818152602001828054801561135657602002820191906000526020600020905b815481526020019060010190808311611342575b50505050509050919050565b60008181526001830160205260408120546113a9575081546001818101845560008481526020808220909301849055845484825282860190935260409020919091556104dd565b5060006104dd565b6000818152600183016020526040812054801561149a5760006113d5600183611939565b85549091506000906113e990600190611939565b905081811461144e57600086600001828154811061140957611409611b00565b906000526020600020015490508087600001848154811061142c5761142c611b00565b6000918252602080832090910192909255918252600188019052604090208390555b855486908061145f5761145f611b16565b6001900381819060005260206000200160009055905585600101600086815260200190815260200160002060009055600193505050506104dd565b60009150506104dd565b5080546114b0906118e9565b6000825580601f106114c0575050565b601f0160209004906000526020600020908101906110c391905b808211156114ee57600081556001016114da565b5090565b60005b8381101561150d5781810151838201526020016114f5565b50506000910152565b6000815180845261152e8160208601602086016114f2565b601f01601f19169290920160200192915050565b6020815260006110d36020830184611516565b80356001600160a01b038116811461156c57600080fd5b919050565b6000806040838503121561158457600080fd5b61158d83611555565b946020939093013593505050565b6020808252825182820181905260009190848201906040850190845b818110156115dc5783516001600160a01b0316835292840192918401916001016115b7565b50909695505050505050565b6000806000606084860312156115fd57600080fd5b61160684611555565b925061161460208501611555565b9150604084013590509250925092565b60006020828403121561163657600080fd5b5035919050565b634e487b7160e01b600052604160045260246000fd5b6040516060810167ffffffffffffffff811182821017156116765761167661163d565b60405290565b604051601f8201601f1916810167ffffffffffffffff811182821017156116a5576116a561163d565b604052919050565b80356001600160801b038116811461156c57600080fd5b600080604083850312156116d757600080fd5b6116e083611555565b915060208084013567ffffffffffffffff808211156116fe57600080fd5b908501906060828803121561171257600080fd5b61171a611653565b611723836116ad565b81526117308484016116ad565b8482015260408301358281111561174657600080fd5b80840193505087601f84011261175b57600080fd5b82358281111561176d5761176d61163d565b61177f601f8201601f1916860161167c565b9250808352888582860101111561179557600080fd5b8085850186850137600085828501015250816040820152809450505050509250929050565b6000602082840312156117cc57600080fd5b6110d382611555565b600080604083850312156117e857600080fd5b6117f183611555565b91506117ff602084016116ad565b90509250929050565b6020815260006001600160801b038084511660208401528060208501511660408401525060408301516060808401526118446080840182611516565b949350505050565b600080600080600080600060e0888a03121561186757600080fd5b61187088611555565b965061187e60208901611555565b95506040880135945060608801359350608088013560ff811681146118a257600080fd5b9699959850939692959460a0840135945060c09093013592915050565b600080604083850312156118d257600080fd5b6118db83611555565b91506117ff60208401611555565b600181811c908216806118fd57607f821691505b60208210810361191d57634e487b7160e01b600052602260045260246000fd5b50919050565b634e487b7160e01b600052601160045260246000fd5b818103818111156104dd576104dd611923565b808201808211156104dd576104dd611923565b601f8211156119a957600081815260208120601f850160051c810160208610156119865750805b601f850160051c820191505b818110156119a557828155600101611992565b5050505b505050565b815167ffffffffffffffff8111156119c8576119c861163d565b6119dc816119d684546118e9565b8461195f565b602080601f831160018114611a1157600084156119f95750858301515b600019600386901b1c1916600185901b1785556119a5565b600085815260208120601f198616915b82811015611a4057888601518255948401946001909101908401611a21565b5085821015611a5e5787850151600019600388901b60f8161c191681555b5050505050600190811b01905550565b60008251611a808184602087016114f2565b9190910192915050565b6000808354611a98816118e9565b60018281168015611ab05760018114611ac557611af4565b60ff1984168752821515830287019450611af4565b8760005260208060002060005b85811015611aeb5781548a820152908401908201611ad2565b50505082870194505b50929695505050505050565b634e487b7160e01b600052603260045260246000fd5b634e487b7160e01b600052603160045260246000fdfeddf252ad1be2c89b69c2b068fc378daa952ba7f163c4a11628f55a4df523b3efa2646970667358221220b2fc9447e1b5ee4dc010dd9efc5b7a51fa1e4e9c3719c9c562057a07eaf086f164736f6c63430008110033",
    "linkReferences": {}
  },
  "methodIdentifiers": {
    "GHO()": "b8d008f3",
    "NAME()": "a3f4df7e",
    "addTokenIdToArray(uint256)": "2abd12b8",
    "borrowerOperationsAddress()": "b7f8cf9b",
    "burnDebtToken(uint256,uint256)": "1b28f7c2",
    "burnPosition(uint256)": "38ca63bc",
    "decreaseLiquidity(uint256,uint128,address)": "0fe345ec",
    "decreaseMintedSupply(uint256,address)": "47f06fc4",
    "feesOwed((uint256,address,uint128,uint128))": "726dfbe6",
    "getCollateralValue()": "c047e563",
    "getDebtToken(uint256)": "c574dc8a",
    "getMaxSupply()": "4c0f38c2",
    "getMintedSupply()": "f2113b5a",
    "increaseLiquidity(address,uint256,uint256,uint256)": "297fabf5",
    "increaseMintedSupply(uint256,address,uint256)": "cdc820a4",
    "initializeVariableInterest(uint256,uint256,uint256,uint256)": "e76af463",
    "lpPositionsManagerAddress()": "41f787bb",
    "mintPosition((address,address,uint24,int24,int24,uint256,uint256,uint256,uint256,address,uint256))": "5f1ee5c4",
    "newDebtToken(address,uint256,uint256)": "c510fe5d",
    "onERC721Received(address,address,uint256,bytes)": "150b7a02",
    "owner()": "8da5cb5b",
    "renounceOwnership()": "715018a6",
    "repayInterestFromUserToProtocol(address,uint256,uint256)": "6616747b",
    "sendPosition(address,uint256)": "4f5e933f",
    "setAddresses(address,address)": "90107afe",
    "tokenIdToDebtTokens(uint256)": "2560b327",
    "transferOwnership(address)": "f2fde38b",
    "updateUtilizationIndex(uint256)": "1e88f001"
  },
  "id": 0
}