{
  "abi": [
    {
      "inputs": [],
      "stateMutability": "nonpayable",
      "type": "constructor"
    },
    {
      "anonymous": false,
      "inputs": [
        {
          "indexed": true,
          "internalType": "address",
          "name": "owner",
          "type": "address"
        },
        {
          "indexed": true,
          "internalType": "address",
          "name": "spender",
          "type": "address"
        },
        {
          "indexed": false,
          "internalType": "uint256",
          "name": "value",
          "type": "uint256"
        }
      ],
      "name": "Approval",
      "type": "event"
    },
    {
      "anonymous": false,
      "inputs": [
        {
          "indexed": true,
          "internalType": "address",
          "name": "facilitatorAddress",
          "type": "address"
        },
        {
          "indexed": true,
          "internalType": "bytes32",
          "name": "label",
          "type": "bytes32"
        },
        {
          "indexed": false,
          "internalType": "uint256",
          "name": "bucketCapacity",
          "type": "uint256"
        }
      ],
      "name": "FacilitatorAdded",
      "type": "event"
    },
    {
      "anonymous": false,
      "inputs": [
        {
          "indexed": true,
          "internalType": "address",
          "name": "facilitatorAddress",
          "type": "address"
        },
        {
          "indexed": false,
          "internalType": "uint256",
          "name": "oldCapacity",
          "type": "uint256"
        },
        {
          "indexed": false,
          "internalType": "uint256",
          "name": "newCapacity",
          "type": "uint256"
        }
      ],
      "name": "FacilitatorBucketCapacityUpdated",
      "type": "event"
    },
    {
      "anonymous": false,
      "inputs": [
        {
          "indexed": true,
          "internalType": "address",
          "name": "facilitatorAddress",
          "type": "address"
        },
        {
          "indexed": false,
          "internalType": "uint256",
          "name": "oldLevel",
          "type": "uint256"
        },
        {
          "indexed": false,
          "internalType": "uint256",
          "name": "newLevel",
          "type": "uint256"
        }
      ],
      "name": "FacilitatorBucketLevelUpdated",
      "type": "event"
    },
    {
      "anonymous": false,
      "inputs": [
        {
          "indexed": true,
          "internalType": "address",
          "name": "facilitatorAddress",
          "type": "address"
        }
      ],
      "name": "FacilitatorRemoved",
      "type": "event"
    },
    {
      "anonymous": false,
      "inputs": [
        {
          "indexed": true,
          "internalType": "address",
          "name": "previousOwner",
          "type": "address"
        },
        {
          "indexed": true,
          "internalType": "address",
          "name": "newOwner",
          "type": "address"
        }
      ],
      "name": "OwnershipTransferred",
      "type": "event"
    },
    {
      "anonymous": false,
      "inputs": [
        {
          "indexed": true,
          "internalType": "address",
          "name": "from",
          "type": "address"
        },
        {
          "indexed": true,
          "internalType": "address",
          "name": "to",
          "type": "address"
        },
        {
          "indexed": false,
          "internalType": "uint256",
          "name": "value",
          "type": "uint256"
        }
      ],
      "name": "Transfer",
      "type": "event"
    },
    {
      "inputs": [],
      "name": "DOMAIN_SEPARATOR",
      "outputs": [
        {
          "internalType": "bytes32",
          "name": "",
          "type": "bytes32"
        }
      ],
      "stateMutability": "view",
      "type": "function"
    },
    {
      "inputs": [],
      "name": "PERMIT_TYPEHASH",
      "outputs": [
        {
          "internalType": "bytes32",
          "name": "",
          "type": "bytes32"
        }
      ],
      "stateMutability": "view",
      "type": "function"
    },
    {
      "inputs": [
        {
          "internalType": "address",
          "name": "facilitatorAddress",
          "type": "address"
        },
        {
          "components": [
            {
              "internalType": "uint128",
              "name": "bucketCapacity",
              "type": "uint128"
            },
            {
              "internalType": "uint128",
              "name": "bucketLevel",
              "type": "uint128"
            },
            {
              "internalType": "string",
              "name": "label",
              "type": "string"
            }
          ],
          "internalType": "struct IGhoToken.Facilitator",
          "name": "facilitatorConfig",
          "type": "tuple"
        }
      ],
      "name": "addFacilitator",
      "outputs": [],
      "stateMutability": "nonpayable",
      "type": "function"
    },
    {
      "inputs": [
        {
          "internalType": "address",
          "name": "",
          "type": "address"
        },
        {
          "internalType": "address",
          "name": "",
          "type": "address"
        }
      ],
      "name": "allowance",
      "outputs": [
        {
          "internalType": "uint256",
          "name": "",
          "type": "uint256"
        }
      ],
      "stateMutability": "view",
      "type": "function"
    },
    {
      "inputs": [
        {
          "internalType": "address",
          "name": "spender",
          "type": "address"
        },
        {
          "internalType": "uint256",
          "name": "amount",
          "type": "uint256"
        }
      ],
      "name": "approve",
      "outputs": [
        {
          "internalType": "bool",
          "name": "",
          "type": "bool"
        }
      ],
      "stateMutability": "nonpayable",
      "type": "function"
    },
    {
      "inputs": [
        {
          "internalType": "address",
          "name": "",
          "type": "address"
        }
      ],
      "name": "balanceOf",
      "outputs": [
        {
          "internalType": "uint256",
          "name": "",
          "type": "uint256"
        }
      ],
      "stateMutability": "view",
      "type": "function"
    },
    {
      "inputs": [
        {
          "internalType": "uint256",
          "name": "amount",
          "type": "uint256"
        }
      ],
      "name": "burn",
      "outputs": [],
      "stateMutability": "nonpayable",
      "type": "function"
    },
    {
      "inputs": [],
      "name": "decimals",
      "outputs": [
        {
          "internalType": "uint8",
          "name": "",
          "type": "uint8"
        }
      ],
      "stateMutability": "view",
      "type": "function"
    },
    {
      "inputs": [
        {
          "internalType": "address",
          "name": "facilitator",
          "type": "address"
        }
      ],
      "name": "getFacilitator",
      "outputs": [
        {
          "components": [
            {
              "internalType": "uint128",
              "name": "bucketCapacity",
              "type": "uint128"
            },
            {
              "internalType": "uint128",
              "name": "bucketLevel",
              "type": "uint128"
            },
            {
              "internalType": "string",
              "name": "label",
              "type": "string"
            }
          ],
          "internalType": "struct IGhoToken.Facilitator",
          "name": "",
          "type": "tuple"
        }
      ],
      "stateMutability": "view",
      "type": "function"
    },
    {
      "inputs": [
        {
          "internalType": "address",
          "name": "facilitator",
          "type": "address"
        }
      ],
      "name": "getFacilitatorBucket",
      "outputs": [
        {
          "internalType": "uint256",
          "name": "",
          "type": "uint256"
        },
        {
          "internalType": "uint256",
          "name": "",
          "type": "uint256"
        }
      ],
      "stateMutability": "view",
      "type": "function"
    },
    {
      "inputs": [],
      "name": "getFacilitatorsList",
      "outputs": [
        {
          "internalType": "address[]",
          "name": "",
          "type": "address[]"
        }
      ],
      "stateMutability": "view",
      "type": "function"
    },
    {
      "inputs": [
        {
          "internalType": "address",
          "name": "account",
          "type": "address"
        },
        {
          "internalType": "uint256",
          "name": "amount",
          "type": "uint256"
        }
      ],
      "name": "mint",
      "outputs": [],
      "stateMutability": "nonpayable",
      "type": "function"
    },
    {
      "inputs": [],
      "name": "name",
      "outputs": [
        {
          "internalType": "string",
          "name": "",
          "type": "string"
        }
      ],
      "stateMutability": "view",
      "type": "function"
    },
    {
      "inputs": [
        {
          "internalType": "address",
          "name": "",
          "type": "address"
        }
      ],
      "name": "nonces",
      "outputs": [
        {
          "internalType": "uint256",
          "name": "",
          "type": "uint256"
        }
      ],
      "stateMutability": "view",
      "type": "function"
    },
    {
      "inputs": [],
      "name": "owner",
      "outputs": [
        {
          "internalType": "address",
          "name": "",
          "type": "address"
        }
      ],
      "stateMutability": "view",
      "type": "function"
    },
    {
      "inputs": [
        {
          "internalType": "address",
          "name": "owner",
          "type": "address"
        },
        {
          "internalType": "address",
          "name": "spender",
          "type": "address"
        },
        {
          "internalType": "uint256",
          "name": "value",
          "type": "uint256"
        },
        {
          "internalType": "uint256",
          "name": "deadline",
          "type": "uint256"
        },
        {
          "internalType": "uint8",
          "name": "v",
          "type": "uint8"
        },
        {
          "internalType": "bytes32",
          "name": "r",
          "type": "bytes32"
        },
        {
          "internalType": "bytes32",
          "name": "s",
          "type": "bytes32"
        }
      ],
      "name": "permit",
      "outputs": [],
      "stateMutability": "nonpayable",
      "type": "function"
    },
    {
      "inputs": [
        {
          "internalType": "address",
          "name": "facilitatorAddress",
          "type": "address"
        }
      ],
      "name": "removeFacilitator",
      "outputs": [],
      "stateMutability": "nonpayable",
      "type": "function"
    },
    {
      "inputs": [],
      "name": "renounceOwnership",
      "outputs": [],
      "stateMutability": "nonpayable",
      "type": "function"
    },
    {
      "inputs": [
        {
          "internalType": "address",
          "name": "facilitator",
          "type": "address"
        },
        {
          "internalType": "uint128",
          "name": "newCapacity",
          "type": "uint128"
        }
      ],
      "name": "setFacilitatorBucketCapacity",
      "outputs": [],
      "stateMutability": "nonpayable",
      "type": "function"
    },
    {
      "inputs": [],
      "name": "symbol",
      "outputs": [
        {
          "internalType": "string",
          "name": "",
          "type": "string"
        }
      ],
      "stateMutability": "view",
      "type": "function"
    },
    {
      "inputs": [],
      "name": "totalSupply",
      "outputs": [
        {
          "internalType": "uint256",
          "name": "",
          "type": "uint256"
        }
      ],
      "stateMutability": "view",
      "type": "function"
    },
    {
      "inputs": [
        {
          "internalType": "address",
          "name": "to",
          "type": "address"
        },
        {
          "internalType": "uint256",
          "name": "amount",
          "type": "uint256"
        }
      ],
      "name": "transfer",
      "outputs": [
        {
          "internalType": "bool",
          "name": "",
          "type": "bool"
        }
      ],
      "stateMutability": "nonpayable",
      "type": "function"
    },
    {
      "inputs": [
        {
          "internalType": "address",
          "name": "from",
          "type": "address"
        },
        {
          "internalType": "address",
          "name": "to",
          "type": "address"
        },
        {
          "internalType": "uint256",
          "name": "amount",
          "type": "uint256"
        }
      ],
      "name": "transferFrom",
      "outputs": [
        {
          "internalType": "bool",
          "name": "",
          "type": "bool"
        }
      ],
      "stateMutability": "nonpayable",
      "type": "function"
    },
    {
      "inputs": [
        {
          "internalType": "address",
          "name": "newOwner",
          "type": "address"
        }
      ],
      "name": "transferOwnership",
      "outputs": [],
      "stateMutability": "nonpayable",
      "type": "function"
    }
  ],
  "bytecode": {
    "object": "0x60e06040523480156200001157600080fd5b506040518060400160405280600981526020016823b437902a37b5b2b760b91b8152506040518060400160405280600381526020016247484f60e81b8152506012826000908162000063919062000234565b50600162000072838262000234565b5060ff81166080524660a05262000088620000a1565b60c052506200009b91503390506200013d565b6200037e565b60007f8b73c3c69bb8fe3d512ecc4cf759cc79239f7b179b0ffacaa9a75d522b39400f6000604051620000d5919062000300565b6040805191829003822060208301939093528101919091527fc89efdaa54c0f20c7adf612882df0950f5a951637e0307cdcb4c672f298b8bc660608201524660808201523060a082015260c00160405160208183030381529060405280519060200120905090565b600680546001600160a01b038381166001600160a01b0319831681179093556040519116919082907f8be0079c531659141344cd1fd0a4f28419497f9722a3daafe3b4186f6b6457e090600090a35050565b634e487b7160e01b600052604160045260246000fd5b600181811c90821680620001ba57607f821691505b602082108103620001db57634e487b7160e01b600052602260045260246000fd5b50919050565b601f8211156200022f57600081815260208120601f850160051c810160208610156200020a5750805b601f850160051c820191505b818110156200022b5782815560010162000216565b5050505b505050565b81516001600160401b038111156200025057620002506200018f565b6200026881620002618454620001a5565b84620001e1565b602080601f831160018114620002a05760008415620002875750858301515b600019600386901b1c1916600185901b1785556200022b565b600085815260208120601f198616915b82811015620002d157888601518255948401946001909101908401620002b0565b5085821015620002f05787850151600019600388901b60f8161c191681555b5050505050600190811b01905550565b60008083546200031081620001a5565b600182811680156200032b5760018114620003415762000372565b60ff198416875282151583028701945062000372565b8760005260208060002060005b85811015620003695781548a8201529084019082016200034e565b50505082870194505b50929695505050505050565b60805160a05160c051611b82620003ae6000396000610608015260006105d8015260006102090152611b826000f3fe608060405234801561001057600080fd5b50600436106101585760003560e01c8063715018a6116100c3578063aa02f94a1161007c578063aa02f94a14610311578063af93df5714610364578063d46ec0ed14610377578063d505accf14610397578063dd62ed3e146103aa578063f2fde38b146103d557600080fd5b8063715018a6146102a05780637ecebe00146102a85780638da5cb5b146102c857806395d89b41146102e3578063a11812ba146102eb578063a9059cbb146102fe57600080fd5b8063313ce56711610115578063313ce567146102045780633644e5151461023d57806340c10f191461024557806342966c681461025a5780634e8788601461026d57806370a082311461028057600080fd5b806306fdde031461015d578063095ea7b31461017b57806318160ddd1461019e5780631ec90f2e146101b557806323b872dd146101ca57806330adf81f146101dd575b600080fd5b6101656103e8565b6040516101729190611542565b60405180910390f35b61018e610189366004611571565b610476565b6040519015158152602001610172565b6101a760025481565b604051908152602001610172565b6101bd6104e3565b604051610172919061159b565b61018e6101d83660046115e8565b6104f4565b6101a77f6e71edae12b1b97f4d1f60370fef10105fa2faae0126114a169c64845d6126c981565b61022b7f000000000000000000000000000000000000000000000000000000000000000081565b60405160ff9091168152602001610172565b6101a76105d4565b610258610253366004611571565b61062a565b005b610258610268366004611624565b61076d565b61025861027b3660046116c4565b610847565b6101a761028e3660046117ba565b60036020526000908152604090205481565b610258610a19565b6101a76102b63660046117ba565b60056020526000908152604090205481565b6006546040516001600160a01b039091168152602001610172565b610165610a2d565b6102586102f93660046117ba565b610a3a565b61018e61030c366004611571565b610ba6565b61034f61031f3660046117ba565b6001600160a01b03166000908152600760205260409020546001600160801b0380821692600160801b9092041690565b60408051928352602083019190915201610172565b6102586103723660046117d5565b610c0c565b61038a6103853660046117ba565b610d03565b6040516101729190611808565b6102586103a536600461184c565b610dfc565b6101a76103b83660046118bf565b600460209081526000928352604080842090915290825290205481565b6102586103e33660046117ba565b61104d565b600080546103f5906118e9565b80601f0160208091040260200160405190810160405280929190818152602001828054610421906118e9565b801561046e5780601f106104435761010080835404028352916020019161046e565b820191906000526020600020905b81548152906001019060200180831161045157829003601f168201915b505050505081565b3360008181526004602090815260408083206001600160a01b038716808552925280832085905551919290917f8c5be1e5ebec7d5bd14f71427d1e84f3dd0314c0f7b2291e5b200ac8c7c3b925906104d19086815260200190565b60405180910390a35060015b92915050565b60606104ef60086110c6565b905090565b6001600160a01b038316600090815260046020908152604080832033845290915281205460001981146105505761052b8382611939565b6001600160a01b03861660009081526004602090815260408083203384529091529020555b6001600160a01b03851660009081526003602052604081208054859290610578908490611939565b90915550506001600160a01b0380851660008181526003602052604090819020805487019055519091871690600080516020611b2d833981519152906105c19087815260200190565b60405180910390a3506001949350505050565b60007f00000000000000000000000000000000000000000000000000000000000000004614610605576104ef6110da565b507f000000000000000000000000000000000000000000000000000000000000000090565b33600090815260076020526040902080546001600160801b03168061068c5760405162461bcd60e51b815260206004820152601360248201527224a72b20a624a22fa320a1a4a624aa20aa27a960691b60448201526064015b60405180910390fd5b8154600160801b90046001600160801b031660006106aa858361194c565b9050808310156107085760405162461bcd60e51b8152602060048201526024808201527f464143494c495441544f525f4255434b45545f43415041434954595f455843456044820152631151115160e21b6064820152608401610683565b83546001600160801b03808316600160801b02911617845561072a8686611174565b604080518381526020810183905233917facb6de9209e4f34974cb165eef5738f0cf0b4ea9819ef30d30f0f7d81272ab82910160405180910390a2505050505050565b806000036107b35760405162461bcd60e51b81526020600482015260136024820152721253959053125117d095549397d05353d55395606a1b6044820152606401610683565b33600090815260076020526040812080549091600160801b9091046001600160801b0316906107e28483611939565b83546001600160801b03808316600160801b029116178455905061080633856111ce565b604080518381526020810183905233917facb6de9209e4f34974cb165eef5738f0cf0b4ea9819ef30d30f0f7d81272ab82910160405180910390a250505050565b61084f611230565b6001600160a01b0382166000908152600760205260409020600181018054610876906118e9565b1590506108c55760405162461bcd60e51b815260206004820152601a60248201527f464143494c495441544f525f414c52454144595f4558495354530000000000006044820152606401610683565b60008260400151511161090a5760405162461bcd60e51b815260206004820152600d60248201526c1253959053125117d310509153609a1b6044820152606401610683565b60208201516001600160801b0316156109655760405162461bcd60e51b815260206004820152601c60248201527f494e56414c49445f4255434b45545f434f4e46494755524154494f4e000000006044820152606401610683565b6040820151600182019061097990826119ae565b50815181546001600160801b0319166001600160801b039091161781556109a160088461128a565b5081604001516040516020016109b79190611a6e565b60408051601f1981840301815290829052805160209182012084516001600160801b03168352916001600160a01b038616917fdabd62626ada7b13e299389e94d768b294e5e24285ed2ffa1e5cd447c99c54ad910160405180910390a3505050565b610a21611230565b610a2b600061129f565b565b600180546103f5906118e9565b610a42611230565b6001600160a01b03811660009081526007602052604081206001018054610a68906118e9565b905011610ab75760405162461bcd60e51b815260206004820152601a60248201527f464143494c495441544f525f444f45535f4e4f545f45584953540000000000006044820152606401610683565b6001600160a01b038116600090815260076020526040902054600160801b90046001600160801b031615610b375760405162461bcd60e51b815260206004820152602160248201527f464143494c495441544f525f4255434b45545f4c4556454c5f4e4f545f5a45526044820152604f60f81b6064820152608401610683565b6001600160a01b038116600090815260076020526040812081815590610b6060018301826114a4565b50610b6e90506008826112f1565b506040516001600160a01b038216907fa8fe5b89f35f2ebd6f3f95a7ef215f4bd89179e10c101073ae76cffad14734cf90600090a250565b33600090815260036020526040812080548391908390610bc7908490611939565b90915550506001600160a01b03831660008181526003602052604090819020805485019055513390600080516020611b2d833981519152906104d19086815260200190565b610c14611230565b6001600160a01b03821660009081526007602052604081206001018054610c3a906118e9565b905011610c895760405162461bcd60e51b815260206004820152601a60248201527f464143494c495441544f525f444f45535f4e4f545f45584953540000000000006044820152606401610683565b6001600160a01b03821660008181526007602090815260409182902080546001600160801b031981166001600160801b03878116918217909355845192909116808352928201529092917fc795c0a4927c3b6645e4e49a5a519af936b3c1c0e4c323a3f7251063f3f4bb0e910160405180910390a2505050565b6040805160608082018352600080835260208084018290528385018390526001600160a01b038616825260078152908490208451928301855280546001600160801b038082168552600160801b9091041691830191909152600181018054939492939192840191610d73906118e9565b80601f0160208091040260200160405190810160405280929190818152602001828054610d9f906118e9565b8015610dec5780601f10610dc157610100808354040283529160200191610dec565b820191906000526020600020905b815481529060010190602001808311610dcf57829003601f168201915b5050505050815250509050919050565b42841015610e4c5760405162461bcd60e51b815260206004820152601760248201527f5045524d49545f444541444c494e455f455850495245440000000000000000006044820152606401610683565b6000610e566105d4565b6001600160a01b0389811660008181526005602090815260409182902080546001810190915582517f6e71edae12b1b97f4d1f60370fef10105fa2faae0126114a169c64845d6126c98184015280840194909452938c166060840152608083018b905260a083019390935260c08083018a90528151808403909101815260e08301909152805192019190912061190160f01b6101008301526101028201929092526101228101919091526101420160408051601f198184030181528282528051602091820120600080855291840180845281905260ff88169284019290925260608301869052608083018590529092509060019060a0016020604051602081039080840390855afa158015610f6f573d6000803e3d6000fd5b5050604051601f1901519150506001600160a01b03811615801590610fa55750886001600160a01b0316816001600160a01b0316145b610fe25760405162461bcd60e51b815260206004820152600e60248201526d24a72b20a624a22fa9a4a3a722a960911b6044820152606401610683565b6001600160a01b0390811660009081526004602090815260408083208b8516808552908352928190208a905551898152919350918a16917f8c5be1e5ebec7d5bd14f71427d1e84f3dd0314c0f7b2291e5b200ac8c7c3b925910160405180910390a350505050505050565b611055611230565b6001600160a01b0381166110ba5760405162461bcd60e51b815260206004820152602660248201527f4f776e61626c653a206e6577206f776e657220697320746865207a65726f206160448201526564647265737360d01b6064820152608401610683565b6110c38161129f565b50565b606060006110d383611306565b9392505050565b60007f8b73c3c69bb8fe3d512ecc4cf759cc79239f7b179b0ffacaa9a75d522b39400f600060405161110c9190611a8a565b6040805191829003822060208301939093528101919091527fc89efdaa54c0f20c7adf612882df0950f5a951637e0307cdcb4c672f298b8bc660608201524660808201523060a082015260c00160405160208183030381529060405280519060200120905090565b8060026000828254611186919061194c565b90915550506001600160a01b038216600081815260036020908152604080832080548601905551848152600080516020611b2d83398151915291015b60405180910390a35050565b6001600160a01b038216600090815260036020526040812080548392906111f6908490611939565b90915550506002805482900390556040518181526000906001600160a01b03841690600080516020611b2d833981519152906020016111c2565b6006546001600160a01b03163314610a2b5760405162461bcd60e51b815260206004820181905260248201527f4f776e61626c653a2063616c6c6572206973206e6f7420746865206f776e65726044820152606401610683565b60006110d3836001600160a01b038416611362565b600680546001600160a01b038381166001600160a01b0319831681179093556040519116919082907f8be0079c531659141344cd1fd0a4f28419497f9722a3daafe3b4186f6b6457e090600090a35050565b60006110d3836001600160a01b0384166113b1565b60608160000180548060200260200160405190810160405280929190818152602001828054801561135657602002820191906000526020600020905b815481526020019060010190808311611342575b50505050509050919050565b60008181526001830160205260408120546113a9575081546001818101845560008481526020808220909301849055845484825282860190935260409020919091556104dd565b5060006104dd565b6000818152600183016020526040812054801561149a5760006113d5600183611939565b85549091506000906113e990600190611939565b905081811461144e57600086600001828154811061140957611409611b00565b906000526020600020015490508087600001848154811061142c5761142c611b00565b6000918252602080832090910192909255918252600188019052604090208390555b855486908061145f5761145f611b16565b6001900381819060005260206000200160009055905585600101600086815260200190815260200160002060009055600193505050506104dd565b60009150506104dd565b5080546114b0906118e9565b6000825580601f106114c0575050565b601f0160209004906000526020600020908101906110c391905b808211156114ee57600081556001016114da565b5090565b60005b8381101561150d5781810151838201526020016114f5565b50506000910152565b6000815180845261152e8160208601602086016114f2565b601f01601f19169290920160200192915050565b6020815260006110d36020830184611516565b80356001600160a01b038116811461156c57600080fd5b919050565b6000806040838503121561158457600080fd5b61158d83611555565b946020939093013593505050565b6020808252825182820181905260009190848201906040850190845b818110156115dc5783516001600160a01b0316835292840192918401916001016115b7565b50909695505050505050565b6000806000606084860312156115fd57600080fd5b61160684611555565b925061161460208501611555565b9150604084013590509250925092565b60006020828403121561163657600080fd5b5035919050565b634e487b7160e01b600052604160045260246000fd5b6040516060810167ffffffffffffffff811182821017156116765761167661163d565b60405290565b604051601f8201601f1916810167ffffffffffffffff811182821017156116a5576116a561163d565b604052919050565b80356001600160801b038116811461156c57600080fd5b600080604083850312156116d757600080fd5b6116e083611555565b915060208084013567ffffffffffffffff808211156116fe57600080fd5b908501906060828803121561171257600080fd5b61171a611653565b611723836116ad565b81526117308484016116ad565b8482015260408301358281111561174657600080fd5b80840193505087601f84011261175b57600080fd5b82358281111561176d5761176d61163d565b61177f601f8201601f1916860161167c565b9250808352888582860101111561179557600080fd5b8085850186850137600085828501015250816040820152809450505050509250929050565b6000602082840312156117cc57600080fd5b6110d382611555565b600080604083850312156117e857600080fd5b6117f183611555565b91506117ff602084016116ad565b90509250929050565b6020815260006001600160801b038084511660208401528060208501511660408401525060408301516060808401526118446080840182611516565b949350505050565b600080600080600080600060e0888a03121561186757600080fd5b61187088611555565b965061187e60208901611555565b95506040880135945060608801359350608088013560ff811681146118a257600080fd5b9699959850939692959460a0840135945060c09093013592915050565b600080604083850312156118d257600080fd5b6118db83611555565b91506117ff60208401611555565b600181811c908216806118fd57607f821691505b60208210810361191d57634e487b7160e01b600052602260045260246000fd5b50919050565b634e487b7160e01b600052601160045260246000fd5b818103818111156104dd576104dd611923565b808201808211156104dd576104dd611923565b601f8211156119a957600081815260208120601f850160051c810160208610156119865750805b601f850160051c820191505b818110156119a557828155600101611992565b5050505b505050565b815167ffffffffffffffff8111156119c8576119c861163d565b6119dc816119d684546118e9565b8461195f565b602080601f831160018114611a1157600084156119f95750858301515b600019600386901b1c1916600185901b1785556119a5565b600085815260208120601f198616915b82811015611a4057888601518255948401946001909101908401611a21565b5085821015611a5e5787850151600019600388901b60f8161c191681555b5050505050600190811b01905550565b60008251611a808184602087016114f2565b9190910192915050565b6000808354611a98816118e9565b60018281168015611ab05760018114611ac557611af4565b60ff1984168752821515830287019450611af4565b8760005260208060002060005b85811015611aeb5781548a820152908401908201611ad2565b50505082870194505b50929695505050505050565b634e487b7160e01b600052603260045260246000fd5b634e487b7160e01b600052603160045260246000fdfeddf252ad1be2c89b69c2b068fc378daa952ba7f163c4a11628f55a4df523b3efa2646970667358221220b2fc9447e1b5ee4dc010dd9efc5b7a51fa1e4e9c3719c9c562057a07eaf086f164736f6c63430008110033",
    "linkReferences": {}
  },
  "methodIdentifiers": {
    "DOMAIN_SEPARATOR()": "3644e515",
    "PERMIT_TYPEHASH()": "30adf81f",
    "addFacilitator(address,(uint128,uint128,string))": "4e878860",
    "allowance(address,address)": "dd62ed3e",
    "approve(address,uint256)": "095ea7b3",
    "balanceOf(address)": "70a08231",
    "burn(uint256)": "42966c68",
    "decimals()": "313ce567",
    "getFacilitator(address)": "d46ec0ed",
    "getFacilitatorBucket(address)": "aa02f94a",
    "getFacilitatorsList()": "1ec90f2e",
    "mint(address,uint256)": "40c10f19",
    "name()": "06fdde03",
    "nonces(address)": "7ecebe00",
    "owner()": "8da5cb5b",
    "permit(address,address,uint256,uint256,uint8,bytes32,bytes32)": "d505accf",
    "removeFacilitator(address)": "a11812ba",
    "renounceOwnership()": "715018a6",
    "setFacilitatorBucketCapacity(address,uint128)": "af93df57",
    "symbol()": "95d89b41",
    "totalSupply()": "18160ddd",
    "transfer(address,uint256)": "a9059cbb",
    "transferFrom(address,address,uint256)": "23b872dd",
    "transferOwnership(address)": "f2fde38b"
  },
  "id": 27
}