{
  "abi": [
    {
      "inputs": [],
      "name": "AmountShouldBePositive",
      "type": "error"
    },
    {
      "inputs": [
        {
          "internalType": "uint256",
          "name": "_tokenId",
          "type": "uint256"
        }
      ],
      "name": "NotOwnerOfPosition",
      "type": "error"
    },
    {
      "inputs": [
        {
          "internalType": "uint256",
          "name": "_tokenId",
          "type": "uint256"
        }
      ],
      "name": "PositionIsAlreadyActive",
      "type": "error"
    },
    {
      "inputs": [
        {
          "internalType": "uint256",
          "name": "_tokenId",
          "type": "uint256"
        }
      ],
      "name": "PositionIsNotActiveOrIsClosed",
      "type": "error"
    },
    {
      "anonymous": false,
      "inputs": [
        {
          "indexed": false,
          "internalType": "uint256",
          "name": "_amount",
          "type": "uint256"
        },
        {
          "indexed": false,
          "internalType": "uint256",
          "name": "_tokenId",
          "type": "uint256"
        }
      ],
      "name": "BorrowedStableCoin",
      "type": "event"
    },
    {
      "anonymous": false,
      "inputs": [
        {
          "indexed": false,
          "internalType": "address",
          "name": "_borrower",
          "type": "address"
        },
        {
          "indexed": false,
          "internalType": "uint256",
          "name": "_tokenId",
          "type": "uint256"
        }
      ],
      "name": "ClosedPosition",
      "type": "event"
    },
    {
      "anonymous": false,
      "inputs": [
        {
          "indexed": false,
          "internalType": "uint128",
          "name": "_liquidity",
          "type": "uint128"
        },
        {
          "indexed": false,
          "internalType": "uint256",
          "name": "_tokenId",
          "type": "uint256"
        }
      ],
      "name": "DepositedCollateral",
      "type": "event"
    },
    {
      "anonymous": false,
      "inputs": [
        {
          "indexed": false,
          "internalType": "address",
          "name": "_PositionManagerAddress",
          "type": "address"
        }
      ],
      "name": "Initialized",
      "type": "event"
    },
    {
      "anonymous": false,
      "inputs": [
        {
          "indexed": false,
          "internalType": "address",
          "name": "_borrower",
          "type": "address"
        },
        {
          "indexed": false,
          "internalType": "uint256",
          "name": "_tokenId",
          "type": "uint256"
        }
      ],
      "name": "OpenedPosition",
      "type": "event"
    },
    {
      "anonymous": false,
      "inputs": [
        {
          "indexed": true,
          "internalType": "address",
          "name": "previousOwner",
          "type": "address"
        },
        {
          "indexed": true,
          "internalType": "address",
          "name": "newOwner",
          "type": "address"
        }
      ],
      "name": "OwnershipTransferred",
      "type": "event"
    },
    {
      "anonymous": false,
      "inputs": [
        {
          "indexed": false,
          "internalType": "uint256",
          "name": "_amount",
          "type": "uint256"
        },
        {
          "indexed": false,
          "internalType": "uint256",
          "name": "_tokenId",
          "type": "uint256"
        }
      ],
      "name": "RepaidStableCoin",
      "type": "event"
    },
    {
      "anonymous": false,
      "inputs": [
        {
          "indexed": false,
          "internalType": "uint256",
          "name": "_amount0",
          "type": "uint256"
        },
        {
          "indexed": false,
          "internalType": "uint256",
          "name": "_amount1",
          "type": "uint256"
        },
        {
          "indexed": false,
          "internalType": "uint256",
          "name": "_tokenId",
          "type": "uint256"
        }
      ],
      "name": "WithdrawnCollateral",
      "type": "event"
    },
    {
      "inputs": [
        {
          "internalType": "uint256",
          "name": "_amount",
          "type": "uint256"
        },
        {
          "internalType": "uint256",
          "name": "_tokenId",
          "type": "uint256"
        }
      ],
      "name": "borrow",
      "outputs": [],
      "stateMutability": "nonpayable",
      "type": "function"
    },
    {
      "inputs": [
        {
          "internalType": "uint256",
          "name": "_tokenId",
          "type": "uint256"
        }
      ],
      "name": "closePosition",
      "outputs": [],
      "stateMutability": "nonpayable",
      "type": "function"
    },
    {
      "inputs": [
        {
          "internalType": "uint256",
          "name": "_amount0",
          "type": "uint256"
        },
        {
          "internalType": "uint256",
          "name": "_amount1",
          "type": "uint256"
        },
        {
          "internalType": "uint256",
          "name": "_tokenId",
          "type": "uint256"
        }
      ],
      "name": "deposit",
      "outputs": [
        {
          "internalType": "uint128",
          "name": "liquidity",
          "type": "uint128"
        },
        {
          "internalType": "uint256",
          "name": "amount0",
          "type": "uint256"
        },
        {
          "internalType": "uint256",
          "name": "amount1",
          "type": "uint256"
        }
      ],
      "stateMutability": "nonpayable",
      "type": "function"
    },
    {
      "inputs": [
        {
          "internalType": "address",
          "name": "_uniPosNFT",
          "type": "address"
        },
        {
          "internalType": "address",
          "name": "_PositionManagerAddress",
          "type": "address"
        }
      ],
      "name": "initialize",
      "outputs": [],
      "stateMutability": "nonpayable",
      "type": "function"
    },
    {
      "inputs": [
        {
          "internalType": "uint256",
          "name": "_tokenId",
          "type": "uint256"
        },
        {
          "internalType": "address",
          "name": "_asset",
          "type": "address"
        }
      ],
      "name": "openPosition",
      "outputs": [],
      "stateMutability": "nonpayable",
      "type": "function"
    },
    {
      "inputs": [],
      "name": "owner",
      "outputs": [
        {
          "internalType": "address",
          "name": "",
          "type": "address"
        }
      ],
      "stateMutability": "view",
      "type": "function"
    },
    {
      "inputs": [],
      "name": "renounceOwnership",
      "outputs": [],
      "stateMutability": "nonpayable",
      "type": "function"
    },
    {
      "inputs": [
        {
          "internalType": "uint256",
          "name": "_amount",
          "type": "uint256"
        },
        {
          "internalType": "uint256",
          "name": "_tokenId",
          "type": "uint256"
        }
      ],
      "name": "repay",
      "outputs": [],
      "stateMutability": "nonpayable",
      "type": "function"
    },
    {
      "inputs": [
        {
          "internalType": "address",
          "name": "newOwner",
          "type": "address"
        }
      ],
      "name": "transferOwnership",
      "outputs": [],
      "stateMutability": "nonpayable",
      "type": "function"
    },
    {
      "inputs": [
        {
          "internalType": "uint128",
          "name": "_liquidity",
          "type": "uint128"
        },
        {
          "internalType": "uint256",
          "name": "_tokenId",
          "type": "uint256"
        }
      ],
      "name": "withdraw",
      "outputs": [
        {
          "internalType": "uint256",
          "name": "amount0",
          "type": "uint256"
        },
        {
          "internalType": "uint256",
          "name": "amount1",
          "type": "uint256"
        }
      ],
      "stateMutability": "nonpayable",
      "type": "function"
    }
  ],
  "bytecode": {
    "object": "0x608060405234801561001057600080fd5b5061001a33610023565b60018055610073565b600080546001600160a01b038381166001600160a01b0319831681178455604051919092169283917f8be0079c531659141344cd1fd0a4f28419497f9722a3daafe3b4186f6b6457e09190a35050565b611238806100826000396000f3fe608060405234801561001057600080fd5b506004361061009d5760003560e01c8063a126d60111610066578063a126d6011461012a578063baa2f9411461013d578063d8aed14514610150578063f2fde38b14610163578063fa710b1f1461017657600080fd5b8062aeef8a146100a25780630ecbcdab146100df578063485cc955146100f4578063715018a6146101075780638da5cb5b1461010f575b600080fd5b6100b56100b0366004610ec0565b61019e565b604080516001600160801b0390941684526020840192909252908201526060015b60405180910390f35b6100f26100ed366004610eec565b6103be565b005b6100f2610102366004610f23565b6105a8565b6100f26105de565b6000546040516001600160a01b0390911681526020016100d6565b6100f2610138366004610f5c565b6105f2565b6100f261014b366004610f75565b6107a1565b6100f261015e366004610eec565b6108ba565b6100f2610171366004610f9a565b610a66565b610189610184366004610fd3565b610adf565b604080519283526020830191909152016100d6565b60008060006101ab610db7565b83600160035460405163eb02c30160e01b8152600481018490526001600160a01b039091169063eb02c301906024016101a060405180830381865afa1580156101f8573d6000803e3d6000fd5b505050506040513d601f19601f8201168201806040525081019061021c919061109c565b6101200151600381111561023257610232610fff565b146102585760405163162849b360e31b8152600481018290526024015b60405180910390fd5b60035460405163eb02c30160e01b8152600481018790528691339182916001600160a01b03169063eb02c301906024016101a060405180830381865afa1580156102a6573d6000803e3d6000fd5b505050506040513d601f19601f820116820180604052508101906102ca919061109c565b516001600160a01b0316146102f5576040516307fbd4f360e11b81526004810183905260240161024f565b881580610300575087155b1561031e57604051631382457760e11b815260040160405180910390fd5b60035460405163ce88b43960e01b815233600482015260248101899052604481018b9052606481018a90526001600160a01b039091169063ce88b439906084016060604051808303816000875af115801561037d573d6000803e3d6000fd5b505050506040513d601f19601f820116820180604052508101906103a19190611185565b919750955093506103b59250610e10915050565b93509350939050565b6103c6610db7565b80600160035460405163eb02c30160e01b8152600481018490526001600160a01b039091169063eb02c301906024016101a060405180830381865afa158015610413573d6000803e3d6000fd5b505050506040513d601f19601f82011682018060405250810190610437919061109c565b6101200151600381111561044d5761044d610fff565b1461046e5760405163162849b360e31b81526004810182905260240161024f565b60035460405163eb02c30160e01b8152600481018490528391339182916001600160a01b03169063eb02c301906024016101a060405180830381865afa1580156104bc573d6000803e3d6000fd5b505050506040513d601f19601f820116820180604052508101906104e0919061109c565b516001600160a01b03161461050b576040516307fbd4f360e11b81526004810183905260240161024f565b6000851161052c57604051631382457760e11b815260040160405180910390fd5b60035460405163c1bce0b760e01b815233600482015260248101869052604481018790526001600160a01b039091169063c1bce0b7906064015b600060405180830381600087803b15801561058057600080fd5b505af1158015610594573d6000803e3d6000fd5b505050505050506105a460018055565b5050565b6105b0610e16565b600280546001600160a01b039384166001600160a01b03199182161790915560038054929093169116179055565b6105e6610e16565b6105f06000610e70565b565b80600160035460405163eb02c30160e01b8152600481018490526001600160a01b039091169063eb02c301906024016101a060405180830381865afa15801561063f573d6000803e3d6000fd5b505050506040513d601f19601f82011682018060405250810190610663919061109c565b6101200151600381111561067957610679610fff565b1461069a5760405163162849b360e31b81526004810182905260240161024f565b60035460405163eb02c30160e01b8152600481018490528391339182916001600160a01b03169063eb02c301906024016101a060405180830381865afa1580156106e8573d6000803e3d6000fd5b505050506040513d601f19601f8201168201806040525081019061070c919061109c565b516001600160a01b031614610737576040516307fbd4f360e11b81526004810183905260240161024f565b600354604051630e85fc3f60e31b8152336004820152602481018690526001600160a01b039091169063742fe1f890604401600060405180830381600087803b15801561078357600080fd5b505af1158015610797573d6000803e3d6000fd5b5050505050505050565b81600160035460405163eb02c30160e01b8152600481018490526001600160a01b039091169063eb02c301906024016101a060405180830381865afa1580156107ee573d6000803e3d6000fd5b505050506040513d601f19601f82011682018060405250810190610812919061109c565b6101200151600381111561082857610828610fff565b03610849576040516302f9cdcd60e01b81526004810182905260240161024f565b600354604051633a41b2e760e01b8152336004820152602481018590526001600160a01b03848116604483015290911690633a41b2e790606401600060405180830381600087803b15801561089d57600080fd5b505af11580156108b1573d6000803e3d6000fd5b50505050505050565b6108c2610db7565b80600160035460405163eb02c30160e01b8152600481018490526001600160a01b039091169063eb02c301906024016101a060405180830381865afa15801561090f573d6000803e3d6000fd5b505050506040513d601f19601f82011682018060405250810190610933919061109c565b6101200151600381111561094957610949610fff565b1461096a5760405163162849b360e31b81526004810182905260240161024f565b60035460405163eb02c30160e01b8152600481018490528391339182916001600160a01b03169063eb02c301906024016101a060405180830381865afa1580156109b8573d6000803e3d6000fd5b505050506040513d601f19601f820116820180604052508101906109dc919061109c565b516001600160a01b031614610a07576040516307fbd4f360e11b81526004810183905260240161024f565b60008511610a2857604051631382457760e11b815260040160405180910390fd5b600354604051638cd2e0c760e01b815233600482015260248101869052604481018790526001600160a01b0390911690638cd2e0c790606401610566565b610a6e610e16565b6001600160a01b038116610ad35760405162461bcd60e51b815260206004820152602660248201527f4f776e61626c653a206e6577206f776e657220697320746865207a65726f206160448201526564647265737360d01b606482015260840161024f565b610adc81610e70565b50565b600080610aea610db7565b82600160035460405163eb02c30160e01b8152600481018490526001600160a01b039091169063eb02c301906024016101a060405180830381865afa158015610b37573d6000803e3d6000fd5b505050506040513d601f19601f82011682018060405250810190610b5b919061109c565b61012001516003811115610b7157610b71610fff565b14610b925760405163162849b360e31b81526004810182905260240161024f565b60035460405163eb02c30160e01b8152600481018690528591339182916001600160a01b03169063eb02c301906024016101a060405180830381865afa158015610be0573d6000803e3d6000fd5b505050506040513d601f19601f82011682018060405250810190610c04919061109c565b516001600160a01b031614610c2f576040516307fbd4f360e11b81526004810183905260240161024f565b60035460405163395f7ac160e11b8152336004820152602481018890526001600160801b03891660448201526001600160a01b03909116906372bef5829060640160408051808303816000875af1158015610c8e573d6000803e3d6000fd5b505050506040513d601f19601f82011682018060405250810190610cb291906111bc565b600354604051633eba8c4b60e11b8152600481018a90529297509095506001600160a01b031690637d751896906024016020604051808303816000875af1158015610d01573d6000803e3d6000fd5b505050506040513d601f19601f82011682018060405250810190610d2591906111e0565b15610da45760405162461bcd60e51b815260206004820152604360248201527f436f6c6c61746572616c20526174696f2063616e6e6f74206265206c6f77657260448201527f207468616e20746865206d696e696d756d20636f6c6c61746572616c2072617460648201526234b79760e91b608482015260a40161024f565b505050610db060018055565b9250929050565b600260015403610e095760405162461bcd60e51b815260206004820152601f60248201527f5265656e7472616e637947756172643a207265656e7472616e742063616c6c00604482015260640161024f565b6002600155565b60018055565b6000546001600160a01b031633146105f05760405162461bcd60e51b815260206004820181905260248201527f4f776e61626c653a2063616c6c6572206973206e6f7420746865206f776e6572604482015260640161024f565b600080546001600160a01b038381166001600160a01b0319831681178455604051919092169283917f8be0079c531659141344cd1fd0a4f28419497f9722a3daafe3b4186f6b6457e09190a35050565b600080600060608486031215610ed557600080fd5b505081359360208301359350604090920135919050565b60008060408385031215610eff57600080fd5b50508035926020909101359150565b6001600160a01b0381168114610adc57600080fd5b60008060408385031215610f3657600080fd5b8235610f4181610f0e565b91506020830135610f5181610f0e565b809150509250929050565b600060208284031215610f6e57600080fd5b5035919050565b60008060408385031215610f8857600080fd5b823591506020830135610f5181610f0e565b600060208284031215610fac57600080fd5b8135610fb781610f0e565b9392505050565b6001600160801b0381168114610adc57600080fd5b60008060408385031215610fe657600080fd5b8235610ff181610fbe565b946020939093013593505050565b634e487b7160e01b600052602160045260246000fd5b6040516101a0810167ffffffffffffffff8111828210171561104757634e487b7160e01b600052604160045260246000fd5b60405290565b805161105881610f0e565b919050565b805162ffffff8116811461105857600080fd5b8051600281900b811461105857600080fd5b805161105881610fbe565b80516004811061105857600080fd5b60006101a082840312156110af57600080fd5b6110b7611015565b6110c08361104d565b81526110ce6020840161104d565b60208201526110df6040840161104d565b60408201526110f06060840161105d565b606082015261110160808401611070565b608082015261111260a08401611070565b60a082015261112360c08401611082565b60c082015261113460e0840161104d565b60e0820152610100838101519082015261012061115281850161108d565b908201526101408381015190820152610160808401519082015261018061117a81850161104d565b908201529392505050565b60008060006060848603121561119a57600080fd5b83516111a581610fbe565b602085015160409095015190969495509392505050565b600080604083850312156111cf57600080fd5b505080516020909101519092909150565b6000602082840312156111f257600080fd5b81518015158114610fb757600080fdfea264697066735822122046cb94ca6ae373987256e9ef69ee14ad3fac758c37d5899ac9d3c553c5f3609664736f6c63430008110033",
    "linkReferences": {}
  },
  "methodIdentifiers": {
    "borrow(uint256,uint256)": "0ecbcdab",
    "closePosition(uint256)": "a126d601",
    "deposit(uint256,uint256,uint256)": "00aeef8a",
    "initialize(address,address)": "485cc955",
    "openPosition(uint256,address)": "baa2f941",
    "owner()": "8da5cb5b",
    "renounceOwnership()": "715018a6",
    "repay(uint256,uint256)": "d8aed145",
    "transferOwnership(address)": "f2fde38b",
    "withdraw(uint128,uint256)": "fa710b1f"
  },
  "id": 3
}