{
  "abi": [
    {
      "inputs": [],
      "name": "AmountShouldBePositive",
      "type": "error"
    },
    {
      "anonymous": false,
      "inputs": [
        {
          "indexed": false,
          "internalType": "uint256",
          "name": "_amount",
          "type": "uint256"
        },
        {
          "indexed": false,
          "internalType": "uint256",
          "name": "_tokenId",
          "type": "uint256"
        }
      ],
      "name": "BorrowedStableCoin",
      "type": "event"
    },
    {
      "anonymous": false,
      "inputs": [
        {
          "indexed": false,
          "internalType": "address",
          "name": "_borrower",
          "type": "address"
        },
        {
          "indexed": false,
          "internalType": "uint256",
          "name": "_tokenId",
          "type": "uint256"
        }
      ],
      "name": "ClosedPosition",
      "type": "event"
    },
    {
      "anonymous": false,
      "inputs": [
        {
          "indexed": false,
          "internalType": "uint128",
          "name": "_liquidity",
          "type": "uint128"
        },
        {
          "indexed": false,
          "internalType": "uint256",
          "name": "_tokenId",
          "type": "uint256"
        }
      ],
      "name": "DepositedCollateral",
      "type": "event"
    },
    {
      "anonymous": false,
      "inputs": [
        {
          "indexed": false,
          "internalType": "address",
          "name": "_PositionManagerAddress",
          "type": "address"
        }
      ],
      "name": "Initialized",
      "type": "event"
    },
    {
      "anonymous": false,
      "inputs": [
        {
          "indexed": false,
          "internalType": "address",
          "name": "_borrower",
          "type": "address"
        },
        {
          "indexed": false,
          "internalType": "uint256",
          "name": "_tokenId",
          "type": "uint256"
        }
      ],
      "name": "OpenedPosition",
      "type": "event"
    },
    {
      "anonymous": false,
      "inputs": [
        {
          "indexed": true,
          "internalType": "address",
          "name": "previousOwner",
          "type": "address"
        },
        {
          "indexed": true,
          "internalType": "address",
          "name": "newOwner",
          "type": "address"
        }
      ],
      "name": "OwnershipTransferred",
      "type": "event"
    },
    {
      "anonymous": false,
      "inputs": [
        {
          "indexed": false,
          "internalType": "uint256",
          "name": "_amount",
          "type": "uint256"
        },
        {
          "indexed": false,
          "internalType": "uint256",
          "name": "_tokenId",
          "type": "uint256"
        }
      ],
      "name": "RepaidStableCoin",
      "type": "event"
    },
    {
      "anonymous": false,
      "inputs": [
        {
          "indexed": false,
          "internalType": "uint256",
          "name": "_amount0",
          "type": "uint256"
        },
        {
          "indexed": false,
          "internalType": "uint256",
          "name": "_amount1",
          "type": "uint256"
        },
        {
          "indexed": false,
          "internalType": "uint256",
          "name": "_tokenId",
          "type": "uint256"
        }
      ],
      "name": "WithdrawnCollateral",
      "type": "event"
    },
    {
      "inputs": [
        {
          "internalType": "uint256",
          "name": "_amount",
          "type": "uint256"
        },
        {
          "internalType": "uint256",
          "name": "_tokenId",
          "type": "uint256"
        }
      ],
      "name": "borrow",
      "outputs": [],
      "stateMutability": "nonpayable",
      "type": "function"
    },
    {
      "inputs": [
        {
          "internalType": "uint256",
          "name": "_tokenId",
          "type": "uint256"
        }
      ],
      "name": "closePosition",
      "outputs": [],
      "stateMutability": "nonpayable",
      "type": "function"
    },
    {
      "inputs": [
        {
          "internalType": "uint256",
          "name": "_amount0",
          "type": "uint256"
        },
        {
          "internalType": "uint256",
          "name": "_amount1",
          "type": "uint256"
        },
        {
          "internalType": "uint256",
          "name": "_tokenId",
          "type": "uint256"
        }
      ],
      "name": "deposit",
      "outputs": [
        {
          "internalType": "uint128",
          "name": "liquidity",
          "type": "uint128"
        },
        {
          "internalType": "uint256",
          "name": "amount0",
          "type": "uint256"
        },
        {
          "internalType": "uint256",
          "name": "amount1",
          "type": "uint256"
        }
      ],
      "stateMutability": "nonpayable",
      "type": "function"
    },
    {
      "inputs": [
        {
          "internalType": "address",
          "name": "_uniPosNFT",
          "type": "address"
        },
        {
          "internalType": "address",
          "name": "_PositionManagerAddress",
          "type": "address"
        }
      ],
      "name": "initialize",
      "outputs": [],
      "stateMutability": "nonpayable",
      "type": "function"
    },
    {
      "inputs": [
        {
          "internalType": "uint256",
          "name": "_tokenId",
          "type": "uint256"
        },
        {
          "internalType": "address",
          "name": "_asset",
          "type": "address"
        }
      ],
      "name": "openPosition",
      "outputs": [],
      "stateMutability": "nonpayable",
      "type": "function"
    },
    {
      "inputs": [],
      "name": "owner",
      "outputs": [
        {
          "internalType": "address",
          "name": "",
          "type": "address"
        }
      ],
      "stateMutability": "view",
      "type": "function"
    },
    {
      "inputs": [],
      "name": "renounceOwnership",
      "outputs": [],
      "stateMutability": "nonpayable",
      "type": "function"
    },
    {
      "inputs": [
        {
          "internalType": "uint256",
          "name": "_amount",
          "type": "uint256"
        },
        {
          "internalType": "uint256",
          "name": "_tokenId",
          "type": "uint256"
        }
      ],
      "name": "repay",
      "outputs": [],
      "stateMutability": "nonpayable",
      "type": "function"
    },
    {
      "inputs": [
        {
          "internalType": "address",
          "name": "newOwner",
          "type": "address"
        }
      ],
      "name": "transferOwnership",
      "outputs": [],
      "stateMutability": "nonpayable",
      "type": "function"
    },
    {
      "inputs": [
        {
          "internalType": "uint128",
          "name": "_liquidity",
          "type": "uint128"
        },
        {
          "internalType": "uint256",
          "name": "_tokenId",
          "type": "uint256"
        }
      ],
      "name": "withdraw",
      "outputs": [
        {
          "internalType": "uint256",
          "name": "amount0",
          "type": "uint256"
        },
        {
          "internalType": "uint256",
          "name": "amount1",
          "type": "uint256"
        }
      ],
      "stateMutability": "nonpayable",
      "type": "function"
    }
  ],
  "bytecode": {
    "object": "0x608060405234801561001057600080fd5b5061001a33610023565b60018055610073565b600080546001600160a01b038381166001600160a01b0319831681178455604051919092169283917f8be0079c531659141344cd1fd0a4f28419497f9722a3daafe3b4186f6b6457e09190a35050565b611107806100826000396000f3fe608060405234801561001057600080fd5b506004361061009d5760003560e01c8063a126d60111610066578063a126d6011461012a578063baa2f9411461013d578063d8aed14514610150578063f2fde38b14610163578063fa710b1f1461017657600080fd5b8062aeef8a146100a25780630ecbcdab146100df578063485cc955146100f4578063715018a6146101075780638da5cb5b1461010f575b600080fd5b6100b56100b0366004610d8f565b61019e565b604080516001600160801b0390941684526020840192909252908201526060015b60405180910390f35b6100f26100ed366004610dbb565b610381565b005b6100f2610102366004610df2565b610534565b6100f261056a565b6000546040516001600160a01b0390911681526020016100d6565b6100f2610138366004610e2b565b61057e565b6100f261014b366004610e44565b6106f6565b6100f261015e366004610dbb565b6107f5565b6100f2610171366004610e69565b61096d565b610189610184366004610ea2565b6109eb565b604080519283526020830191909152016100d6565b60008060006101ab610c8c565b60035460405163eb02c30160e01b8152600481018690526001916001600160a01b03169063eb02c301906024016101a060405180830381865afa1580156101f6573d6000803e3d6000fd5b505050506040513d601f19601f8201168201806040525081019061021a9190610f6b565b6101200151600381111561023057610230610ece565b1461023a57600080fd5b60035460405163eb02c30160e01b81526004810186905233916001600160a01b03169063eb02c301906024016101a060405180830381865afa158015610284573d6000803e3d6000fd5b505050506040513d601f19601f820116820180604052508101906102a89190610f6b565b516001600160a01b0316146102bc57600080fd5b8515806102c7575084155b156102e557604051631382457760e11b815260040160405180910390fd5b60035460405163ce88b43960e01b81523360048201526024810186905260448101889052606481018790526001600160a01b039091169063ce88b439906084016060604051808303816000875af1158015610344573d6000803e3d6000fd5b505050506040513d601f19601f820116820180604052508101906103689190611054565b9194509250905061037860018055565b93509350939050565b610389610c8c565b60035460405163eb02c30160e01b8152600481018390526001916001600160a01b03169063eb02c301906024016101a060405180830381865afa1580156103d4573d6000803e3d6000fd5b505050506040513d601f19601f820116820180604052508101906103f89190610f6b565b6101200151600381111561040e5761040e610ece565b1461041857600080fd5b60035460405163eb02c30160e01b81526004810183905233916001600160a01b03169063eb02c301906024016101a060405180830381865afa158015610462573d6000803e3d6000fd5b505050506040513d601f19601f820116820180604052508101906104869190610f6b565b516001600160a01b03161461049a57600080fd5b600082116104bb57604051631382457760e11b815260040160405180910390fd5b60035460405163c1bce0b760e01b815233600482015260248101839052604481018490526001600160a01b039091169063c1bce0b7906064015b600060405180830381600087803b15801561050f57600080fd5b505af1158015610523573d6000803e3d6000fd5b5050505061053060018055565b5050565b61053c610ce5565b600280546001600160a01b039384166001600160a01b03199182161790915560038054929093169116179055565b610572610ce5565b61057c6000610d3f565b565b60035460405163eb02c30160e01b8152600481018390526001916001600160a01b03169063eb02c301906024016101a060405180830381865afa1580156105c9573d6000803e3d6000fd5b505050506040513d601f19601f820116820180604052508101906105ed9190610f6b565b6101200151600381111561060357610603610ece565b1461060d57600080fd5b60035460405163eb02c30160e01b81526004810183905233916001600160a01b03169063eb02c301906024016101a060405180830381865afa158015610657573d6000803e3d6000fd5b505050506040513d601f19601f8201168201806040525081019061067b9190610f6b565b516001600160a01b03161461068f57600080fd5b600354604051630e85fc3f60e31b8152336004820152602481018390526001600160a01b039091169063742fe1f890604401600060405180830381600087803b1580156106db57600080fd5b505af11580156106ef573d6000803e3d6000fd5b5050505050565b60035460405163eb02c30160e01b8152600481018490526000916001600160a01b03169063eb02c301906024016101a060405180830381865afa158015610741573d6000803e3d6000fd5b505050506040513d601f19601f820116820180604052508101906107659190610f6b565b6101200151600381111561077b5761077b610ece565b1461078557600080fd5b600354604051633a41b2e760e01b8152336004820152602481018490526001600160a01b03838116604483015290911690633a41b2e790606401600060405180830381600087803b1580156107d957600080fd5b505af11580156107ed573d6000803e3d6000fd5b505050505050565b6107fd610c8c565b60035460405163eb02c30160e01b8152600481018390526001916001600160a01b03169063eb02c301906024016101a060405180830381865afa158015610848573d6000803e3d6000fd5b505050506040513d601f19601f8201168201806040525081019061086c9190610f6b565b6101200151600381111561088257610882610ece565b1461088c57600080fd5b60035460405163eb02c30160e01b81526004810183905233916001600160a01b03169063eb02c301906024016101a060405180830381865afa1580156108d6573d6000803e3d6000fd5b505050506040513d601f19601f820116820180604052508101906108fa9190610f6b565b516001600160a01b03161461090e57600080fd5b6000821161092f57604051631382457760e11b815260040160405180910390fd5b600354604051638cd2e0c760e01b815233600482015260248101839052604481018490526001600160a01b0390911690638cd2e0c7906064016104f5565b610975610ce5565b6001600160a01b0381166109df5760405162461bcd60e51b815260206004820152602660248201527f4f776e61626c653a206e6577206f776e657220697320746865207a65726f206160448201526564647265737360d01b60648201526084015b60405180910390fd5b6109e881610d3f565b50565b6000806109f6610c8c565b60035460405163eb02c30160e01b8152600481018590526001916001600160a01b03169063eb02c301906024016101a060405180830381865afa158015610a41573d6000803e3d6000fd5b505050506040513d601f19601f82011682018060405250810190610a659190610f6b565b61012001516003811115610a7b57610a7b610ece565b14610a8557600080fd5b60035460405163eb02c30160e01b81526004810185905233916001600160a01b03169063eb02c301906024016101a060405180830381865afa158015610acf573d6000803e3d6000fd5b505050506040513d601f19601f82011682018060405250810190610af39190610f6b565b516001600160a01b031614610b0757600080fd5b60035460405163395f7ac160e11b8152336004820152602481018590526001600160801b03861660448201526001600160a01b03909116906372bef5829060640160408051808303816000875af1158015610b66573d6000803e3d6000fd5b505050506040513d601f19601f82011682018060405250810190610b8a919061108b565b600354604051633eba8c4b60e11b8152600481018790529294509092506001600160a01b031690637d751896906024016020604051808303816000875af1158015610bd9573d6000803e3d6000fd5b505050506040513d601f19601f82011682018060405250810190610bfd91906110af565b15610c7c5760405162461bcd60e51b815260206004820152604360248201527f436f6c6c61746572616c20526174696f2063616e6e6f74206265206c6f77657260448201527f207468616e20746865206d696e696d756d20636f6c6c61746572616c2072617460648201526234b79760e91b608482015260a4016109d6565b610c8560018055565b9250929050565b600260015403610cde5760405162461bcd60e51b815260206004820152601f60248201527f5265656e7472616e637947756172643a207265656e7472616e742063616c6c0060448201526064016109d6565b6002600155565b6000546001600160a01b0316331461057c5760405162461bcd60e51b815260206004820181905260248201527f4f776e61626c653a2063616c6c6572206973206e6f7420746865206f776e657260448201526064016109d6565b600080546001600160a01b038381166001600160a01b0319831681178455604051919092169283917f8be0079c531659141344cd1fd0a4f28419497f9722a3daafe3b4186f6b6457e09190a35050565b600080600060608486031215610da457600080fd5b505081359360208301359350604090920135919050565b60008060408385031215610dce57600080fd5b50508035926020909101359150565b6001600160a01b03811681146109e857600080fd5b60008060408385031215610e0557600080fd5b8235610e1081610ddd565b91506020830135610e2081610ddd565b809150509250929050565b600060208284031215610e3d57600080fd5b5035919050565b60008060408385031215610e5757600080fd5b823591506020830135610e2081610ddd565b600060208284031215610e7b57600080fd5b8135610e8681610ddd565b9392505050565b6001600160801b03811681146109e857600080fd5b60008060408385031215610eb557600080fd5b8235610ec081610e8d565b946020939093013593505050565b634e487b7160e01b600052602160045260246000fd5b6040516101a0810167ffffffffffffffff81118282101715610f1657634e487b7160e01b600052604160045260246000fd5b60405290565b8051610f2781610ddd565b919050565b805162ffffff81168114610f2757600080fd5b8051600281900b8114610f2757600080fd5b8051610f2781610e8d565b805160048110610f2757600080fd5b60006101a08284031215610f7e57600080fd5b610f86610ee4565b610f8f83610f1c565b8152610f9d60208401610f1c565b6020820152610fae60408401610f1c565b6040820152610fbf60608401610f2c565b6060820152610fd060808401610f3f565b6080820152610fe160a08401610f3f565b60a0820152610ff260c08401610f51565b60c082015261100360e08401610f1c565b60e08201526101008381015190820152610120611021818501610f5c565b9082015261014083810151908201526101608084015190820152610180611049818501610f1c565b908201529392505050565b60008060006060848603121561106957600080fd5b835161107481610e8d565b602085015160409095015190969495509392505050565b6000806040838503121561109e57600080fd5b505080516020909101519092909150565b6000602082840312156110c157600080fd5b81518015158114610e8657600080fdfea2646970667358221220b58893b53d5018e9a927642981afeda0c2ba5652ab7f4684f4b6c97f2d8e760d64736f6c63430008110033",
    "linkReferences": {}
  },
  "methodIdentifiers": {
    "borrow(uint256,uint256)": "0ecbcdab",
    "closePosition(uint256)": "a126d601",
    "deposit(uint256,uint256,uint256)": "00aeef8a",
    "initialize(address,address)": "485cc955",
    "openPosition(uint256,address)": "baa2f941",
    "owner()": "8da5cb5b",
    "renounceOwnership()": "715018a6",
    "repay(uint256,uint256)": "d8aed145",
    "transferOwnership(address)": "f2fde38b",
    "withdraw(uint128,uint256)": "fa710b1f"
  },
  "id": 1
}