{
  "abi": [
    {
      "anonymous": false,
      "inputs": [
        {
          "indexed": true,
          "internalType": "address",
          "name": "previousOwner",
          "type": "address"
        },
        {
          "indexed": true,
          "internalType": "address",
          "name": "newOwner",
          "type": "address"
        }
      ],
      "name": "OwnershipTransferred",
      "type": "event"
    },
    {
      "inputs": [],
      "name": "NAME",
      "outputs": [
        {
          "internalType": "string",
          "name": "",
          "type": "string"
        }
      ],
      "stateMutability": "view",
      "type": "function"
    },
    {
      "inputs": [],
      "name": "borrowerAddress",
      "outputs": [
        {
          "internalType": "address",
          "name": "",
          "type": "address"
        }
      ],
      "stateMutability": "view",
      "type": "function"
    },
    {
      "inputs": [
        {
          "internalType": "address",
          "name": "_asset",
          "type": "address"
        },
        {
          "internalType": "uint256",
          "name": "_amount",
          "type": "uint256"
        }
      ],
      "name": "burn",
      "outputs": [],
      "stateMutability": "nonpayable",
      "type": "function"
    },
    {
      "inputs": [
        {
          "internalType": "address",
          "name": "_sender",
          "type": "address"
        },
        {
          "internalType": "uint256",
          "name": "_tokenId",
          "type": "uint256"
        },
        {
          "internalType": "uint128",
          "name": "_liquidityToRemove",
          "type": "uint128"
        }
      ],
      "name": "decreaseLiquidity",
      "outputs": [
        {
          "internalType": "uint256",
          "name": "amount0",
          "type": "uint256"
        },
        {
          "internalType": "uint256",
          "name": "amount1",
          "type": "uint256"
        }
      ],
      "stateMutability": "nonpayable",
      "type": "function"
    },
    {
      "inputs": [
        {
          "internalType": "address",
          "name": "_sender",
          "type": "address"
        },
        {
          "internalType": "uint256",
          "name": "_tokenId",
          "type": "uint256"
        },
        {
          "internalType": "address",
          "name": "_token0",
          "type": "address"
        },
        {
          "internalType": "address",
          "name": "_token1",
          "type": "address"
        },
        {
          "internalType": "uint256",
          "name": "_amountAdd0",
          "type": "uint256"
        },
        {
          "internalType": "uint256",
          "name": "_amountAdd1",
          "type": "uint256"
        }
      ],
      "name": "increaseLiquidity",
      "outputs": [
        {
          "internalType": "uint128",
          "name": "liquidity",
          "type": "uint128"
        },
        {
          "internalType": "uint256",
          "name": "amount0",
          "type": "uint256"
        },
        {
          "internalType": "uint256",
          "name": "amount1",
          "type": "uint256"
        }
      ],
      "stateMutability": "nonpayable",
      "type": "function"
    },
    {
      "inputs": [
        {
          "internalType": "address",
          "name": "_uniPosNFT",
          "type": "address"
        },
        {
          "internalType": "address",
          "name": "_positionsManagerAddress",
          "type": "address"
        },
        {
          "internalType": "address",
          "name": "_borrowerAddress",
          "type": "address"
        }
      ],
      "name": "initialize",
      "outputs": [],
      "stateMutability": "nonpayable",
      "type": "function"
    },
    {
      "inputs": [
        {
          "internalType": "address",
          "name": "_asset",
          "type": "address"
        },
        {
          "internalType": "address",
          "name": "_sender",
          "type": "address"
        },
        {
          "internalType": "uint256",
          "name": "_amount",
          "type": "uint256"
        }
      ],
      "name": "mint",
      "outputs": [],
      "stateMutability": "nonpayable",
      "type": "function"
    },
    {
      "inputs": [
        {
          "internalType": "address",
          "name": "",
          "type": "address"
        },
        {
          "internalType": "address",
          "name": "",
          "type": "address"
        },
        {
          "internalType": "uint256",
          "name": "",
          "type": "uint256"
        },
        {
          "internalType": "bytes",
          "name": "",
          "type": "bytes"
        }
      ],
      "name": "onERC721Received",
      "outputs": [
        {
          "internalType": "bytes4",
          "name": "",
          "type": "bytes4"
        }
      ],
      "stateMutability": "pure",
      "type": "function"
    },
    {
      "inputs": [],
      "name": "owner",
      "outputs": [
        {
          "internalType": "address",
          "name": "",
          "type": "address"
        }
      ],
      "stateMutability": "view",
      "type": "function"
    },
    {
      "inputs": [],
      "name": "positionsManagerAddress",
      "outputs": [
        {
          "internalType": "address",
          "name": "",
          "type": "address"
        }
      ],
      "stateMutability": "view",
      "type": "function"
    },
    {
      "inputs": [],
      "name": "renounceOwnership",
      "outputs": [],
      "stateMutability": "nonpayable",
      "type": "function"
    },
    {
      "inputs": [
        {
          "internalType": "address",
          "name": "newOwner",
          "type": "address"
        }
      ],
      "name": "transferOwnership",
      "outputs": [],
      "stateMutability": "nonpayable",
      "type": "function"
    },
    {
      "inputs": [
        {
          "internalType": "address",
          "name": "_to",
          "type": "address"
        },
        {
          "internalType": "uint256",
          "name": "_tokenId",
          "type": "uint256"
        }
      ],
      "name": "transferPosition",
      "outputs": [],
      "stateMutability": "nonpayable",
      "type": "function"
    }
  ],
  "bytecode": {
    "object": "0x608060405234801561001057600080fd5b5061001a3361001f565b61006f565b600080546001600160a01b038381166001600160a01b0319831681178455604051919092169283917f8be0079c531659141344cd1fd0a4f28419497f9722a3daafe3b4186f6b6457e09190a35050565b610f558061007e6000396000f3fe608060405234801561001057600080fd5b50600436106100cf5760003560e01c80638da5cb5b1161008c578063a3f4df7e11610066578063a3f4df7e146101f0578063c0c53b8b14610229578063c6c3bbe61461023c578063f2fde38b1461024f57600080fd5b80638da5cb5b146101a457806392d4dc0e146101b55780639dc29fac146101dd57600080fd5b8063150b7a02146100d4578063715018a61461011157806372f0b31f1461011b5780637ba61ea514610153578063858e18b11461017e5780638d2c2fb414610191575b600080fd5b6100f36100e2366004610bee565b630a85bd0160e11b95945050505050565b6040516001600160e01b031990911681526020015b60405180910390f35b610119610262565b005b61012e610129366004610c89565b610276565b604080516001600160801b039094168452602084019290925290820152606001610108565b600454610166906001600160a01b031681565b6040516001600160a01b039091168152602001610108565b600354610166906001600160a01b031681565b61011961019f366004610ce8565b6103e4565b6000546001600160a01b0316610166565b6101c86101c3366004610d27565b61046b565b60408051928352602083019190915201610108565b6101196101eb366004610ce8565b610609565b61021c6040518060400160405280600d81526020016c1158db1e5c1cd94815985d5b1d609a1b81525081565b6040516101089190610d8b565b610119610237366004610dbe565b6106af565b61011961024a366004610e01565b6106f6565b61011961025d366004610e3d565b6107af565b61026a61082d565b6102746000610887565b565b600354600090819081906001600160a01b0316331461029457600080fd5b6102a0878a30886108d7565b6102ac868a30876108d7565b6002546102c49088906001600160a01b0316876109d9565b6002546102dc9087906001600160a01b0316866109d9565b6002546040805160c0810182528a815260208101888152818301888152600060608401818152608085019182524260a08601908152955163219f5d1760e01b815294516004860152925160248501529051604484015290516064830152516084820152905160a48201526001600160a01b039091169063219f5d179060c4016060604051808303816000875af115801561037a573d6000803e3d6000fd5b505050506040513d601f19601f8201168201806040525081019061039e9190610e5f565b91945092509050848210156103c1576103c1878a6103bc8589610e96565b610ad9565b838110156103d8576103d8868a6103bc8488610e96565b96509650969350505050565b6003546001600160a01b031633146103fb57600080fd5b6002546040516323b872dd60e01b81523060048201526001600160a01b03848116602483015260448201849052909116906323b872dd90606401600060405180830381600087803b15801561044f57600080fd5b505af1158015610463573d6000803e3d6000fd5b505050505050565b60035460009081906001600160a01b0316331461048757600080fd5b6002546040805160a0810182528681526001600160801b038681166020830190815260008385018181526060850191825242608086019081529551630624e65f60e11b81529451600486015291519092166024840152516044830152516064820152905160848201526001600160a01b0390911690630c49ccbe9060a40160408051808303816000875af1158015610523573d6000803e3d6000fd5b505050506040513d601f19601f820116820180604052508101906105479190610ebd565b5050600254604080516080810182528681526001600160a01b03888116602083019081526001600160801b0383850181815260608501828152955163fc6f786560e01b8152945160048601529151831660248501529051811660448401529251909216606482015291169063fc6f78659060840160408051808303816000875af11580156105d9573d6000803e3d6000fd5b505050506040513d601f19601f820116820180604052508101906105fd9190610ebd565b90969095509350505050565b6003546001600160a01b0316331461062057600080fd5b6000826001600160a01b03168260405160240161063f91815260200190565b60408051601f198184030181529181526020820180516001600160e01b0316630852cd8d60e31b179052516106749190610ee1565b600060405180830381855af49150503d8060008114610463576040519150601f19603f3d011682016040523d82523d6000602084013e610463565b6106b761082d565b600280546001600160a01b039485166001600160a01b031991821617909155600380549385169382169390931790925560048054919093169116179055565b6003546001600160a01b0316331461070d57600080fd5b6040516001600160a01b038381166024830152604482018390526000919085169060640160408051601f198184030181529181526020820180516001600160e01b03166340c10f1960e01b179052516107669190610ee1565b600060405180830381855af49150503d80600081146107a1576040519150601f19603f3d011682016040523d82523d6000602084013e6107a6565b606091505b50505050505050565b6107b761082d565b6001600160a01b0381166108215760405162461bcd60e51b815260206004820152602660248201527f4f776e61626c653a206e6577206f776e657220697320746865207a65726f206160448201526564647265737360d01b60648201526084015b60405180910390fd5b61082a81610887565b50565b6000546001600160a01b031633146102745760405162461bcd60e51b815260206004820181905260248201527f4f776e61626c653a2063616c6c6572206973206e6f7420746865206f776e65726044820152606401610818565b600080546001600160a01b038381166001600160a01b0319831681178455604051919092169283917f8be0079c531659141344cd1fd0a4f28419497f9722a3daafe3b4186f6b6457e09190a35050565b604080516001600160a01b0385811660248301528481166044830152606480830185905283518084039091018152608490920183526020820180516001600160e01b03166323b872dd60e01b179052915160009283929088169161093b9190610ee1565b6000604051808303816000865af19150503d8060008114610978576040519150601f19603f3d011682016040523d82523d6000602084013e61097d565b606091505b50915091508180156109a75750805115806109a75750808060200190518101906109a79190610efd565b6104635760405162461bcd60e51b815260206004820152600360248201526229aa2360e91b6044820152606401610818565b604080516001600160a01b038481166024830152604480830185905283518084039091018152606490920183526020820180516001600160e01b031663095ea7b360e01b1790529151600092839290871691610a359190610ee1565b6000604051808303816000865af19150503d8060008114610a72576040519150601f19603f3d011682016040523d82523d6000602084013e610a77565b606091505b5091509150818015610aa1575080511580610aa1575080806020019051810190610aa19190610efd565b610ad25760405162461bcd60e51b8152602060048201526002602482015261534160f01b6044820152606401610818565b5050505050565b604080516001600160a01b038481166024830152604480830185905283518084039091018152606490920183526020820180516001600160e01b031663a9059cbb60e01b1790529151600092839290871691610b359190610ee1565b6000604051808303816000865af19150503d8060008114610b72576040519150601f19603f3d011682016040523d82523d6000602084013e610b77565b606091505b5091509150818015610ba1575080511580610ba1575080806020019051810190610ba19190610efd565b610ad25760405162461bcd60e51b815260206004820152600260248201526114d560f21b6044820152606401610818565b80356001600160a01b0381168114610be957600080fd5b919050565b600080600080600060808688031215610c0657600080fd5b610c0f86610bd2565b9450610c1d60208701610bd2565b935060408601359250606086013567ffffffffffffffff80821115610c4157600080fd5b818801915088601f830112610c5557600080fd5b813581811115610c6457600080fd5b896020828501011115610c7657600080fd5b9699959850939650602001949392505050565b60008060008060008060c08789031215610ca257600080fd5b610cab87610bd2565b955060208701359450610cc060408801610bd2565b9350610cce60608801610bd2565b92506080870135915060a087013590509295509295509295565b60008060408385031215610cfb57600080fd5b610d0483610bd2565b946020939093013593505050565b6001600160801b038116811461082a57600080fd5b600080600060608486031215610d3c57600080fd5b610d4584610bd2565b9250602084013591506040840135610d5c81610d12565b809150509250925092565b60005b83811015610d82578181015183820152602001610d6a565b50506000910152565b6020815260008251806020840152610daa816040850160208701610d67565b601f01601f19169190910160400192915050565b600080600060608486031215610dd357600080fd5b610ddc84610bd2565b9250610dea60208501610bd2565b9150610df860408501610bd2565b90509250925092565b600080600060608486031215610e1657600080fd5b610e1f84610bd2565b9250610e2d60208501610bd2565b9150604084013590509250925092565b600060208284031215610e4f57600080fd5b610e5882610bd2565b9392505050565b600080600060608486031215610e7457600080fd5b8351610e7f81610d12565b602085015160409095015190969495509392505050565b81810381811115610eb757634e487b7160e01b600052601160045260246000fd5b92915050565b60008060408385031215610ed057600080fd5b505080516020909101519092909150565b60008251610ef3818460208701610d67565b9190910192915050565b600060208284031215610f0f57600080fd5b81518015158114610e5857600080fdfea26469706673582212207e65bff4f2824d4670a5908b2b5a055acecadc3fd7a6e166da3b08b80dfbd10664736f6c63430008110033",
    "linkReferences": {}
  },
  "methodIdentifiers": {
    "NAME()": "a3f4df7e",
    "borrowerAddress()": "7ba61ea5",
    "burn(address,uint256)": "9dc29fac",
    "decreaseLiquidity(address,uint256,uint128)": "92d4dc0e",
    "increaseLiquidity(address,uint256,address,address,uint256,uint256)": "72f0b31f",
    "initialize(address,address,address)": "c0c53b8b",
    "mint(address,address,uint256)": "c6c3bbe6",
    "onERC721Received(address,address,uint256,bytes)": "150b7a02",
    "owner()": "8da5cb5b",
    "positionsManagerAddress()": "858e18b1",
    "renounceOwnership()": "715018a6",
    "transferOwnership(address)": "f2fde38b",
    "transferPosition(address,uint256)": "8d2c2fb4"
  },
  "id": 3
}