{
  "abi": [
    {
      "anonymous": false,
      "inputs": [
        {
          "indexed": true,
          "internalType": "address",
          "name": "previousOwner",
          "type": "address"
        },
        {
          "indexed": true,
          "internalType": "address",
          "name": "newOwner",
          "type": "address"
        }
      ],
      "name": "OwnershipTransferred",
      "type": "event"
    },
    {
      "inputs": [],
      "name": "NAME",
      "outputs": [
        {
          "internalType": "string",
          "name": "",
          "type": "string"
        }
      ],
      "stateMutability": "view",
      "type": "function"
    },
    {
      "inputs": [],
      "name": "borrowerAddress",
      "outputs": [
        {
          "internalType": "address",
          "name": "",
          "type": "address"
        }
      ],
      "stateMutability": "view",
      "type": "function"
    },
    {
      "inputs": [
        {
          "internalType": "address",
          "name": "_asset",
          "type": "address"
        },
        {
          "internalType": "uint256",
          "name": "_amount",
          "type": "uint256"
        }
      ],
      "name": "burn",
      "outputs": [
        {
          "internalType": "bool",
          "name": "_ok",
          "type": "bool"
        }
      ],
      "stateMutability": "nonpayable",
      "type": "function"
    },
    {
      "inputs": [
        {
          "internalType": "address",
          "name": "_sender",
          "type": "address"
        },
        {
          "internalType": "uint256",
          "name": "_tokenId",
          "type": "uint256"
        },
        {
          "internalType": "uint128",
          "name": "_liquidityToRemove",
          "type": "uint128"
        }
      ],
      "name": "decreaseLiquidity",
      "outputs": [
        {
          "internalType": "uint256",
          "name": "amount0",
          "type": "uint256"
        },
        {
          "internalType": "uint256",
          "name": "amount1",
          "type": "uint256"
        }
      ],
      "stateMutability": "nonpayable",
      "type": "function"
    },
    {
      "inputs": [
        {
          "internalType": "address",
          "name": "_sender",
          "type": "address"
        },
        {
          "internalType": "uint256",
          "name": "_tokenId",
          "type": "uint256"
        },
        {
          "internalType": "address",
          "name": "_token0",
          "type": "address"
        },
        {
          "internalType": "address",
          "name": "_token1",
          "type": "address"
        },
        {
          "internalType": "uint256",
          "name": "_amountAdd0",
          "type": "uint256"
        },
        {
          "internalType": "uint256",
          "name": "_amountAdd1",
          "type": "uint256"
        }
      ],
      "name": "increaseLiquidity",
      "outputs": [
        {
          "internalType": "uint128",
          "name": "liquidity",
          "type": "uint128"
        },
        {
          "internalType": "uint256",
          "name": "amount0",
          "type": "uint256"
        },
        {
          "internalType": "uint256",
          "name": "amount1",
          "type": "uint256"
        }
      ],
      "stateMutability": "nonpayable",
      "type": "function"
    },
    {
      "inputs": [
        {
          "internalType": "address",
          "name": "_uniPosNFT",
          "type": "address"
        },
        {
          "internalType": "address",
          "name": "_positionsManagerAddress",
          "type": "address"
        },
        {
          "internalType": "address",
          "name": "_borrowerAddress",
          "type": "address"
        }
      ],
      "name": "initialize",
      "outputs": [],
      "stateMutability": "nonpayable",
      "type": "function"
    },
    {
      "inputs": [
        {
          "internalType": "address",
          "name": "_asset",
          "type": "address"
        },
        {
          "internalType": "address",
          "name": "_sender",
          "type": "address"
        },
        {
          "internalType": "uint256",
          "name": "_amount",
          "type": "uint256"
        }
      ],
      "name": "mint",
      "outputs": [
        {
          "internalType": "bool",
          "name": "_ok",
          "type": "bool"
        }
      ],
      "stateMutability": "nonpayable",
      "type": "function"
    },
    {
      "inputs": [
        {
          "internalType": "address",
          "name": "",
          "type": "address"
        },
        {
          "internalType": "address",
          "name": "",
          "type": "address"
        },
        {
          "internalType": "uint256",
          "name": "",
          "type": "uint256"
        },
        {
          "internalType": "bytes",
          "name": "",
          "type": "bytes"
        }
      ],
      "name": "onERC721Received",
      "outputs": [
        {
          "internalType": "bytes4",
          "name": "",
          "type": "bytes4"
        }
      ],
      "stateMutability": "pure",
      "type": "function"
    },
    {
      "inputs": [],
      "name": "owner",
      "outputs": [
        {
          "internalType": "address",
          "name": "",
          "type": "address"
        }
      ],
      "stateMutability": "view",
      "type": "function"
    },
    {
      "inputs": [],
      "name": "positionsManagerAddress",
      "outputs": [
        {
          "internalType": "address",
          "name": "",
          "type": "address"
        }
      ],
      "stateMutability": "view",
      "type": "function"
    },
    {
      "inputs": [],
      "name": "renounceOwnership",
      "outputs": [],
      "stateMutability": "nonpayable",
      "type": "function"
    },
    {
      "inputs": [
        {
          "internalType": "address",
          "name": "newOwner",
          "type": "address"
        }
      ],
      "name": "transferOwnership",
      "outputs": [],
      "stateMutability": "nonpayable",
      "type": "function"
    },
    {
      "inputs": [
        {
          "internalType": "address",
          "name": "_to",
          "type": "address"
        },
        {
          "internalType": "uint256",
          "name": "_tokenId",
          "type": "uint256"
        }
      ],
      "name": "transferPosition",
      "outputs": [],
      "stateMutability": "nonpayable",
      "type": "function"
    }
  ],
  "bytecode": {
    "object": "0x608060405234801561001057600080fd5b5061001a3361001f565b61006f565b600080546001600160a01b038381166001600160a01b0319831681178455604051919092169283917f8be0079c531659141344cd1fd0a4f28419497f9722a3daafe3b4186f6b6457e09190a35050565b610f828061007e6000396000f3fe608060405234801561001057600080fd5b50600436106100cf5760003560e01c80638da5cb5b1161008c578063a3f4df7e11610066578063a3f4df7e14610200578063c0c53b8b14610239578063c6c3bbe61461024c578063f2fde38b1461025f57600080fd5b80638da5cb5b146101a457806392d4dc0e146101b55780639dc29fac146101dd57600080fd5b8063150b7a02146100d4578063715018a61461011157806372f0b31f1461011b5780637ba61ea514610153578063858e18b11461017e5780638d2c2fb414610191575b600080fd5b6100f36100e2366004610c1b565b630a85bd0160e11b95945050505050565b6040516001600160e01b031990911681526020015b60405180910390f35b610119610272565b005b61012e610129366004610cb6565b610286565b604080516001600160801b039094168452602084019290925290820152606001610108565b600454610166906001600160a01b031681565b6040516001600160a01b039091168152602001610108565b600354610166906001600160a01b031681565b61011961019f366004610d15565b6103f4565b6000546001600160a01b0316610166565b6101c86101c3366004610d54565b61047b565b60408051928352602083019190915201610108565b6101f06101eb366004610d15565b610619565b6040519015158152602001610108565b61022c6040518060400160405280600d81526020016c1158db1e5c1cd94815985d5b1d609a1b81525081565b6040516101089190610db8565b610119610247366004610deb565b6106d4565b6101f061025a366004610e2e565b61071b565b61011961026d366004610e6a565b6107dc565b61027a61085a565b61028460006108b4565b565b600354600090819081906001600160a01b031633146102a457600080fd5b6102b0878a3088610904565b6102bc868a3087610904565b6002546102d49088906001600160a01b031687610a06565b6002546102ec9087906001600160a01b031686610a06565b6002546040805160c0810182528a815260208101888152818301888152600060608401818152608085019182524260a08601908152955163219f5d1760e01b815294516004860152925160248501529051604484015290516064830152516084820152905160a48201526001600160a01b039091169063219f5d179060c4016060604051808303816000875af115801561038a573d6000803e3d6000fd5b505050506040513d601f19601f820116820180604052508101906103ae9190610e8c565b91945092509050848210156103d1576103d1878a6103cc8589610ec3565b610b06565b838110156103e8576103e8868a6103cc8488610ec3565b96509650969350505050565b6003546001600160a01b0316331461040b57600080fd5b6002546040516323b872dd60e01b81523060048201526001600160a01b03848116602483015260448201849052909116906323b872dd90606401600060405180830381600087803b15801561045f57600080fd5b505af1158015610473573d6000803e3d6000fd5b505050505050565b60035460009081906001600160a01b0316331461049757600080fd5b6002546040805160a0810182528681526001600160801b038681166020830190815260008385018181526060850191825242608086019081529551630624e65f60e11b81529451600486015291519092166024840152516044830152516064820152905160848201526001600160a01b0390911690630c49ccbe9060a40160408051808303816000875af1158015610533573d6000803e3d6000fd5b505050506040513d601f19601f820116820180604052508101906105579190610eea565b5050600254604080516080810182528681526001600160a01b03888116602083019081526001600160801b0383850181815260608501828152955163fc6f786560e01b8152945160048601529151831660248501529051811660448401529251909216606482015291169063fc6f78659060840160408051808303816000875af11580156105e9573d6000803e3d6000fd5b505050506040513d601f19601f8201168201806040525081019061060d9190610eea565b90969095509350505050565b6003546000906001600160a01b0316331461063357600080fd5b6000836001600160a01b03168360405160240161065291815260200190565b60408051601f198184030181529181526020820180516001600160e01b0316630852cd8d60e31b179052516106879190610f0e565b6000604051808303816000865af19150503d80600081146106c4576040519150601f19603f3d011682016040523d82523d6000602084013e6106c9565b606091505b505090505092915050565b6106dc61085a565b600280546001600160a01b039485166001600160a01b031991821617909155600380549385169382169390931790925560048054919093169116179055565b6003546000906001600160a01b0316331461073557600080fd5b6040516001600160a01b038481166024830152604482018490526000919086169060640160408051601f198184030181529181526020820180516001600160e01b03166340c10f1960e01b1790525161078e9190610f0e565b6000604051808303816000865af19150503d80600081146107cb576040519150601f19603f3d011682016040523d82523d6000602084013e6107d0565b606091505b50509050509392505050565b6107e461085a565b6001600160a01b03811661084e5760405162461bcd60e51b815260206004820152602660248201527f4f776e61626c653a206e6577206f776e657220697320746865207a65726f206160448201526564647265737360d01b60648201526084015b60405180910390fd5b610857816108b4565b50565b6000546001600160a01b031633146102845760405162461bcd60e51b815260206004820181905260248201527f4f776e61626c653a2063616c6c6572206973206e6f7420746865206f776e65726044820152606401610845565b600080546001600160a01b038381166001600160a01b0319831681178455604051919092169283917f8be0079c531659141344cd1fd0a4f28419497f9722a3daafe3b4186f6b6457e09190a35050565b604080516001600160a01b0385811660248301528481166044830152606480830185905283518084039091018152608490920183526020820180516001600160e01b03166323b872dd60e01b17905291516000928392908816916109689190610f0e565b6000604051808303816000865af19150503d80600081146109a5576040519150601f19603f3d011682016040523d82523d6000602084013e6109aa565b606091505b50915091508180156109d45750805115806109d45750808060200190518101906109d49190610f2a565b6104735760405162461bcd60e51b815260206004820152600360248201526229aa2360e91b6044820152606401610845565b604080516001600160a01b038481166024830152604480830185905283518084039091018152606490920183526020820180516001600160e01b031663095ea7b360e01b1790529151600092839290871691610a629190610f0e565b6000604051808303816000865af19150503d8060008114610a9f576040519150601f19603f3d011682016040523d82523d6000602084013e610aa4565b606091505b5091509150818015610ace575080511580610ace575080806020019051810190610ace9190610f2a565b610aff5760405162461bcd60e51b8152602060048201526002602482015261534160f01b6044820152606401610845565b5050505050565b604080516001600160a01b038481166024830152604480830185905283518084039091018152606490920183526020820180516001600160e01b031663a9059cbb60e01b1790529151600092839290871691610b629190610f0e565b6000604051808303816000865af19150503d8060008114610b9f576040519150601f19603f3d011682016040523d82523d6000602084013e610ba4565b606091505b5091509150818015610bce575080511580610bce575080806020019051810190610bce9190610f2a565b610aff5760405162461bcd60e51b815260206004820152600260248201526114d560f21b6044820152606401610845565b80356001600160a01b0381168114610c1657600080fd5b919050565b600080600080600060808688031215610c3357600080fd5b610c3c86610bff565b9450610c4a60208701610bff565b935060408601359250606086013567ffffffffffffffff80821115610c6e57600080fd5b818801915088601f830112610c8257600080fd5b813581811115610c9157600080fd5b896020828501011115610ca357600080fd5b9699959850939650602001949392505050565b60008060008060008060c08789031215610ccf57600080fd5b610cd887610bff565b955060208701359450610ced60408801610bff565b9350610cfb60608801610bff565b92506080870135915060a087013590509295509295509295565b60008060408385031215610d2857600080fd5b610d3183610bff565b946020939093013593505050565b6001600160801b038116811461085757600080fd5b600080600060608486031215610d6957600080fd5b610d7284610bff565b9250602084013591506040840135610d8981610d3f565b809150509250925092565b60005b83811015610daf578181015183820152602001610d97565b50506000910152565b6020815260008251806020840152610dd7816040850160208701610d94565b601f01601f19169190910160400192915050565b600080600060608486031215610e0057600080fd5b610e0984610bff565b9250610e1760208501610bff565b9150610e2560408501610bff565b90509250925092565b600080600060608486031215610e4357600080fd5b610e4c84610bff565b9250610e5a60208501610bff565b9150604084013590509250925092565b600060208284031215610e7c57600080fd5b610e8582610bff565b9392505050565b600080600060608486031215610ea157600080fd5b8351610eac81610d3f565b602085015160409095015190969495509392505050565b81810381811115610ee457634e487b7160e01b600052601160045260246000fd5b92915050565b60008060408385031215610efd57600080fd5b505080516020909101519092909150565b60008251610f20818460208701610d94565b9190910192915050565b600060208284031215610f3c57600080fd5b81518015158114610e8557600080fdfea2646970667358221220df3c1deef5033bc7904cf95a80630169e8e225a3e184d00ae812e62e949d0c7964736f6c63430008110033",
    "linkReferences": {}
  },
  "methodIdentifiers": {
    "NAME()": "a3f4df7e",
    "borrowerAddress()": "7ba61ea5",
    "burn(address,uint256)": "9dc29fac",
    "decreaseLiquidity(address,uint256,uint128)": "92d4dc0e",
    "increaseLiquidity(address,uint256,address,address,uint256,uint256)": "72f0b31f",
    "initialize(address,address,address)": "c0c53b8b",
    "mint(address,address,uint256)": "c6c3bbe6",
    "onERC721Received(address,address,uint256,bytes)": "150b7a02",
    "owner()": "8da5cb5b",
    "positionsManagerAddress()": "858e18b1",
    "renounceOwnership()": "715018a6",
    "transferOwnership(address)": "f2fde38b",
    "transferPosition(address,uint256)": "8d2c2fb4"
  },
  "id": 0
}