{
  "abi": [
    {
      "inputs": [],
      "name": "T",
      "type": "error"
    },
    {
      "anonymous": false,
      "inputs": [
        {
          "indexed": true,
          "internalType": "address",
          "name": "previousOwner",
          "type": "address"
        },
        {
          "indexed": true,
          "internalType": "address",
          "name": "newOwner",
          "type": "address"
        }
      ],
      "name": "OwnershipTransferred",
      "type": "event"
    },
    {
      "inputs": [
        {
          "internalType": "address",
          "name": "_assetAddress",
          "type": "address"
        },
        {
          "components": [
            {
              "internalType": "uint256",
              "name": "interestRate",
              "type": "uint256"
            },
            {
              "internalType": "uint256",
              "name": "totalBorrowedStableCoin",
              "type": "uint256"
            },
            {
              "internalType": "uint256",
              "name": "interestFactor",
              "type": "uint256"
            },
            {
              "internalType": "uint256",
              "name": "lastFactorUpdate",
              "type": "uint256"
            },
            {
              "internalType": "uint32",
              "name": "twapLength",
              "type": "uint32"
            }
          ],
          "internalType": "struct IPositionsManager.AssetsValues",
          "name": "_assetValue",
          "type": "tuple"
        }
      ],
      "name": "addAssetsValuesToProtocol",
      "outputs": [],
      "stateMutability": "nonpayable",
      "type": "function"
    },
    {
      "inputs": [
        {
          "internalType": "address",
          "name": "_poolAddress",
          "type": "address"
        },
        {
          "internalType": "address",
          "name": "_token0",
          "type": "address"
        },
        {
          "internalType": "address",
          "name": "_token1",
          "type": "address"
        },
        {
          "internalType": "address",
          "name": "_ETHpoolToken0",
          "type": "address"
        },
        {
          "internalType": "address",
          "name": "_ETHpoolToken1",
          "type": "address"
        },
        {
          "internalType": "bool",
          "name": "_inv0",
          "type": "bool"
        },
        {
          "internalType": "bool",
          "name": "_inv1",
          "type": "bool"
        }
      ],
      "name": "addPoolToProtocol",
      "outputs": [],
      "stateMutability": "nonpayable",
      "type": "function"
    },
    {
      "inputs": [
        {
          "internalType": "uint256",
          "name": "_tokenId",
          "type": "uint256"
        }
      ],
      "name": "allDebtComponentsOf",
      "outputs": [
        {
          "internalType": "uint256",
          "name": "currentDebt",
          "type": "uint256"
        },
        {
          "internalType": "uint256",
          "name": "debtPrincipal",
          "type": "uint256"
        },
        {
          "internalType": "uint256",
          "name": "interest",
          "type": "uint256"
        }
      ],
      "stateMutability": "view",
      "type": "function"
    },
    {
      "inputs": [
        {
          "internalType": "uint256[]",
          "name": "_tokenIds",
          "type": "uint256[]"
        },
        {
          "internalType": "uint256[]",
          "name": "_amountRepays",
          "type": "uint256[]"
        }
      ],
      "name": "batchliquidate",
      "outputs": [],
      "stateMutability": "nonpayable",
      "type": "function"
    },
    {
      "inputs": [
        {
          "internalType": "address",
          "name": "sender",
          "type": "address"
        },
        {
          "internalType": "uint256",
          "name": "_tokenId",
          "type": "uint256"
        },
        {
          "internalType": "uint256",
          "name": "_amount",
          "type": "uint256"
        }
      ],
      "name": "borrow",
      "outputs": [],
      "stateMutability": "nonpayable",
      "type": "function"
    },
    {
      "inputs": [
        {
          "internalType": "address",
          "name": "_owner",
          "type": "address"
        },
        {
          "internalType": "uint256",
          "name": "_tokenId",
          "type": "uint256"
        }
      ],
      "name": "closePosition",
      "outputs": [],
      "stateMutability": "nonpayable",
      "type": "function"
    },
    {
      "inputs": [
        {
          "internalType": "uint256",
          "name": "_tokenId",
          "type": "uint256"
        }
      ],
      "name": "collRatioOf",
      "outputs": [
        {
          "internalType": "uint256",
          "name": "",
          "type": "uint256"
        }
      ],
      "stateMutability": "view",
      "type": "function"
    },
    {
      "inputs": [
        {
          "internalType": "uint256",
          "name": "_tokenId",
          "type": "uint256"
        }
      ],
      "name": "debtOf",
      "outputs": [
        {
          "internalType": "uint256",
          "name": "currentDebt",
          "type": "uint256"
        }
      ],
      "stateMutability": "view",
      "type": "function"
    },
    {
      "inputs": [
        {
          "internalType": "uint256",
          "name": "_tokenId",
          "type": "uint256"
        }
      ],
      "name": "debtOfInETH",
      "outputs": [
        {
          "internalType": "uint256",
          "name": "",
          "type": "uint256"
        }
      ],
      "stateMutability": "view",
      "type": "function"
    },
    {
      "inputs": [
        {
          "internalType": "address",
          "name": "sender",
          "type": "address"
        },
        {
          "internalType": "uint256",
          "name": "tokenId",
          "type": "uint256"
        },
        {
          "internalType": "uint256",
          "name": "amountAdd0",
          "type": "uint256"
        },
        {
          "internalType": "uint256",
          "name": "amountAdd1",
          "type": "uint256"
        }
      ],
      "name": "deposit",
      "outputs": [
        {
          "internalType": "uint128",
          "name": "liquidity",
          "type": "uint128"
        },
        {
          "internalType": "uint256",
          "name": "amount0",
          "type": "uint256"
        },
        {
          "internalType": "uint256",
          "name": "amount1",
          "type": "uint256"
        }
      ],
      "stateMutability": "nonpayable",
      "type": "function"
    },
    {
      "inputs": [
        {
          "internalType": "address",
          "name": "_assets",
          "type": "address"
        }
      ],
      "name": "getAssetsValues",
      "outputs": [
        {
          "components": [
            {
              "internalType": "uint256",
              "name": "interestRate",
              "type": "uint256"
            },
            {
              "internalType": "uint256",
              "name": "totalBorrowedStableCoin",
              "type": "uint256"
            },
            {
              "internalType": "uint256",
              "name": "interestFactor",
              "type": "uint256"
            },
            {
              "internalType": "uint256",
              "name": "lastFactorUpdate",
              "type": "uint256"
            },
            {
              "internalType": "uint32",
              "name": "twapLength",
              "type": "uint32"
            }
          ],
          "internalType": "struct IPositionsManager.AssetsValues",
          "name": "",
          "type": "tuple"
        }
      ],
      "stateMutability": "view",
      "type": "function"
    },
    {
      "inputs": [
        {
          "internalType": "uint256",
          "name": "_tokenId",
          "type": "uint256"
        }
      ],
      "name": "getPosition",
      "outputs": [
        {
          "components": [
            {
              "internalType": "address",
              "name": "user",
              "type": "address"
            },
            {
              "internalType": "address",
              "name": "token0",
              "type": "address"
            },
            {
              "internalType": "address",
              "name": "token1",
              "type": "address"
            },
            {
              "internalType": "uint24",
              "name": "fee",
              "type": "uint24"
            },
            {
              "internalType": "int24",
              "name": "tickLower",
              "type": "int24"
            },
            {
              "internalType": "int24",
              "name": "tickUpper",
              "type": "int24"
            },
            {
              "internalType": "uint128",
              "name": "liquidity",
              "type": "uint128"
            },
            {
              "internalType": "address",
              "name": "poolAddress",
              "type": "address"
            },
            {
              "internalType": "uint256",
              "name": "tokenId",
              "type": "uint256"
            },
            {
              "internalType": "enum IPositionsManager.Status",
              "name": "status",
              "type": "uint8"
            },
            {
              "internalType": "uint256",
              "name": "debtPrincipal",
              "type": "uint256"
            },
            {
              "internalType": "uint256",
              "name": "interestConstant",
              "type": "uint256"
            },
            {
              "internalType": "address",
              "name": "assetAddress",
              "type": "address"
            }
          ],
          "internalType": "struct IPositionsManager.Position",
          "name": "position",
          "type": "tuple"
        }
      ],
      "stateMutability": "view",
      "type": "function"
    },
    {
      "inputs": [
        {
          "internalType": "address",
          "name": "_pool",
          "type": "address"
        }
      ],
      "name": "getRiskConstants",
      "outputs": [
        {
          "internalType": "uint256",
          "name": "riskConstants",
          "type": "uint256"
        }
      ],
      "stateMutability": "view",
      "type": "function"
    },
    {
      "inputs": [
        {
          "internalType": "address",
          "name": "_uniFactory",
          "type": "address"
        },
        {
          "internalType": "address",
          "name": "_uniPosNFT",
          "type": "address"
        },
        {
          "internalType": "address",
          "name": "_userInteractionsAddress",
          "type": "address"
        },
        {
          "internalType": "address",
          "name": "_eclypseVaultAddress",
          "type": "address"
        },
        {
          "internalType": "address",
          "name": "_priceFeedAddress",
          "type": "address"
        }
      ],
      "name": "initialize",
      "outputs": [],
      "stateMutability": "nonpayable",
      "type": "function"
    },
    {
      "inputs": [
        {
          "internalType": "uint256",
          "name": "_tokenId",
          "type": "uint256"
        }
      ],
      "name": "liquidatable",
      "outputs": [
        {
          "internalType": "bool",
          "name": "",
          "type": "bool"
        }
      ],
      "stateMutability": "nonpayable",
      "type": "function"
    },
    {
      "inputs": [
        {
          "internalType": "uint256",
          "name": "_tokenId",
          "type": "uint256"
        },
        {
          "internalType": "uint256",
          "name": "_amountRepay",
          "type": "uint256"
        }
      ],
      "name": "liquidatePosition",
      "outputs": [],
      "stateMutability": "nonpayable",
      "type": "function"
    },
    {
      "inputs": [
        {
          "internalType": "uint256",
          "name": "_tokenId",
          "type": "uint256"
        },
        {
          "internalType": "uint256",
          "name": "_amountRepay",
          "type": "uint256"
        }
      ],
      "name": "liquidateUnderlyings",
      "outputs": [],
      "stateMutability": "nonpayable",
      "type": "function"
    },
    {
      "inputs": [
        {
          "internalType": "address",
          "name": "_owner",
          "type": "address"
        },
        {
          "internalType": "uint256",
          "name": "_tokenId",
          "type": "uint256"
        },
        {
          "internalType": "address",
          "name": "_assetAddress",
          "type": "address"
        }
      ],
      "name": "openPosition",
      "outputs": [],
      "stateMutability": "nonpayable",
      "type": "function"
    },
    {
      "inputs": [],
      "name": "owner",
      "outputs": [
        {
          "internalType": "address",
          "name": "",
          "type": "address"
        }
      ],
      "stateMutability": "view",
      "type": "function"
    },
    {
      "inputs": [
        {
          "internalType": "uint256",
          "name": "_tokenId",
          "type": "uint256"
        }
      ],
      "name": "positionAmounts",
      "outputs": [
        {
          "internalType": "uint256",
          "name": "amountToken0",
          "type": "uint256"
        },
        {
          "internalType": "uint256",
          "name": "amountToken1",
          "type": "uint256"
        }
      ],
      "stateMutability": "view",
      "type": "function"
    },
    {
      "inputs": [
        {
          "internalType": "uint256",
          "name": "_tokenId",
          "type": "uint256"
        }
      ],
      "name": "positionValueInETH",
      "outputs": [
        {
          "internalType": "uint256",
          "name": "value",
          "type": "uint256"
        }
      ],
      "stateMutability": "view",
      "type": "function"
    },
    {
      "inputs": [
        {
          "internalType": "uint256",
          "name": "_base",
          "type": "uint256"
        },
        {
          "internalType": "uint256",
          "name": "_exponent",
          "type": "uint256"
        }
      ],
      "name": "power",
      "outputs": [
        {
          "internalType": "uint256",
          "name": "result",
          "type": "uint256"
        }
      ],
      "stateMutability": "pure",
      "type": "function"
    },
    {
      "inputs": [],
      "name": "protocolContracts",
      "outputs": [
        {
          "internalType": "address",
          "name": "userInteractions",
          "type": "address"
        },
        {
          "internalType": "contract IEclypseVault",
          "name": "eclypseVault",
          "type": "address"
        },
        {
          "internalType": "contract IUniswapV3Factory",
          "name": "uniswapFactory",
          "type": "address"
        },
        {
          "internalType": "contract INonfungiblePositionManager",
          "name": "uniswapPositionsManager",
          "type": "address"
        },
        {
          "internalType": "contract IPriceFeed",
          "name": "priceFeed",
          "type": "address"
        }
      ],
      "stateMutability": "view",
      "type": "function"
    },
    {
      "inputs": [
        {
          "internalType": "address",
          "name": "assetAddress",
          "type": "address"
        }
      ],
      "name": "refreshDebtTracking",
      "outputs": [],
      "stateMutability": "nonpayable",
      "type": "function"
    },
    {
      "inputs": [],
      "name": "renounceOwnership",
      "outputs": [],
      "stateMutability": "nonpayable",
      "type": "function"
    },
    {
      "inputs": [
        {
          "internalType": "address",
          "name": "sender",
          "type": "address"
        },
        {
          "internalType": "uint256",
          "name": "_tokenId",
          "type": "uint256"
        },
        {
          "internalType": "uint256",
          "name": "_amount",
          "type": "uint256"
        }
      ],
      "name": "repay",
      "outputs": [],
      "stateMutability": "nonpayable",
      "type": "function"
    },
    {
      "inputs": [
        {
          "internalType": "address",
          "name": "_user",
          "type": "address"
        }
      ],
      "name": "totalDebtOf",
      "outputs": [
        {
          "internalType": "uint256",
          "name": "totalDebt",
          "type": "uint256"
        }
      ],
      "stateMutability": "view",
      "type": "function"
    },
    {
      "inputs": [
        {
          "internalType": "address",
          "name": "_user",
          "type": "address"
        }
      ],
      "name": "totalPositionsValueInETH",
      "outputs": [
        {
          "internalType": "uint256",
          "name": "totalValue",
          "type": "uint256"
        }
      ],
      "stateMutability": "nonpayable",
      "type": "function"
    },
    {
      "inputs": [
        {
          "internalType": "address",
          "name": "newOwner",
          "type": "address"
        }
      ],
      "name": "transferOwnership",
      "outputs": [],
      "stateMutability": "nonpayable",
      "type": "function"
    },
    {
      "inputs": [
        {
          "internalType": "address",
          "name": "_pool",
          "type": "address"
        },
        {
          "internalType": "uint256",
          "name": "_riskConstants",
          "type": "uint256"
        }
      ],
      "name": "updateRiskConstants",
      "outputs": [],
      "stateMutability": "nonpayable",
      "type": "function"
    },
    {
      "inputs": [
        {
          "internalType": "address",
          "name": "sender",
          "type": "address"
        },
        {
          "internalType": "uint256",
          "name": "tokenId",
          "type": "uint256"
        },
        {
          "internalType": "uint128",
          "name": "liquidityToRemove",
          "type": "uint128"
        }
      ],
      "name": "withdraw",
      "outputs": [
        {
          "internalType": "uint256",
          "name": "amount0",
          "type": "uint256"
        },
        {
          "internalType": "uint256",
          "name": "amount1",
          "type": "uint256"
        }
      ],
      "stateMutability": "nonpayable",
      "type": "function"
    }
  ],
  "bytecode": {
    "object": "0x6080604052600180546001600160a01b03191673a0b86991c6218b36c1d19d4a2e9eb0ce3606eb481790553480156200003757600080fd5b50620000433362000049565b62000099565b600080546001600160a01b038381166001600160a01b0319831681178455604051919092169283917f8be0079c531659141344cd1fd0a4f28419497f9722a3daafe3b4186f6b6457e09190a35050565b613d1f80620000a96000396000f3fe608060405234801561001057600080fd5b50600436106101e55760003560e01c8063787b0b7f1161010f578063c04f01fc116100a2578063eb02c30111610071578063eb02c301146104b5578063ed4ce299146104d5578063f2fde38b146104fe578063f8e0a1111461051157600080fd5b8063c04f01fc14610444578063c1bce0b714610457578063ce88b4391461046a578063d3c4e4a6146104a257600080fd5b80638da5cb5b116100de5780638da5cb5b146103f05780639470d4521461040b5780639f2b28331461041e578063bd7be5a41461043157600080fd5b8063787b0b7f146103945780637d751896146103a75780638c70cb52146103ca5780638cd2e0c7146103dd57600080fd5b80633b68777811610187578063715018a611610156578063715018a61461030057806372bef58214610308578063742fe1f81461031b578063785434af1461032e57600080fd5b80633b68777814610284578063415203c9146102b257806344913c53146102c557806363d081f7146102ed57600080fd5b8063190f7867116101c3578063190f78671461022557806327dc3c341461024b57806335bf50551461025e5780633a41b2e71461027157600080fd5b806304837282146101ea5780630517c6e9146101ff5780631459457a14610212575b600080fd5b6101fd6101f83660046131b6565b61056c565b005b6101fd61020d3660046131ed565b610622565b6101fd61022036600461320a565b610691565b61023861023336600461327b565b6106f9565b6040519081526020015b60405180910390f35b61023861025936600461327b565b610827565b61023861026c36600461327b565b610965565b6101fd61027f366004613294565b610b95565b61029761029236600461327b565b61124d565b60408051938452602084019290925290820152606001610242565b6101fd6102c03660046133ac565b611424565b6102d86102d336600461327b565b611491565b60408051928352602083019190915201610242565b6102386102fb3660046131ed565b611627565b6101fd6116d0565b6102d8610316366004613425565b6116e4565b6101fd61032936600461345c565b611814565b60025460035460045460055460065461035a946001600160a01b03908116948116938116928116911685565b604080516001600160a01b03968716815294861660208601529285169284019290925283166060830152909116608082015260a001610242565b6101fd6103a2366004613488565b6118cf565b6103ba6103b536600461327b565b611901565b6040519015158152602001610242565b6101fd6103d83660046134d7565b611a33565b6101fd6103eb36600461356d565b611b54565b6000546040516001600160a01b039091168152602001610242565b6101fd61041936600461345c565b611dc0565b61023861042c3660046131ed565b611e58565b61023861043f36600461327b565b611efa565b6102386104523660046131b6565b6120ab565b6101fd61046536600461356d565b61211b565b61047d6104783660046135a2565b612337565b604080516001600160801b039094168452602084019290925290820152606001610242565b6101fd6104b03660046131b6565b61243e565b6104c86104c336600461327b565b6126e1565b6040516102429190613615565b6102386104e33660046131ed565b6001600160a01b031660009081526009602052604090205490565b6101fd61050c3660046131ed565b61284f565b61052461051f3660046131ed565b6128c8565b6040516102429190600060a0820190508251825260208301516020830152604083015160408301526060830151606083015263ffffffff608084015116608083015292915050565b61057582611901565b6105c65760405162461bcd60e51b815260206004820152601c60248201527f506f736974696f6e206973206e6f74206c6971756964617461626c650000000060448201526064015b60405180910390fd5b806105d083611efa565b111561061e5760405162461bcd60e51b815260206004820152601c60248201527f4e6f7420656e6f7567682047484f20746f20726570617920646562740000000060448201526064016105bd565b5050565b6001600160a01b0381166000908152600c60205260408120805460038201549192916106539190610452904261373b565b6001600160a01b0384166000908152600c60205260409020600201549091506106819082600160601b61295e565b6002830155504260039091015550565b61069961299f565b600280546001600160a01b03199081166001600160a01b0395861617909155600380548216938516939093179092556004805483169584169590951790945560058054821693831693909317909255600680549092169216919091179055565b600080600061070784611491565b6000868152600b602052604080822060018101546002909101546006549251635620c32d60e11b81526001600160a01b039182166004820181905273eeeeeeeeeeeeeeeeeeeeeeeeeeeeeeeeeeeeeeee602483015296985094965090811694936107c1928792169063ac41865a906044015b602060405180830381865afa158015610796573d6000803e3d6000fd5b505050506040513d601f19601f820116820180604052508101906107ba919061374e565b60016129f9565b600654604051635620c32d60e11b81526001600160a01b03868116600483015273eeeeeeeeeeeeeeeeeeeeeeeeeeeeeeeeeeeeeeee602483015261081292899291169063ac41865a90604401610779565b61081c9190613767565b979650505050505050565b600654600154604051635620c32d60e11b81526001600160a01b03918216600482015273eeeeeeeeeeeeeeeeeeeeeeeeeeeeeeeeeeeeeeee60248201526000928392169063ac41865a90604401602060405180830381865afa158015610891573d6000803e3d6000fd5b505050506040513d601f19601f820116820180604052508101906108b5919061374e565b9050600061095d6108c585611efa565b600654600154604051635620c32d60e11b81526001600160a01b03918216600482015273eeeeeeeeeeeeeeeeeeeeeeeeeeeeeeeeeeeeeeee602482015291169063ac41865a90604401602060405180830381865afa15801561092b573d6000803e3d6000fd5b505050506040513d601f19601f8201168201806040525081019061094f919061374e565b670de0b6b3a764000061295e565b949350505050565b60055460405163133f757160e31b815260048101839052600091829182916001600160a01b0316906399fbab889060240161018060405180830381865afa1580156109b4573d6000803e3d6000fd5b505050506040513d601f19601f820116820180604052508101906109d891906137ba565b9b509b50505050505050505050506000610adc826001600160801b0316600260040160009054906101000a90046001600160a01b03166001600160a01b031663ac41865a600b60008a815260200190815260200160002060020160009054906101000a90046001600160a01b031673eeeeeeeeeeeeeeeeeeeeeeeeeeeeeeeeeeeeeeee6040518363ffffffff1660e01b8152600401610a8d9291906001600160a01b0392831681529116602082015260400190565b602060405180830381865afa158015610aaa573d6000803e3d6000fd5b505050506040513d601f19601f82011682018060405250810190610ace919061374e565b670de0b6b3a76400006129f9565b6006546000878152600b602052604090819020600101549051635620c32d60e11b81526001600160a01b03918216600482015273eeeeeeeeeeeeeeeeeeeeeeeeeeeeeeeeeeeeeeee6024820152610b48926001600160801b03881692169063ac41865a90604401610a8d565b610b529190613767565b90506000610b5f86610827565b9050600082610b6d886106f9565b610b779190613767565b905060008211610b895760001961081c565b61081c816001846129f9565b6002546001600160a01b03163314610bac57600080fd5b600554600354604051632142170760e11b81526001600160a01b03928316926342842e0e92610be592889290911690879060040161389b565b600060405180830381600087803b158015610bff57600080fd5b505af1158015610c13573d6000803e3d6000fd5b505060055460405163133f757160e31b8152600481018690526000935083925082918291829182916001600160a01b03909116906399fbab889060240161018060405180830381865afa158015610c6e573d6000803e3d6000fd5b505050506040513d601f19601f82011682018060405250810190610c9291906137ba565b50505050975097509750975097509750505060006002800160009054906101000a90046001600160a01b03166001600160a01b0316631698ee828888886040518463ffffffff1660e01b8152600401610d11939291906001600160a01b03938416815291909216602082015262ffffff91909116604082015260600190565b602060405180830381865afa158015610d2e573d6000803e3d6000fd5b505050506040513d601f19601f82011682018060405250810190610d5291906138bf565b6001600160a01b03811660009081526007602052604090205490915060ff16610dd05760405162461bcd60e51b815260206004820152602a60248201527f5468697320706f6f6c206973206e6f742061636365707465642062792074686560448201526910383937ba37b1b7b61760b11b60648201526084016105bd565b6000604051806101a001604052808c6001600160a01b03168152602001896001600160a01b03168152602001886001600160a01b031681526020018762ffffff1681526020018660020b81526020018560020b8152602001846001600160801b03168152602001836001600160a01b031681526020018b815260200160016003811115610e5f57610e5f6135dd565b815260200160008152602001600c60008c6001600160a01b03166001600160a01b031681526020019081526020016000206002015481526020018a6001600160a01b031681525090506000600a60008d6001600160a01b03166001600160a01b031681526020019081526020016000209050818160010160008360000154815260200190815260200160002060008201518160000160006101000a8154816001600160a01b0302191690836001600160a01b0316021790555060208201518160010160006101000a8154816001600160a01b0302191690836001600160a01b0316021790555060408201518160020160006101000a8154816001600160a01b0302191690836001600160a01b0316021790555060608201518160020160146101000a81548162ffffff021916908362ffffff16021790555060808201518160020160176101000a81548162ffffff021916908360020b62ffffff16021790555060a082015181600201601a6101000a81548162ffffff021916908360020b62ffffff16021790555060c08201518160030160006101000a8154816001600160801b0302191690836001600160801b0316021790555060e08201518160040160006101000a8154816001600160a01b0302191690836001600160a01b0316021790555061010082015181600501556101208201518160060160006101000a81548160ff02191690836003811115611077576110776135dd565b02179055506101408201516007820155610160820151600882015561018090910151600990910180546001600160a01b0319166001600160a01b0390921691909117905580548160006110c9836138dc565b909155505060008b8152600b6020908152604091829020845181546001600160a01b03199081166001600160a01b03928316178355928601516001808401805486169284169290921790915593860151600283018054606089015160808a015160a08b01519486166001600160b81b031990931692909217600160a01b62ffffff928316021765ffffffffffff60b81b1916600160b81b9282169290920262ffffff60d01b191691909117600160d01b919093160291909117905560c0860151600380840180546001600160801b0319166001600160801b039093169290921790915560e08701516004840180549095169216919091179092556101008501516005820155610120850151600682018054879593949293919260ff19909116919084908111156111fb576111fb6135dd565b02179055506101408201516007820155610160820151600882015561018090910151600990910180546001600160a01b0319166001600160a01b03909216919091179055505050505050505050505050565b6000818152600b6020908152604080832081516101a08101835281546001600160a01b03908116825260018301548116948201949094526002808301548086169483019490945262ffffff600160a01b8504166060830152600160b81b8404810b6080830152600160d01b90930490920b60a08301526003808201546001600160801b031660c0840152600482015490931660e0830152600581015461010083015260068101548493849384939092909161012084019160ff1690811115611317576113176135dd565b6003811115611328576113286135dd565b8152600782015460208083019190915260088301546040808401919091526009909301546001600160a01b03908116606093840152610180850151166000908152600c8252839020835160a0810185528154815260018201549281019290925260028101549382019390935260038301549181019190915260049091015463ffffffff1660808201529091506113bd866126e1565b610140015193506113e08482604001516113d6896126e1565b610160015161295e565b945060006113fc8260000151836060015142610452919061373b565b905061140d8682600160601b61295e565b9550611419858761373b565b959794965050505050565b805182511461143257600080fd5b60005b825181101561148c5761147a838281518110611453576114536138f5565b602002602001015183838151811061146d5761146d6138f5565b602002602001015161243e565b80611484816138dc565b915050611435565b505050565b6000818152600b6020908152604080832081516101a08101835281546001600160a01b03908116825260018301548116948201949094526002808301548086169483019490945262ffffff600160a01b8504166060830152600160b81b8404810b6080830152600160d01b90930490920b60a08301526003808201546001600160801b031660c0840152600482015490931660e08301526005810154610100830152600681015484938493929161012084019160ff90911690811115611559576115596135dd565b600381111561156a5761156a6135dd565b8152600782015460208083019190915260088301546040808401919091526009909301546001600160a01b0390811660609093019290925260e08401516101808501519092166000908152600c9091529182206004015492935090916115d6919063ffffffff16612aab565b50905060006115e482612cf5565b905060006115f58460800151612cf5565b905060006116068560a00151612cf5565b90506116188383838860c00151613018565b90999098509650505050505050565b6001600160a01b0381166000908152600a60205260408120815b815463ffffffff821610156116c957600163ffffffff8216600090815260018401602052604090206006015460ff166003811115611681576116816135dd565b036116b75763ffffffff811660009081526001830160205260409020600501546116aa906106f9565b6116b49084613767565b92505b806116c18161390b565b915050611641565b5050919050565b6116d861299f565b6116e260006130b4565b565b60025460009081906001600160a01b0316331461170057600080fd5b6000848152600b6020526040902060038101546001600160801b039081169085161161172c578361173b565b60038101546001600160801b03165b60035460405163496a6e0760e11b81526001600160a01b038981166004830152602482018990526001600160801b03841660448301529296509116906392d4dc0e9060640160408051808303816000875af115801561179e573d6000803e3d6000fd5b505050506040513d601f19601f820116820180604052508101906117c29190613924565b60038301805492955090935085916000906117e79084906001600160801b0316613948565b92506101000a8154816001600160801b0302191690836001600160801b0316021790555050935093915050565b6002546001600160a01b0316331461182b57600080fd5b600061183682611efa565b9050801561184957611849838383611b54565b60035460405163234b0bed60e21b81526001600160a01b0385811660048301526024820185905290911690638d2c2fb490604401600060405180830381600087803b15801561189757600080fd5b505af11580156118ab573d6000803e3d6000fd5b50505060009283525050600b60205260409020600601805460ff1916600217905550565b6118d761299f565b6001600160a01b0382166000908152600c6020526040902081906118fb828261396f565b50505050565b6000818152600b6020908152604080832081516101a08101835281546001600160a01b03908116825260018301548116948201949094526002808301548086169483019490945262ffffff600160a01b8504166060830152600160b81b8404810b6080830152600160d01b90930490920b60a08301526003808201546001600160801b031660c0840152600482015490931660e083015260058101546101008301526006810154849361012084019160ff16908111156119c3576119c36135dd565b60038111156119d4576119d46135dd565b8152600782015460208083019190915260088301546040808401919091526009938401546001600160a01b0390811660609094019390935260e08501519092166000908152929052902054909150611a2b84610965565b109392505050565b611a3b61299f565b6001600160a01b038088166000908152600760205260409020805460ff19166001179055861673c02aaa39b223fe8d0a0e5c4f27ead9083c756cc214611ad1576040805180820182526001600160a01b03808716825284151560208084019182528a831660009081526008909152939093209151825493511515600160a01b026001600160a81b03199094169116179190911790555b6001600160a01b03851673c02aaa39b223fe8d0a0e5c4f27ead9083c756cc214611b4b576040805180820182526001600160a01b038086168252831515602080840191825289831660009081526008909152939093209151825493511515600160a01b026001600160a81b03199094169116179190911790555b50505050505050565b6002546001600160a01b03163314611b6b57600080fd5b60008111611bbb5760405162461bcd60e51b815260206004820181905260248201527f4120646562742063616e6e6f742062652064656372656173656420627920302e60448201526064016105bd565b6000828152600b6020526040902060090154611bdf906001600160a01b0316610622565b6000806000611bed8561124d565b6000888152600b6020908152604080832060098101546001600160a01b03168452600c909252909120939650919450925090848610611c2c5784611c2e565b855b95506000838710611c3f5783611c41565b865b90506000611c4f828961373b565b60098501546003549192506001600160a01b03908116916323b872dd918d9116611c798686613767565b6040518463ffffffff1660e01b8152600401611c979392919061389b565b6020604051808303816000875af1158015611cb6573d6000803e3d6000fd5b505050506040513d601f19601f82011682018060405250810190611cda91906139bf565b508015611d65576003546009850154604051632770a7eb60e21b81526001600160a01b03918216600482015260248101849052911690639dc29fac90604401600060405180830381600087803b158015611d3357600080fd5b505af1158015611d47573d6000803e3d6000fd5b5050505080836001016000828254611d5f919061373b565b90915550505b6000611d71898961373b565b90506000611d7f838961373b565b90508115611da057611d968560020154828461295e565b6008870155611dab565b600285015460088701555b60079095019490945550505050505050505050565b611dc861299f565b670de0b6b3a76400008111611e3c5760405162461bcd60e51b815260206004820152603460248201527f546865206d696e696d756d20636f6c6c61746572616c20726174696f206d75736044820152733a1031329033b932b0ba32b9103a3430b710189760611b60648201526084016105bd565b6001600160a01b03909116600090815260096020526040902055565b6001600160a01b0381166000908152600a60205260408120815b815463ffffffff821610156116c957600163ffffffff8216600090815260018401602052604090206006015460ff166003811115611eb257611eb26135dd565b03611ee85763ffffffff81166000908152600183016020526040902060050154611edb90611efa565b611ee59084613767565b92505b80611ef28161390b565b915050611e72565b6000818152600b6020908152604080832081516101a08101835281546001600160a01b03908116825260018301548116948201949094526002808301548086169483019490945262ffffff600160a01b8504166060830152600160b81b8404810b6080830152600160d01b90930490920b60a08301526003808201546001600160801b031660c0840152600482015490931660e083015260058101546101008301526006810154849361012084019160ff1690811115611fbc57611fbc6135dd565b6003811115611fcd57611fcd6135dd565b8152600782015460208083019190915260088301546040808401919091526009909301546001600160a01b03908116606093840152610180850151166000908152600c8252839020835160a08101855281548152600182015492810192909252600281015493820184905260038101549282019290925260049091015463ffffffff166080820152610140830151610160840151939450909290916120749183919061295e565b935060006120908360000151846060015142610452919061373b565b90506120a18582600160601b61295e565b9695505050505050565b6000816000036120c05750600160601b612115565b816001036120cf575081612115565b6120de836104526002856139f2565b90506120ef8182600160601b6129f9565b90506120fc600283613a06565b600103612115576121128184600160601b6129f9565b90505b92915050565b6002546001600160a01b0316331461213257600080fd5b600081116121825760405162461bcd60e51b815260206004820181905260248201527f4120646562742063616e6e6f7420626520696e6372656173656420627920302e60448201526064016105bd565b6000828152600b60205260409020600901546121a6906001600160a01b0316610622565b6000806121b28461124d565b506000868152600b6020908152604080832060098101546001600160a01b03908116808652600c855294839020835160a08101855281548152600182015495810195909552600281015485850152600380820154606087015260049182015463ffffffff166080870152549351636361ddf360e11b81529799509597509095929491169263c6c3bbe69261224a928c918b910161389b565b600060405180830381600087803b15801561226457600080fd5b505af1158015612278573d6000803e3d6000fd5b50505050848160200181815161228e9190613767565b90525060408101516122b3906122a48786613767565b6122ae8888613767565b6129f9565b8260080181905550848260070160008282546122cf9190613767565b909155506122de905086611901565b15611b4b5760405162461bcd60e51b815260206004820152602360248201527f54686520706f736974696f6e2063616e2774206265206c6971756964617461626044820152626c652160e81b60648201526084016105bd565b600254600090819081906001600160a01b0316331461235557600080fd5b6000868152600b6020526040908190206001810154600282015460035493516372f0b31f60e01b81526001600160a01b038c81166004830152602482018c90529283166044820181905291831660648201819052608482018b905260a482018a90529394919392909116906372f0b31f9060c4016060604051808303816000875af11580156123e8573d6000803e3d6000fd5b505050506040513d601f19601f8201168201806040525081019061240c9190613a1a565b60039590950180546001600160801b0319166001600160801b038416179055909b909a50929850919650505050505050565b61244782611901565b61249d5760405162461bcd60e51b815260206004820152602160248201527f54686520706f736974696f6e206973206e6f74206c6971756964617461626c656044820152601760f91b60648201526084016105bd565b60006124a883611efa565b9050808210156125385760405162461bcd60e51b815260206004820152604f60248201527f54686520616d6f756e74206f662047484f20746f207265706179206973206e6f60448201527f7420656e6f75676820746f207265696d6275727365207468652064656274206f60648201526e33103a3432903837b9b4ba34b7b71760891b608482015260a4016105bd565b6000838152600b602052604090819020600981015460035492516323b872dd60e01b815291926001600160a01b03918216926323b872dd92612583923392911690879060040161389b565b6020604051808303816000875af11580156125a2573d6000803e3d6000fd5b505050506040513d601f19601f820116820180604052508101906125c691906139bf565b506003546009820154604051632770a7eb60e21b81526001600160a01b03918216600482015260248101859052911690639dc29fac90604401600060405180830381600087803b15801561261957600080fd5b505af115801561262d573d6000803e3d6000fd5b505050600782015460098301546001600160a01b03166000908152600c6020526040812060010180549293509161266590849061373b565b909155505060035460405163234b0bed60e21b8152336004820152602481018690526001600160a01b0390911690638d2c2fb490604401600060405180830381600087803b1580156126b657600080fd5b505af11580156126ca573d6000803e3d6000fd5b50505050600601805460ff19166003179055505050565b604080516101a081018252600080825260208201819052918101829052606081018290526080810182905260a0810182905260c0810182905260e0810182905261010081018290526101208101829052610140810182905261016081018290526101808101919091526000828152600b602090815260409182902082516101a08101845281546001600160a01b03908116825260018301548116938201939093526002808301548085169583019590955262ffffff600160a01b8604166060830152600160b81b8504810b6080830152600160d01b90940490930b60a08401526003808201546001600160801b031660c0850152600482015490921660e084015260058101546101008401526006810154909161012084019160ff169081111561280d5761280d6135dd565b600381111561281e5761281e6135dd565b815260078201546020820152600882015460408201526009909101546001600160a01b031660609091015292915050565b61285761299f565b6001600160a01b0381166128bc5760405162461bcd60e51b815260206004820152602660248201527f4f776e61626c653a206e6577206f776e657220697320746865207a65726f206160448201526564647265737360d01b60648201526084016105bd565b6128c5816130b4565b50565b6129006040518060a0016040528060008152602001600081526020016000815260200160008152602001600063ffffffff1681525090565b506001600160a01b03166000908152600c6020908152604091829020825160a081018452815481526001820154928101929092526002810154928201929092526003820154606082015260049091015463ffffffff16608082015290565b600061296b8484846129f9565b90506000828061297d5761297d6139dc565b848609111561299857600019811061299457600080fd5b6001015b9392505050565b6000546001600160a01b031633146116e25760405162461bcd60e51b815260206004820181905260248201527f4f776e61626c653a2063616c6c6572206973206e6f7420746865206f776e657260448201526064016105bd565b6000808060001985870985870292508281108382030391505080600003612a325760008411612a2757600080fd5b508290049050612998565b808411612a3e57600080fd5b6000848688096000868103871696879004966002600389028118808a02820302808a02820302808a02820302808a02820302808a02820302808a02909103029181900381900460010186841190950394909402919094039290920491909117919091029150509392505050565b6000808263ffffffff16600003612ae95760405162461bcd60e51b8152602060048201526002602482015261042560f41b60448201526064016105bd565b6040805160028082526060820183526000926020830190803683370190505090508381600081518110612b1e57612b1e6138f5565b602002602001019063ffffffff16908163ffffffff1681525050600081600181518110612b4d57612b4d6138f5565b602002602001019063ffffffff16908163ffffffff1681525050600080866001600160a01b031663883bdbfd846040518263ffffffff1660e01b8152600401612b969190613a51565b600060405180830381865afa158015612bb3573d6000803e3d6000fd5b505050506040513d6000823e601f3d908101601f19168201604052612bdb9190810190613aff565b91509150600082600081518110612bf457612bf46138f5565b602002602001015183600181518110612c0f57612c0f6138f5565b6020026020010151612c219190613bc1565b9050600082600081518110612c3857612c386138f5565b602002602001015183600181518110612c5357612c536138f5565b6020026020010151612c659190613bee565b9050612c7763ffffffff891683613c0e565b965060008260060b128015612c9d5750612c9763ffffffff891683613c4c565b60060b15155b15612cb05786612cac81613c6e565b9750505b6000612cc96001600160a01b0363ffffffff8b16613c91565b9050612ce6640100000000600160c01b03602084901b1682613cc3565b96505050505050509250929050565b60008060008360020b12612d0c578260020b612d14565b8260020b6000035b9050620d89e8811115612d3a576040516315e4079d60e11b815260040160405180910390fd5b600081600116600003612d5157600160801b612d63565b6ffffcb933bd6fad37aa2d162d1a5940015b70ffffffffffffffffffffffffffffffffff1690506002821615612d97576ffff97272373d413259a46990580e213a0260801c5b6004821615612db6576ffff2e50f5f656932ef12357cf3c7fdcc0260801c5b6008821615612dd5576fffe5caca7e10e4e61c3624eaa0941cd00260801c5b6010821615612df4576fffcb9843d60f6159c9db58835c9266440260801c5b6020821615612e13576fff973b41fa98c081472e6896dfb254c00260801c5b6040821615612e32576fff2ea16466c96a3843ec78b326b528610260801c5b6080821615612e51576ffe5dee046a99a2a811c461f1969c30530260801c5b610100821615612e71576ffcbe86c7900a88aedcffc83b479aa3a40260801c5b610200821615612e91576ff987a7253ac413176f2b074cf7815e540260801c5b610400821615612eb1576ff3392b0822b70005940c7a398e4b70f30260801c5b610800821615612ed1576fe7159475a2c29b7443b29c7fa6e889d90260801c5b611000821615612ef1576fd097f3bdfd2022b8845ad8f792aa58250260801c5b612000821615612f11576fa9f746462d870fdf8a65dc1f90e061e50260801c5b614000821615612f31576f70d869a156d2a1b890bb3df62baf32f70260801c5b618000821615612f51576f31be135f97d08fd981231505542fcfa60260801c5b62010000821615612f72576f09aa508b5b7a84e1c677de54f3e99bc90260801c5b62020000821615612f92576e5d6af8dedb81196699c329225ee6040260801c5b62040000821615612fb1576d2216e584f5fa1ea926041bedfe980260801c5b62080000821615612fce576b048a170391f7dc42444e8fa20260801c5b60008460020b1315612fef578060001981612feb57612feb6139dc565b0490505b640100000000810615613003576001613006565b60005b60ff16602082901c0192505050919050565b600080836001600160a01b0316856001600160a01b03161115613039579293925b846001600160a01b0316866001600160a01b0316116130645761305d858585613104565b91506130ab565b836001600160a01b0316866001600160a01b0316101561309d57613089868585613104565b9150613096858785613173565b90506130ab565b6130a8858585613173565b90505b94509492505050565b600080546001600160a01b038381166001600160a01b0319831681178455604051919092169283917f8be0079c531659141344cd1fd0a4f28419497f9722a3daafe3b4186f6b6457e09190a35050565b6000826001600160a01b0316846001600160a01b03161115613124579192915b836001600160a01b031661315d606060ff16846001600160801b0316901b8686036001600160a01b0316866001600160a01b03166129f9565b8161316a5761316a6139dc565b04949350505050565b6000826001600160a01b0316846001600160a01b03161115613193579192915b61095d826001600160801b03168585036001600160a01b0316600160601b6129f9565b600080604083850312156131c957600080fd5b50508035926020909101359150565b6001600160a01b03811681146128c557600080fd5b6000602082840312156131ff57600080fd5b8135612998816131d8565b600080600080600060a0868803121561322257600080fd5b853561322d816131d8565b9450602086013561323d816131d8565b9350604086013561324d816131d8565b9250606086013561325d816131d8565b9150608086013561326d816131d8565b809150509295509295909350565b60006020828403121561328d57600080fd5b5035919050565b6000806000606084860312156132a957600080fd5b83356132b4816131d8565b92506020840135915060408401356132cb816131d8565b809150509250925092565b634e487b7160e01b600052604160045260246000fd5b604051601f8201601f1916810167ffffffffffffffff81118282101715613315576133156132d6565b604052919050565b600067ffffffffffffffff821115613337576133376132d6565b5060051b60200190565b600082601f83011261335257600080fd5b813560206133676133628361331d565b6132ec565b82815260059290921b8401810191818101908684111561338657600080fd5b8286015b848110156133a1578035835291830191830161338a565b509695505050505050565b600080604083850312156133bf57600080fd5b823567ffffffffffffffff808211156133d757600080fd5b6133e386838701613341565b935060208501359150808211156133f957600080fd5b5061340685828601613341565b9150509250929050565b6001600160801b03811681146128c557600080fd5b60008060006060848603121561343a57600080fd5b8335613445816131d8565b92506020840135915060408401356132cb81613410565b6000806040838503121561346f57600080fd5b823561347a816131d8565b946020939093013593505050565b60008082840360c081121561349c57600080fd5b83356134a7816131d8565b925060a0601f19820112156134bb57600080fd5b506020830190509250929050565b80151581146128c557600080fd5b600080600080600080600060e0888a0312156134f257600080fd5b87356134fd816131d8565b9650602088013561350d816131d8565b9550604088013561351d816131d8565b9450606088013561352d816131d8565b9350608088013561353d816131d8565b925060a088013561354d816134c9565b915060c088013561355d816134c9565b8091505092959891949750929550565b60008060006060848603121561358257600080fd5b833561358d816131d8565b95602085013595506040909401359392505050565b600080600080608085870312156135b857600080fd5b84356135c3816131d8565b966020860135965060408601359560600135945092505050565b634e487b7160e01b600052602160045260246000fd5b6004811061361157634e487b7160e01b600052602160045260246000fd5b9052565b81516001600160a01b031681526101a08101602083015161364160208401826001600160a01b03169052565b50604083015161365c60408401826001600160a01b03169052565b506060830151613673606084018262ffffff169052565b506080830151613688608084018260020b9052565b5060a083015161369d60a084018260020b9052565b5060c08301516136b860c08401826001600160801b03169052565b5060e08301516136d360e08401826001600160a01b03169052565b506101008381015190830152610120808401516136f2828501826135f3565b505061014083810151908301526101608084015190830152610180928301516001600160a01b0316929091019190915290565b634e487b7160e01b600052601160045260246000fd5b8181038181111561211557612115613725565b60006020828403121561376057600080fd5b5051919050565b8082018082111561211557612115613725565b8051613785816131d8565b919050565b805162ffffff8116811461378557600080fd5b8051600281900b811461378557600080fd5b805161378581613410565b6000806000806000806000806000806000806101808d8f0312156137dd57600080fd5b8c516bffffffffffffffffffffffff811681146137f957600080fd5b9b5061380760208e0161377a565b9a5061381560408e0161377a565b995061382360608e0161377a565b985061383160808e0161378a565b975061383f60a08e0161379d565b965061384d60c08e0161379d565b955061385b60e08e016137af565b94506101008d015193506101208d0151925061387a6101408e016137af565b91506138896101608e016137af565b90509295989b509295989b509295989b565b6001600160a01b039384168152919092166020820152604081019190915260600190565b6000602082840312156138d157600080fd5b8151612998816131d8565b6000600182016138ee576138ee613725565b5060010190565b634e487b7160e01b600052603260045260246000fd5b600063ffffffff80831681810361299457612994613725565b6000806040838503121561393757600080fd5b505080516020909101519092909150565b6001600160801b0382811682821603908082111561396857613968613725565b5092915050565b8135815560208201356001820155604082013560028201556060820135600382015560048101608083013563ffffffff81168082146139ad57600080fd5b825463ffffffff191617909155505050565b6000602082840312156139d157600080fd5b8151612998816134c9565b634e487b7160e01b600052601260045260246000fd5b600082613a0157613a016139dc565b500490565b600082613a1557613a156139dc565b500690565b600080600060608486031215613a2f57600080fd5b8351613a3a81613410565b602085015160409095015190969495509392505050565b6020808252825182820181905260009190848201906040850190845b81811015613a8f57835163ffffffff1683529284019291840191600101613a6d565b50909695505050505050565b600082601f830112613aac57600080fd5b81516020613abc6133628361331d565b82815260059290921b84018101918181019086841115613adb57600080fd5b8286015b848110156133a1578051613af2816131d8565b8352918301918301613adf565b60008060408385031215613b1257600080fd5b825167ffffffffffffffff80821115613b2a57600080fd5b818501915085601f830112613b3e57600080fd5b81516020613b4e6133628361331d565b82815260059290921b84018101918181019089841115613b6d57600080fd5b948201945b83861015613b9b5785518060060b8114613b8c5760008081fd5b82529482019490820190613b72565b91880151919650909350505080821115613bb457600080fd5b5061340685828601613a9b565b600682810b9082900b03667fffffffffffff198112667fffffffffffff8213171561211557612115613725565b6001600160a01b0382811682821603908082111561396857613968613725565b60008160060b8360060b80613c2557613c256139dc565b667fffffffffffff19821460001982141615613c4357613c43613725565b90059392505050565b60008260060b80613c5f57613c5f6139dc565b808360060b0791505092915050565b60008160020b627fffff198103613c8757613c87613725565b6000190192915050565b6001600160c01b03828116828216818102831692918115828504821417613cba57613cba613725565b50505092915050565b60006001600160c01b0383811680613cdd57613cdd6139dc565b9216919091049291505056fea2646970667358221220bd765f99e61cf34fefe4892de9bd142f7f126ff1cdbb86417701ce9586646dde64736f6c63430008110033",
    "linkReferences": {}
  },
  "methodIdentifiers": {
    "addAssetsValuesToProtocol(address,(uint256,uint256,uint256,uint256,uint32))": "787b0b7f",
    "addPoolToProtocol(address,address,address,address,address,bool,bool)": "8c70cb52",
    "allDebtComponentsOf(uint256)": "3b687778",
    "batchliquidate(uint256[],uint256[])": "415203c9",
    "borrow(address,uint256,uint256)": "c1bce0b7",
    "closePosition(address,uint256)": "742fe1f8",
    "collRatioOf(uint256)": "35bf5055",
    "debtOf(uint256)": "bd7be5a4",
    "debtOfInETH(uint256)": "27dc3c34",
    "deposit(address,uint256,uint256,uint256)": "ce88b439",
    "getAssetsValues(address)": "f8e0a111",
    "getPosition(uint256)": "eb02c301",
    "getRiskConstants(address)": "ed4ce299",
    "initialize(address,address,address,address,address)": "1459457a",
    "liquidatable(uint256)": "7d751896",
    "liquidatePosition(uint256,uint256)": "d3c4e4a6",
    "liquidateUnderlyings(uint256,uint256)": "04837282",
    "openPosition(address,uint256,address)": "3a41b2e7",
    "owner()": "8da5cb5b",
    "positionAmounts(uint256)": "44913c53",
    "positionValueInETH(uint256)": "190f7867",
    "power(uint256,uint256)": "c04f01fc",
    "protocolContracts()": "785434af",
    "refreshDebtTracking(address)": "0517c6e9",
    "renounceOwnership()": "715018a6",
    "repay(address,uint256,uint256)": "8cd2e0c7",
    "totalDebtOf(address)": "9f2b2833",
    "totalPositionsValueInETH(address)": "63d081f7",
    "transferOwnership(address)": "f2fde38b",
    "updateRiskConstants(address,uint256)": "9470d452",
    "withdraw(address,uint256,uint128)": "72bef582"
  },
  "id": 1
}