{
  "abi": [
    {
      "inputs": [],
      "name": "T",
      "type": "error"
    },
    {
      "anonymous": false,
      "inputs": [
        {
          "indexed": true,
          "internalType": "address",
          "name": "previousOwner",
          "type": "address"
        },
        {
          "indexed": true,
          "internalType": "address",
          "name": "newOwner",
          "type": "address"
        }
      ],
      "name": "OwnershipTransferred",
      "type": "event"
    },
    {
      "inputs": [
        {
          "internalType": "address",
          "name": "_assetAddress",
          "type": "address"
        },
        {
          "components": [
            {
              "internalType": "uint256",
              "name": "interestRate",
              "type": "uint256"
            },
            {
              "internalType": "uint256",
              "name": "totalBorrowedStableCoin",
              "type": "uint256"
            },
            {
              "internalType": "uint256",
              "name": "interestFactor",
              "type": "uint256"
            },
            {
              "internalType": "uint256",
              "name": "lastFactorUpdate",
              "type": "uint256"
            },
            {
              "internalType": "uint32",
              "name": "twapLength",
              "type": "uint32"
            }
          ],
          "internalType": "struct IPositionsManager.AssetsValues",
          "name": "_assetValue",
          "type": "tuple"
        }
      ],
      "name": "addAssetsValuesToProtocol",
      "outputs": [],
      "stateMutability": "nonpayable",
      "type": "function"
    },
    {
      "inputs": [
        {
          "internalType": "address",
          "name": "_poolAddress",
          "type": "address"
        },
        {
          "internalType": "address",
          "name": "_token0",
          "type": "address"
        },
        {
          "internalType": "address",
          "name": "_token1",
          "type": "address"
        },
        {
          "internalType": "address",
          "name": "_ETHpoolToken0",
          "type": "address"
        },
        {
          "internalType": "address",
          "name": "_ETHpoolToken1",
          "type": "address"
        },
        {
          "internalType": "bool",
          "name": "_inv0",
          "type": "bool"
        },
        {
          "internalType": "bool",
          "name": "_inv1",
          "type": "bool"
        }
      ],
      "name": "addPoolToProtocol",
      "outputs": [],
      "stateMutability": "nonpayable",
      "type": "function"
    },
    {
      "inputs": [
        {
          "internalType": "uint256",
          "name": "_tokenId",
          "type": "uint256"
        }
      ],
      "name": "allDebtComponentsOf",
      "outputs": [
        {
          "internalType": "uint256",
          "name": "currentDebt",
          "type": "uint256"
        },
        {
          "internalType": "uint256",
          "name": "debtPrincipal",
          "type": "uint256"
        },
        {
          "internalType": "uint256",
          "name": "interest",
          "type": "uint256"
        }
      ],
      "stateMutability": "view",
      "type": "function"
    },
    {
      "inputs": [
        {
          "internalType": "uint256[]",
          "name": "_tokenIds",
          "type": "uint256[]"
        },
        {
          "internalType": "uint256[]",
          "name": "_amountRepays",
          "type": "uint256[]"
        }
      ],
      "name": "batchliquidate",
      "outputs": [],
      "stateMutability": "nonpayable",
      "type": "function"
    },
    {
      "inputs": [
        {
          "internalType": "address",
          "name": "sender",
          "type": "address"
        },
        {
          "internalType": "uint256",
          "name": "_tokenId",
          "type": "uint256"
        },
        {
          "internalType": "uint256",
          "name": "_amount",
          "type": "uint256"
        }
      ],
      "name": "borrow",
      "outputs": [],
      "stateMutability": "nonpayable",
      "type": "function"
    },
    {
      "inputs": [
        {
          "internalType": "address",
          "name": "_owner",
          "type": "address"
        },
        {
          "internalType": "uint256",
          "name": "_tokenId",
          "type": "uint256"
        }
      ],
      "name": "closePosition",
      "outputs": [],
      "stateMutability": "nonpayable",
      "type": "function"
    },
    {
      "inputs": [
        {
          "internalType": "uint256",
          "name": "_tokenId",
          "type": "uint256"
        }
      ],
      "name": "collRatioOf",
      "outputs": [
        {
          "internalType": "uint256",
          "name": "collRatio",
          "type": "uint256"
        }
      ],
      "stateMutability": "nonpayable",
      "type": "function"
    },
    {
      "inputs": [
        {
          "internalType": "uint256",
          "name": "_tokenId",
          "type": "uint256"
        }
      ],
      "name": "debtOf",
      "outputs": [
        {
          "internalType": "uint256",
          "name": "currentDebt",
          "type": "uint256"
        }
      ],
      "stateMutability": "view",
      "type": "function"
    },
    {
      "inputs": [
        {
          "internalType": "uint256",
          "name": "_tokenId",
          "type": "uint256"
        }
      ],
      "name": "debtOfInETH",
      "outputs": [
        {
          "internalType": "uint256",
          "name": "",
          "type": "uint256"
        }
      ],
      "stateMutability": "nonpayable",
      "type": "function"
    },
    {
      "inputs": [
        {
          "internalType": "address",
          "name": "sender",
          "type": "address"
        },
        {
          "internalType": "uint256",
          "name": "tokenId",
          "type": "uint256"
        },
        {
          "internalType": "uint256",
          "name": "amountAdd0",
          "type": "uint256"
        },
        {
          "internalType": "uint256",
          "name": "amountAdd1",
          "type": "uint256"
        }
      ],
      "name": "deposit",
      "outputs": [
        {
          "internalType": "uint128",
          "name": "liquidity",
          "type": "uint128"
        },
        {
          "internalType": "uint256",
          "name": "amount0",
          "type": "uint256"
        },
        {
          "internalType": "uint256",
          "name": "amount1",
          "type": "uint256"
        }
      ],
      "stateMutability": "nonpayable",
      "type": "function"
    },
    {
      "inputs": [
        {
          "internalType": "address",
          "name": "_assets",
          "type": "address"
        }
      ],
      "name": "getAssetsValues",
      "outputs": [
        {
          "components": [
            {
              "internalType": "uint256",
              "name": "interestRate",
              "type": "uint256"
            },
            {
              "internalType": "uint256",
              "name": "totalBorrowedStableCoin",
              "type": "uint256"
            },
            {
              "internalType": "uint256",
              "name": "interestFactor",
              "type": "uint256"
            },
            {
              "internalType": "uint256",
              "name": "lastFactorUpdate",
              "type": "uint256"
            },
            {
              "internalType": "uint32",
              "name": "twapLength",
              "type": "uint32"
            }
          ],
          "internalType": "struct IPositionsManager.AssetsValues",
          "name": "",
          "type": "tuple"
        }
      ],
      "stateMutability": "view",
      "type": "function"
    },
    {
      "inputs": [
        {
          "internalType": "uint256",
          "name": "_tokenId",
          "type": "uint256"
        }
      ],
      "name": "getPosition",
      "outputs": [
        {
          "components": [
            {
              "internalType": "address",
              "name": "user",
              "type": "address"
            },
            {
              "internalType": "address",
              "name": "token0",
              "type": "address"
            },
            {
              "internalType": "address",
              "name": "token1",
              "type": "address"
            },
            {
              "internalType": "uint24",
              "name": "fee",
              "type": "uint24"
            },
            {
              "internalType": "int24",
              "name": "tickLower",
              "type": "int24"
            },
            {
              "internalType": "int24",
              "name": "tickUpper",
              "type": "int24"
            },
            {
              "internalType": "uint128",
              "name": "liquidity",
              "type": "uint128"
            },
            {
              "internalType": "address",
              "name": "poolAddress",
              "type": "address"
            },
            {
              "internalType": "uint256",
              "name": "tokenId",
              "type": "uint256"
            },
            {
              "internalType": "enum IPositionsManager.Status",
              "name": "status",
              "type": "uint8"
            },
            {
              "internalType": "uint256",
              "name": "debtPrincipal",
              "type": "uint256"
            },
            {
              "internalType": "uint256",
              "name": "interestConstant",
              "type": "uint256"
            },
            {
              "internalType": "address",
              "name": "assetAddress",
              "type": "address"
            }
          ],
          "internalType": "struct IPositionsManager.Position",
          "name": "position",
          "type": "tuple"
        }
      ],
      "stateMutability": "view",
      "type": "function"
    },
    {
      "inputs": [
        {
          "internalType": "address",
          "name": "_pool",
          "type": "address"
        }
      ],
      "name": "getRiskConstants",
      "outputs": [
        {
          "internalType": "uint256",
          "name": "riskConstants",
          "type": "uint256"
        }
      ],
      "stateMutability": "view",
      "type": "function"
    },
    {
      "inputs": [
        {
          "internalType": "address",
          "name": "_uniFactory",
          "type": "address"
        },
        {
          "internalType": "address",
          "name": "_uniPosNFT",
          "type": "address"
        },
        {
          "internalType": "address",
          "name": "_userInteractionsAddress",
          "type": "address"
        },
        {
          "internalType": "address",
          "name": "_eclypseVaultAddress",
          "type": "address"
        },
        {
          "internalType": "address",
          "name": "_priceFeedAddress",
          "type": "address"
        }
      ],
      "name": "initialize",
      "outputs": [],
      "stateMutability": "nonpayable",
      "type": "function"
    },
    {
      "inputs": [
        {
          "internalType": "uint256",
          "name": "_tokenId",
          "type": "uint256"
        }
      ],
      "name": "liquidatable",
      "outputs": [
        {
          "internalType": "bool",
          "name": "",
          "type": "bool"
        }
      ],
      "stateMutability": "nonpayable",
      "type": "function"
    },
    {
      "inputs": [
        {
          "internalType": "uint256",
          "name": "_tokenId",
          "type": "uint256"
        },
        {
          "internalType": "uint256",
          "name": "_amountRepay",
          "type": "uint256"
        }
      ],
      "name": "liquidatePosition",
      "outputs": [],
      "stateMutability": "nonpayable",
      "type": "function"
    },
    {
      "inputs": [
        {
          "internalType": "uint256",
          "name": "_tokenId",
          "type": "uint256"
        },
        {
          "internalType": "uint256",
          "name": "_amountRepay",
          "type": "uint256"
        }
      ],
      "name": "liquidateUnderlyings",
      "outputs": [],
      "stateMutability": "nonpayable",
      "type": "function"
    },
    {
      "inputs": [
        {
          "internalType": "address",
          "name": "_owner",
          "type": "address"
        },
        {
          "internalType": "uint256",
          "name": "_tokenId",
          "type": "uint256"
        },
        {
          "internalType": "address",
          "name": "_assetAddress",
          "type": "address"
        }
      ],
      "name": "openPosition",
      "outputs": [],
      "stateMutability": "nonpayable",
      "type": "function"
    },
    {
      "inputs": [],
      "name": "owner",
      "outputs": [
        {
          "internalType": "address",
          "name": "",
          "type": "address"
        }
      ],
      "stateMutability": "view",
      "type": "function"
    },
    {
      "inputs": [
        {
          "internalType": "uint256",
          "name": "_tokenId",
          "type": "uint256"
        }
      ],
      "name": "positionAmounts",
      "outputs": [
        {
          "internalType": "uint256",
          "name": "amountToken0",
          "type": "uint256"
        },
        {
          "internalType": "uint256",
          "name": "amountToken1",
          "type": "uint256"
        }
      ],
      "stateMutability": "view",
      "type": "function"
    },
    {
      "inputs": [
        {
          "internalType": "uint256",
          "name": "_tokenId",
          "type": "uint256"
        }
      ],
      "name": "positionValueInETH",
      "outputs": [
        {
          "internalType": "uint256",
          "name": "value",
          "type": "uint256"
        }
      ],
      "stateMutability": "nonpayable",
      "type": "function"
    },
    {
      "inputs": [
        {
          "internalType": "uint256",
          "name": "_base",
          "type": "uint256"
        },
        {
          "internalType": "uint256",
          "name": "_exponent",
          "type": "uint256"
        }
      ],
      "name": "power",
      "outputs": [
        {
          "internalType": "uint256",
          "name": "result",
          "type": "uint256"
        }
      ],
      "stateMutability": "pure",
      "type": "function"
    },
    {
      "inputs": [
        {
          "internalType": "address",
          "name": "_tokenAddress",
          "type": "address"
        }
      ],
      "name": "priceInETH",
      "outputs": [
        {
          "internalType": "uint256",
          "name": "price",
          "type": "uint256"
        }
      ],
      "stateMutability": "nonpayable",
      "type": "function"
    },
    {
      "inputs": [],
      "name": "protocolContracts",
      "outputs": [
        {
          "internalType": "address",
          "name": "userInteractions",
          "type": "address"
        },
        {
          "internalType": "contract IEclypseVault",
          "name": "eclypseVault",
          "type": "address"
        },
        {
          "internalType": "contract IUniswapV3Factory",
          "name": "uniswapFactory",
          "type": "address"
        },
        {
          "internalType": "contract INonfungiblePositionManager",
          "name": "uniswapPositionsManager",
          "type": "address"
        },
        {
          "internalType": "contract IPriceFeed",
          "name": "priceFeed",
          "type": "address"
        }
      ],
      "stateMutability": "view",
      "type": "function"
    },
    {
      "inputs": [
        {
          "internalType": "address",
          "name": "assetAddress",
          "type": "address"
        }
      ],
      "name": "refreshDebtTracking",
      "outputs": [],
      "stateMutability": "nonpayable",
      "type": "function"
    },
    {
      "inputs": [],
      "name": "renounceOwnership",
      "outputs": [],
      "stateMutability": "nonpayable",
      "type": "function"
    },
    {
      "inputs": [
        {
          "internalType": "address",
          "name": "sender",
          "type": "address"
        },
        {
          "internalType": "uint256",
          "name": "_tokenId",
          "type": "uint256"
        },
        {
          "internalType": "uint256",
          "name": "_amount",
          "type": "uint256"
        }
      ],
      "name": "repay",
      "outputs": [],
      "stateMutability": "nonpayable",
      "type": "function"
    },
    {
      "inputs": [
        {
          "internalType": "address",
          "name": "_user",
          "type": "address"
        }
      ],
      "name": "totalDebtOf",
      "outputs": [
        {
          "internalType": "uint256",
          "name": "totalDebt",
          "type": "uint256"
        }
      ],
      "stateMutability": "view",
      "type": "function"
    },
    {
      "inputs": [
        {
          "internalType": "address",
          "name": "_user",
          "type": "address"
        }
      ],
      "name": "totalPositionsValueInETH",
      "outputs": [
        {
          "internalType": "uint256",
          "name": "totalValue",
          "type": "uint256"
        }
      ],
      "stateMutability": "nonpayable",
      "type": "function"
    },
    {
      "inputs": [
        {
          "internalType": "address",
          "name": "newOwner",
          "type": "address"
        }
      ],
      "name": "transferOwnership",
      "outputs": [],
      "stateMutability": "nonpayable",
      "type": "function"
    },
    {
      "inputs": [
        {
          "internalType": "address",
          "name": "_pool",
          "type": "address"
        },
        {
          "internalType": "uint256",
          "name": "_riskConstants",
          "type": "uint256"
        }
      ],
      "name": "updateRiskConstants",
      "outputs": [],
      "stateMutability": "nonpayable",
      "type": "function"
    },
    {
      "inputs": [
        {
          "internalType": "address",
          "name": "sender",
          "type": "address"
        },
        {
          "internalType": "uint256",
          "name": "tokenId",
          "type": "uint256"
        },
        {
          "internalType": "uint128",
          "name": "liquidityToRemove",
          "type": "uint128"
        }
      ],
      "name": "withdraw",
      "outputs": [
        {
          "internalType": "uint256",
          "name": "amount0",
          "type": "uint256"
        },
        {
          "internalType": "uint256",
          "name": "amount1",
          "type": "uint256"
        }
      ],
      "stateMutability": "nonpayable",
      "type": "function"
    }
  ],
  "bytecode": {
    "object": "0x60806040523480156200001157600080fd5b506200001d3362000023565b62000073565b600080546001600160a01b038381166001600160a01b0319831681178455604051919092169283917f8be0079c531659141344cd1fd0a4f28419497f9722a3daafe3b4186f6b6457e09190a35050565b613bff80620000836000396000f3fe608060405234801561001057600080fd5b50600436106101f05760003560e01c8063787b0b7f1161010f578063c04f01fc116100a2578063eb02c30111610071578063eb02c301146104d3578063ed4ce299146104f3578063f2fde38b1461051c578063f8e0a1111461052f57600080fd5b8063c04f01fc14610462578063c1bce0b714610475578063ce88b43914610488578063d3c4e4a6146104c057600080fd5b80638da5cb5b116100de5780638da5cb5b1461040e5780639470d452146104295780639f2b28331461043c578063bd7be5a41461044f57600080fd5b8063787b0b7f146103b25780637d751896146103c55780638c70cb52146103e85780638cd2e0c7146103fb57600080fd5b8063415203c911610187578063715018a611610156578063715018a61461031e57806372bef58214610326578063742fe1f814610339578063785434af1461034c57600080fd5b8063415203c9146102bd57806344913c53146102d0578063557d76fb146102f857806363d081f71461030b57600080fd5b806327dc3c34116101c357806327dc3c341461025657806335bf5055146102695780633a41b2e71461027c5780633b6877781461028f57600080fd5b806304837282146101f55780630517c6e91461020a5780631459457a1461021d578063190f786714610230575b600080fd5b610208610203366004613096565b61058a565b005b6102086102183660046130cd565b610640565b61020861022b3660046130ea565b6106af565b61024361023e36600461315b565b610717565b6040519081526020015b60405180910390f35b61024361026436600461315b565b610789565b61024361027736600461315b565b6107cb565b61020861028a366004613174565b6109df565b6102a261029d36600461315b565b611094565b6040805193845260208401929092529082015260600161024d565b6102086102cb36600461328c565b61126b565b6102e36102de36600461315b565b6112d8565b6040805192835260208301919091520161024d565b6102436103063660046130cd565b61146e565b6102436103193660046130cd565b611510565b6102086115b9565b6102e3610334366004613305565b6115cd565b61020861034736600461333c565b6116fd565b600154600254600354600454600554610378946001600160a01b03908116948116938116928116911685565b604080516001600160a01b03968716815294861660208601529285169284019290925283166060830152909116608082015260a00161024d565b6102086103c0366004613368565b6117b8565b6103d86103d336600461315b565b6117ea565b604051901515815260200161024d565b6102086103f63660046133b7565b61191c565b61020861040936600461344d565b611a3d565b6000546040516001600160a01b03909116815260200161024d565b61020861043736600461333c565b611ca9565b61024361044a3660046130cd565b611d3d565b61024361045d36600461315b565b611ddf565b610243610470366004613096565b611f86565b61020861048336600461344d565b611ff4565b61049b610496366004613482565b612210565b604080516001600160801b03909416845260208401929092529082015260600161024d565b6102086104ce366004613096565b612317565b6104e66104e136600461315b565b6125ba565b60405161024d91906134f5565b6102436105013660046130cd565b6001600160a01b031660009081526008602052604090205490565b61020861052a3660046130cd565b612728565b61054261053d3660046130cd565b6127a1565b60405161024d9190600060a0820190508251825260208301516020830152604083015160408301526060830151606083015263ffffffff608084015116608083015292915050565b610593826117ea565b6105e45760405162461bcd60e51b815260206004820152601c60248201527f506f736974696f6e206973206e6f74206c6971756964617461626c650000000060448201526064015b60405180910390fd5b806105ee83611ddf565b111561063c5760405162461bcd60e51b815260206004820152601c60248201527f4e6f7420656e6f7567682047484f20746f20726570617920646562740000000060448201526064016105db565b5050565b6001600160a01b0381166000908152600b60205260408120805460038201549192916106719190610470904261361b565b6001600160a01b0384166000908152600b602052604090206002015490915061069f9082600160601b612837565b6002830155504260039091015550565b6106b7612877565b600180546001600160a01b03199081166001600160a01b0395861617909155600280548216938516939093179092556003805483169584169590951790945560048054821693831693909317909255600580549092169216919091179055565b6000806000610725846112d8565b6000868152600a6020526040902060018101546002909101549294509092506001600160a01b0390811691166107688361075e8361146e565b600160601b6128d1565b6107758561075e8561146e565b61077f919061362e565b9695505050505050565b60006107c561079783611ddf565b6000848152600a60205260409020600901546107bb906001600160a01b031661146e565b600160601b612837565b92915050565b6000818152600a6020908152604080832081516101a08101835281546001600160a01b03908116825260018301548116948201949094526002808301548086169483019490945262ffffff600160a01b8504166060830152600160b81b8404810b6080830152600160d01b90930490920b60a08301526003808201546001600160801b031660c0840152600482015490931660e083015260058101546101008301526006810154849361012084019160ff169081111561088d5761088d6134bd565b600381111561089e5761089e6134bd565b81526007820154602082015260088201546040808301919091526009909201546001600160a01b0390811660609092019190915260048054925163133f757160e31b81529081018790529293506000928392909116906399fbab889060240161018060405180830381865afa15801561091b573d6000803e3d6000fd5b505050506040513d601f19601f8201168201806040525081019061093f9190613681565b9b509b50505050505050505050506000610969826001600160801b031661075e866040015161146e565b610983846001600160801b031661075e876020015161146e565b61098d919061362e565b9050600061099a87610789565b90506000826109a889610717565b6109b2919061362e565b9050600082116109c4576000196109d3565b6109d381600160601b846128d1565b98975050505050505050565b6001546001600160a01b031633146109f657600080fd5b60048054600254604051632142170760e11b81526001600160a01b03928316936342842e0e93610a2d938993911691889101613762565b600060405180830381600087803b158015610a4757600080fd5b505af1158015610a5b573d6000803e3d6000fd5b50506004805460405163133f757160e31b81529182018690526000935083925082918291829182916001600160a01b0316906399fbab889060240161018060405180830381865afa158015610ab4573d6000803e3d6000fd5b505050506040513d601f19601f82011682018060405250810190610ad89190613681565b5050505097509750975097509750975050506000600160020160009054906101000a90046001600160a01b03166001600160a01b0316631698ee828888886040518463ffffffff1660e01b8152600401610b58939291906001600160a01b03938416815291909216602082015262ffffff91909116604082015260600190565b602060405180830381865afa158015610b75573d6000803e3d6000fd5b505050506040513d601f19601f82011682018060405250810190610b999190613786565b6001600160a01b03811660009081526006602052604090205490915060ff16610c175760405162461bcd60e51b815260206004820152602a60248201527f5468697320706f6f6c206973206e6f742061636365707465642062792074686560448201526910383937ba37b1b7b61760b11b60648201526084016105db565b6000604051806101a001604052808c6001600160a01b03168152602001896001600160a01b03168152602001886001600160a01b031681526020018762ffffff1681526020018660020b81526020018560020b8152602001846001600160801b03168152602001836001600160a01b031681526020018b815260200160016003811115610ca657610ca66134bd565b815260200160008152602001600b60008c6001600160a01b03166001600160a01b031681526020019081526020016000206002015481526020018a6001600160a01b031681525090506000600960008d6001600160a01b03166001600160a01b031681526020019081526020016000209050818160010160008360000154815260200190815260200160002060008201518160000160006101000a8154816001600160a01b0302191690836001600160a01b0316021790555060208201518160010160006101000a8154816001600160a01b0302191690836001600160a01b0316021790555060408201518160020160006101000a8154816001600160a01b0302191690836001600160a01b0316021790555060608201518160020160146101000a81548162ffffff021916908362ffffff16021790555060808201518160020160176101000a81548162ffffff021916908360020b62ffffff16021790555060a082015181600201601a6101000a81548162ffffff021916908360020b62ffffff16021790555060c08201518160030160006101000a8154816001600160801b0302191690836001600160801b0316021790555060e08201518160040160006101000a8154816001600160a01b0302191690836001600160a01b0316021790555061010082015181600501556101208201518160060160006101000a81548160ff02191690836003811115610ebe57610ebe6134bd565b02179055506101408201516007820155610160820151600882015561018090910151600990910180546001600160a01b0319166001600160a01b039092169190911790558054816000610f10836137a3565b909155505060008b8152600a6020908152604091829020845181546001600160a01b03199081166001600160a01b03928316178355928601516001808401805486169284169290921790915593860151600283018054606089015160808a015160a08b01519486166001600160b81b031990931692909217600160a01b62ffffff928316021765ffffffffffff60b81b1916600160b81b9282169290920262ffffff60d01b191691909117600160d01b919093160291909117905560c0860151600380840180546001600160801b0319166001600160801b039093169290921790915560e08701516004840180549095169216919091179092556101008501516005820155610120850151600682018054879593949293919260ff1990911691908490811115611042576110426134bd565b02179055506101408201516007820155610160820151600882015561018090910151600990910180546001600160a01b0319166001600160a01b03909216919091179055505050505050505050505050565b6000818152600a6020908152604080832081516101a08101835281546001600160a01b03908116825260018301548116948201949094526002808301548086169483019490945262ffffff600160a01b8504166060830152600160b81b8404810b6080830152600160d01b90930490920b60a08301526003808201546001600160801b031660c0840152600482015490931660e0830152600581015461010083015260068101548493849384939092909161012084019160ff169081111561115e5761115e6134bd565b600381111561116f5761116f6134bd565b8152600782015460208083019190915260088301546040808401919091526009909301546001600160a01b03908116606093840152610180850151166000908152600b8252839020835160a0810185528154815260018201549281019290925260028101549382019390935260038301549181019190915260049091015463ffffffff166080820152909150611204866125ba565b6101400151935061122784826040015161121d896125ba565b6101600151612837565b945060006112438260000151836060015142610470919061361b565b90506112548682600160601b612837565b9550611260858761361b565b959794965050505050565b805182511461127957600080fd5b60005b82518110156112d3576112c183828151811061129a5761129a6137bc565b60200260200101518383815181106112b4576112b46137bc565b6020026020010151612317565b806112cb816137a3565b91505061127c565b505050565b6000818152600a6020908152604080832081516101a08101835281546001600160a01b03908116825260018301548116948201949094526002808301548086169483019490945262ffffff600160a01b8504166060830152600160b81b8404810b6080830152600160d01b90930490920b60a08301526003808201546001600160801b031660c0840152600482015490931660e08301526005810154610100830152600681015484938493929161012084019160ff909116908111156113a0576113a06134bd565b60038111156113b1576113b16134bd565b8152600782015460208083019190915260088301546040808401919091526009909301546001600160a01b0390811660609093019290925260e08401516101808501519092166000908152600b90915291822060040154929350909161141d919063ffffffff16612983565b509050600061142b82612bcd565b9050600061143c8460800151612bcd565b9050600061144d8560a00151612bcd565b905061145f8383838860c00151612ef0565b90999098509650505050505050565b600073c02aaa39b223fe8d0a0e5c4f27ead9083c756cc1196001600160a01b038316016114a05750600160601b919050565b600554604051635670bcc760e11b81526001600160a01b0384811660048301529091169063ace1798e906024016020604051808303816000875af11580156114ec573d6000803e3d6000fd5b505050506040513d601f19601f820116820180604052508101906107c591906137d2565b6001600160a01b0381166000908152600960205260408120815b815463ffffffff821610156115b257600163ffffffff8216600090815260018401602052604090206006015460ff16600381111561156a5761156a6134bd565b036115a05763ffffffff8116600090815260018301602052604090206005015461159390610717565b61159d908461362e565b92505b806115aa816137eb565b91505061152a565b5050919050565b6115c1612877565b6115cb6000612f8c565b565b60015460009081906001600160a01b031633146115e957600080fd5b6000848152600a6020526040902060038101546001600160801b03908116908516116116155783611624565b60038101546001600160801b03165b60025460405163496a6e0760e11b81526001600160a01b038981166004830152602482018990526001600160801b03841660448301529296509116906392d4dc0e9060640160408051808303816000875af1158015611687573d6000803e3d6000fd5b505050506040513d601f19601f820116820180604052508101906116ab9190613804565b60038301805492955090935085916000906116d09084906001600160801b0316613828565b92506101000a8154816001600160801b0302191690836001600160801b0316021790555050935093915050565b6001546001600160a01b0316331461171457600080fd5b600061171f82611ddf565b9050801561173257611732838383611a3d565b60025460405163234b0bed60e21b81526001600160a01b0385811660048301526024820185905290911690638d2c2fb490604401600060405180830381600087803b15801561178057600080fd5b505af1158015611794573d6000803e3d6000fd5b50505060009283525050600a60205260409020600601805460ff1916600217905550565b6117c0612877565b6001600160a01b0382166000908152600b6020526040902081906117e4828261384f565b50505050565b6000818152600a6020908152604080832081516101a08101835281546001600160a01b03908116825260018301548116948201949094526002808301548086169483019490945262ffffff600160a01b8504166060830152600160b81b8404810b6080830152600160d01b90930490920b60a08301526003808201546001600160801b031660c0840152600482015490931660e083015260058101546101008301526006810154849361012084019160ff16908111156118ac576118ac6134bd565b60038111156118bd576118bd6134bd565b815260078201546020808301919091526008808401546040808501919091526009909401546001600160a01b0390811660609094019390935260e085015190921660009081529190522054909150611914846107cb565b109392505050565b611924612877565b6001600160a01b038088166000908152600660205260409020805460ff19166001179055861673c02aaa39b223fe8d0a0e5c4f27ead9083c756cc2146119ba576040805180820182526001600160a01b03808716825284151560208084019182528a831660009081526007909152939093209151825493511515600160a01b026001600160a81b03199094169116179190911790555b6001600160a01b03851673c02aaa39b223fe8d0a0e5c4f27ead9083c756cc214611a34576040805180820182526001600160a01b038086168252831515602080840191825289831660009081526007909152939093209151825493511515600160a01b026001600160a81b03199094169116179190911790555b50505050505050565b6001546001600160a01b03163314611a5457600080fd5b60008111611aa45760405162461bcd60e51b815260206004820181905260248201527f4120646562742063616e6e6f742062652064656372656173656420627920302e60448201526064016105db565b6000828152600a6020526040902060090154611ac8906001600160a01b0316610640565b6000806000611ad685611094565b6000888152600a6020908152604080832060098101546001600160a01b03168452600b909252909120939650919450925090848610611b155784611b17565b855b95506000838710611b285783611b2a565b865b90506000611b38828961361b565b60098501546002549192506001600160a01b03908116916323b872dd918d9116611b62868661362e565b6040518463ffffffff1660e01b8152600401611b8093929190613762565b6020604051808303816000875af1158015611b9f573d6000803e3d6000fd5b505050506040513d601f19601f82011682018060405250810190611bc3919061389f565b508015611c4e576002546009850154604051632770a7eb60e21b81526001600160a01b03918216600482015260248101849052911690639dc29fac90604401600060405180830381600087803b158015611c1c57600080fd5b505af1158015611c30573d6000803e3d6000fd5b5050505080836001016000828254611c48919061361b565b90915550505b6000611c5a898961361b565b90506000611c68838961361b565b90508115611c8957611c7f85600201548284612837565b6008870155611c94565b600285015460088701555b60079095019490945550505050505050505050565b611cb1612877565b600160601b8111611d215760405162461bcd60e51b815260206004820152603460248201527f546865206d696e696d756d20636f6c6c61746572616c20726174696f206d75736044820152733a1031329033b932b0ba32b9103a3430b710189760611b60648201526084016105db565b6001600160a01b03909116600090815260086020526040902055565b6001600160a01b0381166000908152600960205260408120815b815463ffffffff821610156115b257600163ffffffff8216600090815260018401602052604090206006015460ff166003811115611d9757611d976134bd565b03611dcd5763ffffffff81166000908152600183016020526040902060050154611dc090611ddf565b611dca908461362e565b92505b80611dd7816137eb565b915050611d57565b6000818152600a6020908152604080832081516101a08101835281546001600160a01b03908116825260018301548116948201949094526002808301548086169483019490945262ffffff600160a01b8504166060830152600160b81b8404810b6080830152600160d01b90930490920b60a08301526003808201546001600160801b031660c0840152600482015490931660e083015260058101546101008301526006810154849361012084019160ff1690811115611ea157611ea16134bd565b6003811115611eb257611eb26134bd565b8152600782015460208083019190915260088301546040808401919091526009909301546001600160a01b03908116606093840152610180850151166000908152600b8252839020835160a08101855281548152600182015492810192909252600281015493820184905260038101549282019290925260049091015463ffffffff16608082015261014083015161016084015193945090929091611f5991839190612837565b93506000611f758360000151846060015142610470919061361b565b905061077f8582600160601b612837565b600081600003611f9b5750600160601b6107c5565b81600103611faa5750816107c5565b611fb9836104706002856138d2565b9050611fca8182600160601b6128d1565b9050611fd76002836138e6565b6001036107c557611fed8184600160601b6128d1565b9392505050565b6001546001600160a01b0316331461200b57600080fd5b6000811161205b5760405162461bcd60e51b815260206004820181905260248201527f4120646562742063616e6e6f7420626520696e6372656173656420627920302e60448201526064016105db565b6000828152600a602052604090206009015461207f906001600160a01b0316610640565b60008061208b84611094565b506000868152600a6020908152604080832060098101546001600160a01b03908116808652600b855294839020835160a08101855281548152600182015495810195909552600280820154868601526003820154606087015260049182015463ffffffff166080870152549351636361ddf360e11b81529799509597509095929491169263c6c3bbe692612123928c918b9101613762565b600060405180830381600087803b15801561213d57600080fd5b505af1158015612151573d6000803e3d6000fd5b505050508481602001818151612167919061362e565b905250604081015161218c9061217d878661362e565b612187888861362e565b6128d1565b8260080181905550848260070160008282546121a8919061362e565b909155506121b79050866117ea565b15611a345760405162461bcd60e51b815260206004820152602360248201527f54686520706f736974696f6e2063616e2774206265206c6971756964617461626044820152626c652160e81b60648201526084016105db565b600154600090819081906001600160a01b0316331461222e57600080fd5b6000868152600a6020526040908190206001810154600280830154905493516372f0b31f60e01b81526001600160a01b038c81166004830152602482018c90529283166044820181905291831660648201819052608482018b905260a482018a90529394919392909116906372f0b31f9060c4016060604051808303816000875af11580156122c1573d6000803e3d6000fd5b505050506040513d601f19601f820116820180604052508101906122e591906138fa565b60039590950180546001600160801b0319166001600160801b038416179055909b909a50929850919650505050505050565b612320826117ea565b6123765760405162461bcd60e51b815260206004820152602160248201527f54686520706f736974696f6e206973206e6f74206c6971756964617461626c656044820152601760f91b60648201526084016105db565b600061238183611ddf565b9050808210156124115760405162461bcd60e51b815260206004820152604f60248201527f54686520616d6f756e74206f662047484f20746f207265706179206973206e6f60448201527f7420656e6f75676820746f207265696d6275727365207468652064656274206f60648201526e33103a3432903837b9b4ba34b7b71760891b608482015260a4016105db565b6000838152600a602052604090819020600981015460025492516323b872dd60e01b815291926001600160a01b03918216926323b872dd9261245c9233929116908790600401613762565b6020604051808303816000875af115801561247b573d6000803e3d6000fd5b505050506040513d601f19601f8201168201806040525081019061249f919061389f565b506002546009820154604051632770a7eb60e21b81526001600160a01b03918216600482015260248101859052911690639dc29fac90604401600060405180830381600087803b1580156124f257600080fd5b505af1158015612506573d6000803e3d6000fd5b505050600782015460098301546001600160a01b03166000908152600b6020526040812060010180549293509161253e90849061361b565b909155505060025460405163234b0bed60e21b8152336004820152602481018690526001600160a01b0390911690638d2c2fb490604401600060405180830381600087803b15801561258f57600080fd5b505af11580156125a3573d6000803e3d6000fd5b50505050600601805460ff19166003179055505050565b604080516101a081018252600080825260208201819052918101829052606081018290526080810182905260a0810182905260c0810182905260e0810182905261010081018290526101208101829052610140810182905261016081018290526101808101919091526000828152600a602090815260409182902082516101a08101845281546001600160a01b03908116825260018301548116938201939093526002808301548085169583019590955262ffffff600160a01b8604166060830152600160b81b8504810b6080830152600160d01b90940490930b60a08401526003808201546001600160801b031660c0850152600482015490921660e084015260058101546101008401526006810154909161012084019160ff16908111156126e6576126e66134bd565b60038111156126f7576126f76134bd565b815260078201546020820152600882015460408201526009909101546001600160a01b031660609091015292915050565b612730612877565b6001600160a01b0381166127955760405162461bcd60e51b815260206004820152602660248201527f4f776e61626c653a206e6577206f776e657220697320746865207a65726f206160448201526564647265737360d01b60648201526084016105db565b61279e81612f8c565b50565b6127d96040518060a0016040528060008152602001600081526020016000815260200160008152602001600063ffffffff1681525090565b506001600160a01b03166000908152600b6020908152604091829020825160a081018452815481526001820154928101929092526002810154928201929092526003820154606082015260049091015463ffffffff16608082015290565b60006128448484846128d1565b905060008280612856576128566138bc565b8486091115611fed57600019811061286d57600080fd5b6001019392505050565b6000546001600160a01b031633146115cb5760405162461bcd60e51b815260206004820181905260248201527f4f776e61626c653a2063616c6c6572206973206e6f7420746865206f776e657260448201526064016105db565b600080806000198587098587029250828110838203039150508060000361290a57600084116128ff57600080fd5b508290049050611fed565b80841161291657600080fd5b6000848688096000868103871696879004966002600389028118808a02820302808a02820302808a02820302808a02820302808a02820302808a02909103029181900381900460010186841190950394909402919094039290920491909117919091029150509392505050565b6000808263ffffffff166000036129c15760405162461bcd60e51b8152602060048201526002602482015261042560f41b60448201526064016105db565b60408051600280825260608201835260009260208301908036833701905050905083816000815181106129f6576129f66137bc565b602002602001019063ffffffff16908163ffffffff1681525050600081600181518110612a2557612a256137bc565b602002602001019063ffffffff16908163ffffffff1681525050600080866001600160a01b031663883bdbfd846040518263ffffffff1660e01b8152600401612a6e9190613931565b600060405180830381865afa158015612a8b573d6000803e3d6000fd5b505050506040513d6000823e601f3d908101601f19168201604052612ab391908101906139df565b91509150600082600081518110612acc57612acc6137bc565b602002602001015183600181518110612ae757612ae76137bc565b6020026020010151612af99190613aa1565b9050600082600081518110612b1057612b106137bc565b602002602001015183600181518110612b2b57612b2b6137bc565b6020026020010151612b3d9190613ace565b9050612b4f63ffffffff891683613aee565b965060008260060b128015612b755750612b6f63ffffffff891683613b2c565b60060b15155b15612b885786612b8481613b4e565b9750505b6000612ba16001600160a01b0363ffffffff8b16613b71565b9050612bbe640100000000600160c01b03602084901b1682613ba3565b96505050505050509250929050565b60008060008360020b12612be4578260020b612bec565b8260020b6000035b9050620d89e8811115612c12576040516315e4079d60e11b815260040160405180910390fd5b600081600116600003612c2957600160801b612c3b565b6ffffcb933bd6fad37aa2d162d1a5940015b70ffffffffffffffffffffffffffffffffff1690506002821615612c6f576ffff97272373d413259a46990580e213a0260801c5b6004821615612c8e576ffff2e50f5f656932ef12357cf3c7fdcc0260801c5b6008821615612cad576fffe5caca7e10e4e61c3624eaa0941cd00260801c5b6010821615612ccc576fffcb9843d60f6159c9db58835c9266440260801c5b6020821615612ceb576fff973b41fa98c081472e6896dfb254c00260801c5b6040821615612d0a576fff2ea16466c96a3843ec78b326b528610260801c5b6080821615612d29576ffe5dee046a99a2a811c461f1969c30530260801c5b610100821615612d49576ffcbe86c7900a88aedcffc83b479aa3a40260801c5b610200821615612d69576ff987a7253ac413176f2b074cf7815e540260801c5b610400821615612d89576ff3392b0822b70005940c7a398e4b70f30260801c5b610800821615612da9576fe7159475a2c29b7443b29c7fa6e889d90260801c5b611000821615612dc9576fd097f3bdfd2022b8845ad8f792aa58250260801c5b612000821615612de9576fa9f746462d870fdf8a65dc1f90e061e50260801c5b614000821615612e09576f70d869a156d2a1b890bb3df62baf32f70260801c5b618000821615612e29576f31be135f97d08fd981231505542fcfa60260801c5b62010000821615612e4a576f09aa508b5b7a84e1c677de54f3e99bc90260801c5b62020000821615612e6a576e5d6af8dedb81196699c329225ee6040260801c5b62040000821615612e89576d2216e584f5fa1ea926041bedfe980260801c5b62080000821615612ea6576b048a170391f7dc42444e8fa20260801c5b60008460020b1315612ec7578060001981612ec357612ec36138bc565b0490505b640100000000810615612edb576001612ede565b60005b60ff16602082901c0192505050919050565b600080836001600160a01b0316856001600160a01b03161115612f11579293925b846001600160a01b0316866001600160a01b031611612f3c57612f35858585612fdc565b9150612f83565b836001600160a01b0316866001600160a01b03161015612f7557612f61868585612fdc565b9150612f6e85878561304b565b9050612f83565b612f8085858561304b565b90505b94509492505050565b600080546001600160a01b038381166001600160a01b0319831681178455604051919092169283917f8be0079c531659141344cd1fd0a4f28419497f9722a3daafe3b4186f6b6457e09190a35050565b6000826001600160a01b0316846001600160a01b03161115612ffc579192915b836001600160a01b0316613035606060ff16846001600160801b0316901b8686036001600160a01b0316866001600160a01b03166128d1565b81613042576130426138bc565b04949350505050565b6000826001600160a01b0316846001600160a01b0316111561306b579192915b61308e826001600160801b03168585036001600160a01b0316600160601b6128d1565b949350505050565b600080604083850312156130a957600080fd5b50508035926020909101359150565b6001600160a01b038116811461279e57600080fd5b6000602082840312156130df57600080fd5b8135611fed816130b8565b600080600080600060a0868803121561310257600080fd5b853561310d816130b8565b9450602086013561311d816130b8565b9350604086013561312d816130b8565b9250606086013561313d816130b8565b9150608086013561314d816130b8565b809150509295509295909350565b60006020828403121561316d57600080fd5b5035919050565b60008060006060848603121561318957600080fd5b8335613194816130b8565b92506020840135915060408401356131ab816130b8565b809150509250925092565b634e487b7160e01b600052604160045260246000fd5b604051601f8201601f1916810167ffffffffffffffff811182821017156131f5576131f56131b6565b604052919050565b600067ffffffffffffffff821115613217576132176131b6565b5060051b60200190565b600082601f83011261323257600080fd5b81356020613247613242836131fd565b6131cc565b82815260059290921b8401810191818101908684111561326657600080fd5b8286015b84811015613281578035835291830191830161326a565b509695505050505050565b6000806040838503121561329f57600080fd5b823567ffffffffffffffff808211156132b757600080fd5b6132c386838701613221565b935060208501359150808211156132d957600080fd5b506132e685828601613221565b9150509250929050565b6001600160801b038116811461279e57600080fd5b60008060006060848603121561331a57600080fd5b8335613325816130b8565b92506020840135915060408401356131ab816132f0565b6000806040838503121561334f57600080fd5b823561335a816130b8565b946020939093013593505050565b60008082840360c081121561337c57600080fd5b8335613387816130b8565b925060a0601f198201121561339b57600080fd5b506020830190509250929050565b801515811461279e57600080fd5b600080600080600080600060e0888a0312156133d257600080fd5b87356133dd816130b8565b965060208801356133ed816130b8565b955060408801356133fd816130b8565b9450606088013561340d816130b8565b9350608088013561341d816130b8565b925060a088013561342d816133a9565b915060c088013561343d816133a9565b8091505092959891949750929550565b60008060006060848603121561346257600080fd5b833561346d816130b8565b95602085013595506040909401359392505050565b6000806000806080858703121561349857600080fd5b84356134a3816130b8565b966020860135965060408601359560600135945092505050565b634e487b7160e01b600052602160045260246000fd5b600481106134f157634e487b7160e01b600052602160045260246000fd5b9052565b81516001600160a01b031681526101a08101602083015161352160208401826001600160a01b03169052565b50604083015161353c60408401826001600160a01b03169052565b506060830151613553606084018262ffffff169052565b506080830151613568608084018260020b9052565b5060a083015161357d60a084018260020b9052565b5060c083015161359860c08401826001600160801b03169052565b5060e08301516135b360e08401826001600160a01b03169052565b506101008381015190830152610120808401516135d2828501826134d3565b505061014083810151908301526101608084015190830152610180928301516001600160a01b0316929091019190915290565b634e487b7160e01b600052601160045260246000fd5b818103818111156107c5576107c5613605565b808201808211156107c5576107c5613605565b805161364c816130b8565b919050565b805162ffffff8116811461364c57600080fd5b8051600281900b811461364c57600080fd5b805161364c816132f0565b6000806000806000806000806000806000806101808d8f0312156136a457600080fd5b8c516bffffffffffffffffffffffff811681146136c057600080fd5b9b506136ce60208e01613641565b9a506136dc60408e01613641565b99506136ea60608e01613641565b98506136f860808e01613651565b975061370660a08e01613664565b965061371460c08e01613664565b955061372260e08e01613676565b94506101008d015193506101208d015192506137416101408e01613676565b91506137506101608e01613676565b90509295989b509295989b509295989b565b6001600160a01b039384168152919092166020820152604081019190915260600190565b60006020828403121561379857600080fd5b8151611fed816130b8565b6000600182016137b5576137b5613605565b5060010190565b634e487b7160e01b600052603260045260246000fd5b6000602082840312156137e457600080fd5b5051919050565b600063ffffffff80831681810361286d5761286d613605565b6000806040838503121561381757600080fd5b505080516020909101519092909150565b6001600160801b0382811682821603908082111561384857613848613605565b5092915050565b8135815560208201356001820155604082013560028201556060820135600382015560048101608083013563ffffffff811680821461388d57600080fd5b825463ffffffff191617909155505050565b6000602082840312156138b157600080fd5b8151611fed816133a9565b634e487b7160e01b600052601260045260246000fd5b6000826138e1576138e16138bc565b500490565b6000826138f5576138f56138bc565b500690565b60008060006060848603121561390f57600080fd5b835161391a816132f0565b602085015160409095015190969495509392505050565b6020808252825182820181905260009190848201906040850190845b8181101561396f57835163ffffffff168352928401929184019160010161394d565b50909695505050505050565b600082601f83011261398c57600080fd5b8151602061399c613242836131fd565b82815260059290921b840181019181810190868411156139bb57600080fd5b8286015b848110156132815780516139d2816130b8565b83529183019183016139bf565b600080604083850312156139f257600080fd5b825167ffffffffffffffff80821115613a0a57600080fd5b818501915085601f830112613a1e57600080fd5b81516020613a2e613242836131fd565b82815260059290921b84018101918181019089841115613a4d57600080fd5b948201945b83861015613a7b5785518060060b8114613a6c5760008081fd5b82529482019490820190613a52565b91880151919650909350505080821115613a9457600080fd5b506132e68582860161397b565b600682810b9082900b03667fffffffffffff198112667fffffffffffff821317156107c5576107c5613605565b6001600160a01b0382811682821603908082111561384857613848613605565b60008160060b8360060b80613b0557613b056138bc565b667fffffffffffff19821460001982141615613b2357613b23613605565b90059392505050565b60008260060b80613b3f57613b3f6138bc565b808360060b0791505092915050565b60008160020b627fffff198103613b6757613b67613605565b6000190192915050565b6001600160c01b03828116828216818102831692918115828504821417613b9a57613b9a613605565b50505092915050565b60006001600160c01b0383811680613bbd57613bbd6138bc565b9216919091049291505056fea2646970667358221220dad8a80d36dce8b75637ca69af3b5022a52f1460801eac7a71e1757a53d0e3fc64736f6c63430008110033",
    "linkReferences": {}
  },
  "methodIdentifiers": {
    "addAssetsValuesToProtocol(address,(uint256,uint256,uint256,uint256,uint32))": "787b0b7f",
    "addPoolToProtocol(address,address,address,address,address,bool,bool)": "8c70cb52",
    "allDebtComponentsOf(uint256)": "3b687778",
    "batchliquidate(uint256[],uint256[])": "415203c9",
    "borrow(address,uint256,uint256)": "c1bce0b7",
    "closePosition(address,uint256)": "742fe1f8",
    "collRatioOf(uint256)": "35bf5055",
    "debtOf(uint256)": "bd7be5a4",
    "debtOfInETH(uint256)": "27dc3c34",
    "deposit(address,uint256,uint256,uint256)": "ce88b439",
    "getAssetsValues(address)": "f8e0a111",
    "getPosition(uint256)": "eb02c301",
    "getRiskConstants(address)": "ed4ce299",
    "initialize(address,address,address,address,address)": "1459457a",
    "liquidatable(uint256)": "7d751896",
    "liquidatePosition(uint256,uint256)": "d3c4e4a6",
    "liquidateUnderlyings(uint256,uint256)": "04837282",
    "openPosition(address,uint256,address)": "3a41b2e7",
    "owner()": "8da5cb5b",
    "positionAmounts(uint256)": "44913c53",
    "positionValueInETH(uint256)": "190f7867",
    "power(uint256,uint256)": "c04f01fc",
    "priceInETH(address)": "557d76fb",
    "protocolContracts()": "785434af",
    "refreshDebtTracking(address)": "0517c6e9",
    "renounceOwnership()": "715018a6",
    "repay(address,uint256,uint256)": "8cd2e0c7",
    "totalDebtOf(address)": "9f2b2833",
    "totalPositionsValueInETH(address)": "63d081f7",
    "transferOwnership(address)": "f2fde38b",
    "updateRiskConstants(address,uint256)": "9470d452",
    "withdraw(address,uint256,uint128)": "72bef582"
  },
  "id": 1
}