{
  "abi": [
    {
      "inputs": [],
      "name": "T",
      "type": "error"
    },
    {
      "anonymous": false,
      "inputs": [
        {
          "indexed": true,
          "internalType": "address",
          "name": "previousOwner",
          "type": "address"
        },
        {
          "indexed": true,
          "internalType": "address",
          "name": "newOwner",
          "type": "address"
        }
      ],
      "name": "OwnershipTransferred",
      "type": "event"
    },
    {
      "inputs": [
        {
          "internalType": "address",
          "name": "_assetAddress",
          "type": "address"
        },
        {
          "components": [
            {
              "internalType": "uint256",
              "name": "interestRate",
              "type": "uint256"
            },
            {
              "internalType": "uint256",
              "name": "totalBorrowedStableCoin",
              "type": "uint256"
            },
            {
              "internalType": "uint256",
              "name": "interestFactor",
              "type": "uint256"
            },
            {
              "internalType": "uint256",
              "name": "lastFactorUpdate",
              "type": "uint256"
            },
            {
              "internalType": "uint32",
              "name": "twapLength",
              "type": "uint32"
            }
          ],
          "internalType": "struct IPositionsManager.AssetsValues",
          "name": "_assetValue",
          "type": "tuple"
        }
      ],
      "name": "addAssetsValuesToProtocol",
      "outputs": [],
      "stateMutability": "nonpayable",
      "type": "function"
    },
    {
      "inputs": [
        {
          "internalType": "address",
          "name": "_poolAddress",
          "type": "address"
        },
        {
          "internalType": "address",
          "name": "_token0",
          "type": "address"
        },
        {
          "internalType": "address",
          "name": "_token1",
          "type": "address"
        },
        {
          "internalType": "address",
          "name": "_ETHpoolToken0",
          "type": "address"
        },
        {
          "internalType": "address",
          "name": "_ETHpoolToken1",
          "type": "address"
        },
        {
          "internalType": "bool",
          "name": "_inv0",
          "type": "bool"
        },
        {
          "internalType": "bool",
          "name": "_inv1",
          "type": "bool"
        }
      ],
      "name": "addPoolToProtocol",
      "outputs": [],
      "stateMutability": "nonpayable",
      "type": "function"
    },
    {
      "inputs": [
        {
          "internalType": "uint256",
          "name": "_tokenId",
          "type": "uint256"
        }
      ],
      "name": "allDebtComponentsOf",
      "outputs": [
        {
          "internalType": "uint256",
          "name": "currentDebt",
          "type": "uint256"
        },
        {
          "internalType": "uint256",
          "name": "debtPrincipal",
          "type": "uint256"
        },
        {
          "internalType": "uint256",
          "name": "interest",
          "type": "uint256"
        }
      ],
      "stateMutability": "view",
      "type": "function"
    },
    {
      "inputs": [
        {
          "internalType": "uint256[]",
          "name": "_tokenIds",
          "type": "uint256[]"
        },
        {
          "internalType": "uint256[]",
          "name": "_amountRepays",
          "type": "uint256[]"
        }
      ],
      "name": "batchliquidate",
      "outputs": [],
      "stateMutability": "nonpayable",
      "type": "function"
    },
    {
      "inputs": [
        {
          "internalType": "address",
          "name": "sender",
          "type": "address"
        },
        {
          "internalType": "uint256",
          "name": "_tokenId",
          "type": "uint256"
        },
        {
          "internalType": "uint256",
          "name": "_amount",
          "type": "uint256"
        }
      ],
      "name": "borrow",
      "outputs": [],
      "stateMutability": "nonpayable",
      "type": "function"
    },
    {
      "inputs": [
        {
          "internalType": "address",
          "name": "_owner",
          "type": "address"
        },
        {
          "internalType": "uint256",
          "name": "_tokenId",
          "type": "uint256"
        }
      ],
      "name": "closePosition",
      "outputs": [],
      "stateMutability": "nonpayable",
      "type": "function"
    },
    {
      "inputs": [
        {
          "internalType": "uint256",
          "name": "_tokenId",
          "type": "uint256"
        }
      ],
      "name": "collRatioOf",
      "outputs": [
        {
          "internalType": "uint256",
          "name": "",
          "type": "uint256"
        }
      ],
      "stateMutability": "view",
      "type": "function"
    },
    {
      "inputs": [
        {
          "internalType": "uint256",
          "name": "_tokenId",
          "type": "uint256"
        }
      ],
      "name": "debtOf",
      "outputs": [
        {
          "internalType": "uint256",
          "name": "currentDebt",
          "type": "uint256"
        }
      ],
      "stateMutability": "view",
      "type": "function"
    },
    {
      "inputs": [
        {
          "internalType": "uint256",
          "name": "_tokenId",
          "type": "uint256"
        }
      ],
      "name": "debtOfInETH",
      "outputs": [
        {
          "internalType": "uint256",
          "name": "",
          "type": "uint256"
        }
      ],
      "stateMutability": "view",
      "type": "function"
    },
    {
      "inputs": [
        {
          "internalType": "address",
          "name": "sender",
          "type": "address"
        },
        {
          "internalType": "uint256",
          "name": "tokenId",
          "type": "uint256"
        },
        {
          "internalType": "uint256",
          "name": "amountAdd0",
          "type": "uint256"
        },
        {
          "internalType": "uint256",
          "name": "amountAdd1",
          "type": "uint256"
        }
      ],
      "name": "deposit",
      "outputs": [
        {
          "internalType": "uint128",
          "name": "liquidity",
          "type": "uint128"
        },
        {
          "internalType": "uint256",
          "name": "amount0",
          "type": "uint256"
        },
        {
          "internalType": "uint256",
          "name": "amount1",
          "type": "uint256"
        }
      ],
      "stateMutability": "nonpayable",
      "type": "function"
    },
    {
      "inputs": [
        {
          "internalType": "address",
          "name": "_assets",
          "type": "address"
        }
      ],
      "name": "getAssetsValues",
      "outputs": [
        {
          "components": [
            {
              "internalType": "uint256",
              "name": "interestRate",
              "type": "uint256"
            },
            {
              "internalType": "uint256",
              "name": "totalBorrowedStableCoin",
              "type": "uint256"
            },
            {
              "internalType": "uint256",
              "name": "interestFactor",
              "type": "uint256"
            },
            {
              "internalType": "uint256",
              "name": "lastFactorUpdate",
              "type": "uint256"
            },
            {
              "internalType": "uint32",
              "name": "twapLength",
              "type": "uint32"
            }
          ],
          "internalType": "struct IPositionsManager.AssetsValues",
          "name": "",
          "type": "tuple"
        }
      ],
      "stateMutability": "view",
      "type": "function"
    },
    {
      "inputs": [
        {
          "internalType": "uint256",
          "name": "_tokenId",
          "type": "uint256"
        }
      ],
      "name": "getPosition",
      "outputs": [
        {
          "components": [
            {
              "internalType": "address",
              "name": "user",
              "type": "address"
            },
            {
              "internalType": "address",
              "name": "token0",
              "type": "address"
            },
            {
              "internalType": "address",
              "name": "token1",
              "type": "address"
            },
            {
              "internalType": "uint24",
              "name": "fee",
              "type": "uint24"
            },
            {
              "internalType": "int24",
              "name": "tickLower",
              "type": "int24"
            },
            {
              "internalType": "int24",
              "name": "tickUpper",
              "type": "int24"
            },
            {
              "internalType": "uint128",
              "name": "liquidity",
              "type": "uint128"
            },
            {
              "internalType": "address",
              "name": "poolAddress",
              "type": "address"
            },
            {
              "internalType": "uint256",
              "name": "tokenId",
              "type": "uint256"
            },
            {
              "internalType": "enum IPositionsManager.Status",
              "name": "status",
              "type": "uint8"
            },
            {
              "internalType": "uint256",
              "name": "debtPrincipal",
              "type": "uint256"
            },
            {
              "internalType": "uint256",
              "name": "interestConstant",
              "type": "uint256"
            },
            {
              "internalType": "address",
              "name": "assetAddress",
              "type": "address"
            }
          ],
          "internalType": "struct IPositionsManager.Position",
          "name": "position",
          "type": "tuple"
        }
      ],
      "stateMutability": "view",
      "type": "function"
    },
    {
      "inputs": [
        {
          "internalType": "address",
          "name": "_pool",
          "type": "address"
        }
      ],
      "name": "getRiskConstants",
      "outputs": [
        {
          "internalType": "uint256",
          "name": "riskConstants",
          "type": "uint256"
        }
      ],
      "stateMutability": "view",
      "type": "function"
    },
    {
      "inputs": [
        {
          "internalType": "address",
          "name": "_uniFactory",
          "type": "address"
        },
        {
          "internalType": "address",
          "name": "_uniPosNFT",
          "type": "address"
        },
        {
          "internalType": "address",
          "name": "_userInteractionsAddress",
          "type": "address"
        },
        {
          "internalType": "address",
          "name": "_eclypseVaultAddress",
          "type": "address"
        },
        {
          "internalType": "address",
          "name": "_priceFeedAddress",
          "type": "address"
        }
      ],
      "name": "initialize",
      "outputs": [],
      "stateMutability": "nonpayable",
      "type": "function"
    },
    {
      "inputs": [
        {
          "internalType": "uint256",
          "name": "_tokenId",
          "type": "uint256"
        }
      ],
      "name": "liquidatable",
      "outputs": [
        {
          "internalType": "bool",
          "name": "",
          "type": "bool"
        }
      ],
      "stateMutability": "nonpayable",
      "type": "function"
    },
    {
      "inputs": [
        {
          "internalType": "uint256",
          "name": "_tokenId",
          "type": "uint256"
        },
        {
          "internalType": "uint256",
          "name": "_amountRepay",
          "type": "uint256"
        }
      ],
      "name": "liquidatePosition",
      "outputs": [],
      "stateMutability": "nonpayable",
      "type": "function"
    },
    {
      "inputs": [
        {
          "internalType": "uint256",
          "name": "_tokenId",
          "type": "uint256"
        },
        {
          "internalType": "uint256",
          "name": "_amountRepay",
          "type": "uint256"
        }
      ],
      "name": "liquidateUnderlyings",
      "outputs": [],
      "stateMutability": "nonpayable",
      "type": "function"
    },
    {
      "inputs": [
        {
          "internalType": "address",
          "name": "_owner",
          "type": "address"
        },
        {
          "internalType": "uint256",
          "name": "_tokenId",
          "type": "uint256"
        },
        {
          "internalType": "address",
          "name": "_assetAddress",
          "type": "address"
        }
      ],
      "name": "openPosition",
      "outputs": [],
      "stateMutability": "nonpayable",
      "type": "function"
    },
    {
      "inputs": [],
      "name": "owner",
      "outputs": [
        {
          "internalType": "address",
          "name": "",
          "type": "address"
        }
      ],
      "stateMutability": "view",
      "type": "function"
    },
    {
      "inputs": [
        {
          "internalType": "uint256",
          "name": "_tokenId",
          "type": "uint256"
        }
      ],
      "name": "positionAmounts",
      "outputs": [
        {
          "internalType": "uint256",
          "name": "amountToken0",
          "type": "uint256"
        },
        {
          "internalType": "uint256",
          "name": "amountToken1",
          "type": "uint256"
        }
      ],
      "stateMutability": "view",
      "type": "function"
    },
    {
      "inputs": [
        {
          "internalType": "uint256",
          "name": "_tokenId",
          "type": "uint256"
        }
      ],
      "name": "positionValueInETH",
      "outputs": [
        {
          "internalType": "uint256",
          "name": "value",
          "type": "uint256"
        }
      ],
      "stateMutability": "view",
      "type": "function"
    },
    {
      "inputs": [
        {
          "internalType": "uint256",
          "name": "_base",
          "type": "uint256"
        },
        {
          "internalType": "uint256",
          "name": "_exponent",
          "type": "uint256"
        }
      ],
      "name": "power",
      "outputs": [
        {
          "internalType": "uint256",
          "name": "result",
          "type": "uint256"
        }
      ],
      "stateMutability": "pure",
      "type": "function"
    },
    {
      "inputs": [],
      "name": "protocolContracts",
      "outputs": [
        {
          "internalType": "address",
          "name": "userInteractions",
          "type": "address"
        },
        {
          "internalType": "contract IEclypseVault",
          "name": "eclypseVault",
          "type": "address"
        },
        {
          "internalType": "contract IUniswapV3Factory",
          "name": "uniswapFactory",
          "type": "address"
        },
        {
          "internalType": "contract INonfungiblePositionManager",
          "name": "uniswapPositionsManager",
          "type": "address"
        },
        {
          "internalType": "contract IPriceFeed",
          "name": "priceFeed",
          "type": "address"
        }
      ],
      "stateMutability": "view",
      "type": "function"
    },
    {
      "inputs": [
        {
          "internalType": "address",
          "name": "assetAddress",
          "type": "address"
        }
      ],
      "name": "refreshDebtTracking",
      "outputs": [],
      "stateMutability": "nonpayable",
      "type": "function"
    },
    {
      "inputs": [],
      "name": "renounceOwnership",
      "outputs": [],
      "stateMutability": "nonpayable",
      "type": "function"
    },
    {
      "inputs": [
        {
          "internalType": "address",
          "name": "sender",
          "type": "address"
        },
        {
          "internalType": "uint256",
          "name": "_tokenId",
          "type": "uint256"
        },
        {
          "internalType": "uint256",
          "name": "_amount",
          "type": "uint256"
        }
      ],
      "name": "repay",
      "outputs": [],
      "stateMutability": "nonpayable",
      "type": "function"
    },
    {
      "inputs": [
        {
          "internalType": "address",
          "name": "_user",
          "type": "address"
        }
      ],
      "name": "totalDebtOf",
      "outputs": [
        {
          "internalType": "uint256",
          "name": "totalDebt",
          "type": "uint256"
        }
      ],
      "stateMutability": "view",
      "type": "function"
    },
    {
      "inputs": [
        {
          "internalType": "address",
          "name": "_user",
          "type": "address"
        }
      ],
      "name": "totalPositionsValueInETH",
      "outputs": [
        {
          "internalType": "uint256",
          "name": "totalValue",
          "type": "uint256"
        }
      ],
      "stateMutability": "nonpayable",
      "type": "function"
    },
    {
      "inputs": [
        {
          "internalType": "address",
          "name": "newOwner",
          "type": "address"
        }
      ],
      "name": "transferOwnership",
      "outputs": [],
      "stateMutability": "nonpayable",
      "type": "function"
    },
    {
      "inputs": [
        {
          "internalType": "address",
          "name": "_pool",
          "type": "address"
        },
        {
          "internalType": "uint256",
          "name": "_riskConstants",
          "type": "uint256"
        }
      ],
      "name": "updateRiskConstants",
      "outputs": [],
      "stateMutability": "nonpayable",
      "type": "function"
    },
    {
      "inputs": [
        {
          "internalType": "address",
          "name": "sender",
          "type": "address"
        },
        {
          "internalType": "uint256",
          "name": "tokenId",
          "type": "uint256"
        },
        {
          "internalType": "uint128",
          "name": "liquidityToRemove",
          "type": "uint128"
        }
      ],
      "name": "withdraw",
      "outputs": [
        {
          "internalType": "uint256",
          "name": "amount0",
          "type": "uint256"
        },
        {
          "internalType": "uint256",
          "name": "amount1",
          "type": "uint256"
        }
      ],
      "stateMutability": "nonpayable",
      "type": "function"
    }
  ],
  "bytecode": {
    "object": "0x6080604052600180546001600160a01b03191673a0b86991c6218b36c1d19d4a2e9eb0ce3606eb481790553480156200003757600080fd5b50620000433362000049565b62000099565b600080546001600160a01b038381166001600160a01b0319831681178455604051919092169283917f8be0079c531659141344cd1fd0a4f28419497f9722a3daafe3b4186f6b6457e09190a35050565b613d1e80620000a96000396000f3fe608060405234801561001057600080fd5b50600436106101e55760003560e01c8063787b0b7f1161010f578063c04f01fc116100a2578063eb02c30111610071578063eb02c301146104b5578063ed4ce299146104d5578063f2fde38b146104fe578063f8e0a1111461051157600080fd5b8063c04f01fc14610444578063c1bce0b714610457578063ce88b4391461046a578063d3c4e4a6146104a257600080fd5b80638da5cb5b116100de5780638da5cb5b146103f05780639470d4521461040b5780639f2b28331461041e578063bd7be5a41461043157600080fd5b8063787b0b7f146103945780637d751896146103a75780638c70cb52146103ca5780638cd2e0c7146103dd57600080fd5b80633b68777811610187578063715018a611610156578063715018a61461030057806372bef58214610308578063742fe1f81461031b578063785434af1461032e57600080fd5b80633b68777814610284578063415203c9146102b257806344913c53146102c557806363d081f7146102ed57600080fd5b8063190f7867116101c3578063190f78671461022557806327dc3c341461024b57806335bf50551461025e5780633a41b2e71461027157600080fd5b806304837282146101ea5780630517c6e9146101ff5780631459457a14610212575b600080fd5b6101fd6101f83660046131b5565b61056c565b005b6101fd61020d3660046131ec565b610622565b6101fd610220366004613209565b610691565b61023861023336600461327a565b6106f9565b6040519081526020015b60405180910390f35b61023861025936600461327a565b610827565b61023861026c36600461327a565b610965565b6101fd61027f366004613293565b610b95565b61029761029236600461327a565b61124d565b60408051938452602084019290925290820152606001610242565b6101fd6102c03660046133ab565b611424565b6102d86102d336600461327a565b611491565b60408051928352602083019190915201610242565b6102386102fb3660046131ec565b611627565b6101fd6116d0565b6102d8610316366004613424565b6116e4565b6101fd61032936600461345b565b611814565b60025460035460045460055460065461035a946001600160a01b03908116948116938116928116911685565b604080516001600160a01b03968716815294861660208601529285169284019290925283166060830152909116608082015260a001610242565b6101fd6103a2366004613487565b6118cf565b6103ba6103b536600461327a565b611901565b6040519015158152602001610242565b6101fd6103d83660046134d6565b611a33565b6101fd6103eb36600461356c565b611b54565b6000546040516001600160a01b039091168152602001610242565b6101fd61041936600461345b565b611dd2565b61023861042c3660046131ec565b611e6a565b61023861043f36600461327a565b611f0c565b6102386104523660046131b5565b6120bd565b6101fd61046536600461356c565b61212d565b61047d6104783660046135a1565b612324565b604080516001600160801b039094168452602084019290925290820152606001610242565b6101fd6104b03660046131b5565b61242b565b6104c86104c336600461327a565b6126e0565b6040516102429190613614565b6102386104e33660046131ec565b6001600160a01b031660009081526009602052604090205490565b6101fd61050c3660046131ec565b61284e565b61052461051f3660046131ec565b6128c7565b6040516102429190600060a0820190508251825260208301516020830152604083015160408301526060830151606083015263ffffffff608084015116608083015292915050565b61057582611901565b6105c65760405162461bcd60e51b815260206004820152601c60248201527f506f736974696f6e206973206e6f74206c6971756964617461626c650000000060448201526064015b60405180910390fd5b806105d083611f0c565b111561061e5760405162461bcd60e51b815260206004820152601c60248201527f4e6f7420656e6f7567682047484f20746f20726570617920646562740000000060448201526064016105bd565b5050565b6001600160a01b0381166000908152600c60205260408120805460038201549192916106539190610452904261373a565b6001600160a01b0384166000908152600c60205260409020600201549091506106819082600160601b61295d565b6002830155504260039091015550565b61069961299e565b600280546001600160a01b03199081166001600160a01b0395861617909155600380548216938516939093179092556004805483169584169590951790945560058054821693831693909317909255600680549092169216919091179055565b600080600061070784611491565b6000868152600b602052604080822060018101546002909101546006549251635620c32d60e11b81526001600160a01b039182166004820181905273eeeeeeeeeeeeeeeeeeeeeeeeeeeeeeeeeeeeeeee602483015296985094965090811694936107c1928792169063ac41865a906044015b602060405180830381865afa158015610796573d6000803e3d6000fd5b505050506040513d601f19601f820116820180604052508101906107ba919061374d565b60016129f8565b600654604051635620c32d60e11b81526001600160a01b03868116600483015273eeeeeeeeeeeeeeeeeeeeeeeeeeeeeeeeeeeeeeee602483015261081292899291169063ac41865a90604401610779565b61081c9190613766565b979650505050505050565b600654600154604051635620c32d60e11b81526001600160a01b03918216600482015273eeeeeeeeeeeeeeeeeeeeeeeeeeeeeeeeeeeeeeee60248201526000928392169063ac41865a90604401602060405180830381865afa158015610891573d6000803e3d6000fd5b505050506040513d601f19601f820116820180604052508101906108b5919061374d565b9050600061095d6108c585611f0c565b600654600154604051635620c32d60e11b81526001600160a01b03918216600482015273eeeeeeeeeeeeeeeeeeeeeeeeeeeeeeeeeeeeeeee602482015291169063ac41865a90604401602060405180830381865afa15801561092b573d6000803e3d6000fd5b505050506040513d601f19601f8201168201806040525081019061094f919061374d565b670de0b6b3a764000061295d565b949350505050565b60055460405163133f757160e31b815260048101839052600091829182916001600160a01b0316906399fbab889060240161018060405180830381865afa1580156109b4573d6000803e3d6000fd5b505050506040513d601f19601f820116820180604052508101906109d891906137b9565b9b509b50505050505050505050506000610adc826001600160801b0316600260040160009054906101000a90046001600160a01b03166001600160a01b031663ac41865a600b60008a815260200190815260200160002060020160009054906101000a90046001600160a01b031673eeeeeeeeeeeeeeeeeeeeeeeeeeeeeeeeeeeeeeee6040518363ffffffff1660e01b8152600401610a8d9291906001600160a01b0392831681529116602082015260400190565b602060405180830381865afa158015610aaa573d6000803e3d6000fd5b505050506040513d601f19601f82011682018060405250810190610ace919061374d565b670de0b6b3a76400006129f8565b6006546000878152600b602052604090819020600101549051635620c32d60e11b81526001600160a01b03918216600482015273eeeeeeeeeeeeeeeeeeeeeeeeeeeeeeeeeeeeeeee6024820152610b48926001600160801b03881692169063ac41865a90604401610a8d565b610b529190613766565b90506000610b5f86610827565b9050600082610b6d886106f9565b610b779190613766565b905060008211610b895760001961081c565b61081c816001846129f8565b6002546001600160a01b03163314610bac57600080fd5b600554600354604051632142170760e11b81526001600160a01b03928316926342842e0e92610be592889290911690879060040161389a565b600060405180830381600087803b158015610bff57600080fd5b505af1158015610c13573d6000803e3d6000fd5b505060055460405163133f757160e31b8152600481018690526000935083925082918291829182916001600160a01b03909116906399fbab889060240161018060405180830381865afa158015610c6e573d6000803e3d6000fd5b505050506040513d601f19601f82011682018060405250810190610c9291906137b9565b50505050975097509750975097509750505060006002800160009054906101000a90046001600160a01b03166001600160a01b0316631698ee828888886040518463ffffffff1660e01b8152600401610d11939291906001600160a01b03938416815291909216602082015262ffffff91909116604082015260600190565b602060405180830381865afa158015610d2e573d6000803e3d6000fd5b505050506040513d601f19601f82011682018060405250810190610d5291906138be565b6001600160a01b03811660009081526007602052604090205490915060ff16610dd05760405162461bcd60e51b815260206004820152602a60248201527f5468697320706f6f6c206973206e6f742061636365707465642062792074686560448201526910383937ba37b1b7b61760b11b60648201526084016105bd565b6000604051806101a001604052808c6001600160a01b03168152602001896001600160a01b03168152602001886001600160a01b031681526020018762ffffff1681526020018660020b81526020018560020b8152602001846001600160801b03168152602001836001600160a01b031681526020018b815260200160016003811115610e5f57610e5f6135dc565b815260200160008152602001600c60008c6001600160a01b03166001600160a01b031681526020019081526020016000206002015481526020018a6001600160a01b031681525090506000600a60008d6001600160a01b03166001600160a01b031681526020019081526020016000209050818160010160008360000154815260200190815260200160002060008201518160000160006101000a8154816001600160a01b0302191690836001600160a01b0316021790555060208201518160010160006101000a8154816001600160a01b0302191690836001600160a01b0316021790555060408201518160020160006101000a8154816001600160a01b0302191690836001600160a01b0316021790555060608201518160020160146101000a81548162ffffff021916908362ffffff16021790555060808201518160020160176101000a81548162ffffff021916908360020b62ffffff16021790555060a082015181600201601a6101000a81548162ffffff021916908360020b62ffffff16021790555060c08201518160030160006101000a8154816001600160801b0302191690836001600160801b0316021790555060e08201518160040160006101000a8154816001600160a01b0302191690836001600160a01b0316021790555061010082015181600501556101208201518160060160006101000a81548160ff02191690836003811115611077576110776135dc565b02179055506101408201516007820155610160820151600882015561018090910151600990910180546001600160a01b0319166001600160a01b0390921691909117905580548160006110c9836138db565b909155505060008b8152600b6020908152604091829020845181546001600160a01b03199081166001600160a01b03928316178355928601516001808401805486169284169290921790915593860151600283018054606089015160808a015160a08b01519486166001600160b81b031990931692909217600160a01b62ffffff928316021765ffffffffffff60b81b1916600160b81b9282169290920262ffffff60d01b191691909117600160d01b919093160291909117905560c0860151600380840180546001600160801b0319166001600160801b039093169290921790915560e08701516004840180549095169216919091179092556101008501516005820155610120850151600682018054879593949293919260ff19909116919084908111156111fb576111fb6135dc565b02179055506101408201516007820155610160820151600882015561018090910151600990910180546001600160a01b0319166001600160a01b03909216919091179055505050505050505050505050565b6000818152600b6020908152604080832081516101a08101835281546001600160a01b03908116825260018301548116948201949094526002808301548086169483019490945262ffffff600160a01b8504166060830152600160b81b8404810b6080830152600160d01b90930490920b60a08301526003808201546001600160801b031660c0840152600482015490931660e0830152600581015461010083015260068101548493849384939092909161012084019160ff1690811115611317576113176135dc565b6003811115611328576113286135dc565b8152600782015460208083019190915260088301546040808401919091526009909301546001600160a01b03908116606093840152610180850151166000908152600c8252839020835160a0810185528154815260018201549281019290925260028101549382019390935260038301549181019190915260049091015463ffffffff1660808201529091506113bd866126e0565b610140015193506113e08482604001516113d6896126e0565b610160015161295d565b945060006113fc8260000151836060015142610452919061373a565b905061140d8682600160601b61295d565b9550611419858761373a565b959794965050505050565b805182511461143257600080fd5b60005b825181101561148c5761147a838281518110611453576114536138f4565b602002602001015183838151811061146d5761146d6138f4565b602002602001015161242b565b80611484816138db565b915050611435565b505050565b6000818152600b6020908152604080832081516101a08101835281546001600160a01b03908116825260018301548116948201949094526002808301548086169483019490945262ffffff600160a01b8504166060830152600160b81b8404810b6080830152600160d01b90930490920b60a08301526003808201546001600160801b031660c0840152600482015490931660e08301526005810154610100830152600681015484938493929161012084019160ff90911690811115611559576115596135dc565b600381111561156a5761156a6135dc565b8152600782015460208083019190915260088301546040808401919091526009909301546001600160a01b0390811660609093019290925260e08401516101808501519092166000908152600c9091529182206004015492935090916115d6919063ffffffff16612aaa565b50905060006115e482612cf4565b905060006115f58460800151612cf4565b905060006116068560a00151612cf4565b90506116188383838860c00151613017565b90999098509650505050505050565b6001600160a01b0381166000908152600a60205260408120815b815463ffffffff821610156116c957600163ffffffff8216600090815260018401602052604090206006015460ff166003811115611681576116816135dc565b036116b75763ffffffff811660009081526001830160205260409020600501546116aa906106f9565b6116b49084613766565b92505b806116c18161390a565b915050611641565b5050919050565b6116d861299e565b6116e260006130b3565b565b60025460009081906001600160a01b0316331461170057600080fd5b6000848152600b6020526040902060038101546001600160801b039081169085161161172c578361173b565b60038101546001600160801b03165b60035460405163496a6e0760e11b81526001600160a01b038981166004830152602482018990526001600160801b03841660448301529296509116906392d4dc0e9060640160408051808303816000875af115801561179e573d6000803e3d6000fd5b505050506040513d601f19601f820116820180604052508101906117c29190613923565b60038301805492955090935085916000906117e79084906001600160801b0316613947565b92506101000a8154816001600160801b0302191690836001600160801b0316021790555050935093915050565b6002546001600160a01b0316331461182b57600080fd5b600061183682611f0c565b9050801561184957611849838383611b54565b60035460405163234b0bed60e21b81526001600160a01b0385811660048301526024820185905290911690638d2c2fb490604401600060405180830381600087803b15801561189757600080fd5b505af11580156118ab573d6000803e3d6000fd5b50505060009283525050600b60205260409020600601805460ff1916600217905550565b6118d761299e565b6001600160a01b0382166000908152600c6020526040902081906118fb828261396e565b50505050565b6000818152600b6020908152604080832081516101a08101835281546001600160a01b03908116825260018301548116948201949094526002808301548086169483019490945262ffffff600160a01b8504166060830152600160b81b8404810b6080830152600160d01b90930490920b60a08301526003808201546001600160801b031660c0840152600482015490931660e083015260058101546101008301526006810154849361012084019160ff16908111156119c3576119c36135dc565b60038111156119d4576119d46135dc565b8152600782015460208083019190915260088301546040808401919091526009938401546001600160a01b0390811660609094019390935260e08501519092166000908152929052902054909150611a2b84610965565b109392505050565b611a3b61299e565b6001600160a01b038088166000908152600760205260409020805460ff19166001179055861673c02aaa39b223fe8d0a0e5c4f27ead9083c756cc214611ad1576040805180820182526001600160a01b03808716825284151560208084019182528a831660009081526008909152939093209151825493511515600160a01b026001600160a81b03199094169116179190911790555b6001600160a01b03851673c02aaa39b223fe8d0a0e5c4f27ead9083c756cc214611b4b576040805180820182526001600160a01b038086168252831515602080840191825289831660009081526008909152939093209151825493511515600160a01b026001600160a81b03199094169116179190911790555b50505050505050565b6002546001600160a01b03163314611b6b57600080fd5b60008111611bbb5760405162461bcd60e51b815260206004820181905260248201527f4120646562742063616e6e6f742062652064656372656173656420627920302e60448201526064016105bd565b6000828152600b6020526040902060090154611bdf906001600160a01b0316610622565b6000806000611bed8561124d565b6000888152600b6020908152604080832060098101546001600160a01b03168452600c909252909120939650919450925090848610611c2c5784611c2e565b855b95506000838710611c3f5783611c41565b865b90506000611c4f828961373a565b60098501546003549192506001600160a01b03908116916323b872dd918d9116611c798686613766565b6040518463ffffffff1660e01b8152600401611c979392919061389a565b6020604051808303816000875af1158015611cb6573d6000803e3d6000fd5b505050506040513d601f19601f82011682018060405250810190611cda91906139be565b508015611d77576003546009850154604051632770a7eb60e21b81526001600160a01b03918216600482015260248101849052911690639dc29fac906044016020604051808303816000875af1158015611d38573d6000803e3d6000fd5b505050506040513d601f19601f82011682018060405250810190611d5c91906139be565b5080836001016000828254611d71919061373a565b90915550505b6000611d83898961373a565b90506000611d91838961373a565b90508115611db257611da88560020154828461295d565b6008870155611dbd565b600285015460088701555b60079095019490945550505050505050505050565b611dda61299e565b670de0b6b3a76400008111611e4e5760405162461bcd60e51b815260206004820152603460248201527f546865206d696e696d756d20636f6c6c61746572616c20726174696f206d75736044820152733a1031329033b932b0ba32b9103a3430b710189760611b60648201526084016105bd565b6001600160a01b03909116600090815260096020526040902055565b6001600160a01b0381166000908152600a60205260408120815b815463ffffffff821610156116c957600163ffffffff8216600090815260018401602052604090206006015460ff166003811115611ec457611ec46135dc565b03611efa5763ffffffff81166000908152600183016020526040902060050154611eed90611f0c565b611ef79084613766565b92505b80611f048161390a565b915050611e84565b6000818152600b6020908152604080832081516101a08101835281546001600160a01b03908116825260018301548116948201949094526002808301548086169483019490945262ffffff600160a01b8504166060830152600160b81b8404810b6080830152600160d01b90930490920b60a08301526003808201546001600160801b031660c0840152600482015490931660e083015260058101546101008301526006810154849361012084019160ff1690811115611fce57611fce6135dc565b6003811115611fdf57611fdf6135dc565b8152600782015460208083019190915260088301546040808401919091526009909301546001600160a01b03908116606093840152610180850151166000908152600c8252839020835160a08101855281548152600182015492810192909252600281015493820184905260038101549282019290925260049091015463ffffffff166080820152610140830151610160840151939450909290916120869183919061295d565b935060006120a28360000151846060015142610452919061373a565b90506120b38582600160601b61295d565b9695505050505050565b6000816000036120d25750600160601b612127565b816001036120e1575081612127565b6120f0836104526002856139f1565b90506121018182600160601b6129f8565b905061210e600283613a05565b600103612127576121248184600160601b6129f8565b90505b92915050565b6002546001600160a01b0316331461214457600080fd5b600081116121945760405162461bcd60e51b815260206004820181905260248201527f4120646562742063616e6e6f7420626520696e6372656173656420627920302e60448201526064016105bd565b6000828152600b60205260409020600901546121b8906001600160a01b0316610622565b6000806121c48461124d565b506000868152600b6020908152604080832060098101546001600160a01b03908116808652600c909452938290206003549251636361ddf360e11b81529698509496509492169163c6c3bbe691612221918b908a9060040161389a565b6020604051808303816000875af1158015612240573d6000803e3d6000fd5b505050506040513d601f19601f8201168201806040525081019061226491906139be565b50848160010160008282546122799190613766565b909155505060028101546122a0906122918786613766565b61229b8888613766565b6129f8565b8260080181905550848260070160008282546122bc9190613766565b909155506122cb905086611901565b15611b4b5760405162461bcd60e51b815260206004820152602360248201527f54686520706f736974696f6e2063616e2774206265206c6971756964617461626044820152626c652160e81b60648201526084016105bd565b600254600090819081906001600160a01b0316331461234257600080fd5b6000868152600b6020526040908190206001810154600282015460035493516372f0b31f60e01b81526001600160a01b038c81166004830152602482018c90529283166044820181905291831660648201819052608482018b905260a482018a90529394919392909116906372f0b31f9060c4016060604051808303816000875af11580156123d5573d6000803e3d6000fd5b505050506040513d601f19601f820116820180604052508101906123f99190613a19565b60039590950180546001600160801b0319166001600160801b038416179055909b909a50929850919650505050505050565b61243482611901565b61248a5760405162461bcd60e51b815260206004820152602160248201527f54686520706f736974696f6e206973206e6f74206c6971756964617461626c656044820152601760f91b60648201526084016105bd565b600061249583611f0c565b9050808210156125255760405162461bcd60e51b815260206004820152604f60248201527f54686520616d6f756e74206f662047484f20746f207265706179206973206e6f60448201527f7420656e6f75676820746f207265696d6275727365207468652064656274206f60648201526e33103a3432903837b9b4ba34b7b71760891b608482015260a4016105bd565b6000838152600b602052604090819020600981015460035492516323b872dd60e01b815291926001600160a01b03918216926323b872dd92612570923392911690879060040161389a565b6020604051808303816000875af115801561258f573d6000803e3d6000fd5b505050506040513d601f19601f820116820180604052508101906125b391906139be565b506003546009820154604051632770a7eb60e21b81526001600160a01b03918216600482015260248101859052911690639dc29fac906044016020604051808303816000875af115801561260b573d6000803e3d6000fd5b505050506040513d601f19601f8201168201806040525081019061262f91906139be565b50600781015460098201546001600160a01b03166000908152600c60205260408120600101805490919061266490849061373a565b909155505060035460405163234b0bed60e21b8152336004820152602481018690526001600160a01b0390911690638d2c2fb490604401600060405180830381600087803b1580156126b557600080fd5b505af11580156126c9573d6000803e3d6000fd5b50505050600601805460ff19166003179055505050565b604080516101a081018252600080825260208201819052918101829052606081018290526080810182905260a0810182905260c0810182905260e0810182905261010081018290526101208101829052610140810182905261016081018290526101808101919091526000828152600b602090815260409182902082516101a08101845281546001600160a01b03908116825260018301548116938201939093526002808301548085169583019590955262ffffff600160a01b8604166060830152600160b81b8504810b6080830152600160d01b90940490930b60a08401526003808201546001600160801b031660c0850152600482015490921660e084015260058101546101008401526006810154909161012084019160ff169081111561280c5761280c6135dc565b600381111561281d5761281d6135dc565b815260078201546020820152600882015460408201526009909101546001600160a01b031660609091015292915050565b61285661299e565b6001600160a01b0381166128bb5760405162461bcd60e51b815260206004820152602660248201527f4f776e61626c653a206e6577206f776e657220697320746865207a65726f206160448201526564647265737360d01b60648201526084016105bd565b6128c4816130b3565b50565b6128ff6040518060a0016040528060008152602001600081526020016000815260200160008152602001600063ffffffff1681525090565b506001600160a01b03166000908152600c6020908152604091829020825160a081018452815481526001820154928101929092526002810154928201929092526003820154606082015260049091015463ffffffff16608082015290565b600061296a8484846129f8565b90506000828061297c5761297c6139db565b848609111561299757600019811061299357600080fd5b6001015b9392505050565b6000546001600160a01b031633146116e25760405162461bcd60e51b815260206004820181905260248201527f4f776e61626c653a2063616c6c6572206973206e6f7420746865206f776e657260448201526064016105bd565b6000808060001985870985870292508281108382030391505080600003612a315760008411612a2657600080fd5b508290049050612997565b808411612a3d57600080fd5b6000848688096000868103871696879004966002600389028118808a02820302808a02820302808a02820302808a02820302808a02820302808a02909103029181900381900460010186841190950394909402919094039290920491909117919091029150509392505050565b6000808263ffffffff16600003612ae85760405162461bcd60e51b8152602060048201526002602482015261042560f41b60448201526064016105bd565b6040805160028082526060820183526000926020830190803683370190505090508381600081518110612b1d57612b1d6138f4565b602002602001019063ffffffff16908163ffffffff1681525050600081600181518110612b4c57612b4c6138f4565b602002602001019063ffffffff16908163ffffffff1681525050600080866001600160a01b031663883bdbfd846040518263ffffffff1660e01b8152600401612b959190613a50565b600060405180830381865afa158015612bb2573d6000803e3d6000fd5b505050506040513d6000823e601f3d908101601f19168201604052612bda9190810190613afe565b91509150600082600081518110612bf357612bf36138f4565b602002602001015183600181518110612c0e57612c0e6138f4565b6020026020010151612c209190613bc0565b9050600082600081518110612c3757612c376138f4565b602002602001015183600181518110612c5257612c526138f4565b6020026020010151612c649190613bed565b9050612c7663ffffffff891683613c0d565b965060008260060b128015612c9c5750612c9663ffffffff891683613c4b565b60060b15155b15612caf5786612cab81613c6d565b9750505b6000612cc86001600160a01b0363ffffffff8b16613c90565b9050612ce5640100000000600160c01b03602084901b1682613cc2565b96505050505050509250929050565b60008060008360020b12612d0b578260020b612d13565b8260020b6000035b9050620d89e8811115612d39576040516315e4079d60e11b815260040160405180910390fd5b600081600116600003612d5057600160801b612d62565b6ffffcb933bd6fad37aa2d162d1a5940015b70ffffffffffffffffffffffffffffffffff1690506002821615612d96576ffff97272373d413259a46990580e213a0260801c5b6004821615612db5576ffff2e50f5f656932ef12357cf3c7fdcc0260801c5b6008821615612dd4576fffe5caca7e10e4e61c3624eaa0941cd00260801c5b6010821615612df3576fffcb9843d60f6159c9db58835c9266440260801c5b6020821615612e12576fff973b41fa98c081472e6896dfb254c00260801c5b6040821615612e31576fff2ea16466c96a3843ec78b326b528610260801c5b6080821615612e50576ffe5dee046a99a2a811c461f1969c30530260801c5b610100821615612e70576ffcbe86c7900a88aedcffc83b479aa3a40260801c5b610200821615612e90576ff987a7253ac413176f2b074cf7815e540260801c5b610400821615612eb0576ff3392b0822b70005940c7a398e4b70f30260801c5b610800821615612ed0576fe7159475a2c29b7443b29c7fa6e889d90260801c5b611000821615612ef0576fd097f3bdfd2022b8845ad8f792aa58250260801c5b612000821615612f10576fa9f746462d870fdf8a65dc1f90e061e50260801c5b614000821615612f30576f70d869a156d2a1b890bb3df62baf32f70260801c5b618000821615612f50576f31be135f97d08fd981231505542fcfa60260801c5b62010000821615612f71576f09aa508b5b7a84e1c677de54f3e99bc90260801c5b62020000821615612f91576e5d6af8dedb81196699c329225ee6040260801c5b62040000821615612fb0576d2216e584f5fa1ea926041bedfe980260801c5b62080000821615612fcd576b048a170391f7dc42444e8fa20260801c5b60008460020b1315612fee578060001981612fea57612fea6139db565b0490505b640100000000810615613002576001613005565b60005b60ff16602082901c0192505050919050565b600080836001600160a01b0316856001600160a01b03161115613038579293925b846001600160a01b0316866001600160a01b0316116130635761305c858585613103565b91506130aa565b836001600160a01b0316866001600160a01b0316101561309c57613088868585613103565b9150613095858785613172565b90506130aa565b6130a7858585613172565b90505b94509492505050565b600080546001600160a01b038381166001600160a01b0319831681178455604051919092169283917f8be0079c531659141344cd1fd0a4f28419497f9722a3daafe3b4186f6b6457e09190a35050565b6000826001600160a01b0316846001600160a01b03161115613123579192915b836001600160a01b031661315c606060ff16846001600160801b0316901b8686036001600160a01b0316866001600160a01b03166129f8565b81613169576131696139db565b04949350505050565b6000826001600160a01b0316846001600160a01b03161115613192579192915b61095d826001600160801b03168585036001600160a01b0316600160601b6129f8565b600080604083850312156131c857600080fd5b50508035926020909101359150565b6001600160a01b03811681146128c457600080fd5b6000602082840312156131fe57600080fd5b8135612997816131d7565b600080600080600060a0868803121561322157600080fd5b853561322c816131d7565b9450602086013561323c816131d7565b9350604086013561324c816131d7565b9250606086013561325c816131d7565b9150608086013561326c816131d7565b809150509295509295909350565b60006020828403121561328c57600080fd5b5035919050565b6000806000606084860312156132a857600080fd5b83356132b3816131d7565b92506020840135915060408401356132ca816131d7565b809150509250925092565b634e487b7160e01b600052604160045260246000fd5b604051601f8201601f1916810167ffffffffffffffff81118282101715613314576133146132d5565b604052919050565b600067ffffffffffffffff821115613336576133366132d5565b5060051b60200190565b600082601f83011261335157600080fd5b813560206133666133618361331c565b6132eb565b82815260059290921b8401810191818101908684111561338557600080fd5b8286015b848110156133a05780358352918301918301613389565b509695505050505050565b600080604083850312156133be57600080fd5b823567ffffffffffffffff808211156133d657600080fd5b6133e286838701613340565b935060208501359150808211156133f857600080fd5b5061340585828601613340565b9150509250929050565b6001600160801b03811681146128c457600080fd5b60008060006060848603121561343957600080fd5b8335613444816131d7565b92506020840135915060408401356132ca8161340f565b6000806040838503121561346e57600080fd5b8235613479816131d7565b946020939093013593505050565b60008082840360c081121561349b57600080fd5b83356134a6816131d7565b925060a0601f19820112156134ba57600080fd5b506020830190509250929050565b80151581146128c457600080fd5b600080600080600080600060e0888a0312156134f157600080fd5b87356134fc816131d7565b9650602088013561350c816131d7565b9550604088013561351c816131d7565b9450606088013561352c816131d7565b9350608088013561353c816131d7565b925060a088013561354c816134c8565b915060c088013561355c816134c8565b8091505092959891949750929550565b60008060006060848603121561358157600080fd5b833561358c816131d7565b95602085013595506040909401359392505050565b600080600080608085870312156135b757600080fd5b84356135c2816131d7565b966020860135965060408601359560600135945092505050565b634e487b7160e01b600052602160045260246000fd5b6004811061361057634e487b7160e01b600052602160045260246000fd5b9052565b81516001600160a01b031681526101a08101602083015161364060208401826001600160a01b03169052565b50604083015161365b60408401826001600160a01b03169052565b506060830151613672606084018262ffffff169052565b506080830151613687608084018260020b9052565b5060a083015161369c60a084018260020b9052565b5060c08301516136b760c08401826001600160801b03169052565b5060e08301516136d260e08401826001600160a01b03169052565b506101008381015190830152610120808401516136f1828501826135f2565b505061014083810151908301526101608084015190830152610180928301516001600160a01b0316929091019190915290565b634e487b7160e01b600052601160045260246000fd5b8181038181111561212757612127613724565b60006020828403121561375f57600080fd5b5051919050565b8082018082111561212757612127613724565b8051613784816131d7565b919050565b805162ffffff8116811461378457600080fd5b8051600281900b811461378457600080fd5b80516137848161340f565b6000806000806000806000806000806000806101808d8f0312156137dc57600080fd5b8c516bffffffffffffffffffffffff811681146137f857600080fd5b9b5061380660208e01613779565b9a5061381460408e01613779565b995061382260608e01613779565b985061383060808e01613789565b975061383e60a08e0161379c565b965061384c60c08e0161379c565b955061385a60e08e016137ae565b94506101008d015193506101208d015192506138796101408e016137ae565b91506138886101608e016137ae565b90509295989b509295989b509295989b565b6001600160a01b039384168152919092166020820152604081019190915260600190565b6000602082840312156138d057600080fd5b8151612997816131d7565b6000600182016138ed576138ed613724565b5060010190565b634e487b7160e01b600052603260045260246000fd5b600063ffffffff80831681810361299357612993613724565b6000806040838503121561393657600080fd5b505080516020909101519092909150565b6001600160801b0382811682821603908082111561396757613967613724565b5092915050565b8135815560208201356001820155604082013560028201556060820135600382015560048101608083013563ffffffff81168082146139ac57600080fd5b825463ffffffff191617909155505050565b6000602082840312156139d057600080fd5b8151612997816134c8565b634e487b7160e01b600052601260045260246000fd5b600082613a0057613a006139db565b500490565b600082613a1457613a146139db565b500690565b600080600060608486031215613a2e57600080fd5b8351613a398161340f565b602085015160409095015190969495509392505050565b6020808252825182820181905260009190848201906040850190845b81811015613a8e57835163ffffffff1683529284019291840191600101613a6c565b50909695505050505050565b600082601f830112613aab57600080fd5b81516020613abb6133618361331c565b82815260059290921b84018101918181019086841115613ada57600080fd5b8286015b848110156133a0578051613af1816131d7565b8352918301918301613ade565b60008060408385031215613b1157600080fd5b825167ffffffffffffffff80821115613b2957600080fd5b818501915085601f830112613b3d57600080fd5b81516020613b4d6133618361331c565b82815260059290921b84018101918181019089841115613b6c57600080fd5b948201945b83861015613b9a5785518060060b8114613b8b5760008081fd5b82529482019490820190613b71565b91880151919650909350505080821115613bb357600080fd5b5061340585828601613a9a565b600682810b9082900b03667fffffffffffff198112667fffffffffffff8213171561212757612127613724565b6001600160a01b0382811682821603908082111561396757613967613724565b60008160060b8360060b80613c2457613c246139db565b667fffffffffffff19821460001982141615613c4257613c42613724565b90059392505050565b60008260060b80613c5e57613c5e6139db565b808360060b0791505092915050565b60008160020b627fffff198103613c8657613c86613724565b6000190192915050565b6001600160c01b03828116828216818102831692918115828504821417613cb957613cb9613724565b50505092915050565b60006001600160c01b0383811680613cdc57613cdc6139db565b9216919091049291505056fea2646970667358221220f2baef3ce4e650600b442a3a3baa8e934d898cdf300601f1ea9f220cacbcd0b064736f6c63430008110033",
    "linkReferences": {}
  },
  "methodIdentifiers": {
    "addAssetsValuesToProtocol(address,(uint256,uint256,uint256,uint256,uint32))": "787b0b7f",
    "addPoolToProtocol(address,address,address,address,address,bool,bool)": "8c70cb52",
    "allDebtComponentsOf(uint256)": "3b687778",
    "batchliquidate(uint256[],uint256[])": "415203c9",
    "borrow(address,uint256,uint256)": "c1bce0b7",
    "closePosition(address,uint256)": "742fe1f8",
    "collRatioOf(uint256)": "35bf5055",
    "debtOf(uint256)": "bd7be5a4",
    "debtOfInETH(uint256)": "27dc3c34",
    "deposit(address,uint256,uint256,uint256)": "ce88b439",
    "getAssetsValues(address)": "f8e0a111",
    "getPosition(uint256)": "eb02c301",
    "getRiskConstants(address)": "ed4ce299",
    "initialize(address,address,address,address,address)": "1459457a",
    "liquidatable(uint256)": "7d751896",
    "liquidatePosition(uint256,uint256)": "d3c4e4a6",
    "liquidateUnderlyings(uint256,uint256)": "04837282",
    "openPosition(address,uint256,address)": "3a41b2e7",
    "owner()": "8da5cb5b",
    "positionAmounts(uint256)": "44913c53",
    "positionValueInETH(uint256)": "190f7867",
    "power(uint256,uint256)": "c04f01fc",
    "protocolContracts()": "785434af",
    "refreshDebtTracking(address)": "0517c6e9",
    "renounceOwnership()": "715018a6",
    "repay(address,uint256,uint256)": "8cd2e0c7",
    "totalDebtOf(address)": "9f2b2833",
    "totalPositionsValueInETH(address)": "63d081f7",
    "transferOwnership(address)": "f2fde38b",
    "updateRiskConstants(address,uint256)": "9470d452",
    "withdraw(address,uint256,uint128)": "72bef582"
  },
  "id": 1
}