{
  "abi": [
    {
      "inputs": [],
      "name": "AmountShouldBePositive",
      "type": "error"
    },
    {
      "inputs": [
        {
          "internalType": "uint256",
          "name": "_amount",
          "type": "uint256"
        },
        {
          "internalType": "uint256",
          "name": "_debt",
          "type": "uint256"
        }
      ],
      "name": "CannotRepayMoreThanDebt",
      "type": "error"
    },
    {
      "inputs": [
        {
          "internalType": "uint256",
          "name": "debt",
          "type": "uint256"
        }
      ],
      "name": "DebtIsNotPaid",
      "type": "error"
    },
    {
      "inputs": [
        {
          "internalType": "uint256",
          "name": "_amount",
          "type": "uint256"
        },
        {
          "internalType": "uint256",
          "name": "_liquidity",
          "type": "uint256"
        }
      ],
      "name": "MustRemoveLessLiquidity",
      "type": "error"
    },
    {
      "inputs": [
        {
          "internalType": "uint256",
          "name": "_tokenId",
          "type": "uint256"
        }
      ],
      "name": "NotOwnerOfPosition",
      "type": "error"
    },
    {
      "inputs": [],
      "name": "PositionILiquidatable",
      "type": "error"
    },
    {
      "inputs": [
        {
          "internalType": "uint256",
          "name": "_tokenId",
          "type": "uint256"
        }
      ],
      "name": "PositionIsAlreadyActive",
      "type": "error"
    },
    {
      "inputs": [
        {
          "internalType": "uint256",
          "name": "_tokenId",
          "type": "uint256"
        }
      ],
      "name": "PositionIsNotActiveOrIsClosed",
      "type": "error"
    },
    {
      "inputs": [],
      "name": "SupplyNotAvailable",
      "type": "error"
    },
    {
      "anonymous": false,
      "inputs": [
        {
          "indexed": false,
          "internalType": "address",
          "name": "_activePoolAddress",
          "type": "address"
        }
      ],
      "name": "ActivePoolAddressChanged",
      "type": "event"
    },
    {
      "anonymous": false,
      "inputs": [
        {
          "indexed": false,
          "internalType": "uint256",
          "name": "_tokenId",
          "type": "uint256"
        },
        {
          "indexed": false,
          "internalType": "uint128",
          "name": "_liquidity",
          "type": "uint128"
        },
        {
          "indexed": false,
          "internalType": "uint256",
          "name": "_amountAdd0",
          "type": "uint256"
        },
        {
          "indexed": false,
          "internalType": "uint256",
          "name": "_amountAdd1",
          "type": "uint256"
        }
      ],
      "name": "AddedCollateral",
      "type": "event"
    },
    {
      "anonymous": false,
      "inputs": [
        {
          "indexed": false,
          "internalType": "address",
          "name": "_borrower",
          "type": "address"
        },
        {
          "indexed": false,
          "internalType": "uint256",
          "name": "_tokenId",
          "type": "uint256"
        }
      ],
      "name": "ClosedPosition",
      "type": "event"
    },
    {
      "anonymous": false,
      "inputs": [
        {
          "indexed": false,
          "internalType": "address",
          "name": "_GHOTokenAddress",
          "type": "address"
        }
      ],
      "name": "GHOTokenAddressChanged",
      "type": "event"
    },
    {
      "anonymous": false,
      "inputs": [
        {
          "indexed": false,
          "internalType": "address",
          "name": "_newLPPositionsManagerAddress",
          "type": "address"
        }
      ],
      "name": "LPPositionsManagerAddressChanged",
      "type": "event"
    },
    {
      "anonymous": false,
      "inputs": [
        {
          "indexed": false,
          "internalType": "address",
          "name": "_borrower",
          "type": "address"
        },
        {
          "indexed": false,
          "internalType": "uint256",
          "name": "_tokenId",
          "type": "uint256"
        }
      ],
      "name": "OpenedPosition",
      "type": "event"
    },
    {
      "anonymous": false,
      "inputs": [
        {
          "indexed": true,
          "internalType": "address",
          "name": "previousOwner",
          "type": "address"
        },
        {
          "indexed": true,
          "internalType": "address",
          "name": "newOwner",
          "type": "address"
        }
      ],
      "name": "OwnershipTransferred",
      "type": "event"
    },
    {
      "anonymous": false,
      "inputs": [
        {
          "indexed": false,
          "internalType": "uint256",
          "name": "_tokenId",
          "type": "uint256"
        },
        {
          "indexed": false,
          "internalType": "uint128",
          "name": "_liquidity",
          "type": "uint128"
        },
        {
          "indexed": false,
          "internalType": "uint256",
          "name": "_amount0",
          "type": "uint256"
        },
        {
          "indexed": false,
          "internalType": "uint256",
          "name": "_amount1",
          "type": "uint256"
        }
      ],
      "name": "RemovedCollateral",
      "type": "event"
    },
    {
      "anonymous": false,
      "inputs": [
        {
          "indexed": false,
          "internalType": "address",
          "name": "_borrower",
          "type": "address"
        },
        {
          "indexed": false,
          "internalType": "uint256",
          "name": "_GHOAmount",
          "type": "uint256"
        },
        {
          "indexed": false,
          "internalType": "uint256",
          "name": "_tokenId",
          "type": "uint256"
        }
      ],
      "name": "RepaidGHO",
      "type": "event"
    },
    {
      "anonymous": false,
      "inputs": [
        {
          "indexed": false,
          "internalType": "address",
          "name": "_borrower",
          "type": "address"
        },
        {
          "indexed": false,
          "internalType": "uint256",
          "name": "_GHOAmount",
          "type": "uint256"
        },
        {
          "indexed": false,
          "internalType": "uint256",
          "name": "_tokenId",
          "type": "uint256"
        }
      ],
      "name": "WithdrawnGHO",
      "type": "event"
    },
    {
      "inputs": [
        {
          "internalType": "uint256",
          "name": "tokenId",
          "type": "uint256"
        },
        {
          "internalType": "uint256",
          "name": "amountAdd0",
          "type": "uint256"
        },
        {
          "internalType": "uint256",
          "name": "amountAdd1",
          "type": "uint256"
        }
      ],
      "name": "addCollateral",
      "outputs": [
        {
          "internalType": "uint128",
          "name": "liquidity",
          "type": "uint128"
        },
        {
          "internalType": "uint256",
          "name": "amount0",
          "type": "uint256"
        },
        {
          "internalType": "uint256",
          "name": "amount1",
          "type": "uint256"
        }
      ],
      "stateMutability": "nonpayable",
      "type": "function"
    },
    {
      "inputs": [
        {
          "internalType": "uint256",
          "name": "_GHOAmount",
          "type": "uint256"
        },
        {
          "internalType": "uint256",
          "name": "_tokenId",
          "type": "uint256"
        }
      ],
      "name": "borrowGHO",
      "outputs": [],
      "stateMutability": "payable",
      "type": "function"
    },
    {
      "inputs": [
        {
          "internalType": "uint256",
          "name": "_tokenId",
          "type": "uint256"
        }
      ],
      "name": "closePosition",
      "outputs": [],
      "stateMutability": "nonpayable",
      "type": "function"
    },
    {
      "inputs": [
        {
          "internalType": "uint256",
          "name": "_tokenId",
          "type": "uint256"
        }
      ],
      "name": "openPosition",
      "outputs": [],
      "stateMutability": "nonpayable",
      "type": "function"
    },
    {
      "inputs": [],
      "name": "owner",
      "outputs": [
        {
          "internalType": "address",
          "name": "",
          "type": "address"
        }
      ],
      "stateMutability": "view",
      "type": "function"
    },
    {
      "inputs": [
        {
          "internalType": "uint256",
          "name": "_tokenId",
          "type": "uint256"
        },
        {
          "internalType": "uint128",
          "name": "_liquidityToRemove",
          "type": "uint128"
        }
      ],
      "name": "removeCollateral",
      "outputs": [
        {
          "internalType": "uint256",
          "name": "amount0",
          "type": "uint256"
        },
        {
          "internalType": "uint256",
          "name": "amount1",
          "type": "uint256"
        }
      ],
      "stateMutability": "nonpayable",
      "type": "function"
    },
    {
      "inputs": [],
      "name": "renounceOwnership",
      "outputs": [],
      "stateMutability": "nonpayable",
      "type": "function"
    },
    {
      "inputs": [
        {
          "internalType": "uint256",
          "name": "_GHOAmount",
          "type": "uint256"
        },
        {
          "internalType": "uint256",
          "name": "_tokenId",
          "type": "uint256"
        }
      ],
      "name": "repayGHO",
      "outputs": [],
      "stateMutability": "nonpayable",
      "type": "function"
    },
    {
      "inputs": [
        {
          "internalType": "address",
          "name": "_lpPositionsManagerAddress",
          "type": "address"
        },
        {
          "internalType": "address",
          "name": "_activePoolAddress",
          "type": "address"
        },
        {
          "internalType": "address",
          "name": "_GHOTokenAddress",
          "type": "address"
        }
      ],
      "name": "setAddresses",
      "outputs": [],
      "stateMutability": "nonpayable",
      "type": "function"
    },
    {
      "inputs": [
        {
          "internalType": "address",
          "name": "newOwner",
          "type": "address"
        }
      ],
      "name": "transferOwnership",
      "outputs": [],
      "stateMutability": "nonpayable",
      "type": "function"
    }
  ],
  "bytecode": {
    "object": "0x608060405234801561001057600080fd5b5061001a33610023565b60018055610073565b600080546001600160a01b038381166001600160a01b0319831681178455604051919092169283917f8be0079c531659141344cd1fd0a4f28419497f9722a3daafe3b4186f6b6457e09190a35050565b611d02806100826000396000f3fe6080604052600436106100915760003560e01c80638da5cb5b116100595780638da5cb5b1461013a57806399ff820314610162578063a126d60114610182578063c861c6e6146101a2578063f2fde38b146101e757600080fd5b8063363bf96414610096578063412de244146100b85780635f07dcd4146100f2578063715018a6146101055780637c6aad581461011a575b600080fd5b3480156100a257600080fd5b506100b66100b13660046118b4565b610207565b005b3480156100c457600080fd5b506100d86100d3366004611914565b6102fb565b604080519283526020830191909152015b60405180910390f35b6100b6610100366004611944565b610797565b34801561011157600080fd5b506100b6610b55565b34801561012657600080fd5b506100b6610135366004611944565b610b69565b34801561014657600080fd5b506000546040516001600160a01b0390911681526020016100e9565b34801561016e57600080fd5b506100b661017d366004611966565b610f09565b34801561018e57600080fd5b506100b661019d366004611966565b6110f0565b3480156101ae57600080fd5b506101c26101bd36600461197f565b6113d2565b604080516001600160801b0390941684526020840192909252908201526060016100e9565b3480156101f357600080fd5b506100b66102023660046119ab565b611723565b61020f61179c565b600380546001600160a01b038581166001600160a01b031992831681179093556002805486831690841617905560048054918516919092161790556040519081527fca22f0accfacdc2ef491a88279142950b7e7f2b23c1b4c706f4eedf1653b1d6f9060200160405180910390a16040516001600160a01b03831681527f78f058b189175430c48dc02699e3a0031ea4ff781536dc2fab847de4babdd8829060200160405180910390a16040516001600160a01b03821681527fc546ec9f5e90a71be085471060fe161596d35a6173a7547b4301f9aa86c24142906020015b60405180910390a1505050565b6000806103066117f6565b83600160035460405163eb02c30160e01b8152600481018490526001600160a01b039091169063eb02c3019060240161018060405180830381865afa158015610353573d6000803e3d6000fd5b505050506040513d601f19601f820116820180604052508101906103779190611a6c565b6101200151600381111561038d5761038d6119cf565b146103b35760405163162849b360e31b8152600481018290526024015b60405180910390fd5b60035460405163eb02c30160e01b8152600481018790528691339182916001600160a01b03169063eb02c3019060240161018060405180830381865afa158015610401573d6000803e3d6000fd5b505050506040513d601f19601f820116820180604052508101906104259190611a6c565b516001600160a01b031614610450576040516307fbd4f360e11b8152600481018390526024016103aa565b60035460405163eb02c30160e01b8152600481018990526000916001600160a01b03169063eb02c3019060240161018060405180830381865afa15801561049b573d6000803e3d6000fd5b505050506040513d601f19601f820116820180604052508101906104bf9190611a6c565b90508060c001516001600160801b0316876001600160801b031611156105115760c081015160405163272afba160e21b81526001600160801b03808a16600483015290911660248201526044016103aa565b6002546040516303f8d17b60e21b8152600481018a90526001600160801b03891660248201523360448201526001600160a01b0390911690630fe345ec9060640160408051808303816000875af1158015610570573d6000803e3d6000fd5b505050506040513d601f19601f820116820180604052508101906105949190611b45565b5050600354604051633eba8c4b60e11b8152600481018a90526001600160a01b0390911690637d751896906024016020604051808303816000875af11580156105e1573d6000803e3d6000fd5b505050506040513d601f19601f820116820180604052508101906106059190611b69565b156106225760405162461bcd60e51b81526004016103aa90611b8b565b6002546040516303f8d17b60e21b8152600481018a90526001600160801b03891660248201523360448201526001600160a01b0390911690630fe345ec9060640160408051808303816000875af1158015610681573d6000803e3d6000fd5b505050506040513d601f19601f820116820180604052508101906106a59190611b45565b5050600354604051633eba8c4b60e11b8152600481018a90526001600160a01b0390911690637d751896906024016020604051808303816000875af11580156106f2573d6000803e3d6000fd5b505050506040513d601f19601f820116820180604052508101906107169190611b69565b156107335760405162461bcd60e51b81526004016103aa90611b8b565b604080518981526001600160801b0389166020820152908101879052606081018690527f45b564f0b0bbe47be0543ce1ae1d2eba610d8f3b44ccad8bdd530a4f063262129060800160405180910390a15050505061079060018055565b9250929050565b61079f6117f6565b80600160035460405163eb02c30160e01b8152600481018490526001600160a01b039091169063eb02c3019060240161018060405180830381865afa1580156107ec573d6000803e3d6000fd5b505050506040513d601f19601f820116820180604052508101906108109190611a6c565b61012001516003811115610826576108266119cf565b146108475760405163162849b360e31b8152600481018290526024016103aa565b60035460405163eb02c30160e01b8152600481018490528391339182916001600160a01b03169063eb02c3019060240161018060405180830381865afa158015610895573d6000803e3d6000fd5b505050506040513d601f19601f820116820180604052508101906108b99190611a6c565b516001600160a01b0316146108e4576040516307fbd4f360e11b8152600481018390526024016103aa565b6000851161090557604051631382457760e11b815260040160405180910390fd5b600260009054906101000a90046001600160a01b03166001600160a01b0316634c0f38c26040518163ffffffff1660e01b8152600401602060405180830381865afa158015610958573d6000803e3d6000fd5b505050506040513d601f19601f8201168201806040525081019061097c9190611bf4565b600254604080516379089dad60e11b8152905188926001600160a01b03169163f2113b5a9160048083019260209291908290030181865afa1580156109c5573d6000803e3d6000fd5b505050506040513d601f19601f820116820180604052508101906109e99190611bf4565b6109f39190611c23565b1115610a12576040516337cff56360e01b815260040160405180910390fd5b6003546040516330950ddb60e21b815260048101869052602481018790526001600160a01b039091169063c254376c90604401600060405180830381600087803b158015610a5f57600080fd5b505af1158015610a73573d6000803e3d6000fd5b5050600354604051633eba8c4b60e11b8152600481018890526001600160a01b039091169250637d75189691506024016020604051808303816000875af1158015610ac2573d6000803e3d6000fd5b505050506040513d601f19601f82011682018060405250810190610ae69190611b69565b15610b0457604051636dac06f960e01b815260040160405180910390fd5b60408051338152602081018790529081018590527f20a9ef2e566b762b67b22730a425210423c3e6f8076175e629344561476a60b39060600160405180910390a1505050610b5160018055565b5050565b610b5d61179c565b610b67600061184f565b565b610b716117f6565b80600160035460405163eb02c30160e01b8152600481018490526001600160a01b039091169063eb02c3019060240161018060405180830381865afa158015610bbe573d6000803e3d6000fd5b505050506040513d601f19601f82011682018060405250810190610be29190611a6c565b61012001516003811115610bf857610bf86119cf565b14610c195760405163162849b360e31b8152600481018290526024016103aa565b60035460405163eb02c30160e01b8152600481018490528391339182916001600160a01b03169063eb02c3019060240161018060405180830381865afa158015610c67573d6000803e3d6000fd5b505050506040513d601f19601f82011682018060405250810190610c8b9190611a6c565b516001600160a01b031614610cb6576040516307fbd4f360e11b8152600481018390526024016103aa565b600354604051632f5ef96960e21b8152600481018690526001600160a01b039091169063bd7be5a4906024016020604051808303816000875af1158015610d01573d6000803e3d6000fd5b505050506040513d601f19601f82011682018060405250810190610d259190611bf4565b851115610dbd57600354604051632f5ef96960e21b81526004810186905286916001600160a01b03169063bd7be5a4906024016020604051808303816000875af1158015610d77573d6000803e3d6000fd5b505050506040513d601f19601f82011682018060405250810190610d9b9190611bf4565b60405163d443138b60e01b8152600481019290925260248201526044016103aa565b60008511610dde57604051631382457760e11b815260040160405180910390fd5b60035460405163f90af84360e01b815260048101869052602481018790526000916001600160a01b03169063f90af843906044016020604051808303816000875af1158015610e31573d6000803e3d6000fd5b505050506040513d601f19601f82011682018060405250810190610e559190611bf4565b6002546040516341ec3a8560e01b8152336004820152602481018390529192506001600160a01b0316906341ec3a8590604401600060405180830381600087803b158015610ea257600080fd5b505af1158015610eb6573d6000803e3d6000fd5b505060408051338152602081018a90529081018890527f9a09ac31c6e62f36f7615038a9b674a11d679c68946c77d64eeff3630297a6889250606001905060405180910390a150505050610b5160018055565b80600160035460405163eb02c30160e01b8152600481018490526001600160a01b039091169063eb02c3019060240161018060405180830381865afa158015610f56573d6000803e3d6000fd5b505050506040513d601f19601f82011682018060405250810190610f7a9190611a6c565b61012001516003811115610f9057610f906119cf565b03610fb1576040516302f9cdcd60e01b8152600481018290526024016103aa565b6002546040516323b872dd60e01b81523360048201526001600160a01b0390911660248201526044810183905273c36442b4a4522e871399cd717abdd847ab11fe88906323b872dd90606401600060405180830381600087803b15801561101757600080fd5b505af115801561102b573d6000803e3d6000fd5b5050604080516060810182526003546001600160a01b03908116808352600254821660208401526004805490921683850152925163065e25ff60e21b815233918101919091526024810187905290935090915063197897fc90604401600060405180830381600087803b1580156110a157600080fd5b505af11580156110b5573d6000803e3d6000fd5b505060408051338152602081018790527f88211e5e51329f4afd00f215661fc24f92bc2afdd30b6c391b9f8bdd0b371ec293500190506102ee565b80600160035460405163eb02c30160e01b8152600481018490526001600160a01b039091169063eb02c3019060240161018060405180830381865afa15801561113d573d6000803e3d6000fd5b505050506040513d601f19601f820116820180604052508101906111619190611a6c565b61012001516003811115611177576111776119cf565b146111985760405163162849b360e31b8152600481018290526024016103aa565b60035460405163eb02c30160e01b8152600481018490528391339182916001600160a01b03169063eb02c3019060240161018060405180830381865afa1580156111e6573d6000803e3d6000fd5b505050506040513d601f19601f8201168201806040525081019061120a9190611a6c565b516001600160a01b031614611235576040516307fbd4f360e11b8152600481018390526024016103aa565b600354604051632f5ef96960e21b8152600481018690526000916001600160a01b03169063bd7be5a4906024016020604051808303816000875af1158015611281573d6000803e3d6000fd5b505050506040513d601f19601f820116820180604052508101906112a59190611bf4565b905080156112c95760405163541e4b7f60e11b8152600481018290526024016103aa565b600254604051634f5e933f60e01b8152336004820152602481018790526001600160a01b0390911690634f5e933f90604401600060405180830381600087803b15801561131557600080fd5b505af1158015611329573d6000803e3d6000fd5b5050600354604051631455249360e11b81526001600160a01b0390911692506328aa49269150611360908890600290600401611c3c565b600060405180830381600087803b15801561137a57600080fd5b505af115801561138e573d6000803e3d6000fd5b505060408051338152602081018990527e7ad9549f5f80c274c739b9a69d3d4a9b04e3d2cf2b580837ecb042bd0e734f935001905060405180910390a15050505050565b60008060006113df6117f6565b85600160035460405163eb02c30160e01b8152600481018490526001600160a01b039091169063eb02c3019060240161018060405180830381865afa15801561142c573d6000803e3d6000fd5b505050506040513d601f19601f820116820180604052508101906114509190611a6c565b61012001516003811115611466576114666119cf565b146114875760405163162849b360e31b8152600481018290526024016103aa565b60035460405163eb02c30160e01b8152600481018990528891339182916001600160a01b03169063eb02c3019060240161018060405180830381865afa1580156114d5573d6000803e3d6000fd5b505050506040513d601f19601f820116820180604052508101906114f99190611a6c565b516001600160a01b031614611524576040516307fbd4f360e11b8152600481018390526024016103aa565b87158061152f575086155b1561154d57604051631382457760e11b815260040160405180910390fd5b60025460405163297fabf560e01b8152336004820152602481018b9052604481018a9052606481018990526001600160a01b039091169063297fabf5906084016060604051808303816000875af11580156115ac573d6000803e3d6000fd5b505050506040513d601f19601f820116820180604052508101906115d09190611c6e565b60035460405163eb02c30160e01b8152600481018e905293995091975095506001600160a01b0316906323f0f0af908b908990849063eb02c3019060240161018060405180830381865afa15801561162c573d6000803e3d6000fd5b505050506040513d601f19601f820116820180604052508101906116509190611a6c565b60c0015161165e9190611ca5565b6040516001600160e01b031960e085901b16815260048101929092526001600160801b03166024820152604401600060405180830381600087803b1580156116a557600080fd5b505af11580156116b9573d6000803e3d6000fd5b5050604080518c81526001600160801b038a166020820152908101889052606081018790527f6d546c13142e758dd0fa5ab7facb920c0216410a5ab04ee9ea15412e44e76c509250608001905060405180910390a150505061171a60018055565b93509350939050565b61172b61179c565b6001600160a01b0381166117905760405162461bcd60e51b815260206004820152602660248201527f4f776e61626c653a206e6577206f776e657220697320746865207a65726f206160448201526564647265737360d01b60648201526084016103aa565b6117998161184f565b50565b6000546001600160a01b03163314610b675760405162461bcd60e51b815260206004820181905260248201527f4f776e61626c653a2063616c6c6572206973206e6f7420746865206f776e657260448201526064016103aa565b6002600154036118485760405162461bcd60e51b815260206004820152601f60248201527f5265656e7472616e637947756172643a207265656e7472616e742063616c6c0060448201526064016103aa565b6002600155565b600080546001600160a01b038381166001600160a01b0319831681178455604051919092169283917f8be0079c531659141344cd1fd0a4f28419497f9722a3daafe3b4186f6b6457e09190a35050565b6001600160a01b038116811461179957600080fd5b6000806000606084860312156118c957600080fd5b83356118d48161189f565b925060208401356118e48161189f565b915060408401356118f48161189f565b809150509250925092565b6001600160801b038116811461179957600080fd5b6000806040838503121561192757600080fd5b823591506020830135611939816118ff565b809150509250929050565b6000806040838503121561195757600080fd5b50508035926020909101359150565b60006020828403121561197857600080fd5b5035919050565b60008060006060848603121561199457600080fd5b505081359360208301359350604090920135919050565b6000602082840312156119bd57600080fd5b81356119c88161189f565b9392505050565b634e487b7160e01b600052602160045260246000fd5b604051610180810167ffffffffffffffff81118282101715611a1757634e487b7160e01b600052604160045260246000fd5b60405290565b8051611a288161189f565b919050565b805162ffffff81168114611a2857600080fd5b8051600281900b8114611a2857600080fd5b8051611a28816118ff565b805160048110611a2857600080fd5b60006101808284031215611a7f57600080fd5b611a876119e5565b611a9083611a1d565b8152611a9e60208401611a1d565b6020820152611aaf60408401611a1d565b6040820152611ac060608401611a2d565b6060820152611ad160808401611a40565b6080820152611ae260a08401611a40565b60a0820152611af360c08401611a52565b60c0820152611b0460e08401611a1d565b60e08201526101008381015190820152610120611b22818501611a5d565b908201526101408381015190820152610160928301519281019290925250919050565b60008060408385031215611b5857600080fd5b505080516020909101519092909150565b600060208284031215611b7b57600080fd5b815180151581146119c857600080fd5b60208082526043908201527f436f6c6c61746572616c20526174696f2063616e6e6f74206265206c6f77657260408201527f207468616e20746865206d696e696d756d20636f6c6c61746572616c2072617460608201526234b79760e91b608082015260a00190565b600060208284031215611c0657600080fd5b5051919050565b634e487b7160e01b600052601160045260246000fd5b80820180821115611c3657611c36611c0d565b92915050565b8281526040810160048310611c6157634e487b7160e01b600052602160045260246000fd5b8260208301529392505050565b600080600060608486031215611c8357600080fd5b8351611c8e816118ff565b602085015160409095015190969495509392505050565b6001600160801b03818116838216019080821115611cc557611cc5611c0d565b509291505056fea26469706673582212202e32e19783235b8acf7840bb4faf01261591550e1dc265ce354880900a99f3f564736f6c63430008110033",
    "linkReferences": {}
  },
  "methodIdentifiers": {
    "addCollateral(uint256,uint256,uint256)": "c861c6e6",
    "borrowGHO(uint256,uint256)": "5f07dcd4",
    "closePosition(uint256)": "a126d601",
    "openPosition(uint256)": "99ff8203",
    "owner()": "8da5cb5b",
    "removeCollateral(uint256,uint128)": "412de244",
    "renounceOwnership()": "715018a6",
    "repayGHO(uint256,uint256)": "7c6aad58",
    "setAddresses(address,address,address)": "363bf964",
    "transferOwnership(address)": "f2fde38b"
  },
  "id": 1
}