{
  "abi": [
    {
      "inputs": [],
      "name": "AmountShouldBePositive",
      "type": "error"
    },
    {
      "inputs": [
        {
          "internalType": "uint256",
          "name": "_amount",
          "type": "uint256"
        },
        {
          "internalType": "uint256",
          "name": "_debt",
          "type": "uint256"
        }
      ],
      "name": "CannotRepayMoreThanDebt",
      "type": "error"
    },
    {
      "inputs": [
        {
          "internalType": "uint256",
          "name": "debt",
          "type": "uint256"
        }
      ],
      "name": "DebtIsNotPaid",
      "type": "error"
    },
    {
      "inputs": [
        {
          "internalType": "uint256",
          "name": "_amount",
          "type": "uint256"
        },
        {
          "internalType": "uint256",
          "name": "_liquidity",
          "type": "uint256"
        }
      ],
      "name": "MustRemoveLessLiquidity",
      "type": "error"
    },
    {
      "inputs": [
        {
          "internalType": "uint256",
          "name": "_tokenId",
          "type": "uint256"
        }
      ],
      "name": "NotOwnerOfPosition",
      "type": "error"
    },
    {
      "inputs": [],
      "name": "PositionILiquidatable",
      "type": "error"
    },
    {
      "inputs": [
        {
          "internalType": "uint256",
          "name": "_tokenId",
          "type": "uint256"
        }
      ],
      "name": "PositionIsAlreadyActive",
      "type": "error"
    },
    {
      "inputs": [
        {
          "internalType": "uint256",
          "name": "_tokenId",
          "type": "uint256"
        }
      ],
      "name": "PositionIsNotActiveOrIsClosed",
      "type": "error"
    },
    {
      "inputs": [],
      "name": "SupplyNotAvailable",
      "type": "error"
    },
    {
      "anonymous": false,
      "inputs": [
        {
          "indexed": false,
          "internalType": "address",
          "name": "_activePoolAddress",
          "type": "address"
        }
      ],
      "name": "ActivePoolAddressChanged",
      "type": "event"
    },
    {
      "anonymous": false,
      "inputs": [
        {
          "indexed": false,
          "internalType": "uint256",
          "name": "_tokenId",
          "type": "uint256"
        },
        {
          "indexed": false,
          "internalType": "uint128",
          "name": "_liquidity",
          "type": "uint128"
        },
        {
          "indexed": false,
          "internalType": "uint256",
          "name": "_amountAdd0",
          "type": "uint256"
        },
        {
          "indexed": false,
          "internalType": "uint256",
          "name": "_amountAdd1",
          "type": "uint256"
        }
      ],
      "name": "AddedCollateral",
      "type": "event"
    },
    {
      "anonymous": false,
      "inputs": [
        {
          "indexed": false,
          "internalType": "address",
          "name": "_borrower",
          "type": "address"
        },
        {
          "indexed": false,
          "internalType": "uint256",
          "name": "_tokenId",
          "type": "uint256"
        }
      ],
      "name": "ClosedPosition",
      "type": "event"
    },
    {
      "anonymous": false,
      "inputs": [
        {
          "indexed": false,
          "internalType": "address",
          "name": "_GHOTokenAddress",
          "type": "address"
        }
      ],
      "name": "GHOTokenAddressChanged",
      "type": "event"
    },
    {
      "anonymous": false,
      "inputs": [
        {
          "indexed": false,
          "internalType": "address",
          "name": "_newLPPositionsManagerAddress",
          "type": "address"
        }
      ],
      "name": "LPPositionsManagerAddressChanged",
      "type": "event"
    },
    {
      "anonymous": false,
      "inputs": [
        {
          "indexed": false,
          "internalType": "address",
          "name": "_borrower",
          "type": "address"
        },
        {
          "indexed": false,
          "internalType": "uint256",
          "name": "_tokenId",
          "type": "uint256"
        }
      ],
      "name": "OpenedPosition",
      "type": "event"
    },
    {
      "anonymous": false,
      "inputs": [
        {
          "indexed": true,
          "internalType": "address",
          "name": "previousOwner",
          "type": "address"
        },
        {
          "indexed": true,
          "internalType": "address",
          "name": "newOwner",
          "type": "address"
        }
      ],
      "name": "OwnershipTransferred",
      "type": "event"
    },
    {
      "anonymous": false,
      "inputs": [
        {
          "indexed": false,
          "internalType": "uint256",
          "name": "_tokenId",
          "type": "uint256"
        },
        {
          "indexed": false,
          "internalType": "uint128",
          "name": "_liquidity",
          "type": "uint128"
        },
        {
          "indexed": false,
          "internalType": "uint256",
          "name": "_amount0",
          "type": "uint256"
        },
        {
          "indexed": false,
          "internalType": "uint256",
          "name": "_amount1",
          "type": "uint256"
        }
      ],
      "name": "RemovedCollateral",
      "type": "event"
    },
    {
      "anonymous": false,
      "inputs": [
        {
          "indexed": false,
          "internalType": "address",
          "name": "_borrower",
          "type": "address"
        },
        {
          "indexed": false,
          "internalType": "uint256",
          "name": "_GHOAmount",
          "type": "uint256"
        },
        {
          "indexed": false,
          "internalType": "uint256",
          "name": "_tokenId",
          "type": "uint256"
        }
      ],
      "name": "RepaidGHO",
      "type": "event"
    },
    {
      "anonymous": false,
      "inputs": [
        {
          "indexed": false,
          "internalType": "address",
          "name": "_borrower",
          "type": "address"
        },
        {
          "indexed": false,
          "internalType": "uint256",
          "name": "_GHOAmount",
          "type": "uint256"
        },
        {
          "indexed": false,
          "internalType": "uint256",
          "name": "_tokenId",
          "type": "uint256"
        }
      ],
      "name": "WithdrawnGHO",
      "type": "event"
    },
    {
      "inputs": [
        {
          "internalType": "uint256",
          "name": "tokenId",
          "type": "uint256"
        },
        {
          "internalType": "uint256",
          "name": "amountAdd0",
          "type": "uint256"
        },
        {
          "internalType": "uint256",
          "name": "amountAdd1",
          "type": "uint256"
        }
      ],
      "name": "addCollateral",
      "outputs": [
        {
          "internalType": "uint128",
          "name": "liquidity",
          "type": "uint128"
        },
        {
          "internalType": "uint256",
          "name": "amount0",
          "type": "uint256"
        },
        {
          "internalType": "uint256",
          "name": "amount1",
          "type": "uint256"
        }
      ],
      "stateMutability": "nonpayable",
      "type": "function"
    },
    {
      "inputs": [
        {
          "internalType": "uint256",
          "name": "_GHOAmount",
          "type": "uint256"
        },
        {
          "internalType": "uint256",
          "name": "_tokenId",
          "type": "uint256"
        }
      ],
      "name": "borrowGHO",
      "outputs": [],
      "stateMutability": "payable",
      "type": "function"
    },
    {
      "inputs": [
        {
          "internalType": "uint256",
          "name": "_tokenId",
          "type": "uint256"
        }
      ],
      "name": "closePosition",
      "outputs": [],
      "stateMutability": "nonpayable",
      "type": "function"
    },
    {
      "inputs": [
        {
          "internalType": "uint256",
          "name": "_tokenId",
          "type": "uint256"
        }
      ],
      "name": "openPosition",
      "outputs": [],
      "stateMutability": "nonpayable",
      "type": "function"
    },
    {
      "inputs": [],
      "name": "owner",
      "outputs": [
        {
          "internalType": "address",
          "name": "",
          "type": "address"
        }
      ],
      "stateMutability": "view",
      "type": "function"
    },
    {
      "inputs": [
        {
          "internalType": "uint256",
          "name": "_tokenId",
          "type": "uint256"
        },
        {
          "internalType": "uint128",
          "name": "_liquidityToRemove",
          "type": "uint128"
        }
      ],
      "name": "removeCollateral",
      "outputs": [
        {
          "internalType": "uint256",
          "name": "amount0",
          "type": "uint256"
        },
        {
          "internalType": "uint256",
          "name": "amount1",
          "type": "uint256"
        }
      ],
      "stateMutability": "nonpayable",
      "type": "function"
    },
    {
      "inputs": [],
      "name": "renounceOwnership",
      "outputs": [],
      "stateMutability": "nonpayable",
      "type": "function"
    },
    {
      "inputs": [
        {
          "internalType": "uint256",
          "name": "_GHOAmount",
          "type": "uint256"
        },
        {
          "internalType": "uint256",
          "name": "_tokenId",
          "type": "uint256"
        }
      ],
      "name": "repayGHO",
      "outputs": [],
      "stateMutability": "nonpayable",
      "type": "function"
    },
    {
      "inputs": [
        {
          "internalType": "address",
          "name": "_lpPositionsManagerAddress",
          "type": "address"
        },
        {
          "internalType": "address",
          "name": "_activePoolAddress",
          "type": "address"
        }
      ],
      "name": "setAddresses",
      "outputs": [],
      "stateMutability": "nonpayable",
      "type": "function"
    },
    {
      "inputs": [
        {
          "internalType": "address",
          "name": "newOwner",
          "type": "address"
        }
      ],
      "name": "transferOwnership",
      "outputs": [],
      "stateMutability": "nonpayable",
      "type": "function"
    }
  ],
  "bytecode": {
    "object": "0x608060405234801561001057600080fd5b5061001a33610023565b60018055610073565b600080546001600160a01b038381166001600160a01b0319831681178455604051919092169283917f8be0079c531659141344cd1fd0a4f28419497f9722a3daafe3b4186f6b6457e09190a35050565b611e1b806100826000396000f3fe6080604052600436106100915760003560e01c806390107afe1161005957806390107afe1461014257806399ff820314610162578063a126d60114610182578063c861c6e6146101a2578063f2fde38b146101e757600080fd5b8063412de244146100965780635f07dcd4146100d0578063715018a6146100e55780637c6aad58146100fa5780638da5cb5b1461011a575b600080fd5b3480156100a257600080fd5b506100b66100b1366004611999565b610207565b604080519283526020830191909152015b60405180910390f35b6100e36100de3660046119c9565b6106a3565b005b3480156100f157600080fd5b506100e3610a61565b34801561010657600080fd5b506100e36101153660046119c9565b610a75565b34801561012657600080fd5b506000546040516001600160a01b0390911681526020016100c7565b34801561014e57600080fd5b506100e361015d366004611a00565b610f4c565b34801561016e57600080fd5b506100e361017d366004611a2e565b610ff5565b34801561018e57600080fd5b506100e361019d366004611a2e565b6111d7565b3480156101ae57600080fd5b506101c26101bd366004611a47565b6114b7565b604080516001600160801b0390941684526020840192909252908201526060016100c7565b3480156101f357600080fd5b506100e3610202366004611a73565b611808565b600080610212611881565b83600160035460405163eb02c30160e01b8152600481018490526001600160a01b039091169063eb02c3019060240161018060405180830381865afa15801561025f573d6000803e3d6000fd5b505050506040513d601f19601f820116820180604052508101906102839190611b34565b6101200151600381111561029957610299611a97565b146102bf5760405163162849b360e31b8152600481018290526024015b60405180910390fd5b60035460405163eb02c30160e01b8152600481018790528691339182916001600160a01b03169063eb02c3019060240161018060405180830381865afa15801561030d573d6000803e3d6000fd5b505050506040513d601f19601f820116820180604052508101906103319190611b34565b516001600160a01b03161461035c576040516307fbd4f360e11b8152600481018390526024016102b6565b60035460405163eb02c30160e01b8152600481018990526000916001600160a01b03169063eb02c3019060240161018060405180830381865afa1580156103a7573d6000803e3d6000fd5b505050506040513d601f19601f820116820180604052508101906103cb9190611b34565b90508060c001516001600160801b0316876001600160801b0316111561041d5760c081015160405163272afba160e21b81526001600160801b03808a16600483015290911660248201526044016102b6565b6002546040516303f8d17b60e21b8152600481018a90526001600160801b03891660248201523360448201526001600160a01b0390911690630fe345ec9060640160408051808303816000875af115801561047c573d6000803e3d6000fd5b505050506040513d601f19601f820116820180604052508101906104a09190611c0d565b5050600354604051633eba8c4b60e11b8152600481018a90526001600160a01b0390911690637d751896906024016020604051808303816000875af11580156104ed573d6000803e3d6000fd5b505050506040513d601f19601f820116820180604052508101906105119190611c31565b1561052e5760405162461bcd60e51b81526004016102b690611c53565b6002546040516303f8d17b60e21b8152600481018a90526001600160801b03891660248201523360448201526001600160a01b0390911690630fe345ec9060640160408051808303816000875af115801561058d573d6000803e3d6000fd5b505050506040513d601f19601f820116820180604052508101906105b19190611c0d565b5050600354604051633eba8c4b60e11b8152600481018a90526001600160a01b0390911690637d751896906024016020604051808303816000875af11580156105fe573d6000803e3d6000fd5b505050506040513d601f19601f820116820180604052508101906106229190611c31565b1561063f5760405162461bcd60e51b81526004016102b690611c53565b604080518981526001600160801b0389166020820152908101879052606081018690527f45b564f0b0bbe47be0543ce1ae1d2eba610d8f3b44ccad8bdd530a4f063262129060800160405180910390a15050505061069c60018055565b9250929050565b6106ab611881565b80600160035460405163eb02c30160e01b8152600481018490526001600160a01b039091169063eb02c3019060240161018060405180830381865afa1580156106f8573d6000803e3d6000fd5b505050506040513d601f19601f8201168201806040525081019061071c9190611b34565b6101200151600381111561073257610732611a97565b146107535760405163162849b360e31b8152600481018290526024016102b6565b60035460405163eb02c30160e01b8152600481018490528391339182916001600160a01b03169063eb02c3019060240161018060405180830381865afa1580156107a1573d6000803e3d6000fd5b505050506040513d601f19601f820116820180604052508101906107c59190611b34565b516001600160a01b0316146107f0576040516307fbd4f360e11b8152600481018390526024016102b6565b6000851161081157604051631382457760e11b815260040160405180910390fd5b600260009054906101000a90046001600160a01b03166001600160a01b0316634c0f38c26040518163ffffffff1660e01b8152600401602060405180830381865afa158015610864573d6000803e3d6000fd5b505050506040513d601f19601f820116820180604052508101906108889190611cbc565b600254604080516379089dad60e11b8152905188926001600160a01b03169163f2113b5a9160048083019260209291908290030181865afa1580156108d1573d6000803e3d6000fd5b505050506040513d601f19601f820116820180604052508101906108f59190611cbc565b6108ff9190611ceb565b111561091e576040516337cff56360e01b815260040160405180910390fd5b600254604051633372082960e21b815260048101879052336024820152604481018690526001600160a01b039091169063cdc820a490606401600060405180830381600087803b15801561097157600080fd5b505af1158015610985573d6000803e3d6000fd5b5050600354604051633eba8c4b60e11b8152600481018890526001600160a01b039091169250637d75189691506024016020604051808303816000875af11580156109d4573d6000803e3d6000fd5b505050506040513d601f19601f820116820180604052508101906109f89190611c31565b15610a1657604051636dac06f960e01b815260040160405180910390fd5b7f20a9ef2e566b762b67b22730a425210423c3e6f8076175e629344561476a60b3338686604051610a4993929190611d04565b60405180910390a1505050610a5d60018055565b5050565b610a696118da565b610a736000611934565b565b610a7d611881565b80600160035460405163eb02c30160e01b8152600481018490526001600160a01b039091169063eb02c3019060240161018060405180830381865afa158015610aca573d6000803e3d6000fd5b505050506040513d601f19601f82011682018060405250810190610aee9190611b34565b61012001516003811115610b0457610b04611a97565b14610b255760405163162849b360e31b8152600481018290526024016102b6565b60035460405163eb02c30160e01b8152600481018490528391339182916001600160a01b03169063eb02c3019060240161018060405180830381865afa158015610b73573d6000803e3d6000fd5b505050506040513d601f19601f82011682018060405250810190610b979190611b34565b516001600160a01b031614610bc2576040516307fbd4f360e11b8152600481018390526024016102b6565b600354604051632f5ef96960e21b8152600481018690526001600160a01b039091169063bd7be5a490602401602060405180830381865afa158015610c0b573d6000803e3d6000fd5b505050506040513d601f19601f82011682018060405250810190610c2f9190611cbc565b851115610cc557600354604051632f5ef96960e21b81526004810186905286916001600160a01b03169063bd7be5a490602401602060405180830381865afa158015610c7f573d6000803e3d6000fd5b505050506040513d601f19601f82011682018060405250810190610ca39190611cbc565b60405163d443138b60e01b8152600481019290925260248201526044016102b6565b60008511610ce657604051631382457760e11b815260040160405180910390fd5b6002546040516362ba6e4560e11b8152600481018690526000916001600160a01b03169063c574dc8a90602401602060405180830381865afa158015610d30573d6000803e3d6000fd5b505050506040513d601f19601f82011682018060405250810190610d549190611d25565b6001600160a01b0316637f2f638c6040518163ffffffff1660e01b8152600401602060405180830381865afa158015610d91573d6000803e3d6000fd5b505050506040513d601f19601f82011682018060405250810190610db59190611cbc565b9050808610610e9d57600254604051636616747b60e01b81526001600160a01b0390911690636616747b90610df290339085908a90600401611d04565b600060405180830381600087803b158015610e0c57600080fd5b505af1158015610e20573d6000803e3d6000fd5b50506002546001600160a01b03169150631b28f7c2905086610e42848a611d42565b6040516001600160e01b031960e085901b16815260048101929092526024820152604401600060405180830381600087803b158015610e8057600080fd5b505af1158015610e94573d6000803e3d6000fd5b50505050610f04565b600254604051636616747b60e01b81526001600160a01b0390911690636616747b90610ed19033908a908a90600401611d04565b600060405180830381600087803b158015610eeb57600080fd5b505af1158015610eff573d6000803e3d6000fd5b505050505b7f9a09ac31c6e62f36f7615038a9b674a11d679c68946c77d64eeff3630297a688338787604051610f3793929190611d04565b60405180910390a150505050610a5d60018055565b610f546118da565b600380546001600160a01b038481166001600160a01b0319928316811790935560028054918516919092161790556040519081527fca22f0accfacdc2ef491a88279142950b7e7f2b23c1b4c706f4eedf1653b1d6f9060200160405180910390a16040516001600160a01b03821681527f78f058b189175430c48dc02699e3a0031ea4ff781536dc2fab847de4babdd8829060200160405180910390a15050565b80600160035460405163eb02c30160e01b8152600481018490526001600160a01b039091169063eb02c3019060240161018060405180830381865afa158015611042573d6000803e3d6000fd5b505050506040513d601f19601f820116820180604052508101906110669190611b34565b6101200151600381111561107c5761107c611a97565b0361109d576040516302f9cdcd60e01b8152600481018290526024016102b6565b6002546040516323b872dd60e01b81523360048201526001600160a01b0390911660248201526044810183905273c36442b4a4522e871399cd717abdd847ab11fe88906323b872dd90606401600060405180830381600087803b15801561110357600080fd5b505af1158015611117573d6000803e3d6000fd5b50506040805180820182526003546001600160a01b039081168083526002549091166020830152915163065e25ff60e21b81523360048201526024810187905290935090915063197897fc90604401600060405180830381600087803b15801561118057600080fd5b505af1158015611194573d6000803e3d6000fd5b505060408051338152602081018790527f88211e5e51329f4afd00f215661fc24f92bc2afdd30b6c391b9f8bdd0b371ec2935001905060405180910390a1505050565b80600160035460405163eb02c30160e01b8152600481018490526001600160a01b039091169063eb02c3019060240161018060405180830381865afa158015611224573d6000803e3d6000fd5b505050506040513d601f19601f820116820180604052508101906112489190611b34565b6101200151600381111561125e5761125e611a97565b1461127f5760405163162849b360e31b8152600481018290526024016102b6565b60035460405163eb02c30160e01b8152600481018490528391339182916001600160a01b03169063eb02c3019060240161018060405180830381865afa1580156112cd573d6000803e3d6000fd5b505050506040513d601f19601f820116820180604052508101906112f19190611b34565b516001600160a01b03161461131c576040516307fbd4f360e11b8152600481018390526024016102b6565b600354604051632f5ef96960e21b8152600481018690526000916001600160a01b03169063bd7be5a490602401602060405180830381865afa158015611366573d6000803e3d6000fd5b505050506040513d601f19601f8201168201806040525081019061138a9190611cbc565b905080156113ae5760405163541e4b7f60e11b8152600481018290526024016102b6565b600254604051634f5e933f60e01b8152336004820152602481018790526001600160a01b0390911690634f5e933f90604401600060405180830381600087803b1580156113fa57600080fd5b505af115801561140e573d6000803e3d6000fd5b5050600354604051631455249360e11b81526001600160a01b0390911692506328aa49269150611445908890600290600401611d55565b600060405180830381600087803b15801561145f57600080fd5b505af1158015611473573d6000803e3d6000fd5b505060408051338152602081018990527e7ad9549f5f80c274c739b9a69d3d4a9b04e3d2cf2b580837ecb042bd0e734f935001905060405180910390a15050505050565b60008060006114c4611881565b85600160035460405163eb02c30160e01b8152600481018490526001600160a01b039091169063eb02c3019060240161018060405180830381865afa158015611511573d6000803e3d6000fd5b505050506040513d601f19601f820116820180604052508101906115359190611b34565b6101200151600381111561154b5761154b611a97565b1461156c5760405163162849b360e31b8152600481018290526024016102b6565b60035460405163eb02c30160e01b8152600481018990528891339182916001600160a01b03169063eb02c3019060240161018060405180830381865afa1580156115ba573d6000803e3d6000fd5b505050506040513d601f19601f820116820180604052508101906115de9190611b34565b516001600160a01b031614611609576040516307fbd4f360e11b8152600481018390526024016102b6565b871580611614575086155b1561163257604051631382457760e11b815260040160405180910390fd5b60025460405163297fabf560e01b8152336004820152602481018b9052604481018a9052606481018990526001600160a01b039091169063297fabf5906084016060604051808303816000875af1158015611691573d6000803e3d6000fd5b505050506040513d601f19601f820116820180604052508101906116b59190611d87565b60035460405163eb02c30160e01b8152600481018e905293995091975095506001600160a01b0316906323f0f0af908b908990849063eb02c3019060240161018060405180830381865afa158015611711573d6000803e3d6000fd5b505050506040513d601f19601f820116820180604052508101906117359190611b34565b60c001516117439190611dbe565b6040516001600160e01b031960e085901b16815260048101929092526001600160801b03166024820152604401600060405180830381600087803b15801561178a57600080fd5b505af115801561179e573d6000803e3d6000fd5b5050604080518c81526001600160801b038a166020820152908101889052606081018790527f6d546c13142e758dd0fa5ab7facb920c0216410a5ab04ee9ea15412e44e76c509250608001905060405180910390a15050506117ff60018055565b93509350939050565b6118106118da565b6001600160a01b0381166118755760405162461bcd60e51b815260206004820152602660248201527f4f776e61626c653a206e6577206f776e657220697320746865207a65726f206160448201526564647265737360d01b60648201526084016102b6565b61187e81611934565b50565b6002600154036118d35760405162461bcd60e51b815260206004820152601f60248201527f5265656e7472616e637947756172643a207265656e7472616e742063616c6c0060448201526064016102b6565b6002600155565b6000546001600160a01b03163314610a735760405162461bcd60e51b815260206004820181905260248201527f4f776e61626c653a2063616c6c6572206973206e6f7420746865206f776e657260448201526064016102b6565b600080546001600160a01b038381166001600160a01b0319831681178455604051919092169283917f8be0079c531659141344cd1fd0a4f28419497f9722a3daafe3b4186f6b6457e09190a35050565b6001600160801b038116811461187e57600080fd5b600080604083850312156119ac57600080fd5b8235915060208301356119be81611984565b809150509250929050565b600080604083850312156119dc57600080fd5b50508035926020909101359150565b6001600160a01b038116811461187e57600080fd5b60008060408385031215611a1357600080fd5b8235611a1e816119eb565b915060208301356119be816119eb565b600060208284031215611a4057600080fd5b5035919050565b600080600060608486031215611a5c57600080fd5b505081359360208301359350604090920135919050565b600060208284031215611a8557600080fd5b8135611a90816119eb565b9392505050565b634e487b7160e01b600052602160045260246000fd5b604051610180810167ffffffffffffffff81118282101715611adf57634e487b7160e01b600052604160045260246000fd5b60405290565b8051611af0816119eb565b919050565b805162ffffff81168114611af057600080fd5b8051600281900b8114611af057600080fd5b8051611af081611984565b805160048110611af057600080fd5b60006101808284031215611b4757600080fd5b611b4f611aad565b611b5883611ae5565b8152611b6660208401611ae5565b6020820152611b7760408401611ae5565b6040820152611b8860608401611af5565b6060820152611b9960808401611b08565b6080820152611baa60a08401611b08565b60a0820152611bbb60c08401611b1a565b60c0820152611bcc60e08401611ae5565b60e08201526101008381015190820152610120611bea818501611b25565b908201526101408381015190820152610160928301519281019290925250919050565b60008060408385031215611c2057600080fd5b505080516020909101519092909150565b600060208284031215611c4357600080fd5b81518015158114611a9057600080fd5b60208082526043908201527f436f6c6c61746572616c20526174696f2063616e6e6f74206265206c6f77657260408201527f207468616e20746865206d696e696d756d20636f6c6c61746572616c2072617460608201526234b79760e91b608082015260a00190565b600060208284031215611cce57600080fd5b5051919050565b634e487b7160e01b600052601160045260246000fd5b80820180821115611cfe57611cfe611cd5565b92915050565b6001600160a01b039390931683526020830191909152604082015260600190565b600060208284031215611d3757600080fd5b8151611a90816119eb565b81810381811115611cfe57611cfe611cd5565b8281526040810160048310611d7a57634e487b7160e01b600052602160045260246000fd5b8260208301529392505050565b600080600060608486031215611d9c57600080fd5b8351611da781611984565b602085015160409095015190969495509392505050565b6001600160801b03818116838216019080821115611dde57611dde611cd5565b509291505056fea2646970667358221220c152dc6b303ecf2938e4bccbdb26e374f80ed2bf556df8d8580e57d1aef0d7df64736f6c63430008110033",
    "linkReferences": {}
  },
  "methodIdentifiers": {
    "addCollateral(uint256,uint256,uint256)": "c861c6e6",
    "borrowGHO(uint256,uint256)": "5f07dcd4",
    "closePosition(uint256)": "a126d601",
    "openPosition(uint256)": "99ff8203",
    "owner()": "8da5cb5b",
    "removeCollateral(uint256,uint128)": "412de244",
    "renounceOwnership()": "715018a6",
    "repayGHO(uint256,uint256)": "7c6aad58",
    "setAddresses(address,address)": "90107afe",
    "transferOwnership(address)": "f2fde38b"
  },
  "id": 1
}