{
  "abi": [
    {
      "anonymous": false,
      "inputs": [
        {
          "indexed": true,
          "internalType": "address",
          "name": "previousOwner",
          "type": "address"
        },
        {
          "indexed": true,
          "internalType": "address",
          "name": "newOwner",
          "type": "address"
        }
      ],
      "name": "OwnershipTransferred",
      "type": "event"
    },
    {
      "inputs": [
        {
          "internalType": "address",
          "name": "_tokenAddress",
          "type": "address"
        },
        {
          "internalType": "address",
          "name": "_quote",
          "type": "address"
        }
      ],
      "name": "getPrice",
      "outputs": [
        {
          "internalType": "uint256",
          "name": "",
          "type": "uint256"
        }
      ],
      "stateMutability": "view",
      "type": "function"
    },
    {
      "inputs": [
        {
          "internalType": "address",
          "name": "_feedRegistryAddr",
          "type": "address"
        }
      ],
      "name": "initialize",
      "outputs": [],
      "stateMutability": "nonpayable",
      "type": "function"
    },
    {
      "inputs": [],
      "name": "lastGoodPrice",
      "outputs": [
        {
          "internalType": "uint256",
          "name": "",
          "type": "uint256"
        }
      ],
      "stateMutability": "view",
      "type": "function"
    },
    {
      "inputs": [],
      "name": "owner",
      "outputs": [
        {
          "internalType": "address",
          "name": "",
          "type": "address"
        }
      ],
      "stateMutability": "view",
      "type": "function"
    },
    {
      "inputs": [],
      "name": "renounceOwnership",
      "outputs": [],
      "stateMutability": "nonpayable",
      "type": "function"
    },
    {
      "inputs": [
        {
          "internalType": "address",
          "name": "newOwner",
          "type": "address"
        }
      ],
      "name": "transferOwnership",
      "outputs": [],
      "stateMutability": "nonpayable",
      "type": "function"
    }
  ],
  "bytecode": {
    "object": "0x608060405234801561001057600080fd5b5061001a3361001f565b61006f565b600080546001600160a01b038381166001600160a01b0319831681178455604051919092169283917f8be0079c531659141344cd1fd0a4f28419497f9722a3daafe3b4186f6b6457e09190a35050565b6105aa8061007e6000396000f3fe608060405234801561001057600080fd5b50600436106100625760003560e01c80630490be8314610067578063715018a6146100835780638da5cb5b1461008d578063ac41865a146100a8578063c4d66de8146100bb578063f2fde38b146100ce575b600080fd5b61007060055481565b6040519081526020015b60405180910390f35b61008b6100e1565b005b6000546040516001600160a01b03909116815260200161007a565b6100706100b63660046104b5565b6100f5565b61008b6100c93660046104e8565b61016d565b61008b6100dc3660046104e8565b610197565b6100e9610215565b6100f3600061026f565b565b60006001600160a01b03831673c02aaa39b223fe8d0a0e5c4f27ead9083c756cc214801561013f57506001600160a01b03821673eeeeeeeeeeeeeeeeeeeeeeeeeeeeeeeeeeeeeeee145b156101535750670de0b6b3a7640000610167565b600061015f84846102bf565b602001519150505b92915050565b610175610215565b600480546001600160a01b0319166001600160a01b0392909216919091179055565b61019f610215565b6001600160a01b0381166102095760405162461bcd60e51b815260206004820152602660248201527f4f776e61626c653a206e6577206f776e657220697320746865207a65726f206160448201526564647265737360d01b60648201526084015b60405180910390fd5b6102128161026f565b50565b6000546001600160a01b031633146100f35760405162461bcd60e51b815260206004820181905260248201527f4f776e61626c653a2063616c6c6572206973206e6f7420746865206f776e65726044820152606401610200565b600080546001600160a01b038381166001600160a01b0319831681178455604051919092169283917f8be0079c531659141344cd1fd0a4f28419497f9722a3daafe3b4186f6b6457e09190a35050565b6040805160a0810182526000808252602082018190529181018290526060810182905260808101919091526001600160a01b038216158061035b57506001600160a01b038216610348148061033157506001600160a01b03821673eeeeeeeeeeeeeeeeeeeeeeeeeeeeeeeeeeeeeeee14155b8061035957506001600160a01b03821673bbbbbbbbbbbbbbbbbbbbbbbbbbbbbbbbbbbbbbbb14155b155b1561036557600080fd5b6004805460405163bcfd032d60e01b81526001600160a01b038681169382019390935284831660248201526000928392839291169063bcfd032d9060440160a060405180830381865afa1580156103c0573d6000803e3d6000fd5b505050506040513d601f19601f820116820180604052508101906103e49190610524565b5069ffffffffffffffffffff8416885260208801839052604088018190526001606089015292955090935090915050610347196001600160a01b038616016104325760086080850152610490565b73eeeeeeeeeeeeeeeeeeeeeeeeeeeeeeeeeeeeeeed196001600160a01b038616016104635760126080850152610490565b73bbbbbbbbbbbbbbbbbbbbbbbbbbbbbbbbbbbbbbba196001600160a01b0386160161049057600860808501525b50505092915050565b80356001600160a01b03811681146104b057600080fd5b919050565b600080604083850312156104c857600080fd5b6104d183610499565b91506104df60208401610499565b90509250929050565b6000602082840312156104fa57600080fd5b61050382610499565b9392505050565b805169ffffffffffffffffffff811681146104b057600080fd5b600080600080600060a0868803121561053c57600080fd5b6105458661050a565b94506020860151935060408601519250606086015191506105686080870161050a565b9050929550929590935056fea26469706673582212201db159096fc64628cf63aa77f5ae6d6e125cdab8ea8bf97b5aa0ce39606decf564736f6c63430008110033",
    "linkReferences": {}
  },
  "methodIdentifiers": {
    "getPrice(address,address)": "ac41865a",
    "initialize(address)": "c4d66de8",
    "lastGoodPrice()": "0490be83",
    "owner()": "8da5cb5b",
    "renounceOwnership()": "715018a6",
    "transferOwnership(address)": "f2fde38b"
  },
  "id": 2
}