{
  "abi": [
    {
      "inputs": [],
      "name": "T",
      "type": "error"
    },
    {
      "anonymous": false,
      "inputs": [
        {
          "indexed": false,
          "internalType": "uint256",
          "name": "_lastGoodPrice",
          "type": "uint256"
        }
      ],
      "name": "LastGoodPriceUpdated",
      "type": "event"
    },
    {
      "anonymous": false,
      "inputs": [
        {
          "indexed": true,
          "internalType": "address",
          "name": "previousOwner",
          "type": "address"
        },
        {
          "indexed": true,
          "internalType": "address",
          "name": "newOwner",
          "type": "address"
        }
      ],
      "name": "OwnershipTransferred",
      "type": "event"
    },
    {
      "anonymous": false,
      "inputs": [
        {
          "indexed": false,
          "internalType": "enum IPriceFeed.OracleStatus",
          "name": "newStatus",
          "type": "uint8"
        }
      ],
      "name": "PriceFeedStatusChanged",
      "type": "event"
    },
    {
      "anonymous": false,
      "inputs": [
        {
          "indexed": false,
          "internalType": "address",
          "name": "_token",
          "type": "address"
        },
        {
          "indexed": false,
          "internalType": "address",
          "name": "_pool",
          "type": "address"
        },
        {
          "indexed": false,
          "internalType": "uint256",
          "name": "_time",
          "type": "uint256"
        }
      ],
      "name": "TokenAddedToPool",
      "type": "event"
    },
    {
      "inputs": [],
      "name": "MAX_PRICE_DIFFERENCE_BETWEEN_ORACLES",
      "outputs": [
        {
          "internalType": "uint256",
          "name": "",
          "type": "uint256"
        }
      ],
      "stateMutability": "view",
      "type": "function"
    },
    {
      "inputs": [
        {
          "internalType": "address",
          "name": "_tokenAddress",
          "type": "address"
        }
      ],
      "name": "_getChainlinkResponse",
      "outputs": [
        {
          "components": [
            {
              "internalType": "uint80",
              "name": "roundId",
              "type": "uint80"
            },
            {
              "internalType": "uint256",
              "name": "answer",
              "type": "uint256"
            },
            {
              "internalType": "uint256",
              "name": "timestamp",
              "type": "uint256"
            },
            {
              "internalType": "bool",
              "name": "success",
              "type": "bool"
            },
            {
              "internalType": "uint8",
              "name": "decimals",
              "type": "uint8"
            }
          ],
          "internalType": "struct UniswapPriceFeed.ChainlinkResponse",
          "name": "chainlinkResponse",
          "type": "tuple"
        }
      ],
      "stateMutability": "nonpayable",
      "type": "function"
    },
    {
      "inputs": [
        {
          "internalType": "address",
          "name": "_tokenAddress",
          "type": "address"
        }
      ],
      "name": "_getUniv3TWAPResponse",
      "outputs": [
        {
          "components": [
            {
              "internalType": "uint256",
              "name": "answer",
              "type": "uint256"
            },
            {
              "internalType": "uint256",
              "name": "timestamp",
              "type": "uint256"
            },
            {
              "internalType": "bool",
              "name": "success",
              "type": "bool"
            }
          ],
          "internalType": "struct UniswapPriceFeed.UniV3TWAPResponse",
          "name": "uniV3TWAPResponse",
          "type": "tuple"
        }
      ],
      "stateMutability": "view",
      "type": "function"
    },
    {
      "inputs": [
        {
          "internalType": "address",
          "name": "token",
          "type": "address"
        }
      ],
      "name": "fetchDollarPrice",
      "outputs": [
        {
          "internalType": "uint256",
          "name": "priceX96",
          "type": "uint256"
        }
      ],
      "stateMutability": "view",
      "type": "function"
    },
    {
      "inputs": [
        {
          "internalType": "address",
          "name": "_tokenAddress",
          "type": "address"
        }
      ],
      "name": "fetchPrice",
      "outputs": [
        {
          "internalType": "uint256",
          "name": "",
          "type": "uint256"
        }
      ],
      "stateMutability": "nonpayable",
      "type": "function"
    },
    {
      "inputs": [
        {
          "internalType": "address",
          "name": "_userInteractionAddress",
          "type": "address"
        }
      ],
      "name": "initialize",
      "outputs": [],
      "stateMutability": "nonpayable",
      "type": "function"
    },
    {
      "inputs": [],
      "name": "lastGoodPrice",
      "outputs": [
        {
          "internalType": "uint256",
          "name": "",
          "type": "uint256"
        }
      ],
      "stateMutability": "view",
      "type": "function"
    },
    {
      "inputs": [],
      "name": "oracleStatus",
      "outputs": [
        {
          "internalType": "enum IPriceFeed.OracleStatus",
          "name": "",
          "type": "uint8"
        }
      ],
      "stateMutability": "view",
      "type": "function"
    },
    {
      "inputs": [],
      "name": "owner",
      "outputs": [
        {
          "internalType": "address",
          "name": "",
          "type": "address"
        }
      ],
      "stateMutability": "view",
      "type": "function"
    },
    {
      "inputs": [],
      "name": "renounceOwnership",
      "outputs": [],
      "stateMutability": "nonpayable",
      "type": "function"
    },
    {
      "inputs": [
        {
          "internalType": "address",
          "name": "newOwner",
          "type": "address"
        }
      ],
      "name": "transferOwnership",
      "outputs": [],
      "stateMutability": "nonpayable",
      "type": "function"
    }
  ],
  "bytecode": {
    "object": "0x60806040526000805463ffffffff60a01b1916600f60a21b17905534801561002657600080fd5b5061003033610035565b610085565b600080546001600160a01b038381166001600160a01b0319831681178455604051919092169283917f8be0079c531659141344cd1fd0a4f28419497f9722a3daafe3b4186f6b6457e09190a35050565b611219806100946000396000f3fe608060405234801561001057600080fd5b50600436106100a95760003560e01c80638da5cb5b116100715780638da5cb5b1461017f578063994c821d1461019a578063ace1798e146101b4578063c4d66de8146101c7578063f2fde38b146101da578063f5784deb146101ed57600080fd5b80630490be83146100ae57806345079cb4146100ca57806351612243146100d8578063715018a61461010f5780638628521014610119575b600080fd5b6100b760065481565b6040519081526020015b60405180910390f35b6100b766b1a2bc2ec5000081565b6100eb6100e6366004610d77565b610201565b604080518251815260208084015190820152918101511515908201526060016100c1565b610117610319565b005b61012c610127366004610d77565b61032d565b6040516100c19190600060a08201905069ffffffffffffffffffff8351168252602083015160208301526040830151604083015260608301511515606083015260ff608084015116608083015292915050565b6000546040516001600160a01b0390911681526020016100c1565b6007546101a79060ff1681565b6040516100c19190610daa565b6100b76101c2366004610d77565b6104c4565b6101176101d5366004610d77565b61058f565b6101176101e8366004610d77565b6105c3565b6100b76101fb366004610d77565b50600090565b610227604051806060016040528060008152602001600081526020016000151581525090565b73c02aaa39b223fe8d0a0e5c4f27ead9083c756cc1196001600160a01b0383160161026557600160601b815260016040820152426020820152919050565b6001600160a01b038281166000908152600460205260408120548154919261029c92911690600160a01b900463ffffffff16610641565b50905060006102aa8261088b565b905060006102c66001600160a01b03831680600160601b610bae565b6001600160a01b038616600090815260046020526040902054909150600160a01b900460ff161561030357610300600160601b8083610bae565b90505b8352505060016040820152426020820152919050565b610321610c61565b61032b6000610cbb565b565b6040805160a080820183526000808352602080840182905283850182905260608401829052608084018290526001600160a01b03868116835260049182905285832054600380546001600160a01b031916919092169081179091558551633fabe5a360e21b815295519495929485948594929363feaf968c938082019391908290030181865afa1580156103c5573d6000803e3d6000fd5b505050506040513d601f19601f820116820180604052508101906103e99190610df1565b509350509250925073c02aaa39b223fe8d0a0e5c4f27ead9083c756cc26001600160a01b0316856001600160a01b03160361042657600160601b91505b69ffffffffffffffffffff831684526020808501839052604080860183905260016060870152600354815163313ce56760e01b815291516001600160a01b039091169263313ce56792600480820193918290030181865afa15801561048f573d6000803e3d6000fd5b505050506040513d601f19601f820116820180604052508101906104b39190610e41565b60ff16608085015250919392505050565b600654600090816104d484610201565b905060006104e18561032d565b9050600060075460ff1660028111156104fc576104fc610d94565b036105365766b1a2bc2ec500006105138383610d0b565b116105215781519250610536565b6007805460ff19166001179055602081015192505b600160075460ff16600281111561054f5761054f610d94565b036105865766b1a2bc2ec500006105668383610d0b565b1161057e576007805460ff1916905581519250610586565b806020015192505b50909392505050565b610597610c61565b600180546001600160a01b0319166001600160a01b03929092169190911790556007805460ff19169055565b6105cb610c61565b6001600160a01b0381166106355760405162461bcd60e51b815260206004820152602660248201527f4f776e61626c653a206e6577206f776e657220697320746865207a65726f206160448201526564647265737360d01b60648201526084015b60405180910390fd5b61063e81610cbb565b50565b6000808263ffffffff1660000361067f5760405162461bcd60e51b8152602060048201526002602482015261042560f41b604482015260640161062c565b60408051600280825260608201835260009260208301908036833701905050905083816000815181106106b4576106b4610e7a565b602002602001019063ffffffff16908163ffffffff16815250506000816001815181106106e3576106e3610e7a565b602002602001019063ffffffff16908163ffffffff1681525050600080866001600160a01b031663883bdbfd846040518263ffffffff1660e01b815260040161072c9190610e90565b600060405180830381865afa158015610749573d6000803e3d6000fd5b505050506040513d6000823e601f3d908101601f191682016040526107719190810190610fa3565b9150915060008260008151811061078a5761078a610e7a565b6020026020010151836001815181106107a5576107a5610e7a565b60200260200101516107b79190611085565b90506000826000815181106107ce576107ce610e7a565b6020026020010151836001815181106107e9576107e9610e7a565b60200260200101516107fb91906110b8565b905061080d63ffffffff8916836110f5565b965060008260060b128015610833575061082d63ffffffff891683611133565b60060b15155b15610846578661084281611155565b9750505b600061085f6001600160a01b0363ffffffff8b16611178565b905061087c640100000000600160c01b03602084901b16826111aa565b96505050505050509250929050565b60008060008360020b126108a2578260020b6108aa565b8260020b6000035b9050620d89e88111156108d0576040516315e4079d60e11b815260040160405180910390fd5b6000816001166000036108e757600160801b6108f9565b6ffffcb933bd6fad37aa2d162d1a5940015b70ffffffffffffffffffffffffffffffffff169050600282161561092d576ffff97272373d413259a46990580e213a0260801c5b600482161561094c576ffff2e50f5f656932ef12357cf3c7fdcc0260801c5b600882161561096b576fffe5caca7e10e4e61c3624eaa0941cd00260801c5b601082161561098a576fffcb9843d60f6159c9db58835c9266440260801c5b60208216156109a9576fff973b41fa98c081472e6896dfb254c00260801c5b60408216156109c8576fff2ea16466c96a3843ec78b326b528610260801c5b60808216156109e7576ffe5dee046a99a2a811c461f1969c30530260801c5b610100821615610a07576ffcbe86c7900a88aedcffc83b479aa3a40260801c5b610200821615610a27576ff987a7253ac413176f2b074cf7815e540260801c5b610400821615610a47576ff3392b0822b70005940c7a398e4b70f30260801c5b610800821615610a67576fe7159475a2c29b7443b29c7fa6e889d90260801c5b611000821615610a87576fd097f3bdfd2022b8845ad8f792aa58250260801c5b612000821615610aa7576fa9f746462d870fdf8a65dc1f90e061e50260801c5b614000821615610ac7576f70d869a156d2a1b890bb3df62baf32f70260801c5b618000821615610ae7576f31be135f97d08fd981231505542fcfa60260801c5b62010000821615610b08576f09aa508b5b7a84e1c677de54f3e99bc90260801c5b62020000821615610b28576e5d6af8dedb81196699c329225ee6040260801c5b62040000821615610b47576d2216e584f5fa1ea926041bedfe980260801c5b62080000821615610b64576b048a170391f7dc42444e8fa20260801c5b60008460020b1315610b85578060001981610b8157610b816110df565b0490505b640100000000810615610b99576001610b9c565b60005b60ff16602082901c0192505050919050565b6000808060001985870985870292508281108382030391505080600003610be75760008411610bdc57600080fd5b508290049050610c5a565b808411610bf357600080fd5b6000848688096000868103871696879004966002600389028118808a02820302808a02820302808a02820302808a02820302808a02820302808a02909103029181900381900460010186841190950394909402919094039290920491909117919091029150505b9392505050565b6000546001600160a01b0316331461032b5760405162461bcd60e51b815260206004820181905260248201527f4f776e61626c653a2063616c6c6572206973206e6f7420746865206f776e6572604482015260640161062c565b600080546001600160a01b038381166001600160a01b0319831681178455604051919092169283917f8be0079c531659141344cd1fd0a4f28419497f9722a3daafe3b4186f6b6457e09190a35050565b81516020820151600091908281831015610d3057610d2983836111d0565b9050610d45565b82821015610d4557610d4282846111d0565b90505b6000610d5682600160601b86610bae565b90505050505092915050565b6001600160a01b038116811461063e57600080fd5b600060208284031215610d8957600080fd5b8135610c5a81610d62565b634e487b7160e01b600052602160045260246000fd5b6020810160038310610dcc57634e487b7160e01b600052602160045260246000fd5b91905290565b805169ffffffffffffffffffff81168114610dec57600080fd5b919050565b600080600080600060a08688031215610e0957600080fd5b610e1286610dd2565b9450602086015193506040860151925060608601519150610e3560808701610dd2565b90509295509295909350565b600060208284031215610e5357600080fd5b815160ff81168114610c5a57600080fd5b634e487b7160e01b600052604160045260246000fd5b634e487b7160e01b600052603260045260246000fd5b6020808252825182820181905260009190848201906040850190845b81811015610ece57835163ffffffff1683529284019291840191600101610eac565b50909695505050505050565b604051601f8201601f1916810167ffffffffffffffff81118282101715610f0357610f03610e64565b604052919050565b600067ffffffffffffffff821115610f2557610f25610e64565b5060051b60200190565b600082601f830112610f4057600080fd5b81516020610f55610f5083610f0b565b610eda565b82815260059290921b84018101918181019086841115610f7457600080fd5b8286015b84811015610f98578051610f8b81610d62565b8352918301918301610f78565b509695505050505050565b60008060408385031215610fb657600080fd5b825167ffffffffffffffff80821115610fce57600080fd5b818501915085601f830112610fe257600080fd5b81516020610ff2610f5083610f0b565b82815260059290921b8401810191818101908984111561101157600080fd5b948201945b8386101561103f5785518060060b81146110305760008081fd5b82529482019490820190611016565b9188015191965090935050508082111561105857600080fd5b5061106585828601610f2f565b9150509250929050565b634e487b7160e01b600052601160045260246000fd5b600682810b9082900b03667fffffffffffff198112667fffffffffffff821317156110b2576110b261106f565b92915050565b6001600160a01b038281168282160390808211156110d8576110d861106f565b5092915050565b634e487b7160e01b600052601260045260246000fd5b60008160060b8360060b8061110c5761110c6110df565b667fffffffffffff1982146000198214161561112a5761112a61106f565b90059392505050565b60008260060b80611146576111466110df565b808360060b0791505092915050565b60008160020b627fffff19810361116e5761116e61106f565b6000190192915050565b6001600160c01b038281168282168181028316929181158285048214176111a1576111a161106f565b50505092915050565b60006001600160c01b03838116806111c4576111c46110df565b92169190910492915050565b818103818111156110b2576110b261106f56fea2646970667358221220fe2229b3e7d242cf9cbb82edd049b430c72ae523e200ba1e2059e7bd581dcaa364736f6c63430008110033",
    "linkReferences": {}
  },
  "methodIdentifiers": {
    "MAX_PRICE_DIFFERENCE_BETWEEN_ORACLES()": "45079cb4",
    "_getChainlinkResponse(address)": "86285210",
    "_getUniv3TWAPResponse(address)": "51612243",
    "fetchDollarPrice(address)": "f5784deb",
    "fetchPrice(address)": "ace1798e",
    "initialize(address)": "c4d66de8",
    "lastGoodPrice()": "0490be83",
    "oracleStatus()": "994c821d",
    "owner()": "8da5cb5b",
    "renounceOwnership()": "715018a6",
    "transferOwnership(address)": "f2fde38b"
  },
  "id": 5
}